{
	"data": {
		"bytecode": {
			"linkReferences": {},
			"object": "608060405234801561001057600080fd5b50610717806100206000396000f3fe608060405234801561001057600080fd5b50600436106100365760003560e01c80631e8cd39d1461003b578063f766a2291461006b575b600080fd5b610055600480360381019061005091906103dc565b61009b565b6040516100629190610434565b60405180910390f35b610085600480360381019061008091906103dc565b61016c565b6040516100929190610434565b60405180910390f35b600080600090505b82518110156101615760006001826100bb91906104a0565b90505b835181101561014d578381815181106100da576100d9610647565b5b602002602001015173ffffffffffffffffffffffffffffffffffffffff1684838151811061010b5761010a610647565b5b602002602001015173ffffffffffffffffffffffffffffffffffffffff16141561013a57600092505050610167565b80806101459061056f565b9150506100be565b5080806101599061056f565b9150506100a3565b50600190505b919050565b600080606467ffffffffffffffff81111561018a57610189610676565b5b6040519080825280602002602001820160405280156101b85781602001602082028036833780820191505090505b50905060005b83518110156103075760008482815181106101dc576101db610647565b5b60200260200101519050600061021260648373ffffffffffffffffffffffffffffffffffffffff1661031390919063ffffffff16565b90508084828151811061022857610227610647565b5b602002602001015173ffffffffffffffffffffffffffffffffffffffff16141561025957600094505050505061030e565b600084828151811061026e5761026d610647565b5b602002602001015173ffffffffffffffffffffffffffffffffffffffff1614156102e757818482815181106102a6576102a5610647565b5b602002602001019073ffffffffffffffffffffffffffffffffffffffff16908173ffffffffffffffffffffffffffffffffffffffff168152505050506102f4565b600094505050505061030e565b80806102ff9061056f565b9150506101be565b5060019150505b919050565b6000818361032191906105b8565b905092915050565b600061033c61033784610474565b61044f565b9050808382526020820190508285602086028201111561035f5761035e6106aa565b5b60005b8581101561038f57816103758882610399565b845260208401935060208301925050600181019050610362565b5050509392505050565b6000813590506103a8816106ca565b92915050565b600082601f8301126103c3576103c26106a5565b5b81356103d3848260208601610329565b91505092915050565b6000602082840312156103f2576103f16106b4565b5b600082013567ffffffffffffffff8111156104105761040f6106af565b5b61041c848285016103ae565b91505092915050565b61042e81610508565b82525050565b60006020820190506104496000830184610425565b92915050565b600061045961046a565b9050610465828261053e565b919050565b6000604051905090565b600067ffffffffffffffff82111561048f5761048e610676565b5b602082029050602081019050919050565b60006104ab82610534565b91506104b683610534565b9250827fffffffffffffffffffffffffffffffffffffffffffffffffffffffffffffffff038211156104eb576104ea6105e9565b5b828201905092915050565b600061050182610514565b9050919050565b60008115159050919050565b600073ffffffffffffffffffffffffffffffffffffffff82169050919050565b6000819050919050565b610547826106b9565b810181811067ffffffffffffffff8211171561056657610565610676565b5b80604052505050565b600061057a82610534565b91507fffffffffffffffffffffffffffffffffffffffffffffffffffffffffffffffff8214156105ad576105ac6105e9565b5b600182019050919050565b60006105c382610534565b91506105ce83610534565b9250826105de576105dd610618565b5b828206905092915050565b7f4e487b7100000000000000000000000000000000000000000000000000000000600052601160045260246000fd5b7f4e487b7100000000000000000000000000000000000000000000000000000000600052601260045260246000fd5b7f4e487b7100000000000000000000000000000000000000000000000000000000600052603260045260246000fd5b7f4e487b7100000000000000000000000000000000000000000000000000000000600052604160045260246000fd5b600080fd5b600080fd5b600080fd5b600080fd5b6000601f19601f8301169050919050565b6106d3816104f6565b81146106de57600080fd5b5056fea26469706673582212209f7afa2b61cb522dc2a46ced613e6a626da5939361ab0d0483bf665fa308316764736f6c63430008070033",
			"opcodes": "PUSH1 0x80 PUSH1 0x40 MSTORE CALLVALUE DUP1 ISZERO PUSH2 0x10 JUMPI PUSH1 0x0 DUP1 REVERT JUMPDEST POP PUSH2 0x717 DUP1 PUSH2 0x20 PUSH1 0x0 CODECOPY PUSH1 0x0 RETURN INVALID PUSH1 0x80 PUSH1 0x40 MSTORE CALLVALUE DUP1 ISZERO PUSH2 0x10 JUMPI PUSH1 0x0 DUP1 REVERT JUMPDEST POP PUSH1 0x4 CALLDATASIZE LT PUSH2 0x36 JUMPI PUSH1 0x0 CALLDATALOAD PUSH1 0xE0 SHR DUP1 PUSH4 0x1E8CD39D EQ PUSH2 0x3B JUMPI DUP1 PUSH4 0xF766A229 EQ PUSH2 0x6B JUMPI JUMPDEST PUSH1 0x0 DUP1 REVERT JUMPDEST PUSH2 0x55 PUSH1 0x4 DUP1 CALLDATASIZE SUB DUP2 ADD SWAP1 PUSH2 0x50 SWAP2 SWAP1 PUSH2 0x3DC JUMP JUMPDEST PUSH2 0x9B JUMP JUMPDEST PUSH1 0x40 MLOAD PUSH2 0x62 SWAP2 SWAP1 PUSH2 0x434 JUMP JUMPDEST PUSH1 0x40 MLOAD DUP1 SWAP2 SUB SWAP1 RETURN JUMPDEST PUSH2 0x85 PUSH1 0x4 DUP1 CALLDATASIZE SUB DUP2 ADD SWAP1 PUSH2 0x80 SWAP2 SWAP1 PUSH2 0x3DC JUMP JUMPDEST PUSH2 0x16C JUMP JUMPDEST PUSH1 0x40 MLOAD PUSH2 0x92 SWAP2 SWAP1 PUSH2 0x434 JUMP JUMPDEST PUSH1 0x40 MLOAD DUP1 SWAP2 SUB SWAP1 RETURN JUMPDEST PUSH1 0x0 DUP1 PUSH1 0x0 SWAP1 POP JUMPDEST DUP3 MLOAD DUP2 LT ISZERO PUSH2 0x161 JUMPI PUSH1 0x0 PUSH1 0x1 DUP3 PUSH2 0xBB SWAP2 SWAP1 PUSH2 0x4A0 JUMP JUMPDEST SWAP1 POP JUMPDEST DUP4 MLOAD DUP2 LT ISZERO PUSH2 0x14D JUMPI DUP4 DUP2 DUP2 MLOAD DUP2 LT PUSH2 0xDA JUMPI PUSH2 0xD9 PUSH2 0x647 JUMP JUMPDEST JUMPDEST PUSH1 0x20 MUL PUSH1 0x20 ADD ADD MLOAD PUSH20 0xFFFFFFFFFFFFFFFFFFFFFFFFFFFFFFFFFFFFFFFF AND DUP5 DUP4 DUP2 MLOAD DUP2 LT PUSH2 0x10B JUMPI PUSH2 0x10A PUSH2 0x647 JUMP JUMPDEST JUMPDEST PUSH1 0x20 MUL PUSH1 0x20 ADD ADD MLOAD PUSH20 0xFFFFFFFFFFFFFFFFFFFFFFFFFFFFFFFFFFFFFFFF AND EQ ISZERO PUSH2 0x13A JUMPI PUSH1 0x0 SWAP3 POP POP POP PUSH2 0x167 JUMP JUMPDEST DUP1 DUP1 PUSH2 0x145 SWAP1 PUSH2 0x56F JUMP JUMPDEST SWAP2 POP POP PUSH2 0xBE JUMP JUMPDEST POP DUP1 DUP1 PUSH2 0x159 SWAP1 PUSH2 0x56F JUMP JUMPDEST SWAP2 POP POP PUSH2 0xA3 JUMP JUMPDEST POP PUSH1 0x1 SWAP1 POP JUMPDEST SWAP2 SWAP1 POP JUMP JUMPDEST PUSH1 0x0 DUP1 PUSH1 0x64 PUSH8 0xFFFFFFFFFFFFFFFF DUP2 GT ISZERO PUSH2 0x18A JUMPI PUSH2 0x189 PUSH2 0x676 JUMP JUMPDEST JUMPDEST PUSH1 0x40 MLOAD SWAP1 DUP1 DUP3 MSTORE DUP1 PUSH1 0x20 MUL PUSH1 0x20 ADD DUP3 ADD PUSH1 0x40 MSTORE DUP1 ISZERO PUSH2 0x1B8 JUMPI DUP2 PUSH1 0x20 ADD PUSH1 0x20 DUP3 MUL DUP1 CALLDATASIZE DUP4 CALLDATACOPY DUP1 DUP3 ADD SWAP2 POP POP SWAP1 POP JUMPDEST POP SWAP1 POP PUSH1 0x0 JUMPDEST DUP4 MLOAD DUP2 LT ISZERO PUSH2 0x307 JUMPI PUSH1 0x0 DUP5 DUP3 DUP2 MLOAD DUP2 LT PUSH2 0x1DC JUMPI PUSH2 0x1DB PUSH2 0x647 JUMP JUMPDEST JUMPDEST PUSH1 0x20 MUL PUSH1 0x20 ADD ADD MLOAD SWAP1 POP PUSH1 0x0 PUSH2 0x212 PUSH1 0x64 DUP4 PUSH20 0xFFFFFFFFFFFFFFFFFFFFFFFFFFFFFFFFFFFFFFFF AND PUSH2 0x313 SWAP1 SWAP2 SWAP1 PUSH4 0xFFFFFFFF AND JUMP JUMPDEST SWAP1 POP DUP1 DUP5 DUP3 DUP2 MLOAD DUP2 LT PUSH2 0x228 JUMPI PUSH2 0x227 PUSH2 0x647 JUMP JUMPDEST JUMPDEST PUSH1 0x20 MUL PUSH1 0x20 ADD ADD MLOAD PUSH20 0xFFFFFFFFFFFFFFFFFFFFFFFFFFFFFFFFFFFFFFFF AND EQ ISZERO PUSH2 0x259 JUMPI PUSH1 0x0 SWAP5 POP POP POP POP POP PUSH2 0x30E JUMP JUMPDEST PUSH1 0x0 DUP5 DUP3 DUP2 MLOAD DUP2 LT PUSH2 0x26E JUMPI PUSH2 0x26D PUSH2 0x647 JUMP JUMPDEST JUMPDEST PUSH1 0x20 MUL PUSH1 0x20 ADD ADD MLOAD PUSH20 0xFFFFFFFFFFFFFFFFFFFFFFFFFFFFFFFFFFFFFFFF AND EQ ISZERO PUSH2 0x2E7 JUMPI DUP2 DUP5 DUP3 DUP2 MLOAD DUP2 LT PUSH2 0x2A6 JUMPI PUSH2 0x2A5 PUSH2 0x647 JUMP JUMPDEST JUMPDEST PUSH1 0x20 MUL PUSH1 0x20 ADD ADD SWAP1 PUSH20 0xFFFFFFFFFFFFFFFFFFFFFFFFFFFFFFFFFFFFFFFF AND SWAP1 DUP2 PUSH20 0xFFFFFFFFFFFFFFFFFFFFFFFFFFFFFFFFFFFFFFFF AND DUP2 MSTORE POP POP POP POP PUSH2 0x2F4 JUMP JUMPDEST PUSH1 0x0 SWAP5 POP POP POP POP POP PUSH2 0x30E JUMP JUMPDEST DUP1 DUP1 PUSH2 0x2FF SWAP1 PUSH2 0x56F JUMP JUMPDEST SWAP2 POP POP PUSH2 0x1BE JUMP JUMPDEST POP PUSH1 0x1 SWAP2 POP POP JUMPDEST SWAP2 SWAP1 POP JUMP JUMPDEST PUSH1 0x0 DUP2 DUP4 PUSH2 0x321 SWAP2 SWAP1 PUSH2 0x5B8 JUMP JUMPDEST SWAP1 POP SWAP3 SWAP2 POP POP JUMP JUMPDEST PUSH1 0x0 PUSH2 0x33C PUSH2 0x337 DUP5 PUSH2 0x474 JUMP JUMPDEST PUSH2 0x44F JUMP JUMPDEST SWAP1 POP DUP1 DUP4 DUP3 MSTORE PUSH1 0x20 DUP3 ADD SWAP1 POP DUP3 DUP6 PUSH1 0x20 DUP7 MUL DUP3 ADD GT ISZERO PUSH2 0x35F JUMPI PUSH2 0x35E PUSH2 0x6AA JUMP JUMPDEST JUMPDEST PUSH1 0x0 JUMPDEST DUP6 DUP2 LT ISZERO PUSH2 0x38F JUMPI DUP2 PUSH2 0x375 DUP9 DUP3 PUSH2 0x399 JUMP JUMPDEST DUP5 MSTORE PUSH1 0x20 DUP5 ADD SWAP4 POP PUSH1 0x20 DUP4 ADD SWAP3 POP POP PUSH1 0x1 DUP2 ADD SWAP1 POP PUSH2 0x362 JUMP JUMPDEST POP POP POP SWAP4 SWAP3 POP POP POP JUMP JUMPDEST PUSH1 0x0 DUP2 CALLDATALOAD SWAP1 POP PUSH2 0x3A8 DUP2 PUSH2 0x6CA JUMP JUMPDEST SWAP3 SWAP2 POP POP JUMP JUMPDEST PUSH1 0x0 DUP3 PUSH1 0x1F DUP4 ADD SLT PUSH2 0x3C3 JUMPI PUSH2 0x3C2 PUSH2 0x6A5 JUMP JUMPDEST JUMPDEST DUP2 CALLDATALOAD PUSH2 0x3D3 DUP5 DUP3 PUSH1 0x20 DUP7 ADD PUSH2 0x329 JUMP JUMPDEST SWAP2 POP POP SWAP3 SWAP2 POP POP JUMP JUMPDEST PUSH1 0x0 PUSH1 0x20 DUP3 DUP5 SUB SLT ISZERO PUSH2 0x3F2 JUMPI PUSH2 0x3F1 PUSH2 0x6B4 JUMP JUMPDEST JUMPDEST PUSH1 0x0 DUP3 ADD CALLDATALOAD PUSH8 0xFFFFFFFFFFFFFFFF DUP2 GT ISZERO PUSH2 0x410 JUMPI PUSH2 0x40F PUSH2 0x6AF JUMP JUMPDEST JUMPDEST PUSH2 0x41C DUP5 DUP3 DUP6 ADD PUSH2 0x3AE JUMP JUMPDEST SWAP2 POP POP SWAP3 SWAP2 POP POP JUMP JUMPDEST PUSH2 0x42E DUP2 PUSH2 0x508 JUMP JUMPDEST DUP3 MSTORE POP POP JUMP JUMPDEST PUSH1 0x0 PUSH1 0x20 DUP3 ADD SWAP1 POP PUSH2 0x449 PUSH1 0x0 DUP4 ADD DUP5 PUSH2 0x425 JUMP JUMPDEST SWAP3 SWAP2 POP POP JUMP JUMPDEST PUSH1 0x0 PUSH2 0x459 PUSH2 0x46A JUMP JUMPDEST SWAP1 POP PUSH2 0x465 DUP3 DUP3 PUSH2 0x53E JUMP JUMPDEST SWAP2 SWAP1 POP JUMP JUMPDEST PUSH1 0x0 PUSH1 0x40 MLOAD SWAP1 POP SWAP1 JUMP JUMPDEST PUSH1 0x0 PUSH8 0xFFFFFFFFFFFFFFFF DUP3 GT ISZERO PUSH2 0x48F JUMPI PUSH2 0x48E PUSH2 0x676 JUMP JUMPDEST JUMPDEST PUSH1 0x20 DUP3 MUL SWAP1 POP PUSH1 0x20 DUP2 ADD SWAP1 POP SWAP2 SWAP1 POP JUMP JUMPDEST PUSH1 0x0 PUSH2 0x4AB DUP3 PUSH2 0x534 JUMP JUMPDEST SWAP2 POP PUSH2 0x4B6 DUP4 PUSH2 0x534 JUMP JUMPDEST SWAP3 POP DUP3 PUSH32 0xFFFFFFFFFFFFFFFFFFFFFFFFFFFFFFFFFFFFFFFFFFFFFFFFFFFFFFFFFFFFFFFF SUB DUP3 GT ISZERO PUSH2 0x4EB JUMPI PUSH2 0x4EA PUSH2 0x5E9 JUMP JUMPDEST JUMPDEST DUP3 DUP3 ADD SWAP1 POP SWAP3 SWAP2 POP POP JUMP JUMPDEST PUSH1 0x0 PUSH2 0x501 DUP3 PUSH2 0x514 JUMP JUMPDEST SWAP1 POP SWAP2 SWAP1 POP JUMP JUMPDEST PUSH1 0x0 DUP2 ISZERO ISZERO SWAP1 POP SWAP2 SWAP1 POP JUMP JUMPDEST PUSH1 0x0 PUSH20 0xFFFFFFFFFFFFFFFFFFFFFFFFFFFFFFFFFFFFFFFF DUP3 AND SWAP1 POP SWAP2 SWAP1 POP JUMP JUMPDEST PUSH1 0x0 DUP2 SWAP1 POP SWAP2 SWAP1 POP JUMP JUMPDEST PUSH2 0x547 DUP3 PUSH2 0x6B9 JUMP JUMPDEST DUP2 ADD DUP2 DUP2 LT PUSH8 0xFFFFFFFFFFFFFFFF DUP3 GT OR ISZERO PUSH2 0x566 JUMPI PUSH2 0x565 PUSH2 0x676 JUMP JUMPDEST JUMPDEST DUP1 PUSH1 0x40 MSTORE POP POP POP JUMP JUMPDEST PUSH1 0x0 PUSH2 0x57A DUP3 PUSH2 0x534 JUMP JUMPDEST SWAP2 POP PUSH32 0xFFFFFFFFFFFFFFFFFFFFFFFFFFFFFFFFFFFFFFFFFFFFFFFFFFFFFFFFFFFFFFFF DUP3 EQ ISZERO PUSH2 0x5AD JUMPI PUSH2 0x5AC PUSH2 0x5E9 JUMP JUMPDEST JUMPDEST PUSH1 0x1 DUP3 ADD SWAP1 POP SWAP2 SWAP1 POP JUMP JUMPDEST PUSH1 0x0 PUSH2 0x5C3 DUP3 PUSH2 0x534 JUMP JUMPDEST SWAP2 POP PUSH2 0x5CE DUP4 PUSH2 0x534 JUMP JUMPDEST SWAP3 POP DUP3 PUSH2 0x5DE JUMPI PUSH2 0x5DD PUSH2 0x618 JUMP JUMPDEST JUMPDEST DUP3 DUP3 MOD SWAP1 POP SWAP3 SWAP2 POP POP JUMP JUMPDEST PUSH32 0x4E487B7100000000000000000000000000000000000000000000000000000000 PUSH1 0x0 MSTORE PUSH1 0x11 PUSH1 0x4 MSTORE PUSH1 0x24 PUSH1 0x0 REVERT JUMPDEST PUSH32 0x4E487B7100000000000000000000000000000000000000000000000000000000 PUSH1 0x0 MSTORE PUSH1 0x12 PUSH1 0x4 MSTORE PUSH1 0x24 PUSH1 0x0 REVERT JUMPDEST PUSH32 0x4E487B7100000000000000000000000000000000000000000000000000000000 PUSH1 0x0 MSTORE PUSH1 0x32 PUSH1 0x4 MSTORE PUSH1 0x24 PUSH1 0x0 REVERT JUMPDEST PUSH32 0x4E487B7100000000000000000000000000000000000000000000000000000000 PUSH1 0x0 MSTORE PUSH1 0x41 PUSH1 0x4 MSTORE PUSH1 0x24 PUSH1 0x0 REVERT JUMPDEST PUSH1 0x0 DUP1 REVERT JUMPDEST PUSH1 0x0 DUP1 REVERT JUMPDEST PUSH1 0x0 DUP1 REVERT JUMPDEST PUSH1 0x0 DUP1 REVERT JUMPDEST PUSH1 0x0 PUSH1 0x1F NOT PUSH1 0x1F DUP4 ADD AND SWAP1 POP SWAP2 SWAP1 POP JUMP JUMPDEST PUSH2 0x6D3 DUP2 PUSH2 0x4F6 JUMP JUMPDEST DUP2 EQ PUSH2 0x6DE JUMPI PUSH1 0x0 DUP1 REVERT JUMPDEST POP JUMP INVALID LOG2 PUSH5 0x6970667358 0x22 SLT KECCAK256 SWAP16 PUSH27 0xFA2B61CB522DC2A46CED613E6A626DA5939361AB0D0483BF665FA3 ADDMOD BALANCE PUSH8 0x64736F6C63430008 SMOD STOP CALLER "
		},
		"gasEstimates": {
			"creation": {
				"codeDepositCost": "363000",
				"executionCost": "399",
				"totalCost": "363399"
			},
			"external": {
				"addressVerification(address[])": "infinite",
				"addressVerification2(address[])": "infinite"
			}
		},
		"methodIdentifiers": {
			"addressVerification(address[])": "f766a229",
			"addressVerification2(address[])": "1e8cd39d"
		}
	},
	"abi": [
		{
			"inputs": [
				{
					"internalType": "address[]",
					"name": "_arr",
					"type": "address[]"
				}
			],
			"name": "addressVerification",
			"outputs": [
				{
					"internalType": "bool",
					"name": "",
					"type": "bool"
				}
			],
			"stateMutability": "pure",
			"type": "function"
		},
		{
			"inputs": [
				{
					"internalType": "address[]",
					"name": "_arr",
					"type": "address[]"
				}
			],
			"name": "addressVerification2",
			"outputs": [
				{
					"internalType": "bool",
					"name": "",
					"type": "bool"
				}
			],
			"stateMutability": "pure",
			"type": "function"
		}
	]
}