{
	"data": {
		"bytecode": {
			"linkReferences": {},
			"object": "608060405234801561001057600080fd5b506125ad806100206000396000f3fe608060405234801561001057600080fd5b50600436106100885760003560e01c8063557bb0381161005b578063557bb038146101135780638674df8c14610143578063bbb82d8914610173578063f6e548e91461019157610088565b80630bd951381461008d578063194756af146100bd5780632e517e9b146100d9578063501145f9146100f7575b600080fd5b6100a760048036038101906100a29190611b22565b6101ad565b6040516100b49190611eef565b60405180910390f35b6100d760048036038101906100d29190611993565b610304565b005b6100e161030e565b6040516100ee9190611f0a565b60405180910390f35b610111600480360381019061010c9190611a6e565b610314565b005b61012d600480360381019061012891906119ed565b61042f565b60405161013a9190611f25565b60405180910390f35b61015d60048036038101906101589190611c1e565b61050c565b60405161016a9190611f25565b60405180910390f35b61017b6105d2565b6040516101889190611eef565b60405180910390f35b6101ab60048036038101906101a69190611a6e565b6105e3565b005b6000806101fd8b8b8080601f016020809104026020016040519081016040528093929190818152602001838380828437600081840152601f19601f820116905080830192505050505050506106f6565b9050600061024e8a8a8080601f016020809104026020016040519081016040528093929190818152602001838380828437600081840152601f19601f820116905080830192505050505050506106f6565b9050600061029f87878080601f016020809104026020016040519081016040528093929190818152602001838380828437600081840152601f19601f8201169050808301925050505050505061087e565b90506102f283838b8b8080601f016020809104026020016040519081016040528093929190818152602001838380828437600081840152601f19601f82011690508083019250505050505050848961095c565b93505050509998505050505050505050565b8060018190555050565b60015481565b600061036387878080601f016020809104026020016040519081016040528093929190818152602001838380828437600081840152601f19601f820116905080830192505050505050506106f6565b905060006103b484848080601f016020809104026020016040519081016040528093929190818152602001838380828437600081840152601f19601f8201169050808301925050505050505061087e565b905061040d8261040788888080601f016020809104026020016040519081016040528093929190818152602001838380828437600081840152601f19601f8201169050808301925050505050505061087e565b83610bc8565b6000806101000a81548160ff0219169083151502179055505050505050505050565b606060006104d561048387878080601f016020809104026020016040519081016040528093929190818152602001838380828437600081840152601f19601f8201169050808301925050505050505061087e565b6104d086868080601f016020809104026020016040519081016040528093929190818152602001838380828437600081840152601f19601f8201169050808301925050505050505061087e565b610d1f565b9050806000015181602001516040516020016104f2929190611fc7565b604051602081830303815290604052915050949350505050565b6060600061055d85858080601f016020809104026020016040519081016040528093929190818152602001838380828437600081840152601f19601f820116905080830192505050505050506106f6565b90506000816000015182602001518560405160200161057e93929190611e6f565b6040516020818303038152906040529050600061059a82610e11565b9050806000015181602001516040516020016105b7929190611ec3565b60405160208183030381529060405293505050509392505050565b60008054906101000a900460ff1681565b600061063287878080601f016020809104026020016040519081016040528093929190818152602001838380828437600081840152601f19601f820116905080830192505050505050506106f6565b9050600061068384848080601f016020809104026020016040519081016040528093929190818152602001838380828437600081840152601f19601f8201169050808301925050505050505061087e565b90506106d48287878080601f016020809104026020016040519081016040528093929190818152602001838380828437600081840152601f19601f8201169050808301925050505050505083610efa565b6000806101000a81548160ff0219169083151502179055505050505050505050565b6106fe611858565b6000600467ffffffffffffffff81111561071b5761071a61243f565b5b6040519080825280602002602001820160405280156107495781602001602082028036833780820191505090505b5090506000602090505b60208251610761919061224d565b811161078357808401518183015260208161077c9190612055565b9050610753565b508060008151811061079857610797612410565b5b602002602001015182600001516000600281106107b8576107b7612410565b5b602002018181525050806001815181106107d5576107d4612410565b5b602002602001015182600001516001600281106107f5576107f4612410565b5b6020020181815250508060028151811061081257610811612410565b5b6020026020010151826020015160006002811061083257610831612410565b5b6020020181815250508060038151811061084f5761084e612410565b5b6020026020010151826020015160016002811061086f5761086e612410565b5b60200201818152505050919050565b61088661187e565b6000600267ffffffffffffffff8111156108a3576108a261243f565b5b6040519080825280602002602001820160405280156108d15781602001602082028036833780820191505090505b5090506000602090505b602082516108e9919061224d565b811161090b5780840151818301526020816109049190612055565b90506108db565b50806000815181106109205761091f612410565b5b60200260200101518260000181815250508060018151811061094557610944612410565b5b602002602001015182602001818152505050919050565b60008060405180604001604052806000815260200160008152509050600080600190505b600085146109fa576000818616146109e057808561099e91906122a7565b94506109dd836109d88b600001518c60200151866040516020016109c493929190611e6f565b604051602081830303815290604052610e11565b610d1f565b92505b600181901b905081806109f29061232e565b925050610980565b6000600367ffffffffffffffff811115610a1757610a1661243f565b5b604051908082528060200260200182016040528015610a5057816020015b610a3d61187e565b815260200190600190039081610a355790505b5090506000600367ffffffffffffffff811115610a7057610a6f61243f565b5b604051908082528060200260200182016040528015610aa957816020015b610a96611858565b815260200190600190039081610a8e5790505b509050610ab588610f18565b82600081518110610ac957610ac8612410565b5b6020026020010181905250610b088b600001518c602001518b604051602001610af493929190611e36565b604051602081830303815290604052610e11565b82600181518110610b1c57610b1b612410565b5b60200260200101819052508482600281518110610b3c57610b3b612410565b5b6020026020010181905250610b4f610fc7565b81600081518110610b6357610b62612410565b5b60200260200101819052508981600181518110610b8357610b82612410565b5b60200260200101819052508a81600281518110610ba357610ba2612410565b5b6020026020010181905250610bb88282611091565b9550505050505095945050505050565b600080600267ffffffffffffffff811115610be657610be561243f565b5b604051908082528060200260200182016040528015610c1f57816020015b610c0c61187e565b815260200190600190039081610c045790505b5090506000600267ffffffffffffffff811115610c3f57610c3e61243f565b5b604051908082528060200260200182016040528015610c7857816020015b610c65611858565b815260200190600190039081610c5d5790505b509050610c8484610f18565b82600081518110610c9857610c97612410565b5b60200260200101819052508482600181518110610cb857610cb7612410565b5b6020026020010181905250610ccb610fc7565b81600081518110610cdf57610cde612410565b5b60200260200101819052508581600181518110610cff57610cfe612410565b5b6020026020010181905250610d148282611091565b925050509392505050565b610d2761187e565b610d2f611898565b836000015181600060048110610d4857610d47612410565b5b602002018181525050836020015181600160048110610d6a57610d69612410565b5b602002018181525050826000015181600260048110610d8c57610d8b612410565b5b602002018181525050826020015181600360048110610dae57610dad612410565b5b602002018181525050600060408360808460066107d05a03fa905080610e09576040517f08c379a0000000000000000000000000000000000000000000000000000000008152600401610e0090611f87565b60405180910390fd5b505092915050565b610e1961187e565b6000600283604051610e2b9190611eac565b602060405180830381855afa158015610e48573d6000803e3d6000fd5b5050506040513d601f19601f82011682018060405250810190610e6b91906119c0565b905060007f30644e72e131a029b85045b68181585d97816a916871ca8d3c208c16d87cfd478260001c610e9e9190612381565b905060005b600115610ef157610eb382611447565b90506000811115610edd576040518060400160405280838152602001828152509350505050610ef5565b600182610eea9190612055565b9150610ea3565b5050505b919050565b6000610f0f84610f0985610e11565b84610bc8565b90509392505050565b610f2061187e565b610f29826114cf565b15610f4c5760405180604001604052806000815260200160008152509050610fc2565b6040518060400160405280836000015181526020017f30644e72e131a029b85045b68181585d97816a916871ca8d3c208c16d87cfd478460200151610f919190612381565b7f30644e72e131a029b85045b68181585d97816a916871ca8d3c208c16d87cfd47610fbc91906122a7565b81525090505b919050565b610fcf611858565b604051806040016040528060405180604001604052807f198e9393920d483a7260bfb731fb5d25f1aa493335a9e71297e485b7aef312c281526020017f1800deef121f1e76426a00665e5c4479674322d4f75edadd46debd5cd992f6ed815250815260200160405180604001604052807f090689d0585ff075ec9e99ad690c3395bc4b313370b38ef355acdadcd122975b81526020017f12c85ea5db8c6deb4aab71808dcb408fe3d1e7690c43d37b4ce6cc0166fa7daa815250815250905090565b600081518351146110d7576040517f08c379a00000000000000000000000000000000000000000000000000000000081526004016110ce90611fa7565b60405180910390fd5b60008351905060006006826110ec919061224d565b905060008167ffffffffffffffff81111561110a5761110961243f565b5b6040519080825280602002602001820160405280156111385781602001602082028036833780820191505090505b50905060005b838110156113bd5786818151811061115957611158612410565b5b602002602001015160000151826000600684611175919061224d565b61117f9190612055565b815181106111905761118f612410565b5b6020026020010181815250508681815181106111af576111ae612410565b5b6020026020010151602001518260016006846111cb919061224d565b6111d59190612055565b815181106111e6576111e5612410565b5b60200260200101818152505085818151811061120557611204612410565b5b60200260200101516000015160006002811061122457611223612410565b5b6020020151826002600684611239919061224d565b6112439190612055565b8151811061125457611253612410565b5b60200260200101818152505085818151811061127357611272612410565b5b60200260200101516000015160016002811061129257611291612410565b5b60200201518260036006846112a7919061224d565b6112b19190612055565b815181106112c2576112c1612410565b5b6020026020010181815250508581815181106112e1576112e0612410565b5b602002602001015160200151600060028110611300576112ff612410565b5b6020020151826004600684611315919061224d565b61131f9190612055565b815181106113305761132f612410565b5b60200260200101818152505085818151811061134f5761134e612410565b5b60200260200101516020015160016002811061136e5761136d612410565b5b6020020151826005600684611383919061224d565b61138d9190612055565b8151811061139e5761139d612410565b5b60200260200101818152505080806113b59061232e565b91505061113e565b506113c66118ba565b6000602082602086026020860160086107d05a03fa90508061141d576040517f08c379a000000000000000000000000000000000000000000000000000000000815260040161141490611f67565b60405180910390fd5b60008260006001811061143357611432612410565b5b602002015114159550505050505092915050565b60006114c87f30644e72e131a029b85045b68181585d97816a916871ca8d3c208c16d87cfd478060036114a660037f30644e72e131a029b85045b68181585d97816a916871ca8d3c208c16d87cfd47886114ef9092919063ffffffff16565b6114b09190612055565b6114ba9190612381565b61153d90919063ffffffff16565b9050919050565b60008082600001511480156114e8575060008260200151145b9050919050565b60006040516020810160208152602080820152602060408201528560608201528460808201528360a082015260208260c0836005600019fa61153057600080fd5b8151925050509392505050565b6000600161154b848461178d565b146115595760009050611787565b600083141561156b5760009050611787565b600360048361157a9190612381565b14156115aa576115a38360046001856115939190612055565b61159d91906120ab565b846114ef565b9050611787565b60006001836115b991906122a7565b905060005b60006002836115cd9190612381565b14156115f6576002826115e091906120ab565b91506001816115ef9190612055565b90506115be565b6000600290505b7fffffffffffffffffffffffffffffffffffffffffffffffffffffffffffffffff611628828761178d565b146116415760018161163a9190612055565b90506115fd565b60006116668760026001876116569190612055565b61166091906120ab565b886114ef565b905060006116758886896114ef565b9050600061168484878a6114ef565b9050600085905060008060008590505b60011561177c5785905060009150600091505b838210156116de5760018114156116bd576116de565b6116c98160028e6114ef565b905081806116d69061232e565b9250506116a7565b60008214156116f957869a5050505050505050505050611787565b611727856001848761170b91906122a7565b61171591906122a7565b6002611721919061212f565b8e6114ef565b92508b8384611736919061224d565b6117409190612381565b94508b838861174f919061224d565b6117599190612381565b96508b8587611768919061224d565b6117729190612381565b9550819350611694565b505050505050505050505b92915050565b6000806117b38460026001866117a391906122a7565b6117ad91906120ab565b856114ef565b905060008114806117c45750600181145b156117d25780915050611852565b6001836117df91906122a7565b81141561180f577fffffffffffffffffffffffffffffffffffffffffffffffffffffffffffffffff915050611852565b6000611850576040517f08c379a000000000000000000000000000000000000000000000000000000000815260040161184790611f47565b60405180910390fd5b505b92915050565b604051806040016040528061186b6118dc565b81526020016118786118dc565b81525090565b604051806040016040528060008152602001600081525090565b6040518060800160405280600490602082028036833780820191505090505090565b6040518060200160405280600190602082028036833780820191505090505090565b6040518060400160405280600290602082028036833780820191505090505090565b60008135905061190d81612549565b92915050565b60008151905061192281612549565b92915050565b60008083601f84011261193e5761193d612473565b5b8235905067ffffffffffffffff81111561195b5761195a61246e565b5b60208301915083600182028301111561197757611976612478565b5b9250929050565b60008135905061198d81612560565b92915050565b6000602082840312156119a9576119a8612482565b5b60006119b7848285016118fe565b91505092915050565b6000602082840312156119d6576119d5612482565b5b60006119e484828501611913565b91505092915050565b60008060008060408587031215611a0757611a06612482565b5b600085013567ffffffffffffffff811115611a2557611a2461247d565b5b611a3187828801611928565b9450945050602085013567ffffffffffffffff811115611a5457611a5361247d565b5b611a6087828801611928565b925092505092959194509250565b60008060008060008060608789031215611a8b57611a8a612482565b5b600087013567ffffffffffffffff811115611aa957611aa861247d565b5b611ab589828a01611928565b9650965050602087013567ffffffffffffffff811115611ad857611ad761247d565b5b611ae489828a01611928565b9450945050604087013567ffffffffffffffff811115611b0757611b0661247d565b5b611b1389828a01611928565b92509250509295509295509295565b600080600080600080600080600060a08a8c031215611b4457611b43612482565b5b60008a013567ffffffffffffffff811115611b6257611b6161247d565b5b611b6e8c828d01611928565b995099505060208a013567ffffffffffffffff811115611b9157611b9061247d565b5b611b9d8c828d01611928565b975097505060408a013567ffffffffffffffff811115611bc057611bbf61247d565b5b611bcc8c828d01611928565b955095505060608a013567ffffffffffffffff811115611bef57611bee61247d565b5b611bfb8c828d01611928565b93509350506080611c0e8c828d0161197e565b9150509295985092959850929598565b600080600060408486031215611c3757611c36612482565b5b600084013567ffffffffffffffff811115611c5557611c5461247d565b5b611c6186828701611928565b93509350506020611c748682870161197e565b9150509250925092565b6000611c8a8383611e10565b60208301905092915050565b611c9f81611ffa565b611ca9818461201d565b9250611cb482611ff0565b8060005b83811015611ce5578151611ccc8782611c7e565b9650611cd783612010565b925050600181019050611cb8565b505050505050565b611cf6816122db565b82525050565b611d05816122e7565b82525050565b6000611d1682612005565b611d208185612028565b9350611d308185602086016122fb565b611d3981612487565b840191505092915050565b6000611d4f82612005565b611d598185612039565b9350611d698185602086016122fb565b80840191505092915050565b6000611d82601d83612044565b9150611d8d826124a5565b602082019050919050565b6000611da5601983612044565b9150611db0826124ce565b602082019050919050565b6000611dc8601183612044565b9150611dd3826124f7565b602082019050919050565b6000611deb601583612044565b9150611df682612520565b602082019050919050565b611e0a816122f1565b82525050565b611e19816122f1565b82525050565b611e30611e2b826122f1565b612377565b82525050565b6000611e428286611c96565b604082019150611e528285611c96565b604082019150611e628284611d44565b9150819050949350505050565b6000611e7b8286611c96565b604082019150611e8b8285611c96565b604082019150611e9b8284611e1f565b602082019150819050949350505050565b6000611eb88284611d44565b915081905092915050565b6000611ecf8285611e1f565b602082019150611edf8284611e1f565b6020820191508190509392505050565b6000602082019050611f046000830184611ced565b92915050565b6000602082019050611f1f6000830184611cfc565b92915050565b60006020820190508181036000830152611f3f8184611d0b565b905092915050565b60006020820190508181036000830152611f6081611d75565b9050919050565b60006020820190508181036000830152611f8081611d98565b9050919050565b60006020820190508181036000830152611fa081611dbb565b9050919050565b60006020820190508181036000830152611fc081611dde565b9050919050565b6000604082019050611fdc6000830185611e01565b611fe96020830184611e01565b9392505050565b6000819050919050565b600060029050919050565b600081519050919050565b6000602082019050919050565b600081905092915050565b600082825260208201905092915050565b600081905092915050565b600082825260208201905092915050565b6000612060826122f1565b915061206b836122f1565b9250827fffffffffffffffffffffffffffffffffffffffffffffffffffffffffffffffff038211156120a05761209f6123b2565b5b828201905092915050565b60006120b6826122f1565b91506120c1836122f1565b9250826120d1576120d06123e1565b5b828204905092915050565b6000808291508390505b600185111561212657808604811115612102576121016123b2565b5b60018516156121115780820291505b808102905061211f85612498565b94506120e6565b94509492505050565b600061213a826122f1565b9150612145836122f1565b92506121727fffffffffffffffffffffffffffffffffffffffffffffffffffffffffffffffff848461217a565b905092915050565b60008261218a5760019050612246565b816121985760009050612246565b81600181146121ae57600281146121b8576121e7565b6001915050612246565b60ff8411156121ca576121c96123b2565b5b8360020a9150848211156121e1576121e06123b2565b5b50612246565b5060208310610133831016604e8410600b841016171561221c5782820a905083811115612217576122166123b2565b5b612246565b61222984848460016120dc565b925090508184048111156122405761223f6123b2565b5b81810290505b9392505050565b6000612258826122f1565b9150612263836122f1565b9250817fffffffffffffffffffffffffffffffffffffffffffffffffffffffffffffffff048311821515161561229c5761229b6123b2565b5b828202905092915050565b60006122b2826122f1565b91506122bd836122f1565b9250828210156122d0576122cf6123b2565b5b828203905092915050565b60008115159050919050565b6000819050919050565b6000819050919050565b60005b838110156123195780820151818401526020810190506122fe565b83811115612328576000848401525b50505050565b6000612339826122f1565b91507fffffffffffffffffffffffffffffffffffffffffffffffffffffffffffffffff82141561236c5761236b6123b2565b5b600182019050919050565b6000819050919050565b600061238c826122f1565b9150612397836122f1565b9250826123a7576123a66123e1565b5b828206905092915050565b7f4e487b7100000000000000000000000000000000000000000000000000000000600052601160045260246000fd5b7f4e487b7100000000000000000000000000000000000000000000000000000000600052601260045260246000fd5b7f4e487b7100000000000000000000000000000000000000000000000000000000600052603260045260246000fd5b7f4e487b7100000000000000000000000000000000000000000000000000000000600052604160045260246000fd5b600080fd5b600080fd5b600080fd5b600080fd5b600080fd5b6000601f19601f8301169050919050565b60008160011c9050919050565b7f4661696c656420746f2063616c63756c617465206c6567656e6472652e000000600082015250565b7f50616972696e67206f7065726174696f6e206661696c65642e00000000000000600082015250565b7f41646420706f696e7473206661696c6564000000000000000000000000000000600082015250565b7f506f696e7420636f756e74206d69736d617463682e0000000000000000000000600082015250565b612552816122e7565b811461255d57600080fd5b50565b612569816122f1565b811461257457600080fd5b5056fea264697066735822122054e914018d43de5771fcb555f661c10d1afe3570d92f2e744ee9a4a5fe4159e964736f6c63430008070033",
			"opcodes": "PUSH1 0x80 PUSH1 0x40 MSTORE CALLVALUE DUP1 ISZERO PUSH2 0x10 JUMPI PUSH1 0x0 DUP1 REVERT JUMPDEST POP PUSH2 0x25AD DUP1 PUSH2 0x20 PUSH1 0x0 CODECOPY PUSH1 0x0 RETURN INVALID PUSH1 0x80 PUSH1 0x40 MSTORE CALLVALUE DUP1 ISZERO PUSH2 0x10 JUMPI PUSH1 0x0 DUP1 REVERT JUMPDEST POP PUSH1 0x4 CALLDATASIZE LT PUSH2 0x88 JUMPI PUSH1 0x0 CALLDATALOAD PUSH1 0xE0 SHR DUP1 PUSH4 0x557BB038 GT PUSH2 0x5B JUMPI DUP1 PUSH4 0x557BB038 EQ PUSH2 0x113 JUMPI DUP1 PUSH4 0x8674DF8C EQ PUSH2 0x143 JUMPI DUP1 PUSH4 0xBBB82D89 EQ PUSH2 0x173 JUMPI DUP1 PUSH4 0xF6E548E9 EQ PUSH2 0x191 JUMPI PUSH2 0x88 JUMP JUMPDEST DUP1 PUSH4 0xBD95138 EQ PUSH2 0x8D JUMPI DUP1 PUSH4 0x194756AF EQ PUSH2 0xBD JUMPI DUP1 PUSH4 0x2E517E9B EQ PUSH2 0xD9 JUMPI DUP1 PUSH4 0x501145F9 EQ PUSH2 0xF7 JUMPI JUMPDEST PUSH1 0x0 DUP1 REVERT JUMPDEST PUSH2 0xA7 PUSH1 0x4 DUP1 CALLDATASIZE SUB DUP2 ADD SWAP1 PUSH2 0xA2 SWAP2 SWAP1 PUSH2 0x1B22 JUMP JUMPDEST PUSH2 0x1AD JUMP JUMPDEST PUSH1 0x40 MLOAD PUSH2 0xB4 SWAP2 SWAP1 PUSH2 0x1EEF JUMP JUMPDEST PUSH1 0x40 MLOAD DUP1 SWAP2 SUB SWAP1 RETURN JUMPDEST PUSH2 0xD7 PUSH1 0x4 DUP1 CALLDATASIZE SUB DUP2 ADD SWAP1 PUSH2 0xD2 SWAP2 SWAP1 PUSH2 0x1993 JUMP JUMPDEST PUSH2 0x304 JUMP JUMPDEST STOP JUMPDEST PUSH2 0xE1 PUSH2 0x30E JUMP JUMPDEST PUSH1 0x40 MLOAD PUSH2 0xEE SWAP2 SWAP1 PUSH2 0x1F0A JUMP JUMPDEST PUSH1 0x40 MLOAD DUP1 SWAP2 SUB SWAP1 RETURN JUMPDEST PUSH2 0x111 PUSH1 0x4 DUP1 CALLDATASIZE SUB DUP2 ADD SWAP1 PUSH2 0x10C SWAP2 SWAP1 PUSH2 0x1A6E JUMP JUMPDEST PUSH2 0x314 JUMP JUMPDEST STOP JUMPDEST PUSH2 0x12D PUSH1 0x4 DUP1 CALLDATASIZE SUB DUP2 ADD SWAP1 PUSH2 0x128 SWAP2 SWAP1 PUSH2 0x19ED JUMP JUMPDEST PUSH2 0x42F JUMP JUMPDEST PUSH1 0x40 MLOAD PUSH2 0x13A SWAP2 SWAP1 PUSH2 0x1F25 JUMP JUMPDEST PUSH1 0x40 MLOAD DUP1 SWAP2 SUB SWAP1 RETURN JUMPDEST PUSH2 0x15D PUSH1 0x4 DUP1 CALLDATASIZE SUB DUP2 ADD SWAP1 PUSH2 0x158 SWAP2 SWAP1 PUSH2 0x1C1E JUMP JUMPDEST PUSH2 0x50C JUMP JUMPDEST PUSH1 0x40 MLOAD PUSH2 0x16A SWAP2 SWAP1 PUSH2 0x1F25 JUMP JUMPDEST PUSH1 0x40 MLOAD DUP1 SWAP2 SUB SWAP1 RETURN JUMPDEST PUSH2 0x17B PUSH2 0x5D2 JUMP JUMPDEST PUSH1 0x40 MLOAD PUSH2 0x188 SWAP2 SWAP1 PUSH2 0x1EEF JUMP JUMPDEST PUSH1 0x40 MLOAD DUP1 SWAP2 SUB SWAP1 RETURN JUMPDEST PUSH2 0x1AB PUSH1 0x4 DUP1 CALLDATASIZE SUB DUP2 ADD SWAP1 PUSH2 0x1A6 SWAP2 SWAP1 PUSH2 0x1A6E JUMP JUMPDEST PUSH2 0x5E3 JUMP JUMPDEST STOP JUMPDEST PUSH1 0x0 DUP1 PUSH2 0x1FD DUP12 DUP12 DUP1 DUP1 PUSH1 0x1F ADD PUSH1 0x20 DUP1 SWAP2 DIV MUL PUSH1 0x20 ADD PUSH1 0x40 MLOAD SWAP1 DUP2 ADD PUSH1 0x40 MSTORE DUP1 SWAP4 SWAP3 SWAP2 SWAP1 DUP2 DUP2 MSTORE PUSH1 0x20 ADD DUP4 DUP4 DUP1 DUP3 DUP5 CALLDATACOPY PUSH1 0x0 DUP2 DUP5 ADD MSTORE PUSH1 0x1F NOT PUSH1 0x1F DUP3 ADD AND SWAP1 POP DUP1 DUP4 ADD SWAP3 POP POP POP POP POP POP POP PUSH2 0x6F6 JUMP JUMPDEST SWAP1 POP PUSH1 0x0 PUSH2 0x24E DUP11 DUP11 DUP1 DUP1 PUSH1 0x1F ADD PUSH1 0x20 DUP1 SWAP2 DIV MUL PUSH1 0x20 ADD PUSH1 0x40 MLOAD SWAP1 DUP2 ADD PUSH1 0x40 MSTORE DUP1 SWAP4 SWAP3 SWAP2 SWAP1 DUP2 DUP2 MSTORE PUSH1 0x20 ADD DUP4 DUP4 DUP1 DUP3 DUP5 CALLDATACOPY PUSH1 0x0 DUP2 DUP5 ADD MSTORE PUSH1 0x1F NOT PUSH1 0x1F DUP3 ADD AND SWAP1 POP DUP1 DUP4 ADD SWAP3 POP POP POP POP POP POP POP PUSH2 0x6F6 JUMP JUMPDEST SWAP1 POP PUSH1 0x0 PUSH2 0x29F DUP8 DUP8 DUP1 DUP1 PUSH1 0x1F ADD PUSH1 0x20 DUP1 SWAP2 DIV MUL PUSH1 0x20 ADD PUSH1 0x40 MLOAD SWAP1 DUP2 ADD PUSH1 0x40 MSTORE DUP1 SWAP4 SWAP3 SWAP2 SWAP1 DUP2 DUP2 MSTORE PUSH1 0x20 ADD DUP4 DUP4 DUP1 DUP3 DUP5 CALLDATACOPY PUSH1 0x0 DUP2 DUP5 ADD MSTORE PUSH1 0x1F NOT PUSH1 0x1F DUP3 ADD AND SWAP1 POP DUP1 DUP4 ADD SWAP3 POP POP POP POP POP POP POP PUSH2 0x87E JUMP JUMPDEST SWAP1 POP PUSH2 0x2F2 DUP4 DUP4 DUP12 DUP12 DUP1 DUP1 PUSH1 0x1F ADD PUSH1 0x20 DUP1 SWAP2 DIV MUL PUSH1 0x20 ADD PUSH1 0x40 MLOAD SWAP1 DUP2 ADD PUSH1 0x40 MSTORE DUP1 SWAP4 SWAP3 SWAP2 SWAP1 DUP2 DUP2 MSTORE PUSH1 0x20 ADD DUP4 DUP4 DUP1 DUP3 DUP5 CALLDATACOPY PUSH1 0x0 DUP2 DUP5 ADD MSTORE PUSH1 0x1F NOT PUSH1 0x1F DUP3 ADD AND SWAP1 POP DUP1 DUP4 ADD SWAP3 POP POP POP POP POP POP POP DUP5 DUP10 PUSH2 0x95C JUMP JUMPDEST SWAP4 POP POP POP POP SWAP10 SWAP9 POP POP POP POP POP POP POP POP POP JUMP JUMPDEST DUP1 PUSH1 0x1 DUP2 SWAP1 SSTORE POP POP JUMP JUMPDEST PUSH1 0x1 SLOAD DUP2 JUMP JUMPDEST PUSH1 0x0 PUSH2 0x363 DUP8 DUP8 DUP1 DUP1 PUSH1 0x1F ADD PUSH1 0x20 DUP1 SWAP2 DIV MUL PUSH1 0x20 ADD PUSH1 0x40 MLOAD SWAP1 DUP2 ADD PUSH1 0x40 MSTORE DUP1 SWAP4 SWAP3 SWAP2 SWAP1 DUP2 DUP2 MSTORE PUSH1 0x20 ADD DUP4 DUP4 DUP1 DUP3 DUP5 CALLDATACOPY PUSH1 0x0 DUP2 DUP5 ADD MSTORE PUSH1 0x1F NOT PUSH1 0x1F DUP3 ADD AND SWAP1 POP DUP1 DUP4 ADD SWAP3 POP POP POP POP POP POP POP PUSH2 0x6F6 JUMP JUMPDEST SWAP1 POP PUSH1 0x0 PUSH2 0x3B4 DUP5 DUP5 DUP1 DUP1 PUSH1 0x1F ADD PUSH1 0x20 DUP1 SWAP2 DIV MUL PUSH1 0x20 ADD PUSH1 0x40 MLOAD SWAP1 DUP2 ADD PUSH1 0x40 MSTORE DUP1 SWAP4 SWAP3 SWAP2 SWAP1 DUP2 DUP2 MSTORE PUSH1 0x20 ADD DUP4 DUP4 DUP1 DUP3 DUP5 CALLDATACOPY PUSH1 0x0 DUP2 DUP5 ADD MSTORE PUSH1 0x1F NOT PUSH1 0x1F DUP3 ADD AND SWAP1 POP DUP1 DUP4 ADD SWAP3 POP POP POP POP POP POP POP PUSH2 0x87E JUMP JUMPDEST SWAP1 POP PUSH2 0x40D DUP3 PUSH2 0x407 DUP9 DUP9 DUP1 DUP1 PUSH1 0x1F ADD PUSH1 0x20 DUP1 SWAP2 DIV MUL PUSH1 0x20 ADD PUSH1 0x40 MLOAD SWAP1 DUP2 ADD PUSH1 0x40 MSTORE DUP1 SWAP4 SWAP3 SWAP2 SWAP1 DUP2 DUP2 MSTORE PUSH1 0x20 ADD DUP4 DUP4 DUP1 DUP3 DUP5 CALLDATACOPY PUSH1 0x0 DUP2 DUP5 ADD MSTORE PUSH1 0x1F NOT PUSH1 0x1F DUP3 ADD AND SWAP1 POP DUP1 DUP4 ADD SWAP3 POP POP POP POP POP POP POP PUSH2 0x87E JUMP JUMPDEST DUP4 PUSH2 0xBC8 JUMP JUMPDEST PUSH1 0x0 DUP1 PUSH2 0x100 EXP DUP2 SLOAD DUP2 PUSH1 0xFF MUL NOT AND SWAP1 DUP4 ISZERO ISZERO MUL OR SWAP1 SSTORE POP POP POP POP POP POP POP POP POP JUMP JUMPDEST PUSH1 0x60 PUSH1 0x0 PUSH2 0x4D5 PUSH2 0x483 DUP8 DUP8 DUP1 DUP1 PUSH1 0x1F ADD PUSH1 0x20 DUP1 SWAP2 DIV MUL PUSH1 0x20 ADD PUSH1 0x40 MLOAD SWAP1 DUP2 ADD PUSH1 0x40 MSTORE DUP1 SWAP4 SWAP3 SWAP2 SWAP1 DUP2 DUP2 MSTORE PUSH1 0x20 ADD DUP4 DUP4 DUP1 DUP3 DUP5 CALLDATACOPY PUSH1 0x0 DUP2 DUP5 ADD MSTORE PUSH1 0x1F NOT PUSH1 0x1F DUP3 ADD AND SWAP1 POP DUP1 DUP4 ADD SWAP3 POP POP POP POP POP POP POP PUSH2 0x87E JUMP JUMPDEST PUSH2 0x4D0 DUP7 DUP7 DUP1 DUP1 PUSH1 0x1F ADD PUSH1 0x20 DUP1 SWAP2 DIV MUL PUSH1 0x20 ADD PUSH1 0x40 MLOAD SWAP1 DUP2 ADD PUSH1 0x40 MSTORE DUP1 SWAP4 SWAP3 SWAP2 SWAP1 DUP2 DUP2 MSTORE PUSH1 0x20 ADD DUP4 DUP4 DUP1 DUP3 DUP5 CALLDATACOPY PUSH1 0x0 DUP2 DUP5 ADD MSTORE PUSH1 0x1F NOT PUSH1 0x1F DUP3 ADD AND SWAP1 POP DUP1 DUP4 ADD SWAP3 POP POP POP POP POP POP POP PUSH2 0x87E JUMP JUMPDEST PUSH2 0xD1F JUMP JUMPDEST SWAP1 POP DUP1 PUSH1 0x0 ADD MLOAD DUP2 PUSH1 0x20 ADD MLOAD PUSH1 0x40 MLOAD PUSH1 0x20 ADD PUSH2 0x4F2 SWAP3 SWAP2 SWAP1 PUSH2 0x1FC7 JUMP JUMPDEST PUSH1 0x40 MLOAD PUSH1 0x20 DUP2 DUP4 SUB SUB DUP2 MSTORE SWAP1 PUSH1 0x40 MSTORE SWAP2 POP POP SWAP5 SWAP4 POP POP POP POP JUMP JUMPDEST PUSH1 0x60 PUSH1 0x0 PUSH2 0x55D DUP6 DUP6 DUP1 DUP1 PUSH1 0x1F ADD PUSH1 0x20 DUP1 SWAP2 DIV MUL PUSH1 0x20 ADD PUSH1 0x40 MLOAD SWAP1 DUP2 ADD PUSH1 0x40 MSTORE DUP1 SWAP4 SWAP3 SWAP2 SWAP1 DUP2 DUP2 MSTORE PUSH1 0x20 ADD DUP4 DUP4 DUP1 DUP3 DUP5 CALLDATACOPY PUSH1 0x0 DUP2 DUP5 ADD MSTORE PUSH1 0x1F NOT PUSH1 0x1F DUP3 ADD AND SWAP1 POP DUP1 DUP4 ADD SWAP3 POP POP POP POP POP POP POP PUSH2 0x6F6 JUMP JUMPDEST SWAP1 POP PUSH1 0x0 DUP2 PUSH1 0x0 ADD MLOAD DUP3 PUSH1 0x20 ADD MLOAD DUP6 PUSH1 0x40 MLOAD PUSH1 0x20 ADD PUSH2 0x57E SWAP4 SWAP3 SWAP2 SWAP1 PUSH2 0x1E6F JUMP JUMPDEST PUSH1 0x40 MLOAD PUSH1 0x20 DUP2 DUP4 SUB SUB DUP2 MSTORE SWAP1 PUSH1 0x40 MSTORE SWAP1 POP PUSH1 0x0 PUSH2 0x59A DUP3 PUSH2 0xE11 JUMP JUMPDEST SWAP1 POP DUP1 PUSH1 0x0 ADD MLOAD DUP2 PUSH1 0x20 ADD MLOAD PUSH1 0x40 MLOAD PUSH1 0x20 ADD PUSH2 0x5B7 SWAP3 SWAP2 SWAP1 PUSH2 0x1EC3 JUMP JUMPDEST PUSH1 0x40 MLOAD PUSH1 0x20 DUP2 DUP4 SUB SUB DUP2 MSTORE SWAP1 PUSH1 0x40 MSTORE SWAP4 POP POP POP POP SWAP4 SWAP3 POP POP POP JUMP JUMPDEST PUSH1 0x0 DUP1 SLOAD SWAP1 PUSH2 0x100 EXP SWAP1 DIV PUSH1 0xFF AND DUP2 JUMP JUMPDEST PUSH1 0x0 PUSH2 0x632 DUP8 DUP8 DUP1 DUP1 PUSH1 0x1F ADD PUSH1 0x20 DUP1 SWAP2 DIV MUL PUSH1 0x20 ADD PUSH1 0x40 MLOAD SWAP1 DUP2 ADD PUSH1 0x40 MSTORE DUP1 SWAP4 SWAP3 SWAP2 SWAP1 DUP2 DUP2 MSTORE PUSH1 0x20 ADD DUP4 DUP4 DUP1 DUP3 DUP5 CALLDATACOPY PUSH1 0x0 DUP2 DUP5 ADD MSTORE PUSH1 0x1F NOT PUSH1 0x1F DUP3 ADD AND SWAP1 POP DUP1 DUP4 ADD SWAP3 POP POP POP POP POP POP POP PUSH2 0x6F6 JUMP JUMPDEST SWAP1 POP PUSH1 0x0 PUSH2 0x683 DUP5 DUP5 DUP1 DUP1 PUSH1 0x1F ADD PUSH1 0x20 DUP1 SWAP2 DIV MUL PUSH1 0x20 ADD PUSH1 0x40 MLOAD SWAP1 DUP2 ADD PUSH1 0x40 MSTORE DUP1 SWAP4 SWAP3 SWAP2 SWAP1 DUP2 DUP2 MSTORE PUSH1 0x20 ADD DUP4 DUP4 DUP1 DUP3 DUP5 CALLDATACOPY PUSH1 0x0 DUP2 DUP5 ADD MSTORE PUSH1 0x1F NOT PUSH1 0x1F DUP3 ADD AND SWAP1 POP DUP1 DUP4 ADD SWAP3 POP POP POP POP POP POP POP PUSH2 0x87E JUMP JUMPDEST SWAP1 POP PUSH2 0x6D4 DUP3 DUP8 DUP8 DUP1 DUP1 PUSH1 0x1F ADD PUSH1 0x20 DUP1 SWAP2 DIV MUL PUSH1 0x20 ADD PUSH1 0x40 MLOAD SWAP1 DUP2 ADD PUSH1 0x40 MSTORE DUP1 SWAP4 SWAP3 SWAP2 SWAP1 DUP2 DUP2 MSTORE PUSH1 0x20 ADD DUP4 DUP4 DUP1 DUP3 DUP5 CALLDATACOPY PUSH1 0x0 DUP2 DUP5 ADD MSTORE PUSH1 0x1F NOT PUSH1 0x1F DUP3 ADD AND SWAP1 POP DUP1 DUP4 ADD SWAP3 POP POP POP POP POP POP POP DUP4 PUSH2 0xEFA JUMP JUMPDEST PUSH1 0x0 DUP1 PUSH2 0x100 EXP DUP2 SLOAD DUP2 PUSH1 0xFF MUL NOT AND SWAP1 DUP4 ISZERO ISZERO MUL OR SWAP1 SSTORE POP POP POP POP POP POP POP POP POP JUMP JUMPDEST PUSH2 0x6FE PUSH2 0x1858 JUMP JUMPDEST PUSH1 0x0 PUSH1 0x4 PUSH8 0xFFFFFFFFFFFFFFFF DUP2 GT ISZERO PUSH2 0x71B JUMPI PUSH2 0x71A PUSH2 0x243F JUMP JUMPDEST JUMPDEST PUSH1 0x40 MLOAD SWAP1 DUP1 DUP3 MSTORE DUP1 PUSH1 0x20 MUL PUSH1 0x20 ADD DUP3 ADD PUSH1 0x40 MSTORE DUP1 ISZERO PUSH2 0x749 JUMPI DUP2 PUSH1 0x20 ADD PUSH1 0x20 DUP3 MUL DUP1 CALLDATASIZE DUP4 CALLDATACOPY DUP1 DUP3 ADD SWAP2 POP POP SWAP1 POP JUMPDEST POP SWAP1 POP PUSH1 0x0 PUSH1 0x20 SWAP1 POP JUMPDEST PUSH1 0x20 DUP3 MLOAD PUSH2 0x761 SWAP2 SWAP1 PUSH2 0x224D JUMP JUMPDEST DUP2 GT PUSH2 0x783 JUMPI DUP1 DUP5 ADD MLOAD DUP2 DUP4 ADD MSTORE PUSH1 0x20 DUP2 PUSH2 0x77C SWAP2 SWAP1 PUSH2 0x2055 JUMP JUMPDEST SWAP1 POP PUSH2 0x753 JUMP JUMPDEST POP DUP1 PUSH1 0x0 DUP2 MLOAD DUP2 LT PUSH2 0x798 JUMPI PUSH2 0x797 PUSH2 0x2410 JUMP JUMPDEST JUMPDEST PUSH1 0x20 MUL PUSH1 0x20 ADD ADD MLOAD DUP3 PUSH1 0x0 ADD MLOAD PUSH1 0x0 PUSH1 0x2 DUP2 LT PUSH2 0x7B8 JUMPI PUSH2 0x7B7 PUSH2 0x2410 JUMP JUMPDEST JUMPDEST PUSH1 0x20 MUL ADD DUP2 DUP2 MSTORE POP POP DUP1 PUSH1 0x1 DUP2 MLOAD DUP2 LT PUSH2 0x7D5 JUMPI PUSH2 0x7D4 PUSH2 0x2410 JUMP JUMPDEST JUMPDEST PUSH1 0x20 MUL PUSH1 0x20 ADD ADD MLOAD DUP3 PUSH1 0x0 ADD MLOAD PUSH1 0x1 PUSH1 0x2 DUP2 LT PUSH2 0x7F5 JUMPI PUSH2 0x7F4 PUSH2 0x2410 JUMP JUMPDEST JUMPDEST PUSH1 0x20 MUL ADD DUP2 DUP2 MSTORE POP POP DUP1 PUSH1 0x2 DUP2 MLOAD DUP2 LT PUSH2 0x812 JUMPI PUSH2 0x811 PUSH2 0x2410 JUMP JUMPDEST JUMPDEST PUSH1 0x20 MUL PUSH1 0x20 ADD ADD MLOAD DUP3 PUSH1 0x20 ADD MLOAD PUSH1 0x0 PUSH1 0x2 DUP2 LT PUSH2 0x832 JUMPI PUSH2 0x831 PUSH2 0x2410 JUMP JUMPDEST JUMPDEST PUSH1 0x20 MUL ADD DUP2 DUP2 MSTORE POP POP DUP1 PUSH1 0x3 DUP2 MLOAD DUP2 LT PUSH2 0x84F JUMPI PUSH2 0x84E PUSH2 0x2410 JUMP JUMPDEST JUMPDEST PUSH1 0x20 MUL PUSH1 0x20 ADD ADD MLOAD DUP3 PUSH1 0x20 ADD MLOAD PUSH1 0x1 PUSH1 0x2 DUP2 LT PUSH2 0x86F JUMPI PUSH2 0x86E PUSH2 0x2410 JUMP JUMPDEST JUMPDEST PUSH1 0x20 MUL ADD DUP2 DUP2 MSTORE POP POP POP SWAP2 SWAP1 POP JUMP JUMPDEST PUSH2 0x886 PUSH2 0x187E JUMP JUMPDEST PUSH1 0x0 PUSH1 0x2 PUSH8 0xFFFFFFFFFFFFFFFF DUP2 GT ISZERO PUSH2 0x8A3 JUMPI PUSH2 0x8A2 PUSH2 0x243F JUMP JUMPDEST JUMPDEST PUSH1 0x40 MLOAD SWAP1 DUP1 DUP3 MSTORE DUP1 PUSH1 0x20 MUL PUSH1 0x20 ADD DUP3 ADD PUSH1 0x40 MSTORE DUP1 ISZERO PUSH2 0x8D1 JUMPI DUP2 PUSH1 0x20 ADD PUSH1 0x20 DUP3 MUL DUP1 CALLDATASIZE DUP4 CALLDATACOPY DUP1 DUP3 ADD SWAP2 POP POP SWAP1 POP JUMPDEST POP SWAP1 POP PUSH1 0x0 PUSH1 0x20 SWAP1 POP JUMPDEST PUSH1 0x20 DUP3 MLOAD PUSH2 0x8E9 SWAP2 SWAP1 PUSH2 0x224D JUMP JUMPDEST DUP2 GT PUSH2 0x90B JUMPI DUP1 DUP5 ADD MLOAD DUP2 DUP4 ADD MSTORE PUSH1 0x20 DUP2 PUSH2 0x904 SWAP2 SWAP1 PUSH2 0x2055 JUMP JUMPDEST SWAP1 POP PUSH2 0x8DB JUMP JUMPDEST POP DUP1 PUSH1 0x0 DUP2 MLOAD DUP2 LT PUSH2 0x920 JUMPI PUSH2 0x91F PUSH2 0x2410 JUMP JUMPDEST JUMPDEST PUSH1 0x20 MUL PUSH1 0x20 ADD ADD MLOAD DUP3 PUSH1 0x0 ADD DUP2 DUP2 MSTORE POP POP DUP1 PUSH1 0x1 DUP2 MLOAD DUP2 LT PUSH2 0x945 JUMPI PUSH2 0x944 PUSH2 0x2410 JUMP JUMPDEST JUMPDEST PUSH1 0x20 MUL PUSH1 0x20 ADD ADD MLOAD DUP3 PUSH1 0x20 ADD DUP2 DUP2 MSTORE POP POP POP SWAP2 SWAP1 POP JUMP JUMPDEST PUSH1 0x0 DUP1 PUSH1 0x40 MLOAD DUP1 PUSH1 0x40 ADD PUSH1 0x40 MSTORE DUP1 PUSH1 0x0 DUP2 MSTORE PUSH1 0x20 ADD PUSH1 0x0 DUP2 MSTORE POP SWAP1 POP PUSH1 0x0 DUP1 PUSH1 0x1 SWAP1 POP JUMPDEST PUSH1 0x0 DUP6 EQ PUSH2 0x9FA JUMPI PUSH1 0x0 DUP2 DUP7 AND EQ PUSH2 0x9E0 JUMPI DUP1 DUP6 PUSH2 0x99E SWAP2 SWAP1 PUSH2 0x22A7 JUMP JUMPDEST SWAP5 POP PUSH2 0x9DD DUP4 PUSH2 0x9D8 DUP12 PUSH1 0x0 ADD MLOAD DUP13 PUSH1 0x20 ADD MLOAD DUP7 PUSH1 0x40 MLOAD PUSH1 0x20 ADD PUSH2 0x9C4 SWAP4 SWAP3 SWAP2 SWAP1 PUSH2 0x1E6F JUMP JUMPDEST PUSH1 0x40 MLOAD PUSH1 0x20 DUP2 DUP4 SUB SUB DUP2 MSTORE SWAP1 PUSH1 0x40 MSTORE PUSH2 0xE11 JUMP JUMPDEST PUSH2 0xD1F JUMP JUMPDEST SWAP3 POP JUMPDEST PUSH1 0x1 DUP2 SWAP1 SHL SWAP1 POP DUP2 DUP1 PUSH2 0x9F2 SWAP1 PUSH2 0x232E JUMP JUMPDEST SWAP3 POP POP PUSH2 0x980 JUMP JUMPDEST PUSH1 0x0 PUSH1 0x3 PUSH8 0xFFFFFFFFFFFFFFFF DUP2 GT ISZERO PUSH2 0xA17 JUMPI PUSH2 0xA16 PUSH2 0x243F JUMP JUMPDEST JUMPDEST PUSH1 0x40 MLOAD SWAP1 DUP1 DUP3 MSTORE DUP1 PUSH1 0x20 MUL PUSH1 0x20 ADD DUP3 ADD PUSH1 0x40 MSTORE DUP1 ISZERO PUSH2 0xA50 JUMPI DUP2 PUSH1 0x20 ADD JUMPDEST PUSH2 0xA3D PUSH2 0x187E JUMP JUMPDEST DUP2 MSTORE PUSH1 0x20 ADD SWAP1 PUSH1 0x1 SWAP1 SUB SWAP1 DUP2 PUSH2 0xA35 JUMPI SWAP1 POP JUMPDEST POP SWAP1 POP PUSH1 0x0 PUSH1 0x3 PUSH8 0xFFFFFFFFFFFFFFFF DUP2 GT ISZERO PUSH2 0xA70 JUMPI PUSH2 0xA6F PUSH2 0x243F JUMP JUMPDEST JUMPDEST PUSH1 0x40 MLOAD SWAP1 DUP1 DUP3 MSTORE DUP1 PUSH1 0x20 MUL PUSH1 0x20 ADD DUP3 ADD PUSH1 0x40 MSTORE DUP1 ISZERO PUSH2 0xAA9 JUMPI DUP2 PUSH1 0x20 ADD JUMPDEST PUSH2 0xA96 PUSH2 0x1858 JUMP JUMPDEST DUP2 MSTORE PUSH1 0x20 ADD SWAP1 PUSH1 0x1 SWAP1 SUB SWAP1 DUP2 PUSH2 0xA8E JUMPI SWAP1 POP JUMPDEST POP SWAP1 POP PUSH2 0xAB5 DUP9 PUSH2 0xF18 JUMP JUMPDEST DUP3 PUSH1 0x0 DUP2 MLOAD DUP2 LT PUSH2 0xAC9 JUMPI PUSH2 0xAC8 PUSH2 0x2410 JUMP JUMPDEST JUMPDEST PUSH1 0x20 MUL PUSH1 0x20 ADD ADD DUP2 SWAP1 MSTORE POP PUSH2 0xB08 DUP12 PUSH1 0x0 ADD MLOAD DUP13 PUSH1 0x20 ADD MLOAD DUP12 PUSH1 0x40 MLOAD PUSH1 0x20 ADD PUSH2 0xAF4 SWAP4 SWAP3 SWAP2 SWAP1 PUSH2 0x1E36 JUMP JUMPDEST PUSH1 0x40 MLOAD PUSH1 0x20 DUP2 DUP4 SUB SUB DUP2 MSTORE SWAP1 PUSH1 0x40 MSTORE PUSH2 0xE11 JUMP JUMPDEST DUP3 PUSH1 0x1 DUP2 MLOAD DUP2 LT PUSH2 0xB1C JUMPI PUSH2 0xB1B PUSH2 0x2410 JUMP JUMPDEST JUMPDEST PUSH1 0x20 MUL PUSH1 0x20 ADD ADD DUP2 SWAP1 MSTORE POP DUP5 DUP3 PUSH1 0x2 DUP2 MLOAD DUP2 LT PUSH2 0xB3C JUMPI PUSH2 0xB3B PUSH2 0x2410 JUMP JUMPDEST JUMPDEST PUSH1 0x20 MUL PUSH1 0x20 ADD ADD DUP2 SWAP1 MSTORE POP PUSH2 0xB4F PUSH2 0xFC7 JUMP JUMPDEST DUP2 PUSH1 0x0 DUP2 MLOAD DUP2 LT PUSH2 0xB63 JUMPI PUSH2 0xB62 PUSH2 0x2410 JUMP JUMPDEST JUMPDEST PUSH1 0x20 MUL PUSH1 0x20 ADD ADD DUP2 SWAP1 MSTORE POP DUP10 DUP2 PUSH1 0x1 DUP2 MLOAD DUP2 LT PUSH2 0xB83 JUMPI PUSH2 0xB82 PUSH2 0x2410 JUMP JUMPDEST JUMPDEST PUSH1 0x20 MUL PUSH1 0x20 ADD ADD DUP2 SWAP1 MSTORE POP DUP11 DUP2 PUSH1 0x2 DUP2 MLOAD DUP2 LT PUSH2 0xBA3 JUMPI PUSH2 0xBA2 PUSH2 0x2410 JUMP JUMPDEST JUMPDEST PUSH1 0x20 MUL PUSH1 0x20 ADD ADD DUP2 SWAP1 MSTORE POP PUSH2 0xBB8 DUP3 DUP3 PUSH2 0x1091 JUMP JUMPDEST SWAP6 POP POP POP POP POP POP SWAP6 SWAP5 POP POP POP POP POP JUMP JUMPDEST PUSH1 0x0 DUP1 PUSH1 0x2 PUSH8 0xFFFFFFFFFFFFFFFF DUP2 GT ISZERO PUSH2 0xBE6 JUMPI PUSH2 0xBE5 PUSH2 0x243F JUMP JUMPDEST JUMPDEST PUSH1 0x40 MLOAD SWAP1 DUP1 DUP3 MSTORE DUP1 PUSH1 0x20 MUL PUSH1 0x20 ADD DUP3 ADD PUSH1 0x40 MSTORE DUP1 ISZERO PUSH2 0xC1F JUMPI DUP2 PUSH1 0x20 ADD JUMPDEST PUSH2 0xC0C PUSH2 0x187E JUMP JUMPDEST DUP2 MSTORE PUSH1 0x20 ADD SWAP1 PUSH1 0x1 SWAP1 SUB SWAP1 DUP2 PUSH2 0xC04 JUMPI SWAP1 POP JUMPDEST POP SWAP1 POP PUSH1 0x0 PUSH1 0x2 PUSH8 0xFFFFFFFFFFFFFFFF DUP2 GT ISZERO PUSH2 0xC3F JUMPI PUSH2 0xC3E PUSH2 0x243F JUMP JUMPDEST JUMPDEST PUSH1 0x40 MLOAD SWAP1 DUP1 DUP3 MSTORE DUP1 PUSH1 0x20 MUL PUSH1 0x20 ADD DUP3 ADD PUSH1 0x40 MSTORE DUP1 ISZERO PUSH2 0xC78 JUMPI DUP2 PUSH1 0x20 ADD JUMPDEST PUSH2 0xC65 PUSH2 0x1858 JUMP JUMPDEST DUP2 MSTORE PUSH1 0x20 ADD SWAP1 PUSH1 0x1 SWAP1 SUB SWAP1 DUP2 PUSH2 0xC5D JUMPI SWAP1 POP JUMPDEST POP SWAP1 POP PUSH2 0xC84 DUP5 PUSH2 0xF18 JUMP JUMPDEST DUP3 PUSH1 0x0 DUP2 MLOAD DUP2 LT PUSH2 0xC98 JUMPI PUSH2 0xC97 PUSH2 0x2410 JUMP JUMPDEST JUMPDEST PUSH1 0x20 MUL PUSH1 0x20 ADD ADD DUP2 SWAP1 MSTORE POP DUP5 DUP3 PUSH1 0x1 DUP2 MLOAD DUP2 LT PUSH2 0xCB8 JUMPI PUSH2 0xCB7 PUSH2 0x2410 JUMP JUMPDEST JUMPDEST PUSH1 0x20 MUL PUSH1 0x20 ADD ADD DUP2 SWAP1 MSTORE POP PUSH2 0xCCB PUSH2 0xFC7 JUMP JUMPDEST DUP2 PUSH1 0x0 DUP2 MLOAD DUP2 LT PUSH2 0xCDF JUMPI PUSH2 0xCDE PUSH2 0x2410 JUMP JUMPDEST JUMPDEST PUSH1 0x20 MUL PUSH1 0x20 ADD ADD DUP2 SWAP1 MSTORE POP DUP6 DUP2 PUSH1 0x1 DUP2 MLOAD DUP2 LT PUSH2 0xCFF JUMPI PUSH2 0xCFE PUSH2 0x2410 JUMP JUMPDEST JUMPDEST PUSH1 0x20 MUL PUSH1 0x20 ADD ADD DUP2 SWAP1 MSTORE POP PUSH2 0xD14 DUP3 DUP3 PUSH2 0x1091 JUMP JUMPDEST SWAP3 POP POP POP SWAP4 SWAP3 POP POP POP JUMP JUMPDEST PUSH2 0xD27 PUSH2 0x187E JUMP JUMPDEST PUSH2 0xD2F PUSH2 0x1898 JUMP JUMPDEST DUP4 PUSH1 0x0 ADD MLOAD DUP2 PUSH1 0x0 PUSH1 0x4 DUP2 LT PUSH2 0xD48 JUMPI PUSH2 0xD47 PUSH2 0x2410 JUMP JUMPDEST JUMPDEST PUSH1 0x20 MUL ADD DUP2 DUP2 MSTORE POP POP DUP4 PUSH1 0x20 ADD MLOAD DUP2 PUSH1 0x1 PUSH1 0x4 DUP2 LT PUSH2 0xD6A JUMPI PUSH2 0xD69 PUSH2 0x2410 JUMP JUMPDEST JUMPDEST PUSH1 0x20 MUL ADD DUP2 DUP2 MSTORE POP POP DUP3 PUSH1 0x0 ADD MLOAD DUP2 PUSH1 0x2 PUSH1 0x4 DUP2 LT PUSH2 0xD8C JUMPI PUSH2 0xD8B PUSH2 0x2410 JUMP JUMPDEST JUMPDEST PUSH1 0x20 MUL ADD DUP2 DUP2 MSTORE POP POP DUP3 PUSH1 0x20 ADD MLOAD DUP2 PUSH1 0x3 PUSH1 0x4 DUP2 LT PUSH2 0xDAE JUMPI PUSH2 0xDAD PUSH2 0x2410 JUMP JUMPDEST JUMPDEST PUSH1 0x20 MUL ADD DUP2 DUP2 MSTORE POP POP PUSH1 0x0 PUSH1 0x40 DUP4 PUSH1 0x80 DUP5 PUSH1 0x6 PUSH2 0x7D0 GAS SUB STATICCALL SWAP1 POP DUP1 PUSH2 0xE09 JUMPI PUSH1 0x40 MLOAD PUSH32 0x8C379A000000000000000000000000000000000000000000000000000000000 DUP2 MSTORE PUSH1 0x4 ADD PUSH2 0xE00 SWAP1 PUSH2 0x1F87 JUMP JUMPDEST PUSH1 0x40 MLOAD DUP1 SWAP2 SUB SWAP1 REVERT JUMPDEST POP POP SWAP3 SWAP2 POP POP JUMP JUMPDEST PUSH2 0xE19 PUSH2 0x187E JUMP JUMPDEST PUSH1 0x0 PUSH1 0x2 DUP4 PUSH1 0x40 MLOAD PUSH2 0xE2B SWAP2 SWAP1 PUSH2 0x1EAC JUMP JUMPDEST PUSH1 0x20 PUSH1 0x40 MLOAD DUP1 DUP4 SUB DUP2 DUP6 GAS STATICCALL ISZERO DUP1 ISZERO PUSH2 0xE48 JUMPI RETURNDATASIZE PUSH1 0x0 DUP1 RETURNDATACOPY RETURNDATASIZE PUSH1 0x0 REVERT JUMPDEST POP POP POP PUSH1 0x40 MLOAD RETURNDATASIZE PUSH1 0x1F NOT PUSH1 0x1F DUP3 ADD AND DUP3 ADD DUP1 PUSH1 0x40 MSTORE POP DUP2 ADD SWAP1 PUSH2 0xE6B SWAP2 SWAP1 PUSH2 0x19C0 JUMP JUMPDEST SWAP1 POP PUSH1 0x0 PUSH32 0x30644E72E131A029B85045B68181585D97816A916871CA8D3C208C16D87CFD47 DUP3 PUSH1 0x0 SHR PUSH2 0xE9E SWAP2 SWAP1 PUSH2 0x2381 JUMP JUMPDEST SWAP1 POP PUSH1 0x0 JUMPDEST PUSH1 0x1 ISZERO PUSH2 0xEF1 JUMPI PUSH2 0xEB3 DUP3 PUSH2 0x1447 JUMP JUMPDEST SWAP1 POP PUSH1 0x0 DUP2 GT ISZERO PUSH2 0xEDD JUMPI PUSH1 0x40 MLOAD DUP1 PUSH1 0x40 ADD PUSH1 0x40 MSTORE DUP1 DUP4 DUP2 MSTORE PUSH1 0x20 ADD DUP3 DUP2 MSTORE POP SWAP4 POP POP POP POP PUSH2 0xEF5 JUMP JUMPDEST PUSH1 0x1 DUP3 PUSH2 0xEEA SWAP2 SWAP1 PUSH2 0x2055 JUMP JUMPDEST SWAP2 POP PUSH2 0xEA3 JUMP JUMPDEST POP POP POP JUMPDEST SWAP2 SWAP1 POP JUMP JUMPDEST PUSH1 0x0 PUSH2 0xF0F DUP5 PUSH2 0xF09 DUP6 PUSH2 0xE11 JUMP JUMPDEST DUP5 PUSH2 0xBC8 JUMP JUMPDEST SWAP1 POP SWAP4 SWAP3 POP POP POP JUMP JUMPDEST PUSH2 0xF20 PUSH2 0x187E JUMP JUMPDEST PUSH2 0xF29 DUP3 PUSH2 0x14CF JUMP JUMPDEST ISZERO PUSH2 0xF4C JUMPI PUSH1 0x40 MLOAD DUP1 PUSH1 0x40 ADD PUSH1 0x40 MSTORE DUP1 PUSH1 0x0 DUP2 MSTORE PUSH1 0x20 ADD PUSH1 0x0 DUP2 MSTORE POP SWAP1 POP PUSH2 0xFC2 JUMP JUMPDEST PUSH1 0x40 MLOAD DUP1 PUSH1 0x40 ADD PUSH1 0x40 MSTORE DUP1 DUP4 PUSH1 0x0 ADD MLOAD DUP2 MSTORE PUSH1 0x20 ADD PUSH32 0x30644E72E131A029B85045B68181585D97816A916871CA8D3C208C16D87CFD47 DUP5 PUSH1 0x20 ADD MLOAD PUSH2 0xF91 SWAP2 SWAP1 PUSH2 0x2381 JUMP JUMPDEST PUSH32 0x30644E72E131A029B85045B68181585D97816A916871CA8D3C208C16D87CFD47 PUSH2 0xFBC SWAP2 SWAP1 PUSH2 0x22A7 JUMP JUMPDEST DUP2 MSTORE POP SWAP1 POP JUMPDEST SWAP2 SWAP1 POP JUMP JUMPDEST PUSH2 0xFCF PUSH2 0x1858 JUMP JUMPDEST PUSH1 0x40 MLOAD DUP1 PUSH1 0x40 ADD PUSH1 0x40 MSTORE DUP1 PUSH1 0x40 MLOAD DUP1 PUSH1 0x40 ADD PUSH1 0x40 MSTORE DUP1 PUSH32 0x198E9393920D483A7260BFB731FB5D25F1AA493335A9E71297E485B7AEF312C2 DUP2 MSTORE PUSH1 0x20 ADD PUSH32 0x1800DEEF121F1E76426A00665E5C4479674322D4F75EDADD46DEBD5CD992F6ED DUP2 MSTORE POP DUP2 MSTORE PUSH1 0x20 ADD PUSH1 0x40 MLOAD DUP1 PUSH1 0x40 ADD PUSH1 0x40 MSTORE DUP1 PUSH32 0x90689D0585FF075EC9E99AD690C3395BC4B313370B38EF355ACDADCD122975B DUP2 MSTORE PUSH1 0x20 ADD PUSH32 0x12C85EA5DB8C6DEB4AAB71808DCB408FE3D1E7690C43D37B4CE6CC0166FA7DAA DUP2 MSTORE POP DUP2 MSTORE POP SWAP1 POP SWAP1 JUMP JUMPDEST PUSH1 0x0 DUP2 MLOAD DUP4 MLOAD EQ PUSH2 0x10D7 JUMPI PUSH1 0x40 MLOAD PUSH32 0x8C379A000000000000000000000000000000000000000000000000000000000 DUP2 MSTORE PUSH1 0x4 ADD PUSH2 0x10CE SWAP1 PUSH2 0x1FA7 JUMP JUMPDEST PUSH1 0x40 MLOAD DUP1 SWAP2 SUB SWAP1 REVERT JUMPDEST PUSH1 0x0 DUP4 MLOAD SWAP1 POP PUSH1 0x0 PUSH1 0x6 DUP3 PUSH2 0x10EC SWAP2 SWAP1 PUSH2 0x224D JUMP JUMPDEST SWAP1 POP PUSH1 0x0 DUP2 PUSH8 0xFFFFFFFFFFFFFFFF DUP2 GT ISZERO PUSH2 0x110A JUMPI PUSH2 0x1109 PUSH2 0x243F JUMP JUMPDEST JUMPDEST PUSH1 0x40 MLOAD SWAP1 DUP1 DUP3 MSTORE DUP1 PUSH1 0x20 MUL PUSH1 0x20 ADD DUP3 ADD PUSH1 0x40 MSTORE DUP1 ISZERO PUSH2 0x1138 JUMPI DUP2 PUSH1 0x20 ADD PUSH1 0x20 DUP3 MUL DUP1 CALLDATASIZE DUP4 CALLDATACOPY DUP1 DUP3 ADD SWAP2 POP POP SWAP1 POP JUMPDEST POP SWAP1 POP PUSH1 0x0 JUMPDEST DUP4 DUP2 LT ISZERO PUSH2 0x13BD JUMPI DUP7 DUP2 DUP2 MLOAD DUP2 LT PUSH2 0x1159 JUMPI PUSH2 0x1158 PUSH2 0x2410 JUMP JUMPDEST JUMPDEST PUSH1 0x20 MUL PUSH1 0x20 ADD ADD MLOAD PUSH1 0x0 ADD MLOAD DUP3 PUSH1 0x0 PUSH1 0x6 DUP5 PUSH2 0x1175 SWAP2 SWAP1 PUSH2 0x224D JUMP JUMPDEST PUSH2 0x117F SWAP2 SWAP1 PUSH2 0x2055 JUMP JUMPDEST DUP2 MLOAD DUP2 LT PUSH2 0x1190 JUMPI PUSH2 0x118F PUSH2 0x2410 JUMP JUMPDEST JUMPDEST PUSH1 0x20 MUL PUSH1 0x20 ADD ADD DUP2 DUP2 MSTORE POP POP DUP7 DUP2 DUP2 MLOAD DUP2 LT PUSH2 0x11AF JUMPI PUSH2 0x11AE PUSH2 0x2410 JUMP JUMPDEST JUMPDEST PUSH1 0x20 MUL PUSH1 0x20 ADD ADD MLOAD PUSH1 0x20 ADD MLOAD DUP3 PUSH1 0x1 PUSH1 0x6 DUP5 PUSH2 0x11CB SWAP2 SWAP1 PUSH2 0x224D JUMP JUMPDEST PUSH2 0x11D5 SWAP2 SWAP1 PUSH2 0x2055 JUMP JUMPDEST DUP2 MLOAD DUP2 LT PUSH2 0x11E6 JUMPI PUSH2 0x11E5 PUSH2 0x2410 JUMP JUMPDEST JUMPDEST PUSH1 0x20 MUL PUSH1 0x20 ADD ADD DUP2 DUP2 MSTORE POP POP DUP6 DUP2 DUP2 MLOAD DUP2 LT PUSH2 0x1205 JUMPI PUSH2 0x1204 PUSH2 0x2410 JUMP JUMPDEST JUMPDEST PUSH1 0x20 MUL PUSH1 0x20 ADD ADD MLOAD PUSH1 0x0 ADD MLOAD PUSH1 0x0 PUSH1 0x2 DUP2 LT PUSH2 0x1224 JUMPI PUSH2 0x1223 PUSH2 0x2410 JUMP JUMPDEST JUMPDEST PUSH1 0x20 MUL ADD MLOAD DUP3 PUSH1 0x2 PUSH1 0x6 DUP5 PUSH2 0x1239 SWAP2 SWAP1 PUSH2 0x224D JUMP JUMPDEST PUSH2 0x1243 SWAP2 SWAP1 PUSH2 0x2055 JUMP JUMPDEST DUP2 MLOAD DUP2 LT PUSH2 0x1254 JUMPI PUSH2 0x1253 PUSH2 0x2410 JUMP JUMPDEST JUMPDEST PUSH1 0x20 MUL PUSH1 0x20 ADD ADD DUP2 DUP2 MSTORE POP POP DUP6 DUP2 DUP2 MLOAD DUP2 LT PUSH2 0x1273 JUMPI PUSH2 0x1272 PUSH2 0x2410 JUMP JUMPDEST JUMPDEST PUSH1 0x20 MUL PUSH1 0x20 ADD ADD MLOAD PUSH1 0x0 ADD MLOAD PUSH1 0x1 PUSH1 0x2 DUP2 LT PUSH2 0x1292 JUMPI PUSH2 0x1291 PUSH2 0x2410 JUMP JUMPDEST JUMPDEST PUSH1 0x20 MUL ADD MLOAD DUP3 PUSH1 0x3 PUSH1 0x6 DUP5 PUSH2 0x12A7 SWAP2 SWAP1 PUSH2 0x224D JUMP JUMPDEST PUSH2 0x12B1 SWAP2 SWAP1 PUSH2 0x2055 JUMP JUMPDEST DUP2 MLOAD DUP2 LT PUSH2 0x12C2 JUMPI PUSH2 0x12C1 PUSH2 0x2410 JUMP JUMPDEST JUMPDEST PUSH1 0x20 MUL PUSH1 0x20 ADD ADD DUP2 DUP2 MSTORE POP POP DUP6 DUP2 DUP2 MLOAD DUP2 LT PUSH2 0x12E1 JUMPI PUSH2 0x12E0 PUSH2 0x2410 JUMP JUMPDEST JUMPDEST PUSH1 0x20 MUL PUSH1 0x20 ADD ADD MLOAD PUSH1 0x20 ADD MLOAD PUSH1 0x0 PUSH1 0x2 DUP2 LT PUSH2 0x1300 JUMPI PUSH2 0x12FF PUSH2 0x2410 JUMP JUMPDEST JUMPDEST PUSH1 0x20 MUL ADD MLOAD DUP3 PUSH1 0x4 PUSH1 0x6 DUP5 PUSH2 0x1315 SWAP2 SWAP1 PUSH2 0x224D JUMP JUMPDEST PUSH2 0x131F SWAP2 SWAP1 PUSH2 0x2055 JUMP JUMPDEST DUP2 MLOAD DUP2 LT PUSH2 0x1330 JUMPI PUSH2 0x132F PUSH2 0x2410 JUMP JUMPDEST JUMPDEST PUSH1 0x20 MUL PUSH1 0x20 ADD ADD DUP2 DUP2 MSTORE POP POP DUP6 DUP2 DUP2 MLOAD DUP2 LT PUSH2 0x134F JUMPI PUSH2 0x134E PUSH2 0x2410 JUMP JUMPDEST JUMPDEST PUSH1 0x20 MUL PUSH1 0x20 ADD ADD MLOAD PUSH1 0x20 ADD MLOAD PUSH1 0x1 PUSH1 0x2 DUP2 LT PUSH2 0x136E JUMPI PUSH2 0x136D PUSH2 0x2410 JUMP JUMPDEST JUMPDEST PUSH1 0x20 MUL ADD MLOAD DUP3 PUSH1 0x5 PUSH1 0x6 DUP5 PUSH2 0x1383 SWAP2 SWAP1 PUSH2 0x224D JUMP JUMPDEST PUSH2 0x138D SWAP2 SWAP1 PUSH2 0x2055 JUMP JUMPDEST DUP2 MLOAD DUP2 LT PUSH2 0x139E JUMPI PUSH2 0x139D PUSH2 0x2410 JUMP JUMPDEST JUMPDEST PUSH1 0x20 MUL PUSH1 0x20 ADD ADD DUP2 DUP2 MSTORE POP POP DUP1 DUP1 PUSH2 0x13B5 SWAP1 PUSH2 0x232E JUMP JUMPDEST SWAP2 POP POP PUSH2 0x113E JUMP JUMPDEST POP PUSH2 0x13C6 PUSH2 0x18BA JUMP JUMPDEST PUSH1 0x0 PUSH1 0x20 DUP3 PUSH1 0x20 DUP7 MUL PUSH1 0x20 DUP7 ADD PUSH1 0x8 PUSH2 0x7D0 GAS SUB STATICCALL SWAP1 POP DUP1 PUSH2 0x141D JUMPI PUSH1 0x40 MLOAD PUSH32 0x8C379A000000000000000000000000000000000000000000000000000000000 DUP2 MSTORE PUSH1 0x4 ADD PUSH2 0x1414 SWAP1 PUSH2 0x1F67 JUMP JUMPDEST PUSH1 0x40 MLOAD DUP1 SWAP2 SUB SWAP1 REVERT JUMPDEST PUSH1 0x0 DUP3 PUSH1 0x0 PUSH1 0x1 DUP2 LT PUSH2 0x1433 JUMPI PUSH2 0x1432 PUSH2 0x2410 JUMP JUMPDEST JUMPDEST PUSH1 0x20 MUL ADD MLOAD EQ ISZERO SWAP6 POP POP POP POP POP POP SWAP3 SWAP2 POP POP JUMP JUMPDEST PUSH1 0x0 PUSH2 0x14C8 PUSH32 0x30644E72E131A029B85045B68181585D97816A916871CA8D3C208C16D87CFD47 DUP1 PUSH1 0x3 PUSH2 0x14A6 PUSH1 0x3 PUSH32 0x30644E72E131A029B85045B68181585D97816A916871CA8D3C208C16D87CFD47 DUP9 PUSH2 0x14EF SWAP1 SWAP3 SWAP2 SWAP1 PUSH4 0xFFFFFFFF AND JUMP JUMPDEST PUSH2 0x14B0 SWAP2 SWAP1 PUSH2 0x2055 JUMP JUMPDEST PUSH2 0x14BA SWAP2 SWAP1 PUSH2 0x2381 JUMP JUMPDEST PUSH2 0x153D SWAP1 SWAP2 SWAP1 PUSH4 0xFFFFFFFF AND JUMP JUMPDEST SWAP1 POP SWAP2 SWAP1 POP JUMP JUMPDEST PUSH1 0x0 DUP1 DUP3 PUSH1 0x0 ADD MLOAD EQ DUP1 ISZERO PUSH2 0x14E8 JUMPI POP PUSH1 0x0 DUP3 PUSH1 0x20 ADD MLOAD EQ JUMPDEST SWAP1 POP SWAP2 SWAP1 POP JUMP JUMPDEST PUSH1 0x0 PUSH1 0x40 MLOAD PUSH1 0x20 DUP2 ADD PUSH1 0x20 DUP2 MSTORE PUSH1 0x20 DUP1 DUP3 ADD MSTORE PUSH1 0x20 PUSH1 0x40 DUP3 ADD MSTORE DUP6 PUSH1 0x60 DUP3 ADD MSTORE DUP5 PUSH1 0x80 DUP3 ADD MSTORE DUP4 PUSH1 0xA0 DUP3 ADD MSTORE PUSH1 0x20 DUP3 PUSH1 0xC0 DUP4 PUSH1 0x5 PUSH1 0x0 NOT STATICCALL PUSH2 0x1530 JUMPI PUSH1 0x0 DUP1 REVERT JUMPDEST DUP2 MLOAD SWAP3 POP POP POP SWAP4 SWAP3 POP POP POP JUMP JUMPDEST PUSH1 0x0 PUSH1 0x1 PUSH2 0x154B DUP5 DUP5 PUSH2 0x178D JUMP JUMPDEST EQ PUSH2 0x1559 JUMPI PUSH1 0x0 SWAP1 POP PUSH2 0x1787 JUMP JUMPDEST PUSH1 0x0 DUP4 EQ ISZERO PUSH2 0x156B JUMPI PUSH1 0x0 SWAP1 POP PUSH2 0x1787 JUMP JUMPDEST PUSH1 0x3 PUSH1 0x4 DUP4 PUSH2 0x157A SWAP2 SWAP1 PUSH2 0x2381 JUMP JUMPDEST EQ ISZERO PUSH2 0x15AA JUMPI PUSH2 0x15A3 DUP4 PUSH1 0x4 PUSH1 0x1 DUP6 PUSH2 0x1593 SWAP2 SWAP1 PUSH2 0x2055 JUMP JUMPDEST PUSH2 0x159D SWAP2 SWAP1 PUSH2 0x20AB JUMP JUMPDEST DUP5 PUSH2 0x14EF JUMP JUMPDEST SWAP1 POP PUSH2 0x1787 JUMP JUMPDEST PUSH1 0x0 PUSH1 0x1 DUP4 PUSH2 0x15B9 SWAP2 SWAP1 PUSH2 0x22A7 JUMP JUMPDEST SWAP1 POP PUSH1 0x0 JUMPDEST PUSH1 0x0 PUSH1 0x2 DUP4 PUSH2 0x15CD SWAP2 SWAP1 PUSH2 0x2381 JUMP JUMPDEST EQ ISZERO PUSH2 0x15F6 JUMPI PUSH1 0x2 DUP3 PUSH2 0x15E0 SWAP2 SWAP1 PUSH2 0x20AB JUMP JUMPDEST SWAP2 POP PUSH1 0x1 DUP2 PUSH2 0x15EF SWAP2 SWAP1 PUSH2 0x2055 JUMP JUMPDEST SWAP1 POP PUSH2 0x15BE JUMP JUMPDEST PUSH1 0x0 PUSH1 0x2 SWAP1 POP JUMPDEST PUSH32 0xFFFFFFFFFFFFFFFFFFFFFFFFFFFFFFFFFFFFFFFFFFFFFFFFFFFFFFFFFFFFFFFF PUSH2 0x1628 DUP3 DUP8 PUSH2 0x178D JUMP JUMPDEST EQ PUSH2 0x1641 JUMPI PUSH1 0x1 DUP2 PUSH2 0x163A SWAP2 SWAP1 PUSH2 0x2055 JUMP JUMPDEST SWAP1 POP PUSH2 0x15FD JUMP JUMPDEST PUSH1 0x0 PUSH2 0x1666 DUP8 PUSH1 0x2 PUSH1 0x1 DUP8 PUSH2 0x1656 SWAP2 SWAP1 PUSH2 0x2055 JUMP JUMPDEST PUSH2 0x1660 SWAP2 SWAP1 PUSH2 0x20AB JUMP JUMPDEST DUP9 PUSH2 0x14EF JUMP JUMPDEST SWAP1 POP PUSH1 0x0 PUSH2 0x1675 DUP9 DUP7 DUP10 PUSH2 0x14EF JUMP JUMPDEST SWAP1 POP PUSH1 0x0 PUSH2 0x1684 DUP5 DUP8 DUP11 PUSH2 0x14EF JUMP JUMPDEST SWAP1 POP PUSH1 0x0 DUP6 SWAP1 POP PUSH1 0x0 DUP1 PUSH1 0x0 DUP6 SWAP1 POP JUMPDEST PUSH1 0x1 ISZERO PUSH2 0x177C JUMPI DUP6 SWAP1 POP PUSH1 0x0 SWAP2 POP PUSH1 0x0 SWAP2 POP JUMPDEST DUP4 DUP3 LT ISZERO PUSH2 0x16DE JUMPI PUSH1 0x1 DUP2 EQ ISZERO PUSH2 0x16BD JUMPI PUSH2 0x16DE JUMP JUMPDEST PUSH2 0x16C9 DUP2 PUSH1 0x2 DUP15 PUSH2 0x14EF JUMP JUMPDEST SWAP1 POP DUP2 DUP1 PUSH2 0x16D6 SWAP1 PUSH2 0x232E JUMP JUMPDEST SWAP3 POP POP PUSH2 0x16A7 JUMP JUMPDEST PUSH1 0x0 DUP3 EQ ISZERO PUSH2 0x16F9 JUMPI DUP7 SWAP11 POP POP POP POP POP POP POP POP POP POP POP PUSH2 0x1787 JUMP JUMPDEST PUSH2 0x1727 DUP6 PUSH1 0x1 DUP5 DUP8 PUSH2 0x170B SWAP2 SWAP1 PUSH2 0x22A7 JUMP JUMPDEST PUSH2 0x1715 SWAP2 SWAP1 PUSH2 0x22A7 JUMP JUMPDEST PUSH1 0x2 PUSH2 0x1721 SWAP2 SWAP1 PUSH2 0x212F JUMP JUMPDEST DUP15 PUSH2 0x14EF JUMP JUMPDEST SWAP3 POP DUP12 DUP4 DUP5 PUSH2 0x1736 SWAP2 SWAP1 PUSH2 0x224D JUMP JUMPDEST PUSH2 0x1740 SWAP2 SWAP1 PUSH2 0x2381 JUMP JUMPDEST SWAP5 POP DUP12 DUP4 DUP9 PUSH2 0x174F SWAP2 SWAP1 PUSH2 0x224D JUMP JUMPDEST PUSH2 0x1759 SWAP2 SWAP1 PUSH2 0x2381 JUMP JUMPDEST SWAP7 POP DUP12 DUP6 DUP8 PUSH2 0x1768 SWAP2 SWAP1 PUSH2 0x224D JUMP JUMPDEST PUSH2 0x1772 SWAP2 SWAP1 PUSH2 0x2381 JUMP JUMPDEST SWAP6 POP DUP2 SWAP4 POP PUSH2 0x1694 JUMP JUMPDEST POP POP POP POP POP POP POP POP POP POP JUMPDEST SWAP3 SWAP2 POP POP JUMP JUMPDEST PUSH1 0x0 DUP1 PUSH2 0x17B3 DUP5 PUSH1 0x2 PUSH1 0x1 DUP7 PUSH2 0x17A3 SWAP2 SWAP1 PUSH2 0x22A7 JUMP JUMPDEST PUSH2 0x17AD SWAP2 SWAP1 PUSH2 0x20AB JUMP JUMPDEST DUP6 PUSH2 0x14EF JUMP JUMPDEST SWAP1 POP PUSH1 0x0 DUP2 EQ DUP1 PUSH2 0x17C4 JUMPI POP PUSH1 0x1 DUP2 EQ JUMPDEST ISZERO PUSH2 0x17D2 JUMPI DUP1 SWAP2 POP POP PUSH2 0x1852 JUMP JUMPDEST PUSH1 0x1 DUP4 PUSH2 0x17DF SWAP2 SWAP1 PUSH2 0x22A7 JUMP JUMPDEST DUP2 EQ ISZERO PUSH2 0x180F JUMPI PUSH32 0xFFFFFFFFFFFFFFFFFFFFFFFFFFFFFFFFFFFFFFFFFFFFFFFFFFFFFFFFFFFFFFFF SWAP2 POP POP PUSH2 0x1852 JUMP JUMPDEST PUSH1 0x0 PUSH2 0x1850 JUMPI PUSH1 0x40 MLOAD PUSH32 0x8C379A000000000000000000000000000000000000000000000000000000000 DUP2 MSTORE PUSH1 0x4 ADD PUSH2 0x1847 SWAP1 PUSH2 0x1F47 JUMP JUMPDEST PUSH1 0x40 MLOAD DUP1 SWAP2 SUB SWAP1 REVERT JUMPDEST POP JUMPDEST SWAP3 SWAP2 POP POP JUMP JUMPDEST PUSH1 0x40 MLOAD DUP1 PUSH1 0x40 ADD PUSH1 0x40 MSTORE DUP1 PUSH2 0x186B PUSH2 0x18DC JUMP JUMPDEST DUP2 MSTORE PUSH1 0x20 ADD PUSH2 0x1878 PUSH2 0x18DC JUMP JUMPDEST DUP2 MSTORE POP SWAP1 JUMP JUMPDEST PUSH1 0x40 MLOAD DUP1 PUSH1 0x40 ADD PUSH1 0x40 MSTORE DUP1 PUSH1 0x0 DUP2 MSTORE PUSH1 0x20 ADD PUSH1 0x0 DUP2 MSTORE POP SWAP1 JUMP JUMPDEST PUSH1 0x40 MLOAD DUP1 PUSH1 0x80 ADD PUSH1 0x40 MSTORE DUP1 PUSH1 0x4 SWAP1 PUSH1 0x20 DUP3 MUL DUP1 CALLDATASIZE DUP4 CALLDATACOPY DUP1 DUP3 ADD SWAP2 POP POP SWAP1 POP POP SWAP1 JUMP JUMPDEST PUSH1 0x40 MLOAD DUP1 PUSH1 0x20 ADD PUSH1 0x40 MSTORE DUP1 PUSH1 0x1 SWAP1 PUSH1 0x20 DUP3 MUL DUP1 CALLDATASIZE DUP4 CALLDATACOPY DUP1 DUP3 ADD SWAP2 POP POP SWAP1 POP POP SWAP1 JUMP JUMPDEST PUSH1 0x40 MLOAD DUP1 PUSH1 0x40 ADD PUSH1 0x40 MSTORE DUP1 PUSH1 0x2 SWAP1 PUSH1 0x20 DUP3 MUL DUP1 CALLDATASIZE DUP4 CALLDATACOPY DUP1 DUP3 ADD SWAP2 POP POP SWAP1 POP POP SWAP1 JUMP JUMPDEST PUSH1 0x0 DUP2 CALLDATALOAD SWAP1 POP PUSH2 0x190D DUP2 PUSH2 0x2549 JUMP JUMPDEST SWAP3 SWAP2 POP POP JUMP JUMPDEST PUSH1 0x0 DUP2 MLOAD SWAP1 POP PUSH2 0x1922 DUP2 PUSH2 0x2549 JUMP JUMPDEST SWAP3 SWAP2 POP POP JUMP JUMPDEST PUSH1 0x0 DUP1 DUP4 PUSH1 0x1F DUP5 ADD SLT PUSH2 0x193E JUMPI PUSH2 0x193D PUSH2 0x2473 JUMP JUMPDEST JUMPDEST DUP3 CALLDATALOAD SWAP1 POP PUSH8 0xFFFFFFFFFFFFFFFF DUP2 GT ISZERO PUSH2 0x195B JUMPI PUSH2 0x195A PUSH2 0x246E JUMP JUMPDEST JUMPDEST PUSH1 0x20 DUP4 ADD SWAP2 POP DUP4 PUSH1 0x1 DUP3 MUL DUP4 ADD GT ISZERO PUSH2 0x1977 JUMPI PUSH2 0x1976 PUSH2 0x2478 JUMP JUMPDEST JUMPDEST SWAP3 POP SWAP3 SWAP1 POP JUMP JUMPDEST PUSH1 0x0 DUP2 CALLDATALOAD SWAP1 POP PUSH2 0x198D DUP2 PUSH2 0x2560 JUMP JUMPDEST SWAP3 SWAP2 POP POP JUMP JUMPDEST PUSH1 0x0 PUSH1 0x20 DUP3 DUP5 SUB SLT ISZERO PUSH2 0x19A9 JUMPI PUSH2 0x19A8 PUSH2 0x2482 JUMP JUMPDEST JUMPDEST PUSH1 0x0 PUSH2 0x19B7 DUP5 DUP3 DUP6 ADD PUSH2 0x18FE JUMP JUMPDEST SWAP2 POP POP SWAP3 SWAP2 POP POP JUMP JUMPDEST PUSH1 0x0 PUSH1 0x20 DUP3 DUP5 SUB SLT ISZERO PUSH2 0x19D6 JUMPI PUSH2 0x19D5 PUSH2 0x2482 JUMP JUMPDEST JUMPDEST PUSH1 0x0 PUSH2 0x19E4 DUP5 DUP3 DUP6 ADD PUSH2 0x1913 JUMP JUMPDEST SWAP2 POP POP SWAP3 SWAP2 POP POP JUMP JUMPDEST PUSH1 0x0 DUP1 PUSH1 0x0 DUP1 PUSH1 0x40 DUP6 DUP8 SUB SLT ISZERO PUSH2 0x1A07 JUMPI PUSH2 0x1A06 PUSH2 0x2482 JUMP JUMPDEST JUMPDEST PUSH1 0x0 DUP6 ADD CALLDATALOAD PUSH8 0xFFFFFFFFFFFFFFFF DUP2 GT ISZERO PUSH2 0x1A25 JUMPI PUSH2 0x1A24 PUSH2 0x247D JUMP JUMPDEST JUMPDEST PUSH2 0x1A31 DUP8 DUP3 DUP9 ADD PUSH2 0x1928 JUMP JUMPDEST SWAP5 POP SWAP5 POP POP PUSH1 0x20 DUP6 ADD CALLDATALOAD PUSH8 0xFFFFFFFFFFFFFFFF DUP2 GT ISZERO PUSH2 0x1A54 JUMPI PUSH2 0x1A53 PUSH2 0x247D JUMP JUMPDEST JUMPDEST PUSH2 0x1A60 DUP8 DUP3 DUP9 ADD PUSH2 0x1928 JUMP JUMPDEST SWAP3 POP SWAP3 POP POP SWAP3 SWAP6 SWAP2 SWAP5 POP SWAP3 POP JUMP JUMPDEST PUSH1 0x0 DUP1 PUSH1 0x0 DUP1 PUSH1 0x0 DUP1 PUSH1 0x60 DUP8 DUP10 SUB SLT ISZERO PUSH2 0x1A8B JUMPI PUSH2 0x1A8A PUSH2 0x2482 JUMP JUMPDEST JUMPDEST PUSH1 0x0 DUP8 ADD CALLDATALOAD PUSH8 0xFFFFFFFFFFFFFFFF DUP2 GT ISZERO PUSH2 0x1AA9 JUMPI PUSH2 0x1AA8 PUSH2 0x247D JUMP JUMPDEST JUMPDEST PUSH2 0x1AB5 DUP10 DUP3 DUP11 ADD PUSH2 0x1928 JUMP JUMPDEST SWAP7 POP SWAP7 POP POP PUSH1 0x20 DUP8 ADD CALLDATALOAD PUSH8 0xFFFFFFFFFFFFFFFF DUP2 GT ISZERO PUSH2 0x1AD8 JUMPI PUSH2 0x1AD7 PUSH2 0x247D JUMP JUMPDEST JUMPDEST PUSH2 0x1AE4 DUP10 DUP3 DUP11 ADD PUSH2 0x1928 JUMP JUMPDEST SWAP5 POP SWAP5 POP POP PUSH1 0x40 DUP8 ADD CALLDATALOAD PUSH8 0xFFFFFFFFFFFFFFFF DUP2 GT ISZERO PUSH2 0x1B07 JUMPI PUSH2 0x1B06 PUSH2 0x247D JUMP JUMPDEST JUMPDEST PUSH2 0x1B13 DUP10 DUP3 DUP11 ADD PUSH2 0x1928 JUMP JUMPDEST SWAP3 POP SWAP3 POP POP SWAP3 SWAP6 POP SWAP3 SWAP6 POP SWAP3 SWAP6 JUMP JUMPDEST PUSH1 0x0 DUP1 PUSH1 0x0 DUP1 PUSH1 0x0 DUP1 PUSH1 0x0 DUP1 PUSH1 0x0 PUSH1 0xA0 DUP11 DUP13 SUB SLT ISZERO PUSH2 0x1B44 JUMPI PUSH2 0x1B43 PUSH2 0x2482 JUMP JUMPDEST JUMPDEST PUSH1 0x0 DUP11 ADD CALLDATALOAD PUSH8 0xFFFFFFFFFFFFFFFF DUP2 GT ISZERO PUSH2 0x1B62 JUMPI PUSH2 0x1B61 PUSH2 0x247D JUMP JUMPDEST JUMPDEST PUSH2 0x1B6E DUP13 DUP3 DUP14 ADD PUSH2 0x1928 JUMP JUMPDEST SWAP10 POP SWAP10 POP POP PUSH1 0x20 DUP11 ADD CALLDATALOAD PUSH8 0xFFFFFFFFFFFFFFFF DUP2 GT ISZERO PUSH2 0x1B91 JUMPI PUSH2 0x1B90 PUSH2 0x247D JUMP JUMPDEST JUMPDEST PUSH2 0x1B9D DUP13 DUP3 DUP14 ADD PUSH2 0x1928 JUMP JUMPDEST SWAP8 POP SWAP8 POP POP PUSH1 0x40 DUP11 ADD CALLDATALOAD PUSH8 0xFFFFFFFFFFFFFFFF DUP2 GT ISZERO PUSH2 0x1BC0 JUMPI PUSH2 0x1BBF PUSH2 0x247D JUMP JUMPDEST JUMPDEST PUSH2 0x1BCC DUP13 DUP3 DUP14 ADD PUSH2 0x1928 JUMP JUMPDEST SWAP6 POP SWAP6 POP POP PUSH1 0x60 DUP11 ADD CALLDATALOAD PUSH8 0xFFFFFFFFFFFFFFFF DUP2 GT ISZERO PUSH2 0x1BEF JUMPI PUSH2 0x1BEE PUSH2 0x247D JUMP JUMPDEST JUMPDEST PUSH2 0x1BFB DUP13 DUP3 DUP14 ADD PUSH2 0x1928 JUMP JUMPDEST SWAP4 POP SWAP4 POP POP PUSH1 0x80 PUSH2 0x1C0E DUP13 DUP3 DUP14 ADD PUSH2 0x197E JUMP JUMPDEST SWAP2 POP POP SWAP3 SWAP6 SWAP9 POP SWAP3 SWAP6 SWAP9 POP SWAP3 SWAP6 SWAP9 JUMP JUMPDEST PUSH1 0x0 DUP1 PUSH1 0x0 PUSH1 0x40 DUP5 DUP7 SUB SLT ISZERO PUSH2 0x1C37 JUMPI PUSH2 0x1C36 PUSH2 0x2482 JUMP JUMPDEST JUMPDEST PUSH1 0x0 DUP5 ADD CALLDATALOAD PUSH8 0xFFFFFFFFFFFFFFFF DUP2 GT ISZERO PUSH2 0x1C55 JUMPI PUSH2 0x1C54 PUSH2 0x247D JUMP JUMPDEST JUMPDEST PUSH2 0x1C61 DUP7 DUP3 DUP8 ADD PUSH2 0x1928 JUMP JUMPDEST SWAP4 POP SWAP4 POP POP PUSH1 0x20 PUSH2 0x1C74 DUP7 DUP3 DUP8 ADD PUSH2 0x197E JUMP JUMPDEST SWAP2 POP POP SWAP3 POP SWAP3 POP SWAP3 JUMP JUMPDEST PUSH1 0x0 PUSH2 0x1C8A DUP4 DUP4 PUSH2 0x1E10 JUMP JUMPDEST PUSH1 0x20 DUP4 ADD SWAP1 POP SWAP3 SWAP2 POP POP JUMP JUMPDEST PUSH2 0x1C9F DUP2 PUSH2 0x1FFA JUMP JUMPDEST PUSH2 0x1CA9 DUP2 DUP5 PUSH2 0x201D JUMP JUMPDEST SWAP3 POP PUSH2 0x1CB4 DUP3 PUSH2 0x1FF0 JUMP JUMPDEST DUP1 PUSH1 0x0 JUMPDEST DUP4 DUP2 LT ISZERO PUSH2 0x1CE5 JUMPI DUP2 MLOAD PUSH2 0x1CCC DUP8 DUP3 PUSH2 0x1C7E JUMP JUMPDEST SWAP7 POP PUSH2 0x1CD7 DUP4 PUSH2 0x2010 JUMP JUMPDEST SWAP3 POP POP PUSH1 0x1 DUP2 ADD SWAP1 POP PUSH2 0x1CB8 JUMP JUMPDEST POP POP POP POP POP POP JUMP JUMPDEST PUSH2 0x1CF6 DUP2 PUSH2 0x22DB JUMP JUMPDEST DUP3 MSTORE POP POP JUMP JUMPDEST PUSH2 0x1D05 DUP2 PUSH2 0x22E7 JUMP JUMPDEST DUP3 MSTORE POP POP JUMP JUMPDEST PUSH1 0x0 PUSH2 0x1D16 DUP3 PUSH2 0x2005 JUMP JUMPDEST PUSH2 0x1D20 DUP2 DUP6 PUSH2 0x2028 JUMP JUMPDEST SWAP4 POP PUSH2 0x1D30 DUP2 DUP6 PUSH1 0x20 DUP7 ADD PUSH2 0x22FB JUMP JUMPDEST PUSH2 0x1D39 DUP2 PUSH2 0x2487 JUMP JUMPDEST DUP5 ADD SWAP2 POP POP SWAP3 SWAP2 POP POP JUMP JUMPDEST PUSH1 0x0 PUSH2 0x1D4F DUP3 PUSH2 0x2005 JUMP JUMPDEST PUSH2 0x1D59 DUP2 DUP6 PUSH2 0x2039 JUMP JUMPDEST SWAP4 POP PUSH2 0x1D69 DUP2 DUP6 PUSH1 0x20 DUP7 ADD PUSH2 0x22FB JUMP JUMPDEST DUP1 DUP5 ADD SWAP2 POP POP SWAP3 SWAP2 POP POP JUMP JUMPDEST PUSH1 0x0 PUSH2 0x1D82 PUSH1 0x1D DUP4 PUSH2 0x2044 JUMP JUMPDEST SWAP2 POP PUSH2 0x1D8D DUP3 PUSH2 0x24A5 JUMP JUMPDEST PUSH1 0x20 DUP3 ADD SWAP1 POP SWAP2 SWAP1 POP JUMP JUMPDEST PUSH1 0x0 PUSH2 0x1DA5 PUSH1 0x19 DUP4 PUSH2 0x2044 JUMP JUMPDEST SWAP2 POP PUSH2 0x1DB0 DUP3 PUSH2 0x24CE JUMP JUMPDEST PUSH1 0x20 DUP3 ADD SWAP1 POP SWAP2 SWAP1 POP JUMP JUMPDEST PUSH1 0x0 PUSH2 0x1DC8 PUSH1 0x11 DUP4 PUSH2 0x2044 JUMP JUMPDEST SWAP2 POP PUSH2 0x1DD3 DUP3 PUSH2 0x24F7 JUMP JUMPDEST PUSH1 0x20 DUP3 ADD SWAP1 POP SWAP2 SWAP1 POP JUMP JUMPDEST PUSH1 0x0 PUSH2 0x1DEB PUSH1 0x15 DUP4 PUSH2 0x2044 JUMP JUMPDEST SWAP2 POP PUSH2 0x1DF6 DUP3 PUSH2 0x2520 JUMP JUMPDEST PUSH1 0x20 DUP3 ADD SWAP1 POP SWAP2 SWAP1 POP JUMP JUMPDEST PUSH2 0x1E0A DUP2 PUSH2 0x22F1 JUMP JUMPDEST DUP3 MSTORE POP POP JUMP JUMPDEST PUSH2 0x1E19 DUP2 PUSH2 0x22F1 JUMP JUMPDEST DUP3 MSTORE POP POP JUMP JUMPDEST PUSH2 0x1E30 PUSH2 0x1E2B DUP3 PUSH2 0x22F1 JUMP JUMPDEST PUSH2 0x2377 JUMP JUMPDEST DUP3 MSTORE POP POP JUMP JUMPDEST PUSH1 0x0 PUSH2 0x1E42 DUP3 DUP7 PUSH2 0x1C96 JUMP JUMPDEST PUSH1 0x40 DUP3 ADD SWAP2 POP PUSH2 0x1E52 DUP3 DUP6 PUSH2 0x1C96 JUMP JUMPDEST PUSH1 0x40 DUP3 ADD SWAP2 POP PUSH2 0x1E62 DUP3 DUP5 PUSH2 0x1D44 JUMP JUMPDEST SWAP2 POP DUP2 SWAP1 POP SWAP5 SWAP4 POP POP POP POP JUMP JUMPDEST PUSH1 0x0 PUSH2 0x1E7B DUP3 DUP7 PUSH2 0x1C96 JUMP JUMPDEST PUSH1 0x40 DUP3 ADD SWAP2 POP PUSH2 0x1E8B DUP3 DUP6 PUSH2 0x1C96 JUMP JUMPDEST PUSH1 0x40 DUP3 ADD SWAP2 POP PUSH2 0x1E9B DUP3 DUP5 PUSH2 0x1E1F JUMP JUMPDEST PUSH1 0x20 DUP3 ADD SWAP2 POP DUP2 SWAP1 POP SWAP5 SWAP4 POP POP POP POP JUMP JUMPDEST PUSH1 0x0 PUSH2 0x1EB8 DUP3 DUP5 PUSH2 0x1D44 JUMP JUMPDEST SWAP2 POP DUP2 SWAP1 POP SWAP3 SWAP2 POP POP JUMP JUMPDEST PUSH1 0x0 PUSH2 0x1ECF DUP3 DUP6 PUSH2 0x1E1F JUMP JUMPDEST PUSH1 0x20 DUP3 ADD SWAP2 POP PUSH2 0x1EDF DUP3 DUP5 PUSH2 0x1E1F JUMP JUMPDEST PUSH1 0x20 DUP3 ADD SWAP2 POP DUP2 SWAP1 POP SWAP4 SWAP3 POP POP POP JUMP JUMPDEST PUSH1 0x0 PUSH1 0x20 DUP3 ADD SWAP1 POP PUSH2 0x1F04 PUSH1 0x0 DUP4 ADD DUP5 PUSH2 0x1CED JUMP JUMPDEST SWAP3 SWAP2 POP POP JUMP JUMPDEST PUSH1 0x0 PUSH1 0x20 DUP3 ADD SWAP1 POP PUSH2 0x1F1F PUSH1 0x0 DUP4 ADD DUP5 PUSH2 0x1CFC JUMP JUMPDEST SWAP3 SWAP2 POP POP JUMP JUMPDEST PUSH1 0x0 PUSH1 0x20 DUP3 ADD SWAP1 POP DUP2 DUP2 SUB PUSH1 0x0 DUP4 ADD MSTORE PUSH2 0x1F3F DUP2 DUP5 PUSH2 0x1D0B JUMP JUMPDEST SWAP1 POP SWAP3 SWAP2 POP POP JUMP JUMPDEST PUSH1 0x0 PUSH1 0x20 DUP3 ADD SWAP1 POP DUP2 DUP2 SUB PUSH1 0x0 DUP4 ADD MSTORE PUSH2 0x1F60 DUP2 PUSH2 0x1D75 JUMP JUMPDEST SWAP1 POP SWAP2 SWAP1 POP JUMP JUMPDEST PUSH1 0x0 PUSH1 0x20 DUP3 ADD SWAP1 POP DUP2 DUP2 SUB PUSH1 0x0 DUP4 ADD MSTORE PUSH2 0x1F80 DUP2 PUSH2 0x1D98 JUMP JUMPDEST SWAP1 POP SWAP2 SWAP1 POP JUMP JUMPDEST PUSH1 0x0 PUSH1 0x20 DUP3 ADD SWAP1 POP DUP2 DUP2 SUB PUSH1 0x0 DUP4 ADD MSTORE PUSH2 0x1FA0 DUP2 PUSH2 0x1DBB JUMP JUMPDEST SWAP1 POP SWAP2 SWAP1 POP JUMP JUMPDEST PUSH1 0x0 PUSH1 0x20 DUP3 ADD SWAP1 POP DUP2 DUP2 SUB PUSH1 0x0 DUP4 ADD MSTORE PUSH2 0x1FC0 DUP2 PUSH2 0x1DDE JUMP JUMPDEST SWAP1 POP SWAP2 SWAP1 POP JUMP JUMPDEST PUSH1 0x0 PUSH1 0x40 DUP3 ADD SWAP1 POP PUSH2 0x1FDC PUSH1 0x0 DUP4 ADD DUP6 PUSH2 0x1E01 JUMP JUMPDEST PUSH2 0x1FE9 PUSH1 0x20 DUP4 ADD DUP5 PUSH2 0x1E01 JUMP JUMPDEST SWAP4 SWAP3 POP POP POP JUMP JUMPDEST PUSH1 0x0 DUP2 SWAP1 POP SWAP2 SWAP1 POP JUMP JUMPDEST PUSH1 0x0 PUSH1 0x2 SWAP1 POP SWAP2 SWAP1 POP JUMP JUMPDEST PUSH1 0x0 DUP2 MLOAD SWAP1 POP SWAP2 SWAP1 POP JUMP JUMPDEST PUSH1 0x0 PUSH1 0x20 DUP3 ADD SWAP1 POP SWAP2 SWAP1 POP JUMP JUMPDEST PUSH1 0x0 DUP2 SWAP1 POP SWAP3 SWAP2 POP POP JUMP JUMPDEST PUSH1 0x0 DUP3 DUP3 MSTORE PUSH1 0x20 DUP3 ADD SWAP1 POP SWAP3 SWAP2 POP POP JUMP JUMPDEST PUSH1 0x0 DUP2 SWAP1 POP SWAP3 SWAP2 POP POP JUMP JUMPDEST PUSH1 0x0 DUP3 DUP3 MSTORE PUSH1 0x20 DUP3 ADD SWAP1 POP SWAP3 SWAP2 POP POP JUMP JUMPDEST PUSH1 0x0 PUSH2 0x2060 DUP3 PUSH2 0x22F1 JUMP JUMPDEST SWAP2 POP PUSH2 0x206B DUP4 PUSH2 0x22F1 JUMP JUMPDEST SWAP3 POP DUP3 PUSH32 0xFFFFFFFFFFFFFFFFFFFFFFFFFFFFFFFFFFFFFFFFFFFFFFFFFFFFFFFFFFFFFFFF SUB DUP3 GT ISZERO PUSH2 0x20A0 JUMPI PUSH2 0x209F PUSH2 0x23B2 JUMP JUMPDEST JUMPDEST DUP3 DUP3 ADD SWAP1 POP SWAP3 SWAP2 POP POP JUMP JUMPDEST PUSH1 0x0 PUSH2 0x20B6 DUP3 PUSH2 0x22F1 JUMP JUMPDEST SWAP2 POP PUSH2 0x20C1 DUP4 PUSH2 0x22F1 JUMP JUMPDEST SWAP3 POP DUP3 PUSH2 0x20D1 JUMPI PUSH2 0x20D0 PUSH2 0x23E1 JUMP JUMPDEST JUMPDEST DUP3 DUP3 DIV SWAP1 POP SWAP3 SWAP2 POP POP JUMP JUMPDEST PUSH1 0x0 DUP1 DUP3 SWAP2 POP DUP4 SWAP1 POP JUMPDEST PUSH1 0x1 DUP6 GT ISZERO PUSH2 0x2126 JUMPI DUP1 DUP7 DIV DUP2 GT ISZERO PUSH2 0x2102 JUMPI PUSH2 0x2101 PUSH2 0x23B2 JUMP JUMPDEST JUMPDEST PUSH1 0x1 DUP6 AND ISZERO PUSH2 0x2111 JUMPI DUP1 DUP3 MUL SWAP2 POP JUMPDEST DUP1 DUP2 MUL SWAP1 POP PUSH2 0x211F DUP6 PUSH2 0x2498 JUMP JUMPDEST SWAP5 POP PUSH2 0x20E6 JUMP JUMPDEST SWAP5 POP SWAP5 SWAP3 POP POP POP JUMP JUMPDEST PUSH1 0x0 PUSH2 0x213A DUP3 PUSH2 0x22F1 JUMP JUMPDEST SWAP2 POP PUSH2 0x2145 DUP4 PUSH2 0x22F1 JUMP JUMPDEST SWAP3 POP PUSH2 0x2172 PUSH32 0xFFFFFFFFFFFFFFFFFFFFFFFFFFFFFFFFFFFFFFFFFFFFFFFFFFFFFFFFFFFFFFFF DUP5 DUP5 PUSH2 0x217A JUMP JUMPDEST SWAP1 POP SWAP3 SWAP2 POP POP JUMP JUMPDEST PUSH1 0x0 DUP3 PUSH2 0x218A JUMPI PUSH1 0x1 SWAP1 POP PUSH2 0x2246 JUMP JUMPDEST DUP2 PUSH2 0x2198 JUMPI PUSH1 0x0 SWAP1 POP PUSH2 0x2246 JUMP JUMPDEST DUP2 PUSH1 0x1 DUP2 EQ PUSH2 0x21AE JUMPI PUSH1 0x2 DUP2 EQ PUSH2 0x21B8 JUMPI PUSH2 0x21E7 JUMP JUMPDEST PUSH1 0x1 SWAP2 POP POP PUSH2 0x2246 JUMP JUMPDEST PUSH1 0xFF DUP5 GT ISZERO PUSH2 0x21CA JUMPI PUSH2 0x21C9 PUSH2 0x23B2 JUMP JUMPDEST JUMPDEST DUP4 PUSH1 0x2 EXP SWAP2 POP DUP5 DUP3 GT ISZERO PUSH2 0x21E1 JUMPI PUSH2 0x21E0 PUSH2 0x23B2 JUMP JUMPDEST JUMPDEST POP PUSH2 0x2246 JUMP JUMPDEST POP PUSH1 0x20 DUP4 LT PUSH2 0x133 DUP4 LT AND PUSH1 0x4E DUP5 LT PUSH1 0xB DUP5 LT AND OR ISZERO PUSH2 0x221C JUMPI DUP3 DUP3 EXP SWAP1 POP DUP4 DUP2 GT ISZERO PUSH2 0x2217 JUMPI PUSH2 0x2216 PUSH2 0x23B2 JUMP JUMPDEST JUMPDEST PUSH2 0x2246 JUMP JUMPDEST PUSH2 0x2229 DUP5 DUP5 DUP5 PUSH1 0x1 PUSH2 0x20DC JUMP JUMPDEST SWAP3 POP SWAP1 POP DUP2 DUP5 DIV DUP2 GT ISZERO PUSH2 0x2240 JUMPI PUSH2 0x223F PUSH2 0x23B2 JUMP JUMPDEST JUMPDEST DUP2 DUP2 MUL SWAP1 POP JUMPDEST SWAP4 SWAP3 POP POP POP JUMP JUMPDEST PUSH1 0x0 PUSH2 0x2258 DUP3 PUSH2 0x22F1 JUMP JUMPDEST SWAP2 POP PUSH2 0x2263 DUP4 PUSH2 0x22F1 JUMP JUMPDEST SWAP3 POP DUP2 PUSH32 0xFFFFFFFFFFFFFFFFFFFFFFFFFFFFFFFFFFFFFFFFFFFFFFFFFFFFFFFFFFFFFFFF DIV DUP4 GT DUP3 ISZERO ISZERO AND ISZERO PUSH2 0x229C JUMPI PUSH2 0x229B PUSH2 0x23B2 JUMP JUMPDEST JUMPDEST DUP3 DUP3 MUL SWAP1 POP SWAP3 SWAP2 POP POP JUMP JUMPDEST PUSH1 0x0 PUSH2 0x22B2 DUP3 PUSH2 0x22F1 JUMP JUMPDEST SWAP2 POP PUSH2 0x22BD DUP4 PUSH2 0x22F1 JUMP JUMPDEST SWAP3 POP DUP3 DUP3 LT ISZERO PUSH2 0x22D0 JUMPI PUSH2 0x22CF PUSH2 0x23B2 JUMP JUMPDEST JUMPDEST DUP3 DUP3 SUB SWAP1 POP SWAP3 SWAP2 POP POP JUMP JUMPDEST PUSH1 0x0 DUP2 ISZERO ISZERO SWAP1 POP SWAP2 SWAP1 POP JUMP JUMPDEST PUSH1 0x0 DUP2 SWAP1 POP SWAP2 SWAP1 POP JUMP JUMPDEST PUSH1 0x0 DUP2 SWAP1 POP SWAP2 SWAP1 POP JUMP JUMPDEST PUSH1 0x0 JUMPDEST DUP4 DUP2 LT ISZERO PUSH2 0x2319 JUMPI DUP1 DUP3 ADD MLOAD DUP2 DUP5 ADD MSTORE PUSH1 0x20 DUP2 ADD SWAP1 POP PUSH2 0x22FE JUMP JUMPDEST DUP4 DUP2 GT ISZERO PUSH2 0x2328 JUMPI PUSH1 0x0 DUP5 DUP5 ADD MSTORE JUMPDEST POP POP POP POP JUMP JUMPDEST PUSH1 0x0 PUSH2 0x2339 DUP3 PUSH2 0x22F1 JUMP JUMPDEST SWAP2 POP PUSH32 0xFFFFFFFFFFFFFFFFFFFFFFFFFFFFFFFFFFFFFFFFFFFFFFFFFFFFFFFFFFFFFFFF DUP3 EQ ISZERO PUSH2 0x236C JUMPI PUSH2 0x236B PUSH2 0x23B2 JUMP JUMPDEST JUMPDEST PUSH1 0x1 DUP3 ADD SWAP1 POP SWAP2 SWAP1 POP JUMP JUMPDEST PUSH1 0x0 DUP2 SWAP1 POP SWAP2 SWAP1 POP JUMP JUMPDEST PUSH1 0x0 PUSH2 0x238C DUP3 PUSH2 0x22F1 JUMP JUMPDEST SWAP2 POP PUSH2 0x2397 DUP4 PUSH2 0x22F1 JUMP JUMPDEST SWAP3 POP DUP3 PUSH2 0x23A7 JUMPI PUSH2 0x23A6 PUSH2 0x23E1 JUMP JUMPDEST JUMPDEST DUP3 DUP3 MOD SWAP1 POP SWAP3 SWAP2 POP POP JUMP JUMPDEST PUSH32 0x4E487B7100000000000000000000000000000000000000000000000000000000 PUSH1 0x0 MSTORE PUSH1 0x11 PUSH1 0x4 MSTORE PUSH1 0x24 PUSH1 0x0 REVERT JUMPDEST PUSH32 0x4E487B7100000000000000000000000000000000000000000000000000000000 PUSH1 0x0 MSTORE PUSH1 0x12 PUSH1 0x4 MSTORE PUSH1 0x24 PUSH1 0x0 REVERT JUMPDEST PUSH32 0x4E487B7100000000000000000000000000000000000000000000000000000000 PUSH1 0x0 MSTORE PUSH1 0x32 PUSH1 0x4 MSTORE PUSH1 0x24 PUSH1 0x0 REVERT JUMPDEST PUSH32 0x4E487B7100000000000000000000000000000000000000000000000000000000 PUSH1 0x0 MSTORE PUSH1 0x41 PUSH1 0x4 MSTORE PUSH1 0x24 PUSH1 0x0 REVERT JUMPDEST PUSH1 0x0 DUP1 REVERT JUMPDEST PUSH1 0x0 DUP1 REVERT JUMPDEST PUSH1 0x0 DUP1 REVERT JUMPDEST PUSH1 0x0 DUP1 REVERT JUMPDEST PUSH1 0x0 DUP1 REVERT JUMPDEST PUSH1 0x0 PUSH1 0x1F NOT PUSH1 0x1F DUP4 ADD AND SWAP1 POP SWAP2 SWAP1 POP JUMP JUMPDEST PUSH1 0x0 DUP2 PUSH1 0x1 SHR SWAP1 POP SWAP2 SWAP1 POP JUMP JUMPDEST PUSH32 0x4661696C656420746F2063616C63756C617465206C6567656E6472652E000000 PUSH1 0x0 DUP3 ADD MSTORE POP JUMP JUMPDEST PUSH32 0x50616972696E67206F7065726174696F6E206661696C65642E00000000000000 PUSH1 0x0 DUP3 ADD MSTORE POP JUMP JUMPDEST PUSH32 0x41646420706F696E7473206661696C6564000000000000000000000000000000 PUSH1 0x0 DUP3 ADD MSTORE POP JUMP JUMPDEST PUSH32 0x506F696E7420636F756E74206D69736D617463682E0000000000000000000000 PUSH1 0x0 DUP3 ADD MSTORE POP JUMP JUMPDEST PUSH2 0x2552 DUP2 PUSH2 0x22E7 JUMP JUMPDEST DUP2 EQ PUSH2 0x255D JUMPI PUSH1 0x0 DUP1 REVERT JUMPDEST POP JUMP JUMPDEST PUSH2 0x2569 DUP2 PUSH2 0x22F1 JUMP JUMPDEST DUP2 EQ PUSH2 0x2574 JUMPI PUSH1 0x0 DUP1 REVERT JUMPDEST POP JUMP INVALID LOG2 PUSH5 0x6970667358 0x22 SLT KECCAK256 SLOAD 0xE9 EQ ADD DUP14 NUMBER 0xDE JUMPI PUSH18 0xFCB555F661C10D1AFE3570D92F2E744EE9A4 0xA5 INVALID COINBASE MSIZE 0xE9 PUSH5 0x736F6C6343 STOP ADDMOD SMOD STOP CALLER "
		},
		"gasEstimates": {
			"creation": {
				"codeDepositCost": "1929000",
				"executionCost": "2041",
				"totalCost": "1931041"
			},
			"external": {
				"addOnCurveE1(bytes,bytes)": "infinite",
				"aggregatedPublicKey()": "2474",
				"remakeAggregatedPublicKey(bytes32)": "22543",
				"verified()": "2512",
				"verifyAggregatedHash(bytes,uint256)": "infinite",
				"verifyMultisignature(bytes,bytes,bytes,bytes,uint256)": "infinite",
				"verifySignature(bytes,bytes,bytes)": "infinite",
				"verifySignaturePoint(bytes,bytes,bytes)": "infinite"
			},
			"internal": {
				"decodeE1Point(bytes memory)": "infinite",
				"decodeE2Point(bytes memory)": "infinite"
			}
		},
		"methodIdentifiers": {
			"addOnCurveE1(bytes,bytes)": "557bb038",
			"aggregatedPublicKey()": "2e517e9b",
			"remakeAggregatedPublicKey(bytes32)": "194756af",
			"verified()": "bbb82d89",
			"verifyAggregatedHash(bytes,uint256)": "8674df8c",
			"verifyMultisignature(bytes,bytes,bytes,bytes,uint256)": "0bd95138",
			"verifySignature(bytes,bytes,bytes)": "f6e548e9",
			"verifySignaturePoint(bytes,bytes,bytes)": "501145f9"
		}
	},
	"abi": [
		{
			"inputs": [
				{
					"internalType": "bytes",
					"name": "_p1",
					"type": "bytes"
				},
				{
					"internalType": "bytes",
					"name": "_p2",
					"type": "bytes"
				}
			],
			"name": "addOnCurveE1",
			"outputs": [
				{
					"internalType": "bytes",
					"name": "",
					"type": "bytes"
				}
			],
			"stateMutability": "view",
			"type": "function"
		},
		{
			"inputs": [],
			"name": "aggregatedPublicKey",
			"outputs": [
				{
					"internalType": "bytes32",
					"name": "",
					"type": "bytes32"
				}
			],
			"stateMutability": "view",
			"type": "function"
		},
		{
			"inputs": [
				{
					"internalType": "bytes32",
					"name": "_newKey",
					"type": "bytes32"
				}
			],
			"name": "remakeAggregatedPublicKey",
			"outputs": [],
			"stateMutability": "nonpayable",
			"type": "function"
		},
		{
			"inputs": [],
			"name": "verified",
			"outputs": [
				{
					"internalType": "bool",
					"name": "",
					"type": "bool"
				}
			],
			"stateMutability": "view",
			"type": "function"
		},
		{
			"inputs": [
				{
					"internalType": "bytes",
					"name": "_p",
					"type": "bytes"
				},
				{
					"internalType": "uint256",
					"name": "index",
					"type": "uint256"
				}
			],
			"name": "verifyAggregatedHash",
			"outputs": [
				{
					"internalType": "bytes",
					"name": "",
					"type": "bytes"
				}
			],
			"stateMutability": "view",
			"type": "function"
		},
		{
			"inputs": [
				{
					"internalType": "bytes",
					"name": "_aggregatedPublicKey",
					"type": "bytes"
				},
				{
					"internalType": "bytes",
					"name": "_partPublicKey",
					"type": "bytes"
				},
				{
					"internalType": "bytes",
					"name": "_message",
					"type": "bytes"
				},
				{
					"internalType": "bytes",
					"name": "_partSignature",
					"type": "bytes"
				},
				{
					"internalType": "uint256",
					"name": "_signersBitmask",
					"type": "uint256"
				}
			],
			"name": "verifyMultisignature",
			"outputs": [
				{
					"internalType": "bool",
					"name": "",
					"type": "bool"
				}
			],
			"stateMutability": "view",
			"type": "function"
		},
		{
			"inputs": [
				{
					"internalType": "bytes",
					"name": "_publicKey",
					"type": "bytes"
				},
				{
					"internalType": "bytes",
					"name": "_message",
					"type": "bytes"
				},
				{
					"internalType": "bytes",
					"name": "_signature",
					"type": "bytes"
				}
			],
			"name": "verifySignature",
			"outputs": [],
			"stateMutability": "nonpayable",
			"type": "function"
		},
		{
			"inputs": [
				{
					"internalType": "bytes",
					"name": "_publicKey",
					"type": "bytes"
				},
				{
					"internalType": "bytes",
					"name": "_message",
					"type": "bytes"
				},
				{
					"internalType": "bytes",
					"name": "_signature",
					"type": "bytes"
				}
			],
			"name": "verifySignaturePoint",
			"outputs": [],
			"stateMutability": "nonpayable",
			"type": "function"
		}
	]
}