{
	"data": {
		"bytecode": {
			"linkReferences": {},
			"object": "608060405260008055600060015573eeeeeeeeeeeeeeeeeeeeeeeeeeeeeeeeeeeeeeee600260016101000a81548173ffffffffffffffffffffffffffffffffffffffff021916908373ffffffffffffffffffffffffffffffffffffffff160217905550655af3107a40006003556040518060400160405280600481526020017f76312e300000000000000000000000000000000000000000000000000000000081525060049080519060200190620000b992919062000247565b50348015620000c757600080fd5b5060405162002e9e38038062002e9e8339818101604052810190620000ed9190620003bc565b60005b81518110156200023f5760056000838381518110620001145762000113620005bb565b5b602002602001015173ffffffffffffffffffffffffffffffffffffffff1673ffffffffffffffffffffffffffffffffffffffff16815260200190815260200160002060010160009054906101000a900460ff166200022957604051806040016040528060005481526020016001151581525060056000848481518110620001a0576200019f620005bb565b5b602002602001015173ffffffffffffffffffffffffffffffffffffffff1673ffffffffffffffffffffffffffffffffffffffff1681526020019081526020016000206000820151816000015560208201518160010160006101000a81548160ff02191690831515021790555090505060008081548092919062000223906200050f565b91905055505b808062000236906200050f565b915050620000f0565b505062000658565b8280546200025590620004a3565b90600052602060002090601f016020900481019282620002795760008555620002c5565b82601f106200029457805160ff1916838001178555620002c5565b82800160010185558215620002c5579182015b82811115620002c4578251825591602001919060010190620002a7565b5b509050620002d49190620002d8565b5090565b5b80821115620002f3576000816000905550600101620002d9565b5090565b60006200030e620003088462000436565b6200040d565b905080838252602082019050828560208602820111156200033457620003336200061e565b5b60005b858110156200036857816200034d888262000372565b84526020840193506020830192505060018101905062000337565b5050509392505050565b60008151905062000383816200063e565b92915050565b600082601f830112620003a157620003a062000619565b5b8151620003b3848260208601620002f7565b91505092915050565b600060208284031215620003d557620003d462000628565b5b600082015167ffffffffffffffff811115620003f657620003f562000623565b5b620004048482850162000389565b91505092915050565b6000620004196200042c565b9050620004278282620004d9565b919050565b6000604051905090565b600067ffffffffffffffff821115620004545762000453620005ea565b5b602082029050602081019050919050565b6000620004728262000479565b9050919050565b600073ffffffffffffffffffffffffffffffffffffffff82169050919050565b6000819050919050565b60006002820490506001821680620004bc57607f821691505b60208210811415620004d357620004d26200058c565b5b50919050565b620004e4826200062d565b810181811067ffffffffffffffff82111715620005065762000505620005ea565b5b80604052505050565b60006200051c8262000499565b91507fffffffffffffffffffffffffffffffffffffffffffffffffffffffffffffffff8214156200055257620005516200055d565b5b600182019050919050565b7f4e487b7100000000000000000000000000000000000000000000000000000000600052601160045260246000fd5b7f4e487b7100000000000000000000000000000000000000000000000000000000600052602260045260246000fd5b7f4e487b7100000000000000000000000000000000000000000000000000000000600052603260045260246000fd5b7f4e487b7100000000000000000000000000000000000000000000000000000000600052604160045260246000fd5b600080fd5b600080fd5b600080fd5b600080fd5b6000601f19601f8301169050919050565b620006498162000465565b81146200065557600080fd5b50565b61283680620006686000396000f3fe6080604052600436106100a75760003560e01c806385a383d01161006457806385a383d0146101df5780639f581b8814610208578063b6fb39d514610231578063baf0bfd31461025c578063ddd9279914610287578063e50381fc146102b0576100a7565b806302afc34f146100ac578063129ed395146100d5578063130f679d146100fe578063236e0e401461013c57806338046217146101795780637669c35f146101a2575b600080fd5b3480156100b857600080fd5b506100d360048036038101906100ce919061190c565b6102cc565b005b3480156100e157600080fd5b506100fc60048036038101906100f79190611885565b6104c5565b005b34801561010a57600080fd5b5061012560048036038101906101209190611885565b61061c565b604051610133929190612033565b60405180910390f35b34801561014857600080fd5b50610163600480360381019061015e9190611885565b61064d565b6040516101709190611e03565b60405180910390f35b34801561018557600080fd5b506101a0600480360381019061019b9190611885565b61066d565b005b3480156101ae57600080fd5b506101c960048036038101906101c49190611885565b61079d565b6040516101d69190611e03565b60405180910390f35b3480156101eb57600080fd5b50610206600480360381019061020191906118df565b6107bd565b005b34801561021457600080fd5b5061022f600480360381019061022a9190611885565b610818565b005b34801561023d57600080fd5b5061024661081b565b6040516102539190611fc5565b60405180910390f35b34801561026857600080fd5b50610271610821565b60405161027e9190611d88565b60405180910390f35b34801561029357600080fd5b506102ae60048036038101906102a99190611a23565b610847565b005b6102ca60048036038101906102c591906119ab565b610dcc565b005b6003548310610310576040517f08c379a000000000000000000000000000000000000000000000000000000000815260040161030790611f45565b60405180910390fd5b600760008573ffffffffffffffffffffffffffffffffffffffff1673ffffffffffffffffffffffffffffffffffffffff16815260200190815260200160002060009054906101000a900460ff1661039c576040517f08c379a000000000000000000000000000000000000000000000000000000000815260040161039390611f25565b60405180910390fd5b8373ffffffffffffffffffffffffffffffffffffffff166323b872dd3330866040518463ffffffff1660e01b81526004016103d993929190611dcc565b602060405180830381600087803b1580156103f357600080fd5b505af1158015610407573d6000803e3d6000fd5b505050506040513d601f19601f8201168201806040525081019061042b91906118b2565b61046a576040517f08c379a000000000000000000000000000000000000000000000000000000000815260040161046190611f85565b60405180910390fd5b823373ffffffffffffffffffffffffffffffffffffffff167fd575ae283b17b524082c4c985d3b6fc0112317b0a5bb42273729c8ab38417889438786866040516104b79493929190611fe0565b60405180910390a350505050565b600660008273ffffffffffffffffffffffffffffffffffffffff1673ffffffffffffffffffffffffffffffffffffffff16815260200190815260200160002060009054906101000a900460ff1615801561056b5750600560008273ffffffffffffffffffffffffffffffffffffffff1673ffffffffffffffffffffffffffffffffffffffff16815260200190815260200160002060010160009054906101000a900460ff165b6105aa576040517f08c379a00000000000000000000000000000000000000000000000000000000081526004016105a190611e85565b60405180910390fd5b6001600660008373ffffffffffffffffffffffffffffffffffffffff1673ffffffffffffffffffffffffffffffffffffffff16815260200190815260200160002060006101000a81548160ff02191690831515021790555060008081548092919061061490612380565b919050555050565b60056020528060005260406000206000915090508060000154908060010160009054906101000a900460ff16905082565b60076020528060005260406000206000915054906101000a900460ff1681565b600560008273ffffffffffffffffffffffffffffffffffffffff1673ffffffffffffffffffffffffffffffffffffffff16815260200190815260200160002060010160009054906101000a900460ff16156106fd576040517f08c379a00000000000000000000000000000000000000000000000000000000081526004016106f490611ec5565b60405180910390fd5b6040518060400160405280600054815260200160011515815250600560008373ffffffffffffffffffffffffffffffffffffffff1673ffffffffffffffffffffffffffffffffffffffff1681526020019081526020016000206000820151816000015560208201518160010160006101000a81548160ff0219169083151502179055509050506000808154809291906107959061240d565b919050555050565b60066020528060005260406000206000915054906101000a900460ff1681565b6001600760008373ffffffffffffffffffffffffffffffffffffffff1673ffffffffffffffffffffffffffffffffffffffff16815260200190815260200160002060006101000a81548160ff02191690831515021790555050565b50565b60005481565b600260019054906101000a900473ffffffffffffffffffffffffffffffffffffffff1681565b60015481604001511161088f576040517f08c379a000000000000000000000000000000000000000000000000000000000815260040161088690611f05565b60405180910390fd5b600560003373ffffffffffffffffffffffffffffffffffffffff1673ffffffffffffffffffffffffffffffffffffffff16815260200190815260200160002060010160009054906101000a900460ff1661091e576040517f08c379a000000000000000000000000000000000000000000000000000000000815260040161091590611f65565b60405180910390fd5b60008061092a83610e8b565b91509150818190610971576040517f08c379a00000000000000000000000000000000000000000000000000000000081526004016109689190611e63565b60405180910390fd5b506000610a088460048054610985906123aa565b80601f01602080910402602001604051908101604052809291908181526020018280546109b1906123aa565b80156109fe5780601f106109d3576101008083540402835291602001916109fe565b820191906000526020600020905b8154815290600101906020018083116109e157829003601f168201915b5050505050611180565b905080610a4a576040517f08c379a0000000000000000000000000000000000000000000000000000000008152600401610a4190611ee5565b60405180910390fd5b60005b846000015151811015610dba57600260019054906101000a900473ffffffffffffffffffffffffffffffffffffffff1673ffffffffffffffffffffffffffffffffffffffff1685600001518281518110610aaa57610aa961252d565b5b60200260200101516040015173ffffffffffffffffffffffffffffffffffffffff161415610bc65784600001518181518110610ae957610ae861252d565b5b6020026020010151600001514710610b36576040517f08c379a0000000000000000000000000000000000000000000000000000000008152600401610b2d90611fa5565b60405180910390fd5b84600001518181518110610b4d57610b4c61252d565b5b60200260200101516020015173ffffffffffffffffffffffffffffffffffffffff166108fc86600001518381518110610b8957610b8861252d565b5b6020026020010151600001519081150290604051600060405180830381858888f19350505050158015610bc0573d6000803e3d6000fd5b50610da7565b6007600086600001518381518110610be157610be061252d565b5b60200260200101516040015173ffffffffffffffffffffffffffffffffffffffff1673ffffffffffffffffffffffffffffffffffffffff16815260200190815260200160002060009054906101000a900460ff16610c74576040517f08c379a0000000000000000000000000000000000000000000000000000000008152600401610c6b90611f25565b60405180910390fd5b84600001518181518110610c8b57610c8a61252d565b5b60200260200101516040015173ffffffffffffffffffffffffffffffffffffffff1663a9059cbb86600001518381518110610cc957610cc861252d565b5b60200260200101516020015187600001518481518110610cec57610ceb61252d565b5b6020026020010151600001516040518363ffffffff1660e01b8152600401610d15929190611da3565b602060405180830381600087803b158015610d2f57600080fd5b505af1158015610d43573d6000803e3d6000fd5b505050506040513d601f19601f82011682018060405250810190610d6791906118b2565b610da6576040517f08c379a0000000000000000000000000000000000000000000000000000000008152600401610d9d90611ea5565b60405180910390fd5b5b8080610db29061240d565b915050610a4d565b50836040015160018190555050505050565b6003543410610e10576040517f08c379a0000000000000000000000000000000000000000000000000000000008152600401610e0790611f45565b60405180910390fd5b343373ffffffffffffffffffffffffffffffffffffffff167fd575ae283b17b524082c4c985d3b6fc0112317b0a5bb42273729c8ab3841788943600260019054906101000a900473ffffffffffffffffffffffffffffffffffffffff168686604051610e7f9493929190611fe0565b60405180910390a35050565b60006060600160036002600054610ea2919061222b565b610eac91906121fa565b610eb6919061216d565b8360200151511015610ee65760006040518060600160405280602781526020016127da602791399150915061117b565b6000805467ffffffffffffffff811115610f0357610f0261255c565b5b604051908082528060200260200182016040528015610f315781602001602082028036833780820191505090505b50905060005b846020015151811015611162576005600086602001518381518110610f5f57610f5e61252d565b5b60200260200101516020015173ffffffffffffffffffffffffffffffffffffffff1673ffffffffffffffffffffffffffffffffffffffff16815260200190815260200160002060010160009054906101000a900460ff16610ffd5760006040518060400160405280600e81526020017f496e76616c6964207369676e657200000000000000000000000000000000000081525093509350505061117b565b8160056000876020015184815181106110195761101861252d565b5b60200260200101516020015173ffffffffffffffffffffffffffffffffffffffff1673ffffffffffffffffffffffffffffffffffffffff16815260200190815260200160002060000154815181106110745761107361252d565b5b6020026020010151156110c45760006040518060400160405280601181526020017f4475706c6963617465206164647265737300000000000000000000000000000081525093509350505061117b565b60018260056000886020015185815181106110e2576110e161252d565b5b60200260200101516020015173ffffffffffffffffffffffffffffffffffffffff1673ffffffffffffffffffffffffffffffffffffffff168152602001908152602001600020600001548151811061113d5761113c61252d565b5b602002602001019015159081151581525050808061115a9061240d565b915050610f37565b5060016040518060200160405280600081525092509250505b915091565b60008061118d8484611224565b905060005b8460200151518110156112175760006111f083876020015184815181106111bc576111bb61252d565b5b602002602001015160200151886020015185815181106111df576111de61252d565b5b602002602001015160000151611273565b905080611203576000935050505061121e565b50808061120f9061240d565b915050611192565b5060019150505b92915050565b6000806112358460000151846113b9565b90506000818560400151604051602001611250929190611cea565b604051602081830303815290604052805190602001209050809250505092915050565b6000806040518060400160405280601c81526020017f19457468657265756d205369676e6564204d6573736167653a0a333200000000815250905080856040516020016112c1929190611d16565b60405160208183030381529060405280519060200120945060008060008051602051604051602089015195506040890151945060ff60418a0151169350826000528160205280604052505050601b8160ff16101561132957601b8161132691906121c3565b90505b60006001898386866040516000815260200160405260405161134e9493929190611e1e565b6020604051602081039080840390855afa158015611370573d6000803e3d6000fd5b5050506020604051035190508073ffffffffffffffffffffffffffffffffffffffff168873ffffffffffffffffffffffffffffffffffffffff1614955050505050509392505050565b600080600090505b835181101561145f57828482815181106113de576113dd61252d565b5b6020026020010151600001518583815181106113fd576113fc61252d565b5b60200260200101516020015186848151811061141c5761141b61252d565b5b60200260200101516040015160405160200161143b9493929190611d3e565b604051602081830303815290604052925080806114579061240d565b9150506113c1565b506000828051906020012090508091505092915050565b600061148961148484612081565b61205c565b905080838252602082019050828560208602820111156114ac576114ab61259a565b5b60005b858110156114fa57813567ffffffffffffffff8111156114d2576114d161258b565b5b8086016114df8982611704565b855260208501945060208401935050506001810190506114af565b5050509392505050565b6000611517611512846120ad565b61205c565b9050808382526020820190508285606086028201111561153a5761153961259a565b5b60005b8581101561156a5781611550888261180c565b84526020840193506060830192505060018101905061153d565b5050509392505050565b6000611587611582846120d9565b61205c565b9050828152602081018484840111156115a3576115a261259f565b5b6115ae84828561233e565b509392505050565b60006115c96115c48461210a565b61205c565b9050828152602081018484840111156115e5576115e461259f565b5b6115f084828561233e565b509392505050565b60008135905061160781612766565b92915050565b60008135905061161c8161277d565b92915050565b600082601f8301126116375761163661258b565b5b8135611647848260208601611476565b91505092915050565b600082601f8301126116655761166461258b565b5b8135611675848260208601611504565b91505092915050565b60008151905061168d81612794565b92915050565b600082601f8301126116a8576116a761258b565b5b81356116b8848260208601611574565b91505092915050565b6000813590506116d0816127ab565b92915050565b600082601f8301126116eb576116ea61258b565b5b81356116fb8482602086016115b6565b91505092915050565b60006040828403121561171a57611719612590565b5b611724604061205c565b9050600082013567ffffffffffffffff81111561174457611743612595565b5b61175084828501611693565b6000830152506020611764848285016115f8565b60208301525092915050565b60006060828403121561178657611785612590565b5b611790606061205c565b9050600082013567ffffffffffffffff8111156117b0576117af612595565b5b6117bc84828501611650565b600083015250602082013567ffffffffffffffff8111156117e0576117df612595565b5b6117ec84828501611622565b602083015250604061180084828501611870565b60408301525092915050565b60006060828403121561182257611821612590565b5b61182c606061205c565b9050600061183c84828501611870565b60008301525060206118508482850161160d565b6020830152506040611864848285016115f8565b60408301525092915050565b60008135905061187f816127c2565b92915050565b60006020828403121561189b5761189a6125a9565b5b60006118a9848285016115f8565b91505092915050565b6000602082840312156118c8576118c76125a9565b5b60006118d68482850161167e565b91505092915050565b6000602082840312156118f5576118f46125a9565b5b6000611903848285016116c1565b91505092915050565b60008060008060808587031215611926576119256125a9565b5b6000611934878288016116c1565b945050602061194587828801611870565b935050604085013567ffffffffffffffff811115611966576119656125a4565b5b611972878288016116d6565b925050606085013567ffffffffffffffff811115611993576119926125a4565b5b61199f878288016116d6565b91505092959194509250565b600080604083850312156119c2576119c16125a9565b5b600083013567ffffffffffffffff8111156119e0576119df6125a4565b5b6119ec858286016116d6565b925050602083013567ffffffffffffffff811115611a0d57611a0c6125a4565b5b611a19858286016116d6565b9150509250929050565b600060208284031215611a3957611a386125a9565b5b600082013567ffffffffffffffff811115611a5757611a566125a4565b5b611a6384828501611770565b91505092915050565b611a7581612308565b82525050565b611a8c611a8782612297565b612468565b82525050565b611a9b81612285565b82525050565b611ab2611aad82612285565b612456565b82525050565b611ac1816122a9565b82525050565b611ad0816122b5565b82525050565b611ae7611ae2826122b5565b61247a565b82525050565b6000611af88261213b565b611b028185612151565b9350611b1281856020860161234d565b80840191505092915050565b6000611b2982612146565b611b33818561215c565b9350611b4381856020860161234d565b611b4c816125ae565b840191505092915050565b6000611b6460068361215c565b9150611b6f826125cc565b602082019050919050565b6000611b87600f8361215c565b9150611b92826125f5565b602082019050919050565b6000611baa600e8361215c565b9150611bb58261261e565b602082019050919050565b6000611bcd60118361215c565b9150611bd882612647565b602082019050919050565b6000611bf060138361215c565b9150611bfb82612670565b602082019050919050565b6000611c1360158361215c565b9150611c1e82612699565b602082019050919050565b6000611c3660128361215c565b9150611c41826126c2565b602082019050919050565b6000611c5960108361215c565b9150611c64826126eb565b602082019050919050565b6000611c7c60138361215c565b9150611c8782612714565b602082019050919050565b6000611c9f60178361215c565b9150611caa8261273d565b602082019050919050565b611cbe816122f1565b82525050565b611cd5611cd0826122f1565b612496565b82525050565b611ce4816122fb565b82525050565b6000611cf68285611ad6565b602082019150611d068284611cc4565b6020820191508190509392505050565b6000611d228285611aed565b9150611d2e8284611ad6565b6020820191508190509392505050565b6000611d4a8287611aed565b9150611d568286611cc4565b602082019150611d668285611a7b565b601482019150611d768284611aa1565b60148201915081905095945050505050565b6000602082019050611d9d6000830184611a92565b92915050565b6000604082019050611db86000830185611a6c565b611dc56020830184611cb5565b9392505050565b6000606082019050611de16000830186611a92565b611dee6020830185611a92565b611dfb6040830184611cb5565b949350505050565b6000602082019050611e186000830184611ab8565b92915050565b6000608082019050611e336000830187611ac7565b611e406020830186611cdb565b611e4d6040830185611ac7565b611e5a6060830184611ac7565b95945050505050565b60006020820190508181036000830152611e7d8184611b1e565b905092915050565b60006020820190508181036000830152611e9e81611b57565b9050919050565b60006020820190508181036000830152611ebe81611b7a565b9050919050565b60006020820190508181036000830152611ede81611b9d565b9050919050565b60006020820190508181036000830152611efe81611bc0565b9050919050565b60006020820190508181036000830152611f1e81611be3565b9050919050565b60006020820190508181036000830152611f3e81611c06565b9050919050565b60006020820190508181036000830152611f5e81611c29565b9050919050565b60006020820190508181036000830152611f7e81611c4c565b9050919050565b60006020820190508181036000830152611f9e81611c6f565b9050919050565b60006020820190508181036000830152611fbe81611c92565b9050919050565b6000602082019050611fda6000830184611cb5565b92915050565b6000608082019050611ff56000830187611cb5565b6120026020830186611a92565b81810360408301526120148185611b1e565b905081810360608301526120288184611b1e565b905095945050505050565b60006040820190506120486000830185611cb5565b6120556020830184611ab8565b9392505050565b6000612066612077565b905061207282826123dc565b919050565b6000604051905090565b600067ffffffffffffffff82111561209c5761209b61255c565b5b602082029050602081019050919050565b600067ffffffffffffffff8211156120c8576120c761255c565b5b602082029050602081019050919050565b600067ffffffffffffffff8211156120f4576120f361255c565b5b6120fd826125ae565b9050602081019050919050565b600067ffffffffffffffff8211156121255761212461255c565b5b61212e826125ae565b9050602081019050919050565b600081519050919050565b600081519050919050565b600081905092915050565b600082825260208201905092915050565b6000612178826122f1565b9150612183836122f1565b9250827fffffffffffffffffffffffffffffffffffffffffffffffffffffffffffffffff038211156121b8576121b76124a0565b5b828201905092915050565b60006121ce826122fb565b91506121d9836122fb565b92508260ff038211156121ef576121ee6124a0565b5b828201905092915050565b6000612205826122f1565b9150612210836122f1565b9250826122205761221f6124cf565b5b828204905092915050565b6000612236826122f1565b9150612241836122f1565b9250817fffffffffffffffffffffffffffffffffffffffffffffffffffffffffffffffff048311821515161561227a576122796124a0565b5b828202905092915050565b6000612290826122d1565b9050919050565b60006122a2826122d1565b9050919050565b60008115159050919050565b6000819050919050565b60006122ca82612285565b9050919050565b600073ffffffffffffffffffffffffffffffffffffffff82169050919050565b6000819050919050565b600060ff82169050919050565b60006123138261231a565b9050919050565b60006123258261232c565b9050919050565b6000612337826122d1565b9050919050565b82818337600083830152505050565b60005b8381101561236b578082015181840152602081019050612350565b8381111561237a576000848401525b50505050565b600061238b826122f1565b9150600082141561239f5761239e6124a0565b5b600182039050919050565b600060028204905060018216806123c257607f821691505b602082108114156123d6576123d56124fe565b5b50919050565b6123e5826125ae565b810181811067ffffffffffffffff821117156124045761240361255c565b5b80604052505050565b6000612418826122f1565b91507fffffffffffffffffffffffffffffffffffffffffffffffffffffffffffffffff82141561244b5761244a6124a0565b5b600182019050919050565b600061246182612484565b9050919050565b600061247382612484565b9050919050565b6000819050919050565b600061248f826125bf565b9050919050565b6000819050919050565b7f4e487b7100000000000000000000000000000000000000000000000000000000600052601160045260246000fd5b7f4e487b7100000000000000000000000000000000000000000000000000000000600052601260045260246000fd5b7f4e487b7100000000000000000000000000000000000000000000000000000000600052602260045260246000fd5b7f4e487b7100000000000000000000000000000000000000000000000000000000600052603260045260246000fd5b7f4e487b7100000000000000000000000000000000000000000000000000000000600052604160045260246000fd5b600080fd5b600080fd5b600080fd5b600080fd5b600080fd5b600080fd5b600080fd5b6000601f19601f8301169050919050565b60008160601b9050919050565b7f4c6f636b65640000000000000000000000000000000000000000000000000000600082015250565b7f5472616e73666572206661696c65640000000000000000000000000000000000600082015250565b7f416c726561647920657869737473000000000000000000000000000000000000600082015250565b7f496e76616c6964207369676e6174757265000000000000000000000000000000600082015250565b7f496e76616c696420627269646765626c6f636b00000000000000000000000000600082015250565b7f556e6f70656e6564206173736574204272696467650000000000000000000000600082015250565b7f546f6f206c6974746c65206465706f7369740000000000000000000000000000600082015250565b7f496e76616c6964206f70657261746f7200000000000000000000000000000000600082015250565b7f5472616e7366657246726f6d206661696c656400000000000000000000000000600082015250565b7f496e73756666696369656e742065746820746f6b656e73000000000000000000600082015250565b61276f81612285565b811461277a57600080fd5b50565b61278681612297565b811461279157600080fd5b50565b61279d816122a9565b81146127a857600080fd5b50565b6127b4816122bf565b81146127bf57600080fd5b50565b6127cb816122f1565b81146127d657600080fd5b5056fe496e73756666696369656e74206e756d626572206f66206d656d62657220617070726f76616c73a2646970667358221220e9f58b4d32c5fc377d51599fdd2c3d99d9754b44cda479b4c59ef7fa97fbc53e64736f6c63430008070033",
			"opcodes": "PUSH1 0x80 PUSH1 0x40 MSTORE PUSH1 0x0 DUP1 SSTORE PUSH1 0x0 PUSH1 0x1 SSTORE PUSH20 0xEEEEEEEEEEEEEEEEEEEEEEEEEEEEEEEEEEEEEEEE PUSH1 0x2 PUSH1 0x1 PUSH2 0x100 EXP DUP2 SLOAD DUP2 PUSH20 0xFFFFFFFFFFFFFFFFFFFFFFFFFFFFFFFFFFFFFFFF MUL NOT AND SWAP1 DUP4 PUSH20 0xFFFFFFFFFFFFFFFFFFFFFFFFFFFFFFFFFFFFFFFF AND MUL OR SWAP1 SSTORE POP PUSH6 0x5AF3107A4000 PUSH1 0x3 SSTORE PUSH1 0x40 MLOAD DUP1 PUSH1 0x40 ADD PUSH1 0x40 MSTORE DUP1 PUSH1 0x4 DUP2 MSTORE PUSH1 0x20 ADD PUSH32 0x76312E3000000000000000000000000000000000000000000000000000000000 DUP2 MSTORE POP PUSH1 0x4 SWAP1 DUP1 MLOAD SWAP1 PUSH1 0x20 ADD SWAP1 PUSH3 0xB9 SWAP3 SWAP2 SWAP1 PUSH3 0x247 JUMP JUMPDEST POP CALLVALUE DUP1 ISZERO PUSH3 0xC7 JUMPI PUSH1 0x0 DUP1 REVERT JUMPDEST POP PUSH1 0x40 MLOAD PUSH3 0x2E9E CODESIZE SUB DUP1 PUSH3 0x2E9E DUP4 CODECOPY DUP2 DUP2 ADD PUSH1 0x40 MSTORE DUP2 ADD SWAP1 PUSH3 0xED SWAP2 SWAP1 PUSH3 0x3BC JUMP JUMPDEST PUSH1 0x0 JUMPDEST DUP2 MLOAD DUP2 LT ISZERO PUSH3 0x23F JUMPI PUSH1 0x5 PUSH1 0x0 DUP4 DUP4 DUP2 MLOAD DUP2 LT PUSH3 0x114 JUMPI PUSH3 0x113 PUSH3 0x5BB JUMP JUMPDEST JUMPDEST PUSH1 0x20 MUL PUSH1 0x20 ADD ADD MLOAD PUSH20 0xFFFFFFFFFFFFFFFFFFFFFFFFFFFFFFFFFFFFFFFF AND PUSH20 0xFFFFFFFFFFFFFFFFFFFFFFFFFFFFFFFFFFFFFFFF AND DUP2 MSTORE PUSH1 0x20 ADD SWAP1 DUP2 MSTORE PUSH1 0x20 ADD PUSH1 0x0 KECCAK256 PUSH1 0x1 ADD PUSH1 0x0 SWAP1 SLOAD SWAP1 PUSH2 0x100 EXP SWAP1 DIV PUSH1 0xFF AND PUSH3 0x229 JUMPI PUSH1 0x40 MLOAD DUP1 PUSH1 0x40 ADD PUSH1 0x40 MSTORE DUP1 PUSH1 0x0 SLOAD DUP2 MSTORE PUSH1 0x20 ADD PUSH1 0x1 ISZERO ISZERO DUP2 MSTORE POP PUSH1 0x5 PUSH1 0x0 DUP5 DUP5 DUP2 MLOAD DUP2 LT PUSH3 0x1A0 JUMPI PUSH3 0x19F PUSH3 0x5BB JUMP JUMPDEST JUMPDEST PUSH1 0x20 MUL PUSH1 0x20 ADD ADD MLOAD PUSH20 0xFFFFFFFFFFFFFFFFFFFFFFFFFFFFFFFFFFFFFFFF AND PUSH20 0xFFFFFFFFFFFFFFFFFFFFFFFFFFFFFFFFFFFFFFFF AND DUP2 MSTORE PUSH1 0x20 ADD SWAP1 DUP2 MSTORE PUSH1 0x20 ADD PUSH1 0x0 KECCAK256 PUSH1 0x0 DUP3 ADD MLOAD DUP2 PUSH1 0x0 ADD SSTORE PUSH1 0x20 DUP3 ADD MLOAD DUP2 PUSH1 0x1 ADD PUSH1 0x0 PUSH2 0x100 EXP DUP2 SLOAD DUP2 PUSH1 0xFF MUL NOT AND SWAP1 DUP4 ISZERO ISZERO MUL OR SWAP1 SSTORE POP SWAP1 POP POP PUSH1 0x0 DUP1 DUP2 SLOAD DUP1 SWAP3 SWAP2 SWAP1 PUSH3 0x223 SWAP1 PUSH3 0x50F JUMP JUMPDEST SWAP2 SWAP1 POP SSTORE POP JUMPDEST DUP1 DUP1 PUSH3 0x236 SWAP1 PUSH3 0x50F JUMP JUMPDEST SWAP2 POP POP PUSH3 0xF0 JUMP JUMPDEST POP POP PUSH3 0x658 JUMP JUMPDEST DUP3 DUP1 SLOAD PUSH3 0x255 SWAP1 PUSH3 0x4A3 JUMP JUMPDEST SWAP1 PUSH1 0x0 MSTORE PUSH1 0x20 PUSH1 0x0 KECCAK256 SWAP1 PUSH1 0x1F ADD PUSH1 0x20 SWAP1 DIV DUP2 ADD SWAP3 DUP3 PUSH3 0x279 JUMPI PUSH1 0x0 DUP6 SSTORE PUSH3 0x2C5 JUMP JUMPDEST DUP3 PUSH1 0x1F LT PUSH3 0x294 JUMPI DUP1 MLOAD PUSH1 0xFF NOT AND DUP4 DUP1 ADD OR DUP6 SSTORE PUSH3 0x2C5 JUMP JUMPDEST DUP3 DUP1 ADD PUSH1 0x1 ADD DUP6 SSTORE DUP3 ISZERO PUSH3 0x2C5 JUMPI SWAP2 DUP3 ADD JUMPDEST DUP3 DUP2 GT ISZERO PUSH3 0x2C4 JUMPI DUP3 MLOAD DUP3 SSTORE SWAP2 PUSH1 0x20 ADD SWAP2 SWAP1 PUSH1 0x1 ADD SWAP1 PUSH3 0x2A7 JUMP JUMPDEST JUMPDEST POP SWAP1 POP PUSH3 0x2D4 SWAP2 SWAP1 PUSH3 0x2D8 JUMP JUMPDEST POP SWAP1 JUMP JUMPDEST JUMPDEST DUP1 DUP3 GT ISZERO PUSH3 0x2F3 JUMPI PUSH1 0x0 DUP2 PUSH1 0x0 SWAP1 SSTORE POP PUSH1 0x1 ADD PUSH3 0x2D9 JUMP JUMPDEST POP SWAP1 JUMP JUMPDEST PUSH1 0x0 PUSH3 0x30E PUSH3 0x308 DUP5 PUSH3 0x436 JUMP JUMPDEST PUSH3 0x40D JUMP JUMPDEST SWAP1 POP DUP1 DUP4 DUP3 MSTORE PUSH1 0x20 DUP3 ADD SWAP1 POP DUP3 DUP6 PUSH1 0x20 DUP7 MUL DUP3 ADD GT ISZERO PUSH3 0x334 JUMPI PUSH3 0x333 PUSH3 0x61E JUMP JUMPDEST JUMPDEST PUSH1 0x0 JUMPDEST DUP6 DUP2 LT ISZERO PUSH3 0x368 JUMPI DUP2 PUSH3 0x34D DUP9 DUP3 PUSH3 0x372 JUMP JUMPDEST DUP5 MSTORE PUSH1 0x20 DUP5 ADD SWAP4 POP PUSH1 0x20 DUP4 ADD SWAP3 POP POP PUSH1 0x1 DUP2 ADD SWAP1 POP PUSH3 0x337 JUMP JUMPDEST POP POP POP SWAP4 SWAP3 POP POP POP JUMP JUMPDEST PUSH1 0x0 DUP2 MLOAD SWAP1 POP PUSH3 0x383 DUP2 PUSH3 0x63E JUMP JUMPDEST SWAP3 SWAP2 POP POP JUMP JUMPDEST PUSH1 0x0 DUP3 PUSH1 0x1F DUP4 ADD SLT PUSH3 0x3A1 JUMPI PUSH3 0x3A0 PUSH3 0x619 JUMP JUMPDEST JUMPDEST DUP2 MLOAD PUSH3 0x3B3 DUP5 DUP3 PUSH1 0x20 DUP7 ADD PUSH3 0x2F7 JUMP JUMPDEST SWAP2 POP POP SWAP3 SWAP2 POP POP JUMP JUMPDEST PUSH1 0x0 PUSH1 0x20 DUP3 DUP5 SUB SLT ISZERO PUSH3 0x3D5 JUMPI PUSH3 0x3D4 PUSH3 0x628 JUMP JUMPDEST JUMPDEST PUSH1 0x0 DUP3 ADD MLOAD PUSH8 0xFFFFFFFFFFFFFFFF DUP2 GT ISZERO PUSH3 0x3F6 JUMPI PUSH3 0x3F5 PUSH3 0x623 JUMP JUMPDEST JUMPDEST PUSH3 0x404 DUP5 DUP3 DUP6 ADD PUSH3 0x389 JUMP JUMPDEST SWAP2 POP POP SWAP3 SWAP2 POP POP JUMP JUMPDEST PUSH1 0x0 PUSH3 0x419 PUSH3 0x42C JUMP JUMPDEST SWAP1 POP PUSH3 0x427 DUP3 DUP3 PUSH3 0x4D9 JUMP JUMPDEST SWAP2 SWAP1 POP JUMP JUMPDEST PUSH1 0x0 PUSH1 0x40 MLOAD SWAP1 POP SWAP1 JUMP JUMPDEST PUSH1 0x0 PUSH8 0xFFFFFFFFFFFFFFFF DUP3 GT ISZERO PUSH3 0x454 JUMPI PUSH3 0x453 PUSH3 0x5EA JUMP JUMPDEST JUMPDEST PUSH1 0x20 DUP3 MUL SWAP1 POP PUSH1 0x20 DUP2 ADD SWAP1 POP SWAP2 SWAP1 POP JUMP JUMPDEST PUSH1 0x0 PUSH3 0x472 DUP3 PUSH3 0x479 JUMP JUMPDEST SWAP1 POP SWAP2 SWAP1 POP JUMP JUMPDEST PUSH1 0x0 PUSH20 0xFFFFFFFFFFFFFFFFFFFFFFFFFFFFFFFFFFFFFFFF DUP3 AND SWAP1 POP SWAP2 SWAP1 POP JUMP JUMPDEST PUSH1 0x0 DUP2 SWAP1 POP SWAP2 SWAP1 POP JUMP JUMPDEST PUSH1 0x0 PUSH1 0x2 DUP3 DIV SWAP1 POP PUSH1 0x1 DUP3 AND DUP1 PUSH3 0x4BC JUMPI PUSH1 0x7F DUP3 AND SWAP2 POP JUMPDEST PUSH1 0x20 DUP3 LT DUP2 EQ ISZERO PUSH3 0x4D3 JUMPI PUSH3 0x4D2 PUSH3 0x58C JUMP JUMPDEST JUMPDEST POP SWAP2 SWAP1 POP JUMP JUMPDEST PUSH3 0x4E4 DUP3 PUSH3 0x62D JUMP JUMPDEST DUP2 ADD DUP2 DUP2 LT PUSH8 0xFFFFFFFFFFFFFFFF DUP3 GT OR ISZERO PUSH3 0x506 JUMPI PUSH3 0x505 PUSH3 0x5EA JUMP JUMPDEST JUMPDEST DUP1 PUSH1 0x40 MSTORE POP POP POP JUMP JUMPDEST PUSH1 0x0 PUSH3 0x51C DUP3 PUSH3 0x499 JUMP JUMPDEST SWAP2 POP PUSH32 0xFFFFFFFFFFFFFFFFFFFFFFFFFFFFFFFFFFFFFFFFFFFFFFFFFFFFFFFFFFFFFFFF DUP3 EQ ISZERO PUSH3 0x552 JUMPI PUSH3 0x551 PUSH3 0x55D JUMP JUMPDEST JUMPDEST PUSH1 0x1 DUP3 ADD SWAP1 POP SWAP2 SWAP1 POP JUMP JUMPDEST PUSH32 0x4E487B7100000000000000000000000000000000000000000000000000000000 PUSH1 0x0 MSTORE PUSH1 0x11 PUSH1 0x4 MSTORE PUSH1 0x24 PUSH1 0x0 REVERT JUMPDEST PUSH32 0x4E487B7100000000000000000000000000000000000000000000000000000000 PUSH1 0x0 MSTORE PUSH1 0x22 PUSH1 0x4 MSTORE PUSH1 0x24 PUSH1 0x0 REVERT JUMPDEST PUSH32 0x4E487B7100000000000000000000000000000000000000000000000000000000 PUSH1 0x0 MSTORE PUSH1 0x32 PUSH1 0x4 MSTORE PUSH1 0x24 PUSH1 0x0 REVERT JUMPDEST PUSH32 0x4E487B7100000000000000000000000000000000000000000000000000000000 PUSH1 0x0 MSTORE PUSH1 0x41 PUSH1 0x4 MSTORE PUSH1 0x24 PUSH1 0x0 REVERT JUMPDEST PUSH1 0x0 DUP1 REVERT JUMPDEST PUSH1 0x0 DUP1 REVERT JUMPDEST PUSH1 0x0 DUP1 REVERT JUMPDEST PUSH1 0x0 DUP1 REVERT JUMPDEST PUSH1 0x0 PUSH1 0x1F NOT PUSH1 0x1F DUP4 ADD AND SWAP1 POP SWAP2 SWAP1 POP JUMP JUMPDEST PUSH3 0x649 DUP2 PUSH3 0x465 JUMP JUMPDEST DUP2 EQ PUSH3 0x655 JUMPI PUSH1 0x0 DUP1 REVERT JUMPDEST POP JUMP JUMPDEST PUSH2 0x2836 DUP1 PUSH3 0x668 PUSH1 0x0 CODECOPY PUSH1 0x0 RETURN INVALID PUSH1 0x80 PUSH1 0x40 MSTORE PUSH1 0x4 CALLDATASIZE LT PUSH2 0xA7 JUMPI PUSH1 0x0 CALLDATALOAD PUSH1 0xE0 SHR DUP1 PUSH4 0x85A383D0 GT PUSH2 0x64 JUMPI DUP1 PUSH4 0x85A383D0 EQ PUSH2 0x1DF JUMPI DUP1 PUSH4 0x9F581B88 EQ PUSH2 0x208 JUMPI DUP1 PUSH4 0xB6FB39D5 EQ PUSH2 0x231 JUMPI DUP1 PUSH4 0xBAF0BFD3 EQ PUSH2 0x25C JUMPI DUP1 PUSH4 0xDDD92799 EQ PUSH2 0x287 JUMPI DUP1 PUSH4 0xE50381FC EQ PUSH2 0x2B0 JUMPI PUSH2 0xA7 JUMP JUMPDEST DUP1 PUSH4 0x2AFC34F EQ PUSH2 0xAC JUMPI DUP1 PUSH4 0x129ED395 EQ PUSH2 0xD5 JUMPI DUP1 PUSH4 0x130F679D EQ PUSH2 0xFE JUMPI DUP1 PUSH4 0x236E0E40 EQ PUSH2 0x13C JUMPI DUP1 PUSH4 0x38046217 EQ PUSH2 0x179 JUMPI DUP1 PUSH4 0x7669C35F EQ PUSH2 0x1A2 JUMPI JUMPDEST PUSH1 0x0 DUP1 REVERT JUMPDEST CALLVALUE DUP1 ISZERO PUSH2 0xB8 JUMPI PUSH1 0x0 DUP1 REVERT JUMPDEST POP PUSH2 0xD3 PUSH1 0x4 DUP1 CALLDATASIZE SUB DUP2 ADD SWAP1 PUSH2 0xCE SWAP2 SWAP1 PUSH2 0x190C JUMP JUMPDEST PUSH2 0x2CC JUMP JUMPDEST STOP JUMPDEST CALLVALUE DUP1 ISZERO PUSH2 0xE1 JUMPI PUSH1 0x0 DUP1 REVERT JUMPDEST POP PUSH2 0xFC PUSH1 0x4 DUP1 CALLDATASIZE SUB DUP2 ADD SWAP1 PUSH2 0xF7 SWAP2 SWAP1 PUSH2 0x1885 JUMP JUMPDEST PUSH2 0x4C5 JUMP JUMPDEST STOP JUMPDEST CALLVALUE DUP1 ISZERO PUSH2 0x10A JUMPI PUSH1 0x0 DUP1 REVERT JUMPDEST POP PUSH2 0x125 PUSH1 0x4 DUP1 CALLDATASIZE SUB DUP2 ADD SWAP1 PUSH2 0x120 SWAP2 SWAP1 PUSH2 0x1885 JUMP JUMPDEST PUSH2 0x61C JUMP JUMPDEST PUSH1 0x40 MLOAD PUSH2 0x133 SWAP3 SWAP2 SWAP1 PUSH2 0x2033 JUMP JUMPDEST PUSH1 0x40 MLOAD DUP1 SWAP2 SUB SWAP1 RETURN JUMPDEST CALLVALUE DUP1 ISZERO PUSH2 0x148 JUMPI PUSH1 0x0 DUP1 REVERT JUMPDEST POP PUSH2 0x163 PUSH1 0x4 DUP1 CALLDATASIZE SUB DUP2 ADD SWAP1 PUSH2 0x15E SWAP2 SWAP1 PUSH2 0x1885 JUMP JUMPDEST PUSH2 0x64D JUMP JUMPDEST PUSH1 0x40 MLOAD PUSH2 0x170 SWAP2 SWAP1 PUSH2 0x1E03 JUMP JUMPDEST PUSH1 0x40 MLOAD DUP1 SWAP2 SUB SWAP1 RETURN JUMPDEST CALLVALUE DUP1 ISZERO PUSH2 0x185 JUMPI PUSH1 0x0 DUP1 REVERT JUMPDEST POP PUSH2 0x1A0 PUSH1 0x4 DUP1 CALLDATASIZE SUB DUP2 ADD SWAP1 PUSH2 0x19B SWAP2 SWAP1 PUSH2 0x1885 JUMP JUMPDEST PUSH2 0x66D JUMP JUMPDEST STOP JUMPDEST CALLVALUE DUP1 ISZERO PUSH2 0x1AE JUMPI PUSH1 0x0 DUP1 REVERT JUMPDEST POP PUSH2 0x1C9 PUSH1 0x4 DUP1 CALLDATASIZE SUB DUP2 ADD SWAP1 PUSH2 0x1C4 SWAP2 SWAP1 PUSH2 0x1885 JUMP JUMPDEST PUSH2 0x79D JUMP JUMPDEST PUSH1 0x40 MLOAD PUSH2 0x1D6 SWAP2 SWAP1 PUSH2 0x1E03 JUMP JUMPDEST PUSH1 0x40 MLOAD DUP1 SWAP2 SUB SWAP1 RETURN JUMPDEST CALLVALUE DUP1 ISZERO PUSH2 0x1EB JUMPI PUSH1 0x0 DUP1 REVERT JUMPDEST POP PUSH2 0x206 PUSH1 0x4 DUP1 CALLDATASIZE SUB DUP2 ADD SWAP1 PUSH2 0x201 SWAP2 SWAP1 PUSH2 0x18DF JUMP JUMPDEST PUSH2 0x7BD JUMP JUMPDEST STOP JUMPDEST CALLVALUE DUP1 ISZERO PUSH2 0x214 JUMPI PUSH1 0x0 DUP1 REVERT JUMPDEST POP PUSH2 0x22F PUSH1 0x4 DUP1 CALLDATASIZE SUB DUP2 ADD SWAP1 PUSH2 0x22A SWAP2 SWAP1 PUSH2 0x1885 JUMP JUMPDEST PUSH2 0x818 JUMP JUMPDEST STOP JUMPDEST CALLVALUE DUP1 ISZERO PUSH2 0x23D JUMPI PUSH1 0x0 DUP1 REVERT JUMPDEST POP PUSH2 0x246 PUSH2 0x81B JUMP JUMPDEST PUSH1 0x40 MLOAD PUSH2 0x253 SWAP2 SWAP1 PUSH2 0x1FC5 JUMP JUMPDEST PUSH1 0x40 MLOAD DUP1 SWAP2 SUB SWAP1 RETURN JUMPDEST CALLVALUE DUP1 ISZERO PUSH2 0x268 JUMPI PUSH1 0x0 DUP1 REVERT JUMPDEST POP PUSH2 0x271 PUSH2 0x821 JUMP JUMPDEST PUSH1 0x40 MLOAD PUSH2 0x27E SWAP2 SWAP1 PUSH2 0x1D88 JUMP JUMPDEST PUSH1 0x40 MLOAD DUP1 SWAP2 SUB SWAP1 RETURN JUMPDEST CALLVALUE DUP1 ISZERO PUSH2 0x293 JUMPI PUSH1 0x0 DUP1 REVERT JUMPDEST POP PUSH2 0x2AE PUSH1 0x4 DUP1 CALLDATASIZE SUB DUP2 ADD SWAP1 PUSH2 0x2A9 SWAP2 SWAP1 PUSH2 0x1A23 JUMP JUMPDEST PUSH2 0x847 JUMP JUMPDEST STOP JUMPDEST PUSH2 0x2CA PUSH1 0x4 DUP1 CALLDATASIZE SUB DUP2 ADD SWAP1 PUSH2 0x2C5 SWAP2 SWAP1 PUSH2 0x19AB JUMP JUMPDEST PUSH2 0xDCC JUMP JUMPDEST STOP JUMPDEST PUSH1 0x3 SLOAD DUP4 LT PUSH2 0x310 JUMPI PUSH1 0x40 MLOAD PUSH32 0x8C379A000000000000000000000000000000000000000000000000000000000 DUP2 MSTORE PUSH1 0x4 ADD PUSH2 0x307 SWAP1 PUSH2 0x1F45 JUMP JUMPDEST PUSH1 0x40 MLOAD DUP1 SWAP2 SUB SWAP1 REVERT JUMPDEST PUSH1 0x7 PUSH1 0x0 DUP6 PUSH20 0xFFFFFFFFFFFFFFFFFFFFFFFFFFFFFFFFFFFFFFFF AND PUSH20 0xFFFFFFFFFFFFFFFFFFFFFFFFFFFFFFFFFFFFFFFF AND DUP2 MSTORE PUSH1 0x20 ADD SWAP1 DUP2 MSTORE PUSH1 0x20 ADD PUSH1 0x0 KECCAK256 PUSH1 0x0 SWAP1 SLOAD SWAP1 PUSH2 0x100 EXP SWAP1 DIV PUSH1 0xFF AND PUSH2 0x39C JUMPI PUSH1 0x40 MLOAD PUSH32 0x8C379A000000000000000000000000000000000000000000000000000000000 DUP2 MSTORE PUSH1 0x4 ADD PUSH2 0x393 SWAP1 PUSH2 0x1F25 JUMP JUMPDEST PUSH1 0x40 MLOAD DUP1 SWAP2 SUB SWAP1 REVERT JUMPDEST DUP4 PUSH20 0xFFFFFFFFFFFFFFFFFFFFFFFFFFFFFFFFFFFFFFFF AND PUSH4 0x23B872DD CALLER ADDRESS DUP7 PUSH1 0x40 MLOAD DUP5 PUSH4 0xFFFFFFFF AND PUSH1 0xE0 SHL DUP2 MSTORE PUSH1 0x4 ADD PUSH2 0x3D9 SWAP4 SWAP3 SWAP2 SWAP1 PUSH2 0x1DCC JUMP JUMPDEST PUSH1 0x20 PUSH1 0x40 MLOAD DUP1 DUP4 SUB DUP2 PUSH1 0x0 DUP8 DUP1 EXTCODESIZE ISZERO DUP1 ISZERO PUSH2 0x3F3 JUMPI PUSH1 0x0 DUP1 REVERT JUMPDEST POP GAS CALL ISZERO DUP1 ISZERO PUSH2 0x407 JUMPI RETURNDATASIZE PUSH1 0x0 DUP1 RETURNDATACOPY RETURNDATASIZE PUSH1 0x0 REVERT JUMPDEST POP POP POP POP PUSH1 0x40 MLOAD RETURNDATASIZE PUSH1 0x1F NOT PUSH1 0x1F DUP3 ADD AND DUP3 ADD DUP1 PUSH1 0x40 MSTORE POP DUP2 ADD SWAP1 PUSH2 0x42B SWAP2 SWAP1 PUSH2 0x18B2 JUMP JUMPDEST PUSH2 0x46A JUMPI PUSH1 0x40 MLOAD PUSH32 0x8C379A000000000000000000000000000000000000000000000000000000000 DUP2 MSTORE PUSH1 0x4 ADD PUSH2 0x461 SWAP1 PUSH2 0x1F85 JUMP JUMPDEST PUSH1 0x40 MLOAD DUP1 SWAP2 SUB SWAP1 REVERT JUMPDEST DUP3 CALLER PUSH20 0xFFFFFFFFFFFFFFFFFFFFFFFFFFFFFFFFFFFFFFFF AND PUSH32 0xD575AE283B17B524082C4C985D3B6FC0112317B0A5BB42273729C8AB38417889 NUMBER DUP8 DUP7 DUP7 PUSH1 0x40 MLOAD PUSH2 0x4B7 SWAP5 SWAP4 SWAP3 SWAP2 SWAP1 PUSH2 0x1FE0 JUMP JUMPDEST PUSH1 0x40 MLOAD DUP1 SWAP2 SUB SWAP1 LOG3 POP POP POP POP JUMP JUMPDEST PUSH1 0x6 PUSH1 0x0 DUP3 PUSH20 0xFFFFFFFFFFFFFFFFFFFFFFFFFFFFFFFFFFFFFFFF AND PUSH20 0xFFFFFFFFFFFFFFFFFFFFFFFFFFFFFFFFFFFFFFFF AND DUP2 MSTORE PUSH1 0x20 ADD SWAP1 DUP2 MSTORE PUSH1 0x20 ADD PUSH1 0x0 KECCAK256 PUSH1 0x0 SWAP1 SLOAD SWAP1 PUSH2 0x100 EXP SWAP1 DIV PUSH1 0xFF AND ISZERO DUP1 ISZERO PUSH2 0x56B JUMPI POP PUSH1 0x5 PUSH1 0x0 DUP3 PUSH20 0xFFFFFFFFFFFFFFFFFFFFFFFFFFFFFFFFFFFFFFFF AND PUSH20 0xFFFFFFFFFFFFFFFFFFFFFFFFFFFFFFFFFFFFFFFF AND DUP2 MSTORE PUSH1 0x20 ADD SWAP1 DUP2 MSTORE PUSH1 0x20 ADD PUSH1 0x0 KECCAK256 PUSH1 0x1 ADD PUSH1 0x0 SWAP1 SLOAD SWAP1 PUSH2 0x100 EXP SWAP1 DIV PUSH1 0xFF AND JUMPDEST PUSH2 0x5AA JUMPI PUSH1 0x40 MLOAD PUSH32 0x8C379A000000000000000000000000000000000000000000000000000000000 DUP2 MSTORE PUSH1 0x4 ADD PUSH2 0x5A1 SWAP1 PUSH2 0x1E85 JUMP JUMPDEST PUSH1 0x40 MLOAD DUP1 SWAP2 SUB SWAP1 REVERT JUMPDEST PUSH1 0x1 PUSH1 0x6 PUSH1 0x0 DUP4 PUSH20 0xFFFFFFFFFFFFFFFFFFFFFFFFFFFFFFFFFFFFFFFF AND PUSH20 0xFFFFFFFFFFFFFFFFFFFFFFFFFFFFFFFFFFFFFFFF AND DUP2 MSTORE PUSH1 0x20 ADD SWAP1 DUP2 MSTORE PUSH1 0x20 ADD PUSH1 0x0 KECCAK256 PUSH1 0x0 PUSH2 0x100 EXP DUP2 SLOAD DUP2 PUSH1 0xFF MUL NOT AND SWAP1 DUP4 ISZERO ISZERO MUL OR SWAP1 SSTORE POP PUSH1 0x0 DUP1 DUP2 SLOAD DUP1 SWAP3 SWAP2 SWAP1 PUSH2 0x614 SWAP1 PUSH2 0x2380 JUMP JUMPDEST SWAP2 SWAP1 POP SSTORE POP POP JUMP JUMPDEST PUSH1 0x5 PUSH1 0x20 MSTORE DUP1 PUSH1 0x0 MSTORE PUSH1 0x40 PUSH1 0x0 KECCAK256 PUSH1 0x0 SWAP2 POP SWAP1 POP DUP1 PUSH1 0x0 ADD SLOAD SWAP1 DUP1 PUSH1 0x1 ADD PUSH1 0x0 SWAP1 SLOAD SWAP1 PUSH2 0x100 EXP SWAP1 DIV PUSH1 0xFF AND SWAP1 POP DUP3 JUMP JUMPDEST PUSH1 0x7 PUSH1 0x20 MSTORE DUP1 PUSH1 0x0 MSTORE PUSH1 0x40 PUSH1 0x0 KECCAK256 PUSH1 0x0 SWAP2 POP SLOAD SWAP1 PUSH2 0x100 EXP SWAP1 DIV PUSH1 0xFF AND DUP2 JUMP JUMPDEST PUSH1 0x5 PUSH1 0x0 DUP3 PUSH20 0xFFFFFFFFFFFFFFFFFFFFFFFFFFFFFFFFFFFFFFFF AND PUSH20 0xFFFFFFFFFFFFFFFFFFFFFFFFFFFFFFFFFFFFFFFF AND DUP2 MSTORE PUSH1 0x20 ADD SWAP1 DUP2 MSTORE PUSH1 0x20 ADD PUSH1 0x0 KECCAK256 PUSH1 0x1 ADD PUSH1 0x0 SWAP1 SLOAD SWAP1 PUSH2 0x100 EXP SWAP1 DIV PUSH1 0xFF AND ISZERO PUSH2 0x6FD JUMPI PUSH1 0x40 MLOAD PUSH32 0x8C379A000000000000000000000000000000000000000000000000000000000 DUP2 MSTORE PUSH1 0x4 ADD PUSH2 0x6F4 SWAP1 PUSH2 0x1EC5 JUMP JUMPDEST PUSH1 0x40 MLOAD DUP1 SWAP2 SUB SWAP1 REVERT JUMPDEST PUSH1 0x40 MLOAD DUP1 PUSH1 0x40 ADD PUSH1 0x40 MSTORE DUP1 PUSH1 0x0 SLOAD DUP2 MSTORE PUSH1 0x20 ADD PUSH1 0x1 ISZERO ISZERO DUP2 MSTORE POP PUSH1 0x5 PUSH1 0x0 DUP4 PUSH20 0xFFFFFFFFFFFFFFFFFFFFFFFFFFFFFFFFFFFFFFFF AND PUSH20 0xFFFFFFFFFFFFFFFFFFFFFFFFFFFFFFFFFFFFFFFF AND DUP2 MSTORE PUSH1 0x20 ADD SWAP1 DUP2 MSTORE PUSH1 0x20 ADD PUSH1 0x0 KECCAK256 PUSH1 0x0 DUP3 ADD MLOAD DUP2 PUSH1 0x0 ADD SSTORE PUSH1 0x20 DUP3 ADD MLOAD DUP2 PUSH1 0x1 ADD PUSH1 0x0 PUSH2 0x100 EXP DUP2 SLOAD DUP2 PUSH1 0xFF MUL NOT AND SWAP1 DUP4 ISZERO ISZERO MUL OR SWAP1 SSTORE POP SWAP1 POP POP PUSH1 0x0 DUP1 DUP2 SLOAD DUP1 SWAP3 SWAP2 SWAP1 PUSH2 0x795 SWAP1 PUSH2 0x240D JUMP JUMPDEST SWAP2 SWAP1 POP SSTORE POP POP JUMP JUMPDEST PUSH1 0x6 PUSH1 0x20 MSTORE DUP1 PUSH1 0x0 MSTORE PUSH1 0x40 PUSH1 0x0 KECCAK256 PUSH1 0x0 SWAP2 POP SLOAD SWAP1 PUSH2 0x100 EXP SWAP1 DIV PUSH1 0xFF AND DUP2 JUMP JUMPDEST PUSH1 0x1 PUSH1 0x7 PUSH1 0x0 DUP4 PUSH20 0xFFFFFFFFFFFFFFFFFFFFFFFFFFFFFFFFFFFFFFFF AND PUSH20 0xFFFFFFFFFFFFFFFFFFFFFFFFFFFFFFFFFFFFFFFF AND DUP2 MSTORE PUSH1 0x20 ADD SWAP1 DUP2 MSTORE PUSH1 0x20 ADD PUSH1 0x0 KECCAK256 PUSH1 0x0 PUSH2 0x100 EXP DUP2 SLOAD DUP2 PUSH1 0xFF MUL NOT AND SWAP1 DUP4 ISZERO ISZERO MUL OR SWAP1 SSTORE POP POP JUMP JUMPDEST POP JUMP JUMPDEST PUSH1 0x0 SLOAD DUP2 JUMP JUMPDEST PUSH1 0x2 PUSH1 0x1 SWAP1 SLOAD SWAP1 PUSH2 0x100 EXP SWAP1 DIV PUSH20 0xFFFFFFFFFFFFFFFFFFFFFFFFFFFFFFFFFFFFFFFF AND DUP2 JUMP JUMPDEST PUSH1 0x1 SLOAD DUP2 PUSH1 0x40 ADD MLOAD GT PUSH2 0x88F JUMPI PUSH1 0x40 MLOAD PUSH32 0x8C379A000000000000000000000000000000000000000000000000000000000 DUP2 MSTORE PUSH1 0x4 ADD PUSH2 0x886 SWAP1 PUSH2 0x1F05 JUMP JUMPDEST PUSH1 0x40 MLOAD DUP1 SWAP2 SUB SWAP1 REVERT JUMPDEST PUSH1 0x5 PUSH1 0x0 CALLER PUSH20 0xFFFFFFFFFFFFFFFFFFFFFFFFFFFFFFFFFFFFFFFF AND PUSH20 0xFFFFFFFFFFFFFFFFFFFFFFFFFFFFFFFFFFFFFFFF AND DUP2 MSTORE PUSH1 0x20 ADD SWAP1 DUP2 MSTORE PUSH1 0x20 ADD PUSH1 0x0 KECCAK256 PUSH1 0x1 ADD PUSH1 0x0 SWAP1 SLOAD SWAP1 PUSH2 0x100 EXP SWAP1 DIV PUSH1 0xFF AND PUSH2 0x91E JUMPI PUSH1 0x40 MLOAD PUSH32 0x8C379A000000000000000000000000000000000000000000000000000000000 DUP2 MSTORE PUSH1 0x4 ADD PUSH2 0x915 SWAP1 PUSH2 0x1F65 JUMP JUMPDEST PUSH1 0x40 MLOAD DUP1 SWAP2 SUB SWAP1 REVERT JUMPDEST PUSH1 0x0 DUP1 PUSH2 0x92A DUP4 PUSH2 0xE8B JUMP JUMPDEST SWAP2 POP SWAP2 POP DUP2 DUP2 SWAP1 PUSH2 0x971 JUMPI PUSH1 0x40 MLOAD PUSH32 0x8C379A000000000000000000000000000000000000000000000000000000000 DUP2 MSTORE PUSH1 0x4 ADD PUSH2 0x968 SWAP2 SWAP1 PUSH2 0x1E63 JUMP JUMPDEST PUSH1 0x40 MLOAD DUP1 SWAP2 SUB SWAP1 REVERT JUMPDEST POP PUSH1 0x0 PUSH2 0xA08 DUP5 PUSH1 0x4 DUP1 SLOAD PUSH2 0x985 SWAP1 PUSH2 0x23AA JUMP JUMPDEST DUP1 PUSH1 0x1F ADD PUSH1 0x20 DUP1 SWAP2 DIV MUL PUSH1 0x20 ADD PUSH1 0x40 MLOAD SWAP1 DUP2 ADD PUSH1 0x40 MSTORE DUP1 SWAP3 SWAP2 SWAP1 DUP2 DUP2 MSTORE PUSH1 0x20 ADD DUP3 DUP1 SLOAD PUSH2 0x9B1 SWAP1 PUSH2 0x23AA JUMP JUMPDEST DUP1 ISZERO PUSH2 0x9FE JUMPI DUP1 PUSH1 0x1F LT PUSH2 0x9D3 JUMPI PUSH2 0x100 DUP1 DUP4 SLOAD DIV MUL DUP4 MSTORE SWAP2 PUSH1 0x20 ADD SWAP2 PUSH2 0x9FE JUMP JUMPDEST DUP3 ADD SWAP2 SWAP1 PUSH1 0x0 MSTORE PUSH1 0x20 PUSH1 0x0 KECCAK256 SWAP1 JUMPDEST DUP2 SLOAD DUP2 MSTORE SWAP1 PUSH1 0x1 ADD SWAP1 PUSH1 0x20 ADD DUP1 DUP4 GT PUSH2 0x9E1 JUMPI DUP3 SWAP1 SUB PUSH1 0x1F AND DUP3 ADD SWAP2 JUMPDEST POP POP POP POP POP PUSH2 0x1180 JUMP JUMPDEST SWAP1 POP DUP1 PUSH2 0xA4A JUMPI PUSH1 0x40 MLOAD PUSH32 0x8C379A000000000000000000000000000000000000000000000000000000000 DUP2 MSTORE PUSH1 0x4 ADD PUSH2 0xA41 SWAP1 PUSH2 0x1EE5 JUMP JUMPDEST PUSH1 0x40 MLOAD DUP1 SWAP2 SUB SWAP1 REVERT JUMPDEST PUSH1 0x0 JUMPDEST DUP5 PUSH1 0x0 ADD MLOAD MLOAD DUP2 LT ISZERO PUSH2 0xDBA JUMPI PUSH1 0x2 PUSH1 0x1 SWAP1 SLOAD SWAP1 PUSH2 0x100 EXP SWAP1 DIV PUSH20 0xFFFFFFFFFFFFFFFFFFFFFFFFFFFFFFFFFFFFFFFF AND PUSH20 0xFFFFFFFFFFFFFFFFFFFFFFFFFFFFFFFFFFFFFFFF AND DUP6 PUSH1 0x0 ADD MLOAD DUP3 DUP2 MLOAD DUP2 LT PUSH2 0xAAA JUMPI PUSH2 0xAA9 PUSH2 0x252D JUMP JUMPDEST JUMPDEST PUSH1 0x20 MUL PUSH1 0x20 ADD ADD MLOAD PUSH1 0x40 ADD MLOAD PUSH20 0xFFFFFFFFFFFFFFFFFFFFFFFFFFFFFFFFFFFFFFFF AND EQ ISZERO PUSH2 0xBC6 JUMPI DUP5 PUSH1 0x0 ADD MLOAD DUP2 DUP2 MLOAD DUP2 LT PUSH2 0xAE9 JUMPI PUSH2 0xAE8 PUSH2 0x252D JUMP JUMPDEST JUMPDEST PUSH1 0x20 MUL PUSH1 0x20 ADD ADD MLOAD PUSH1 0x0 ADD MLOAD SELFBALANCE LT PUSH2 0xB36 JUMPI PUSH1 0x40 MLOAD PUSH32 0x8C379A000000000000000000000000000000000000000000000000000000000 DUP2 MSTORE PUSH1 0x4 ADD PUSH2 0xB2D SWAP1 PUSH2 0x1FA5 JUMP JUMPDEST PUSH1 0x40 MLOAD DUP1 SWAP2 SUB SWAP1 REVERT JUMPDEST DUP5 PUSH1 0x0 ADD MLOAD DUP2 DUP2 MLOAD DUP2 LT PUSH2 0xB4D JUMPI PUSH2 0xB4C PUSH2 0x252D JUMP JUMPDEST JUMPDEST PUSH1 0x20 MUL PUSH1 0x20 ADD ADD MLOAD PUSH1 0x20 ADD MLOAD PUSH20 0xFFFFFFFFFFFFFFFFFFFFFFFFFFFFFFFFFFFFFFFF AND PUSH2 0x8FC DUP7 PUSH1 0x0 ADD MLOAD DUP4 DUP2 MLOAD DUP2 LT PUSH2 0xB89 JUMPI PUSH2 0xB88 PUSH2 0x252D JUMP JUMPDEST JUMPDEST PUSH1 0x20 MUL PUSH1 0x20 ADD ADD MLOAD PUSH1 0x0 ADD MLOAD SWAP1 DUP2 ISZERO MUL SWAP1 PUSH1 0x40 MLOAD PUSH1 0x0 PUSH1 0x40 MLOAD DUP1 DUP4 SUB DUP2 DUP6 DUP9 DUP9 CALL SWAP4 POP POP POP POP ISZERO DUP1 ISZERO PUSH2 0xBC0 JUMPI RETURNDATASIZE PUSH1 0x0 DUP1 RETURNDATACOPY RETURNDATASIZE PUSH1 0x0 REVERT JUMPDEST POP PUSH2 0xDA7 JUMP JUMPDEST PUSH1 0x7 PUSH1 0x0 DUP7 PUSH1 0x0 ADD MLOAD DUP4 DUP2 MLOAD DUP2 LT PUSH2 0xBE1 JUMPI PUSH2 0xBE0 PUSH2 0x252D JUMP JUMPDEST JUMPDEST PUSH1 0x20 MUL PUSH1 0x20 ADD ADD MLOAD PUSH1 0x40 ADD MLOAD PUSH20 0xFFFFFFFFFFFFFFFFFFFFFFFFFFFFFFFFFFFFFFFF AND PUSH20 0xFFFFFFFFFFFFFFFFFFFFFFFFFFFFFFFFFFFFFFFF AND DUP2 MSTORE PUSH1 0x20 ADD SWAP1 DUP2 MSTORE PUSH1 0x20 ADD PUSH1 0x0 KECCAK256 PUSH1 0x0 SWAP1 SLOAD SWAP1 PUSH2 0x100 EXP SWAP1 DIV PUSH1 0xFF AND PUSH2 0xC74 JUMPI PUSH1 0x40 MLOAD PUSH32 0x8C379A000000000000000000000000000000000000000000000000000000000 DUP2 MSTORE PUSH1 0x4 ADD PUSH2 0xC6B SWAP1 PUSH2 0x1F25 JUMP JUMPDEST PUSH1 0x40 MLOAD DUP1 SWAP2 SUB SWAP1 REVERT JUMPDEST DUP5 PUSH1 0x0 ADD MLOAD DUP2 DUP2 MLOAD DUP2 LT PUSH2 0xC8B JUMPI PUSH2 0xC8A PUSH2 0x252D JUMP JUMPDEST JUMPDEST PUSH1 0x20 MUL PUSH1 0x20 ADD ADD MLOAD PUSH1 0x40 ADD MLOAD PUSH20 0xFFFFFFFFFFFFFFFFFFFFFFFFFFFFFFFFFFFFFFFF AND PUSH4 0xA9059CBB DUP7 PUSH1 0x0 ADD MLOAD DUP4 DUP2 MLOAD DUP2 LT PUSH2 0xCC9 JUMPI PUSH2 0xCC8 PUSH2 0x252D JUMP JUMPDEST JUMPDEST PUSH1 0x20 MUL PUSH1 0x20 ADD ADD MLOAD PUSH1 0x20 ADD MLOAD DUP8 PUSH1 0x0 ADD MLOAD DUP5 DUP2 MLOAD DUP2 LT PUSH2 0xCEC JUMPI PUSH2 0xCEB PUSH2 0x252D JUMP JUMPDEST JUMPDEST PUSH1 0x20 MUL PUSH1 0x20 ADD ADD MLOAD PUSH1 0x0 ADD MLOAD PUSH1 0x40 MLOAD DUP4 PUSH4 0xFFFFFFFF AND PUSH1 0xE0 SHL DUP2 MSTORE PUSH1 0x4 ADD PUSH2 0xD15 SWAP3 SWAP2 SWAP1 PUSH2 0x1DA3 JUMP JUMPDEST PUSH1 0x20 PUSH1 0x40 MLOAD DUP1 DUP4 SUB DUP2 PUSH1 0x0 DUP8 DUP1 EXTCODESIZE ISZERO DUP1 ISZERO PUSH2 0xD2F JUMPI PUSH1 0x0 DUP1 REVERT JUMPDEST POP GAS CALL ISZERO DUP1 ISZERO PUSH2 0xD43 JUMPI RETURNDATASIZE PUSH1 0x0 DUP1 RETURNDATACOPY RETURNDATASIZE PUSH1 0x0 REVERT JUMPDEST POP POP POP POP PUSH1 0x40 MLOAD RETURNDATASIZE PUSH1 0x1F NOT PUSH1 0x1F DUP3 ADD AND DUP3 ADD DUP1 PUSH1 0x40 MSTORE POP DUP2 ADD SWAP1 PUSH2 0xD67 SWAP2 SWAP1 PUSH2 0x18B2 JUMP JUMPDEST PUSH2 0xDA6 JUMPI PUSH1 0x40 MLOAD PUSH32 0x8C379A000000000000000000000000000000000000000000000000000000000 DUP2 MSTORE PUSH1 0x4 ADD PUSH2 0xD9D SWAP1 PUSH2 0x1EA5 JUMP JUMPDEST PUSH1 0x40 MLOAD DUP1 SWAP2 SUB SWAP1 REVERT JUMPDEST JUMPDEST DUP1 DUP1 PUSH2 0xDB2 SWAP1 PUSH2 0x240D JUMP JUMPDEST SWAP2 POP POP PUSH2 0xA4D JUMP JUMPDEST POP DUP4 PUSH1 0x40 ADD MLOAD PUSH1 0x1 DUP2 SWAP1 SSTORE POP POP POP POP POP JUMP JUMPDEST PUSH1 0x3 SLOAD CALLVALUE LT PUSH2 0xE10 JUMPI PUSH1 0x40 MLOAD PUSH32 0x8C379A000000000000000000000000000000000000000000000000000000000 DUP2 MSTORE PUSH1 0x4 ADD PUSH2 0xE07 SWAP1 PUSH2 0x1F45 JUMP JUMPDEST PUSH1 0x40 MLOAD DUP1 SWAP2 SUB SWAP1 REVERT JUMPDEST CALLVALUE CALLER PUSH20 0xFFFFFFFFFFFFFFFFFFFFFFFFFFFFFFFFFFFFFFFF AND PUSH32 0xD575AE283B17B524082C4C985D3B6FC0112317B0A5BB42273729C8AB38417889 NUMBER PUSH1 0x2 PUSH1 0x1 SWAP1 SLOAD SWAP1 PUSH2 0x100 EXP SWAP1 DIV PUSH20 0xFFFFFFFFFFFFFFFFFFFFFFFFFFFFFFFFFFFFFFFF AND DUP7 DUP7 PUSH1 0x40 MLOAD PUSH2 0xE7F SWAP5 SWAP4 SWAP3 SWAP2 SWAP1 PUSH2 0x1FE0 JUMP JUMPDEST PUSH1 0x40 MLOAD DUP1 SWAP2 SUB SWAP1 LOG3 POP POP JUMP JUMPDEST PUSH1 0x0 PUSH1 0x60 PUSH1 0x1 PUSH1 0x3 PUSH1 0x2 PUSH1 0x0 SLOAD PUSH2 0xEA2 SWAP2 SWAP1 PUSH2 0x222B JUMP JUMPDEST PUSH2 0xEAC SWAP2 SWAP1 PUSH2 0x21FA JUMP JUMPDEST PUSH2 0xEB6 SWAP2 SWAP1 PUSH2 0x216D JUMP JUMPDEST DUP4 PUSH1 0x20 ADD MLOAD MLOAD LT ISZERO PUSH2 0xEE6 JUMPI PUSH1 0x0 PUSH1 0x40 MLOAD DUP1 PUSH1 0x60 ADD PUSH1 0x40 MSTORE DUP1 PUSH1 0x27 DUP2 MSTORE PUSH1 0x20 ADD PUSH2 0x27DA PUSH1 0x27 SWAP2 CODECOPY SWAP2 POP SWAP2 POP PUSH2 0x117B JUMP JUMPDEST PUSH1 0x0 DUP1 SLOAD PUSH8 0xFFFFFFFFFFFFFFFF DUP2 GT ISZERO PUSH2 0xF03 JUMPI PUSH2 0xF02 PUSH2 0x255C JUMP JUMPDEST JUMPDEST PUSH1 0x40 MLOAD SWAP1 DUP1 DUP3 MSTORE DUP1 PUSH1 0x20 MUL PUSH1 0x20 ADD DUP3 ADD PUSH1 0x40 MSTORE DUP1 ISZERO PUSH2 0xF31 JUMPI DUP2 PUSH1 0x20 ADD PUSH1 0x20 DUP3 MUL DUP1 CALLDATASIZE DUP4 CALLDATACOPY DUP1 DUP3 ADD SWAP2 POP POP SWAP1 POP JUMPDEST POP SWAP1 POP PUSH1 0x0 JUMPDEST DUP5 PUSH1 0x20 ADD MLOAD MLOAD DUP2 LT ISZERO PUSH2 0x1162 JUMPI PUSH1 0x5 PUSH1 0x0 DUP7 PUSH1 0x20 ADD MLOAD DUP4 DUP2 MLOAD DUP2 LT PUSH2 0xF5F JUMPI PUSH2 0xF5E PUSH2 0x252D JUMP JUMPDEST JUMPDEST PUSH1 0x20 MUL PUSH1 0x20 ADD ADD MLOAD PUSH1 0x20 ADD MLOAD PUSH20 0xFFFFFFFFFFFFFFFFFFFFFFFFFFFFFFFFFFFFFFFF AND PUSH20 0xFFFFFFFFFFFFFFFFFFFFFFFFFFFFFFFFFFFFFFFF AND DUP2 MSTORE PUSH1 0x20 ADD SWAP1 DUP2 MSTORE PUSH1 0x20 ADD PUSH1 0x0 KECCAK256 PUSH1 0x1 ADD PUSH1 0x0 SWAP1 SLOAD SWAP1 PUSH2 0x100 EXP SWAP1 DIV PUSH1 0xFF AND PUSH2 0xFFD JUMPI PUSH1 0x0 PUSH1 0x40 MLOAD DUP1 PUSH1 0x40 ADD PUSH1 0x40 MSTORE DUP1 PUSH1 0xE DUP2 MSTORE PUSH1 0x20 ADD PUSH32 0x496E76616C6964207369676E6572000000000000000000000000000000000000 DUP2 MSTORE POP SWAP4 POP SWAP4 POP POP POP PUSH2 0x117B JUMP JUMPDEST DUP2 PUSH1 0x5 PUSH1 0x0 DUP8 PUSH1 0x20 ADD MLOAD DUP5 DUP2 MLOAD DUP2 LT PUSH2 0x1019 JUMPI PUSH2 0x1018 PUSH2 0x252D JUMP JUMPDEST JUMPDEST PUSH1 0x20 MUL PUSH1 0x20 ADD ADD MLOAD PUSH1 0x20 ADD MLOAD PUSH20 0xFFFFFFFFFFFFFFFFFFFFFFFFFFFFFFFFFFFFFFFF AND PUSH20 0xFFFFFFFFFFFFFFFFFFFFFFFFFFFFFFFFFFFFFFFF AND DUP2 MSTORE PUSH1 0x20 ADD SWAP1 DUP2 MSTORE PUSH1 0x20 ADD PUSH1 0x0 KECCAK256 PUSH1 0x0 ADD SLOAD DUP2 MLOAD DUP2 LT PUSH2 0x1074 JUMPI PUSH2 0x1073 PUSH2 0x252D JUMP JUMPDEST JUMPDEST PUSH1 0x20 MUL PUSH1 0x20 ADD ADD MLOAD ISZERO PUSH2 0x10C4 JUMPI PUSH1 0x0 PUSH1 0x40 MLOAD DUP1 PUSH1 0x40 ADD PUSH1 0x40 MSTORE DUP1 PUSH1 0x11 DUP2 MSTORE PUSH1 0x20 ADD PUSH32 0x4475706C69636174652061646472657373000000000000000000000000000000 DUP2 MSTORE POP SWAP4 POP SWAP4 POP POP POP PUSH2 0x117B JUMP JUMPDEST PUSH1 0x1 DUP3 PUSH1 0x5 PUSH1 0x0 DUP9 PUSH1 0x20 ADD MLOAD DUP6 DUP2 MLOAD DUP2 LT PUSH2 0x10E2 JUMPI PUSH2 0x10E1 PUSH2 0x252D JUMP JUMPDEST JUMPDEST PUSH1 0x20 MUL PUSH1 0x20 ADD ADD MLOAD PUSH1 0x20 ADD MLOAD PUSH20 0xFFFFFFFFFFFFFFFFFFFFFFFFFFFFFFFFFFFFFFFF AND PUSH20 0xFFFFFFFFFFFFFFFFFFFFFFFFFFFFFFFFFFFFFFFF AND DUP2 MSTORE PUSH1 0x20 ADD SWAP1 DUP2 MSTORE PUSH1 0x20 ADD PUSH1 0x0 KECCAK256 PUSH1 0x0 ADD SLOAD DUP2 MLOAD DUP2 LT PUSH2 0x113D JUMPI PUSH2 0x113C PUSH2 0x252D JUMP JUMPDEST JUMPDEST PUSH1 0x20 MUL PUSH1 0x20 ADD ADD SWAP1 ISZERO ISZERO SWAP1 DUP2 ISZERO ISZERO DUP2 MSTORE POP POP DUP1 DUP1 PUSH2 0x115A SWAP1 PUSH2 0x240D JUMP JUMPDEST SWAP2 POP POP PUSH2 0xF37 JUMP JUMPDEST POP PUSH1 0x1 PUSH1 0x40 MLOAD DUP1 PUSH1 0x20 ADD PUSH1 0x40 MSTORE DUP1 PUSH1 0x0 DUP2 MSTORE POP SWAP3 POP SWAP3 POP POP JUMPDEST SWAP2 POP SWAP2 JUMP JUMPDEST PUSH1 0x0 DUP1 PUSH2 0x118D DUP5 DUP5 PUSH2 0x1224 JUMP JUMPDEST SWAP1 POP PUSH1 0x0 JUMPDEST DUP5 PUSH1 0x20 ADD MLOAD MLOAD DUP2 LT ISZERO PUSH2 0x1217 JUMPI PUSH1 0x0 PUSH2 0x11F0 DUP4 DUP8 PUSH1 0x20 ADD MLOAD DUP5 DUP2 MLOAD DUP2 LT PUSH2 0x11BC JUMPI PUSH2 0x11BB PUSH2 0x252D JUMP JUMPDEST JUMPDEST PUSH1 0x20 MUL PUSH1 0x20 ADD ADD MLOAD PUSH1 0x20 ADD MLOAD DUP9 PUSH1 0x20 ADD MLOAD DUP6 DUP2 MLOAD DUP2 LT PUSH2 0x11DF JUMPI PUSH2 0x11DE PUSH2 0x252D JUMP JUMPDEST JUMPDEST PUSH1 0x20 MUL PUSH1 0x20 ADD ADD MLOAD PUSH1 0x0 ADD MLOAD PUSH2 0x1273 JUMP JUMPDEST SWAP1 POP DUP1 PUSH2 0x1203 JUMPI PUSH1 0x0 SWAP4 POP POP POP POP PUSH2 0x121E JUMP JUMPDEST POP DUP1 DUP1 PUSH2 0x120F SWAP1 PUSH2 0x240D JUMP JUMPDEST SWAP2 POP POP PUSH2 0x1192 JUMP JUMPDEST POP PUSH1 0x1 SWAP2 POP POP JUMPDEST SWAP3 SWAP2 POP POP JUMP JUMPDEST PUSH1 0x0 DUP1 PUSH2 0x1235 DUP5 PUSH1 0x0 ADD MLOAD DUP5 PUSH2 0x13B9 JUMP JUMPDEST SWAP1 POP PUSH1 0x0 DUP2 DUP6 PUSH1 0x40 ADD MLOAD PUSH1 0x40 MLOAD PUSH1 0x20 ADD PUSH2 0x1250 SWAP3 SWAP2 SWAP1 PUSH2 0x1CEA JUMP JUMPDEST PUSH1 0x40 MLOAD PUSH1 0x20 DUP2 DUP4 SUB SUB DUP2 MSTORE SWAP1 PUSH1 0x40 MSTORE DUP1 MLOAD SWAP1 PUSH1 0x20 ADD KECCAK256 SWAP1 POP DUP1 SWAP3 POP POP POP SWAP3 SWAP2 POP POP JUMP JUMPDEST PUSH1 0x0 DUP1 PUSH1 0x40 MLOAD DUP1 PUSH1 0x40 ADD PUSH1 0x40 MSTORE DUP1 PUSH1 0x1C DUP2 MSTORE PUSH1 0x20 ADD PUSH32 0x19457468657265756D205369676E6564204D6573736167653A0A333200000000 DUP2 MSTORE POP SWAP1 POP DUP1 DUP6 PUSH1 0x40 MLOAD PUSH1 0x20 ADD PUSH2 0x12C1 SWAP3 SWAP2 SWAP1 PUSH2 0x1D16 JUMP JUMPDEST PUSH1 0x40 MLOAD PUSH1 0x20 DUP2 DUP4 SUB SUB DUP2 MSTORE SWAP1 PUSH1 0x40 MSTORE DUP1 MLOAD SWAP1 PUSH1 0x20 ADD KECCAK256 SWAP5 POP PUSH1 0x0 DUP1 PUSH1 0x0 DUP1 MLOAD PUSH1 0x20 MLOAD PUSH1 0x40 MLOAD PUSH1 0x20 DUP10 ADD MLOAD SWAP6 POP PUSH1 0x40 DUP10 ADD MLOAD SWAP5 POP PUSH1 0xFF PUSH1 0x41 DUP11 ADD MLOAD AND SWAP4 POP DUP3 PUSH1 0x0 MSTORE DUP2 PUSH1 0x20 MSTORE DUP1 PUSH1 0x40 MSTORE POP POP POP PUSH1 0x1B DUP2 PUSH1 0xFF AND LT ISZERO PUSH2 0x1329 JUMPI PUSH1 0x1B DUP2 PUSH2 0x1326 SWAP2 SWAP1 PUSH2 0x21C3 JUMP JUMPDEST SWAP1 POP JUMPDEST PUSH1 0x0 PUSH1 0x1 DUP10 DUP4 DUP7 DUP7 PUSH1 0x40 MLOAD PUSH1 0x0 DUP2 MSTORE PUSH1 0x20 ADD PUSH1 0x40 MSTORE PUSH1 0x40 MLOAD PUSH2 0x134E SWAP5 SWAP4 SWAP3 SWAP2 SWAP1 PUSH2 0x1E1E JUMP JUMPDEST PUSH1 0x20 PUSH1 0x40 MLOAD PUSH1 0x20 DUP2 SUB SWAP1 DUP1 DUP5 SUB SWAP1 DUP6 GAS STATICCALL ISZERO DUP1 ISZERO PUSH2 0x1370 JUMPI RETURNDATASIZE PUSH1 0x0 DUP1 RETURNDATACOPY RETURNDATASIZE PUSH1 0x0 REVERT JUMPDEST POP POP POP PUSH1 0x20 PUSH1 0x40 MLOAD SUB MLOAD SWAP1 POP DUP1 PUSH20 0xFFFFFFFFFFFFFFFFFFFFFFFFFFFFFFFFFFFFFFFF AND DUP9 PUSH20 0xFFFFFFFFFFFFFFFFFFFFFFFFFFFFFFFFFFFFFFFF AND EQ SWAP6 POP POP POP POP POP POP SWAP4 SWAP3 POP POP POP JUMP JUMPDEST PUSH1 0x0 DUP1 PUSH1 0x0 SWAP1 POP JUMPDEST DUP4 MLOAD DUP2 LT ISZERO PUSH2 0x145F JUMPI DUP3 DUP5 DUP3 DUP2 MLOAD DUP2 LT PUSH2 0x13DE JUMPI PUSH2 0x13DD PUSH2 0x252D JUMP JUMPDEST JUMPDEST PUSH1 0x20 MUL PUSH1 0x20 ADD ADD MLOAD PUSH1 0x0 ADD MLOAD DUP6 DUP4 DUP2 MLOAD DUP2 LT PUSH2 0x13FD JUMPI PUSH2 0x13FC PUSH2 0x252D JUMP JUMPDEST JUMPDEST PUSH1 0x20 MUL PUSH1 0x20 ADD ADD MLOAD PUSH1 0x20 ADD MLOAD DUP7 DUP5 DUP2 MLOAD DUP2 LT PUSH2 0x141C JUMPI PUSH2 0x141B PUSH2 0x252D JUMP JUMPDEST JUMPDEST PUSH1 0x20 MUL PUSH1 0x20 ADD ADD MLOAD PUSH1 0x40 ADD MLOAD PUSH1 0x40 MLOAD PUSH1 0x20 ADD PUSH2 0x143B SWAP5 SWAP4 SWAP3 SWAP2 SWAP1 PUSH2 0x1D3E JUMP JUMPDEST PUSH1 0x40 MLOAD PUSH1 0x20 DUP2 DUP4 SUB SUB DUP2 MSTORE SWAP1 PUSH1 0x40 MSTORE SWAP3 POP DUP1 DUP1 PUSH2 0x1457 SWAP1 PUSH2 0x240D JUMP JUMPDEST SWAP2 POP POP PUSH2 0x13C1 JUMP JUMPDEST POP PUSH1 0x0 DUP3 DUP1 MLOAD SWAP1 PUSH1 0x20 ADD KECCAK256 SWAP1 POP DUP1 SWAP2 POP POP SWAP3 SWAP2 POP POP JUMP JUMPDEST PUSH1 0x0 PUSH2 0x1489 PUSH2 0x1484 DUP5 PUSH2 0x2081 JUMP JUMPDEST PUSH2 0x205C JUMP JUMPDEST SWAP1 POP DUP1 DUP4 DUP3 MSTORE PUSH1 0x20 DUP3 ADD SWAP1 POP DUP3 DUP6 PUSH1 0x20 DUP7 MUL DUP3 ADD GT ISZERO PUSH2 0x14AC JUMPI PUSH2 0x14AB PUSH2 0x259A JUMP JUMPDEST JUMPDEST PUSH1 0x0 JUMPDEST DUP6 DUP2 LT ISZERO PUSH2 0x14FA JUMPI DUP2 CALLDATALOAD PUSH8 0xFFFFFFFFFFFFFFFF DUP2 GT ISZERO PUSH2 0x14D2 JUMPI PUSH2 0x14D1 PUSH2 0x258B JUMP JUMPDEST JUMPDEST DUP1 DUP7 ADD PUSH2 0x14DF DUP10 DUP3 PUSH2 0x1704 JUMP JUMPDEST DUP6 MSTORE PUSH1 0x20 DUP6 ADD SWAP5 POP PUSH1 0x20 DUP5 ADD SWAP4 POP POP POP PUSH1 0x1 DUP2 ADD SWAP1 POP PUSH2 0x14AF JUMP JUMPDEST POP POP POP SWAP4 SWAP3 POP POP POP JUMP JUMPDEST PUSH1 0x0 PUSH2 0x1517 PUSH2 0x1512 DUP5 PUSH2 0x20AD JUMP JUMPDEST PUSH2 0x205C JUMP JUMPDEST SWAP1 POP DUP1 DUP4 DUP3 MSTORE PUSH1 0x20 DUP3 ADD SWAP1 POP DUP3 DUP6 PUSH1 0x60 DUP7 MUL DUP3 ADD GT ISZERO PUSH2 0x153A JUMPI PUSH2 0x1539 PUSH2 0x259A JUMP JUMPDEST JUMPDEST PUSH1 0x0 JUMPDEST DUP6 DUP2 LT ISZERO PUSH2 0x156A JUMPI DUP2 PUSH2 0x1550 DUP9 DUP3 PUSH2 0x180C JUMP JUMPDEST DUP5 MSTORE PUSH1 0x20 DUP5 ADD SWAP4 POP PUSH1 0x60 DUP4 ADD SWAP3 POP POP PUSH1 0x1 DUP2 ADD SWAP1 POP PUSH2 0x153D JUMP JUMPDEST POP POP POP SWAP4 SWAP3 POP POP POP JUMP JUMPDEST PUSH1 0x0 PUSH2 0x1587 PUSH2 0x1582 DUP5 PUSH2 0x20D9 JUMP JUMPDEST PUSH2 0x205C JUMP JUMPDEST SWAP1 POP DUP3 DUP2 MSTORE PUSH1 0x20 DUP2 ADD DUP5 DUP5 DUP5 ADD GT ISZERO PUSH2 0x15A3 JUMPI PUSH2 0x15A2 PUSH2 0x259F JUMP JUMPDEST JUMPDEST PUSH2 0x15AE DUP5 DUP3 DUP6 PUSH2 0x233E JUMP JUMPDEST POP SWAP4 SWAP3 POP POP POP JUMP JUMPDEST PUSH1 0x0 PUSH2 0x15C9 PUSH2 0x15C4 DUP5 PUSH2 0x210A JUMP JUMPDEST PUSH2 0x205C JUMP JUMPDEST SWAP1 POP DUP3 DUP2 MSTORE PUSH1 0x20 DUP2 ADD DUP5 DUP5 DUP5 ADD GT ISZERO PUSH2 0x15E5 JUMPI PUSH2 0x15E4 PUSH2 0x259F JUMP JUMPDEST JUMPDEST PUSH2 0x15F0 DUP5 DUP3 DUP6 PUSH2 0x233E JUMP JUMPDEST POP SWAP4 SWAP3 POP POP POP JUMP JUMPDEST PUSH1 0x0 DUP2 CALLDATALOAD SWAP1 POP PUSH2 0x1607 DUP2 PUSH2 0x2766 JUMP JUMPDEST SWAP3 SWAP2 POP POP JUMP JUMPDEST PUSH1 0x0 DUP2 CALLDATALOAD SWAP1 POP PUSH2 0x161C DUP2 PUSH2 0x277D JUMP JUMPDEST SWAP3 SWAP2 POP POP JUMP JUMPDEST PUSH1 0x0 DUP3 PUSH1 0x1F DUP4 ADD SLT PUSH2 0x1637 JUMPI PUSH2 0x1636 PUSH2 0x258B JUMP JUMPDEST JUMPDEST DUP2 CALLDATALOAD PUSH2 0x1647 DUP5 DUP3 PUSH1 0x20 DUP7 ADD PUSH2 0x1476 JUMP JUMPDEST SWAP2 POP POP SWAP3 SWAP2 POP POP JUMP JUMPDEST PUSH1 0x0 DUP3 PUSH1 0x1F DUP4 ADD SLT PUSH2 0x1665 JUMPI PUSH2 0x1664 PUSH2 0x258B JUMP JUMPDEST JUMPDEST DUP2 CALLDATALOAD PUSH2 0x1675 DUP5 DUP3 PUSH1 0x20 DUP7 ADD PUSH2 0x1504 JUMP JUMPDEST SWAP2 POP POP SWAP3 SWAP2 POP POP JUMP JUMPDEST PUSH1 0x0 DUP2 MLOAD SWAP1 POP PUSH2 0x168D DUP2 PUSH2 0x2794 JUMP JUMPDEST SWAP3 SWAP2 POP POP JUMP JUMPDEST PUSH1 0x0 DUP3 PUSH1 0x1F DUP4 ADD SLT PUSH2 0x16A8 JUMPI PUSH2 0x16A7 PUSH2 0x258B JUMP JUMPDEST JUMPDEST DUP2 CALLDATALOAD PUSH2 0x16B8 DUP5 DUP3 PUSH1 0x20 DUP7 ADD PUSH2 0x1574 JUMP JUMPDEST SWAP2 POP POP SWAP3 SWAP2 POP POP JUMP JUMPDEST PUSH1 0x0 DUP2 CALLDATALOAD SWAP1 POP PUSH2 0x16D0 DUP2 PUSH2 0x27AB JUMP JUMPDEST SWAP3 SWAP2 POP POP JUMP JUMPDEST PUSH1 0x0 DUP3 PUSH1 0x1F DUP4 ADD SLT PUSH2 0x16EB JUMPI PUSH2 0x16EA PUSH2 0x258B JUMP JUMPDEST JUMPDEST DUP2 CALLDATALOAD PUSH2 0x16FB DUP5 DUP3 PUSH1 0x20 DUP7 ADD PUSH2 0x15B6 JUMP JUMPDEST SWAP2 POP POP SWAP3 SWAP2 POP POP JUMP JUMPDEST PUSH1 0x0 PUSH1 0x40 DUP3 DUP5 SUB SLT ISZERO PUSH2 0x171A JUMPI PUSH2 0x1719 PUSH2 0x2590 JUMP JUMPDEST JUMPDEST PUSH2 0x1724 PUSH1 0x40 PUSH2 0x205C JUMP JUMPDEST SWAP1 POP PUSH1 0x0 DUP3 ADD CALLDATALOAD PUSH8 0xFFFFFFFFFFFFFFFF DUP2 GT ISZERO PUSH2 0x1744 JUMPI PUSH2 0x1743 PUSH2 0x2595 JUMP JUMPDEST JUMPDEST PUSH2 0x1750 DUP5 DUP3 DUP6 ADD PUSH2 0x1693 JUMP JUMPDEST PUSH1 0x0 DUP4 ADD MSTORE POP PUSH1 0x20 PUSH2 0x1764 DUP5 DUP3 DUP6 ADD PUSH2 0x15F8 JUMP JUMPDEST PUSH1 0x20 DUP4 ADD MSTORE POP SWAP3 SWAP2 POP POP JUMP JUMPDEST PUSH1 0x0 PUSH1 0x60 DUP3 DUP5 SUB SLT ISZERO PUSH2 0x1786 JUMPI PUSH2 0x1785 PUSH2 0x2590 JUMP JUMPDEST JUMPDEST PUSH2 0x1790 PUSH1 0x60 PUSH2 0x205C JUMP JUMPDEST SWAP1 POP PUSH1 0x0 DUP3 ADD CALLDATALOAD PUSH8 0xFFFFFFFFFFFFFFFF DUP2 GT ISZERO PUSH2 0x17B0 JUMPI PUSH2 0x17AF PUSH2 0x2595 JUMP JUMPDEST JUMPDEST PUSH2 0x17BC DUP5 DUP3 DUP6 ADD PUSH2 0x1650 JUMP JUMPDEST PUSH1 0x0 DUP4 ADD MSTORE POP PUSH1 0x20 DUP3 ADD CALLDATALOAD PUSH8 0xFFFFFFFFFFFFFFFF DUP2 GT ISZERO PUSH2 0x17E0 JUMPI PUSH2 0x17DF PUSH2 0x2595 JUMP JUMPDEST JUMPDEST PUSH2 0x17EC DUP5 DUP3 DUP6 ADD PUSH2 0x1622 JUMP JUMPDEST PUSH1 0x20 DUP4 ADD MSTORE POP PUSH1 0x40 PUSH2 0x1800 DUP5 DUP3 DUP6 ADD PUSH2 0x1870 JUMP JUMPDEST PUSH1 0x40 DUP4 ADD MSTORE POP SWAP3 SWAP2 POP POP JUMP JUMPDEST PUSH1 0x0 PUSH1 0x60 DUP3 DUP5 SUB SLT ISZERO PUSH2 0x1822 JUMPI PUSH2 0x1821 PUSH2 0x2590 JUMP JUMPDEST JUMPDEST PUSH2 0x182C PUSH1 0x60 PUSH2 0x205C JUMP JUMPDEST SWAP1 POP PUSH1 0x0 PUSH2 0x183C DUP5 DUP3 DUP6 ADD PUSH2 0x1870 JUMP JUMPDEST PUSH1 0x0 DUP4 ADD MSTORE POP PUSH1 0x20 PUSH2 0x1850 DUP5 DUP3 DUP6 ADD PUSH2 0x160D JUMP JUMPDEST PUSH1 0x20 DUP4 ADD MSTORE POP PUSH1 0x40 PUSH2 0x1864 DUP5 DUP3 DUP6 ADD PUSH2 0x15F8 JUMP JUMPDEST PUSH1 0x40 DUP4 ADD MSTORE POP SWAP3 SWAP2 POP POP JUMP JUMPDEST PUSH1 0x0 DUP2 CALLDATALOAD SWAP1 POP PUSH2 0x187F DUP2 PUSH2 0x27C2 JUMP JUMPDEST SWAP3 SWAP2 POP POP JUMP JUMPDEST PUSH1 0x0 PUSH1 0x20 DUP3 DUP5 SUB SLT ISZERO PUSH2 0x189B JUMPI PUSH2 0x189A PUSH2 0x25A9 JUMP JUMPDEST JUMPDEST PUSH1 0x0 PUSH2 0x18A9 DUP5 DUP3 DUP6 ADD PUSH2 0x15F8 JUMP JUMPDEST SWAP2 POP POP SWAP3 SWAP2 POP POP JUMP JUMPDEST PUSH1 0x0 PUSH1 0x20 DUP3 DUP5 SUB SLT ISZERO PUSH2 0x18C8 JUMPI PUSH2 0x18C7 PUSH2 0x25A9 JUMP JUMPDEST JUMPDEST PUSH1 0x0 PUSH2 0x18D6 DUP5 DUP3 DUP6 ADD PUSH2 0x167E JUMP JUMPDEST SWAP2 POP POP SWAP3 SWAP2 POP POP JUMP JUMPDEST PUSH1 0x0 PUSH1 0x20 DUP3 DUP5 SUB SLT ISZERO PUSH2 0x18F5 JUMPI PUSH2 0x18F4 PUSH2 0x25A9 JUMP JUMPDEST JUMPDEST PUSH1 0x0 PUSH2 0x1903 DUP5 DUP3 DUP6 ADD PUSH2 0x16C1 JUMP JUMPDEST SWAP2 POP POP SWAP3 SWAP2 POP POP JUMP JUMPDEST PUSH1 0x0 DUP1 PUSH1 0x0 DUP1 PUSH1 0x80 DUP6 DUP8 SUB SLT ISZERO PUSH2 0x1926 JUMPI PUSH2 0x1925 PUSH2 0x25A9 JUMP JUMPDEST JUMPDEST PUSH1 0x0 PUSH2 0x1934 DUP8 DUP3 DUP9 ADD PUSH2 0x16C1 JUMP JUMPDEST SWAP5 POP POP PUSH1 0x20 PUSH2 0x1945 DUP8 DUP3 DUP9 ADD PUSH2 0x1870 JUMP JUMPDEST SWAP4 POP POP PUSH1 0x40 DUP6 ADD CALLDATALOAD PUSH8 0xFFFFFFFFFFFFFFFF DUP2 GT ISZERO PUSH2 0x1966 JUMPI PUSH2 0x1965 PUSH2 0x25A4 JUMP JUMPDEST JUMPDEST PUSH2 0x1972 DUP8 DUP3 DUP9 ADD PUSH2 0x16D6 JUMP JUMPDEST SWAP3 POP POP PUSH1 0x60 DUP6 ADD CALLDATALOAD PUSH8 0xFFFFFFFFFFFFFFFF DUP2 GT ISZERO PUSH2 0x1993 JUMPI PUSH2 0x1992 PUSH2 0x25A4 JUMP JUMPDEST JUMPDEST PUSH2 0x199F DUP8 DUP3 DUP9 ADD PUSH2 0x16D6 JUMP JUMPDEST SWAP2 POP POP SWAP3 SWAP6 SWAP2 SWAP5 POP SWAP3 POP JUMP JUMPDEST PUSH1 0x0 DUP1 PUSH1 0x40 DUP4 DUP6 SUB SLT ISZERO PUSH2 0x19C2 JUMPI PUSH2 0x19C1 PUSH2 0x25A9 JUMP JUMPDEST JUMPDEST PUSH1 0x0 DUP4 ADD CALLDATALOAD PUSH8 0xFFFFFFFFFFFFFFFF DUP2 GT ISZERO PUSH2 0x19E0 JUMPI PUSH2 0x19DF PUSH2 0x25A4 JUMP JUMPDEST JUMPDEST PUSH2 0x19EC DUP6 DUP3 DUP7 ADD PUSH2 0x16D6 JUMP JUMPDEST SWAP3 POP POP PUSH1 0x20 DUP4 ADD CALLDATALOAD PUSH8 0xFFFFFFFFFFFFFFFF DUP2 GT ISZERO PUSH2 0x1A0D JUMPI PUSH2 0x1A0C PUSH2 0x25A4 JUMP JUMPDEST JUMPDEST PUSH2 0x1A19 DUP6 DUP3 DUP7 ADD PUSH2 0x16D6 JUMP JUMPDEST SWAP2 POP POP SWAP3 POP SWAP3 SWAP1 POP JUMP JUMPDEST PUSH1 0x0 PUSH1 0x20 DUP3 DUP5 SUB SLT ISZERO PUSH2 0x1A39 JUMPI PUSH2 0x1A38 PUSH2 0x25A9 JUMP JUMPDEST JUMPDEST PUSH1 0x0 DUP3 ADD CALLDATALOAD PUSH8 0xFFFFFFFFFFFFFFFF DUP2 GT ISZERO PUSH2 0x1A57 JUMPI PUSH2 0x1A56 PUSH2 0x25A4 JUMP JUMPDEST JUMPDEST PUSH2 0x1A63 DUP5 DUP3 DUP6 ADD PUSH2 0x1770 JUMP JUMPDEST SWAP2 POP POP SWAP3 SWAP2 POP POP JUMP JUMPDEST PUSH2 0x1A75 DUP2 PUSH2 0x2308 JUMP JUMPDEST DUP3 MSTORE POP POP JUMP JUMPDEST PUSH2 0x1A8C PUSH2 0x1A87 DUP3 PUSH2 0x2297 JUMP JUMPDEST PUSH2 0x2468 JUMP JUMPDEST DUP3 MSTORE POP POP JUMP JUMPDEST PUSH2 0x1A9B DUP2 PUSH2 0x2285 JUMP JUMPDEST DUP3 MSTORE POP POP JUMP JUMPDEST PUSH2 0x1AB2 PUSH2 0x1AAD DUP3 PUSH2 0x2285 JUMP JUMPDEST PUSH2 0x2456 JUMP JUMPDEST DUP3 MSTORE POP POP JUMP JUMPDEST PUSH2 0x1AC1 DUP2 PUSH2 0x22A9 JUMP JUMPDEST DUP3 MSTORE POP POP JUMP JUMPDEST PUSH2 0x1AD0 DUP2 PUSH2 0x22B5 JUMP JUMPDEST DUP3 MSTORE POP POP JUMP JUMPDEST PUSH2 0x1AE7 PUSH2 0x1AE2 DUP3 PUSH2 0x22B5 JUMP JUMPDEST PUSH2 0x247A JUMP JUMPDEST DUP3 MSTORE POP POP JUMP JUMPDEST PUSH1 0x0 PUSH2 0x1AF8 DUP3 PUSH2 0x213B JUMP JUMPDEST PUSH2 0x1B02 DUP2 DUP6 PUSH2 0x2151 JUMP JUMPDEST SWAP4 POP PUSH2 0x1B12 DUP2 DUP6 PUSH1 0x20 DUP7 ADD PUSH2 0x234D JUMP JUMPDEST DUP1 DUP5 ADD SWAP2 POP POP SWAP3 SWAP2 POP POP JUMP JUMPDEST PUSH1 0x0 PUSH2 0x1B29 DUP3 PUSH2 0x2146 JUMP JUMPDEST PUSH2 0x1B33 DUP2 DUP6 PUSH2 0x215C JUMP JUMPDEST SWAP4 POP PUSH2 0x1B43 DUP2 DUP6 PUSH1 0x20 DUP7 ADD PUSH2 0x234D JUMP JUMPDEST PUSH2 0x1B4C DUP2 PUSH2 0x25AE JUMP JUMPDEST DUP5 ADD SWAP2 POP POP SWAP3 SWAP2 POP POP JUMP JUMPDEST PUSH1 0x0 PUSH2 0x1B64 PUSH1 0x6 DUP4 PUSH2 0x215C JUMP JUMPDEST SWAP2 POP PUSH2 0x1B6F DUP3 PUSH2 0x25CC JUMP JUMPDEST PUSH1 0x20 DUP3 ADD SWAP1 POP SWAP2 SWAP1 POP JUMP JUMPDEST PUSH1 0x0 PUSH2 0x1B87 PUSH1 0xF DUP4 PUSH2 0x215C JUMP JUMPDEST SWAP2 POP PUSH2 0x1B92 DUP3 PUSH2 0x25F5 JUMP JUMPDEST PUSH1 0x20 DUP3 ADD SWAP1 POP SWAP2 SWAP1 POP JUMP JUMPDEST PUSH1 0x0 PUSH2 0x1BAA PUSH1 0xE DUP4 PUSH2 0x215C JUMP JUMPDEST SWAP2 POP PUSH2 0x1BB5 DUP3 PUSH2 0x261E JUMP JUMPDEST PUSH1 0x20 DUP3 ADD SWAP1 POP SWAP2 SWAP1 POP JUMP JUMPDEST PUSH1 0x0 PUSH2 0x1BCD PUSH1 0x11 DUP4 PUSH2 0x215C JUMP JUMPDEST SWAP2 POP PUSH2 0x1BD8 DUP3 PUSH2 0x2647 JUMP JUMPDEST PUSH1 0x20 DUP3 ADD SWAP1 POP SWAP2 SWAP1 POP JUMP JUMPDEST PUSH1 0x0 PUSH2 0x1BF0 PUSH1 0x13 DUP4 PUSH2 0x215C JUMP JUMPDEST SWAP2 POP PUSH2 0x1BFB DUP3 PUSH2 0x2670 JUMP JUMPDEST PUSH1 0x20 DUP3 ADD SWAP1 POP SWAP2 SWAP1 POP JUMP JUMPDEST PUSH1 0x0 PUSH2 0x1C13 PUSH1 0x15 DUP4 PUSH2 0x215C JUMP JUMPDEST SWAP2 POP PUSH2 0x1C1E DUP3 PUSH2 0x2699 JUMP JUMPDEST PUSH1 0x20 DUP3 ADD SWAP1 POP SWAP2 SWAP1 POP JUMP JUMPDEST PUSH1 0x0 PUSH2 0x1C36 PUSH1 0x12 DUP4 PUSH2 0x215C JUMP JUMPDEST SWAP2 POP PUSH2 0x1C41 DUP3 PUSH2 0x26C2 JUMP JUMPDEST PUSH1 0x20 DUP3 ADD SWAP1 POP SWAP2 SWAP1 POP JUMP JUMPDEST PUSH1 0x0 PUSH2 0x1C59 PUSH1 0x10 DUP4 PUSH2 0x215C JUMP JUMPDEST SWAP2 POP PUSH2 0x1C64 DUP3 PUSH2 0x26EB JUMP JUMPDEST PUSH1 0x20 DUP3 ADD SWAP1 POP SWAP2 SWAP1 POP JUMP JUMPDEST PUSH1 0x0 PUSH2 0x1C7C PUSH1 0x13 DUP4 PUSH2 0x215C JUMP JUMPDEST SWAP2 POP PUSH2 0x1C87 DUP3 PUSH2 0x2714 JUMP JUMPDEST PUSH1 0x20 DUP3 ADD SWAP1 POP SWAP2 SWAP1 POP JUMP JUMPDEST PUSH1 0x0 PUSH2 0x1C9F PUSH1 0x17 DUP4 PUSH2 0x215C JUMP JUMPDEST SWAP2 POP PUSH2 0x1CAA DUP3 PUSH2 0x273D JUMP JUMPDEST PUSH1 0x20 DUP3 ADD SWAP1 POP SWAP2 SWAP1 POP JUMP JUMPDEST PUSH2 0x1CBE DUP2 PUSH2 0x22F1 JUMP JUMPDEST DUP3 MSTORE POP POP JUMP JUMPDEST PUSH2 0x1CD5 PUSH2 0x1CD0 DUP3 PUSH2 0x22F1 JUMP JUMPDEST PUSH2 0x2496 JUMP JUMPDEST DUP3 MSTORE POP POP JUMP JUMPDEST PUSH2 0x1CE4 DUP2 PUSH2 0x22FB JUMP JUMPDEST DUP3 MSTORE POP POP JUMP JUMPDEST PUSH1 0x0 PUSH2 0x1CF6 DUP3 DUP6 PUSH2 0x1AD6 JUMP JUMPDEST PUSH1 0x20 DUP3 ADD SWAP2 POP PUSH2 0x1D06 DUP3 DUP5 PUSH2 0x1CC4 JUMP JUMPDEST PUSH1 0x20 DUP3 ADD SWAP2 POP DUP2 SWAP1 POP SWAP4 SWAP3 POP POP POP JUMP JUMPDEST PUSH1 0x0 PUSH2 0x1D22 DUP3 DUP6 PUSH2 0x1AED JUMP JUMPDEST SWAP2 POP PUSH2 0x1D2E DUP3 DUP5 PUSH2 0x1AD6 JUMP JUMPDEST PUSH1 0x20 DUP3 ADD SWAP2 POP DUP2 SWAP1 POP SWAP4 SWAP3 POP POP POP JUMP JUMPDEST PUSH1 0x0 PUSH2 0x1D4A DUP3 DUP8 PUSH2 0x1AED JUMP JUMPDEST SWAP2 POP PUSH2 0x1D56 DUP3 DUP7 PUSH2 0x1CC4 JUMP JUMPDEST PUSH1 0x20 DUP3 ADD SWAP2 POP PUSH2 0x1D66 DUP3 DUP6 PUSH2 0x1A7B JUMP JUMPDEST PUSH1 0x14 DUP3 ADD SWAP2 POP PUSH2 0x1D76 DUP3 DUP5 PUSH2 0x1AA1 JUMP JUMPDEST PUSH1 0x14 DUP3 ADD SWAP2 POP DUP2 SWAP1 POP SWAP6 SWAP5 POP POP POP POP POP JUMP JUMPDEST PUSH1 0x0 PUSH1 0x20 DUP3 ADD SWAP1 POP PUSH2 0x1D9D PUSH1 0x0 DUP4 ADD DUP5 PUSH2 0x1A92 JUMP JUMPDEST SWAP3 SWAP2 POP POP JUMP JUMPDEST PUSH1 0x0 PUSH1 0x40 DUP3 ADD SWAP1 POP PUSH2 0x1DB8 PUSH1 0x0 DUP4 ADD DUP6 PUSH2 0x1A6C JUMP JUMPDEST PUSH2 0x1DC5 PUSH1 0x20 DUP4 ADD DUP5 PUSH2 0x1CB5 JUMP JUMPDEST SWAP4 SWAP3 POP POP POP JUMP JUMPDEST PUSH1 0x0 PUSH1 0x60 DUP3 ADD SWAP1 POP PUSH2 0x1DE1 PUSH1 0x0 DUP4 ADD DUP7 PUSH2 0x1A92 JUMP JUMPDEST PUSH2 0x1DEE PUSH1 0x20 DUP4 ADD DUP6 PUSH2 0x1A92 JUMP JUMPDEST PUSH2 0x1DFB PUSH1 0x40 DUP4 ADD DUP5 PUSH2 0x1CB5 JUMP JUMPDEST SWAP5 SWAP4 POP POP POP POP JUMP JUMPDEST PUSH1 0x0 PUSH1 0x20 DUP3 ADD SWAP1 POP PUSH2 0x1E18 PUSH1 0x0 DUP4 ADD DUP5 PUSH2 0x1AB8 JUMP JUMPDEST SWAP3 SWAP2 POP POP JUMP JUMPDEST PUSH1 0x0 PUSH1 0x80 DUP3 ADD SWAP1 POP PUSH2 0x1E33 PUSH1 0x0 DUP4 ADD DUP8 PUSH2 0x1AC7 JUMP JUMPDEST PUSH2 0x1E40 PUSH1 0x20 DUP4 ADD DUP7 PUSH2 0x1CDB JUMP JUMPDEST PUSH2 0x1E4D PUSH1 0x40 DUP4 ADD DUP6 PUSH2 0x1AC7 JUMP JUMPDEST PUSH2 0x1E5A PUSH1 0x60 DUP4 ADD DUP5 PUSH2 0x1AC7 JUMP JUMPDEST SWAP6 SWAP5 POP POP POP POP POP JUMP JUMPDEST PUSH1 0x0 PUSH1 0x20 DUP3 ADD SWAP1 POP DUP2 DUP2 SUB PUSH1 0x0 DUP4 ADD MSTORE PUSH2 0x1E7D DUP2 DUP5 PUSH2 0x1B1E JUMP JUMPDEST SWAP1 POP SWAP3 SWAP2 POP POP JUMP JUMPDEST PUSH1 0x0 PUSH1 0x20 DUP3 ADD SWAP1 POP DUP2 DUP2 SUB PUSH1 0x0 DUP4 ADD MSTORE PUSH2 0x1E9E DUP2 PUSH2 0x1B57 JUMP JUMPDEST SWAP1 POP SWAP2 SWAP1 POP JUMP JUMPDEST PUSH1 0x0 PUSH1 0x20 DUP3 ADD SWAP1 POP DUP2 DUP2 SUB PUSH1 0x0 DUP4 ADD MSTORE PUSH2 0x1EBE DUP2 PUSH2 0x1B7A JUMP JUMPDEST SWAP1 POP SWAP2 SWAP1 POP JUMP JUMPDEST PUSH1 0x0 PUSH1 0x20 DUP3 ADD SWAP1 POP DUP2 DUP2 SUB PUSH1 0x0 DUP4 ADD MSTORE PUSH2 0x1EDE DUP2 PUSH2 0x1B9D JUMP JUMPDEST SWAP1 POP SWAP2 SWAP1 POP JUMP JUMPDEST PUSH1 0x0 PUSH1 0x20 DUP3 ADD SWAP1 POP DUP2 DUP2 SUB PUSH1 0x0 DUP4 ADD MSTORE PUSH2 0x1EFE DUP2 PUSH2 0x1BC0 JUMP JUMPDEST SWAP1 POP SWAP2 SWAP1 POP JUMP JUMPDEST PUSH1 0x0 PUSH1 0x20 DUP3 ADD SWAP1 POP DUP2 DUP2 SUB PUSH1 0x0 DUP4 ADD MSTORE PUSH2 0x1F1E DUP2 PUSH2 0x1BE3 JUMP JUMPDEST SWAP1 POP SWAP2 SWAP1 POP JUMP JUMPDEST PUSH1 0x0 PUSH1 0x20 DUP3 ADD SWAP1 POP DUP2 DUP2 SUB PUSH1 0x0 DUP4 ADD MSTORE PUSH2 0x1F3E DUP2 PUSH2 0x1C06 JUMP JUMPDEST SWAP1 POP SWAP2 SWAP1 POP JUMP JUMPDEST PUSH1 0x0 PUSH1 0x20 DUP3 ADD SWAP1 POP DUP2 DUP2 SUB PUSH1 0x0 DUP4 ADD MSTORE PUSH2 0x1F5E DUP2 PUSH2 0x1C29 JUMP JUMPDEST SWAP1 POP SWAP2 SWAP1 POP JUMP JUMPDEST PUSH1 0x0 PUSH1 0x20 DUP3 ADD SWAP1 POP DUP2 DUP2 SUB PUSH1 0x0 DUP4 ADD MSTORE PUSH2 0x1F7E DUP2 PUSH2 0x1C4C JUMP JUMPDEST SWAP1 POP SWAP2 SWAP1 POP JUMP JUMPDEST PUSH1 0x0 PUSH1 0x20 DUP3 ADD SWAP1 POP DUP2 DUP2 SUB PUSH1 0x0 DUP4 ADD MSTORE PUSH2 0x1F9E DUP2 PUSH2 0x1C6F JUMP JUMPDEST SWAP1 POP SWAP2 SWAP1 POP JUMP JUMPDEST PUSH1 0x0 PUSH1 0x20 DUP3 ADD SWAP1 POP DUP2 DUP2 SUB PUSH1 0x0 DUP4 ADD MSTORE PUSH2 0x1FBE DUP2 PUSH2 0x1C92 JUMP JUMPDEST SWAP1 POP SWAP2 SWAP1 POP JUMP JUMPDEST PUSH1 0x0 PUSH1 0x20 DUP3 ADD SWAP1 POP PUSH2 0x1FDA PUSH1 0x0 DUP4 ADD DUP5 PUSH2 0x1CB5 JUMP JUMPDEST SWAP3 SWAP2 POP POP JUMP JUMPDEST PUSH1 0x0 PUSH1 0x80 DUP3 ADD SWAP1 POP PUSH2 0x1FF5 PUSH1 0x0 DUP4 ADD DUP8 PUSH2 0x1CB5 JUMP JUMPDEST PUSH2 0x2002 PUSH1 0x20 DUP4 ADD DUP7 PUSH2 0x1A92 JUMP JUMPDEST DUP2 DUP2 SUB PUSH1 0x40 DUP4 ADD MSTORE PUSH2 0x2014 DUP2 DUP6 PUSH2 0x1B1E JUMP JUMPDEST SWAP1 POP DUP2 DUP2 SUB PUSH1 0x60 DUP4 ADD MSTORE PUSH2 0x2028 DUP2 DUP5 PUSH2 0x1B1E JUMP JUMPDEST SWAP1 POP SWAP6 SWAP5 POP POP POP POP POP JUMP JUMPDEST PUSH1 0x0 PUSH1 0x40 DUP3 ADD SWAP1 POP PUSH2 0x2048 PUSH1 0x0 DUP4 ADD DUP6 PUSH2 0x1CB5 JUMP JUMPDEST PUSH2 0x2055 PUSH1 0x20 DUP4 ADD DUP5 PUSH2 0x1AB8 JUMP JUMPDEST SWAP4 SWAP3 POP POP POP JUMP JUMPDEST PUSH1 0x0 PUSH2 0x2066 PUSH2 0x2077 JUMP JUMPDEST SWAP1 POP PUSH2 0x2072 DUP3 DUP3 PUSH2 0x23DC JUMP JUMPDEST SWAP2 SWAP1 POP JUMP JUMPDEST PUSH1 0x0 PUSH1 0x40 MLOAD SWAP1 POP SWAP1 JUMP JUMPDEST PUSH1 0x0 PUSH8 0xFFFFFFFFFFFFFFFF DUP3 GT ISZERO PUSH2 0x209C JUMPI PUSH2 0x209B PUSH2 0x255C JUMP JUMPDEST JUMPDEST PUSH1 0x20 DUP3 MUL SWAP1 POP PUSH1 0x20 DUP2 ADD SWAP1 POP SWAP2 SWAP1 POP JUMP JUMPDEST PUSH1 0x0 PUSH8 0xFFFFFFFFFFFFFFFF DUP3 GT ISZERO PUSH2 0x20C8 JUMPI PUSH2 0x20C7 PUSH2 0x255C JUMP JUMPDEST JUMPDEST PUSH1 0x20 DUP3 MUL SWAP1 POP PUSH1 0x20 DUP2 ADD SWAP1 POP SWAP2 SWAP1 POP JUMP JUMPDEST PUSH1 0x0 PUSH8 0xFFFFFFFFFFFFFFFF DUP3 GT ISZERO PUSH2 0x20F4 JUMPI PUSH2 0x20F3 PUSH2 0x255C JUMP JUMPDEST JUMPDEST PUSH2 0x20FD DUP3 PUSH2 0x25AE JUMP JUMPDEST SWAP1 POP PUSH1 0x20 DUP2 ADD SWAP1 POP SWAP2 SWAP1 POP JUMP JUMPDEST PUSH1 0x0 PUSH8 0xFFFFFFFFFFFFFFFF DUP3 GT ISZERO PUSH2 0x2125 JUMPI PUSH2 0x2124 PUSH2 0x255C JUMP JUMPDEST JUMPDEST PUSH2 0x212E DUP3 PUSH2 0x25AE JUMP JUMPDEST SWAP1 POP PUSH1 0x20 DUP2 ADD SWAP1 POP SWAP2 SWAP1 POP JUMP JUMPDEST PUSH1 0x0 DUP2 MLOAD SWAP1 POP SWAP2 SWAP1 POP JUMP JUMPDEST PUSH1 0x0 DUP2 MLOAD SWAP1 POP SWAP2 SWAP1 POP JUMP JUMPDEST PUSH1 0x0 DUP2 SWAP1 POP SWAP3 SWAP2 POP POP JUMP JUMPDEST PUSH1 0x0 DUP3 DUP3 MSTORE PUSH1 0x20 DUP3 ADD SWAP1 POP SWAP3 SWAP2 POP POP JUMP JUMPDEST PUSH1 0x0 PUSH2 0x2178 DUP3 PUSH2 0x22F1 JUMP JUMPDEST SWAP2 POP PUSH2 0x2183 DUP4 PUSH2 0x22F1 JUMP JUMPDEST SWAP3 POP DUP3 PUSH32 0xFFFFFFFFFFFFFFFFFFFFFFFFFFFFFFFFFFFFFFFFFFFFFFFFFFFFFFFFFFFFFFFF SUB DUP3 GT ISZERO PUSH2 0x21B8 JUMPI PUSH2 0x21B7 PUSH2 0x24A0 JUMP JUMPDEST JUMPDEST DUP3 DUP3 ADD SWAP1 POP SWAP3 SWAP2 POP POP JUMP JUMPDEST PUSH1 0x0 PUSH2 0x21CE DUP3 PUSH2 0x22FB JUMP JUMPDEST SWAP2 POP PUSH2 0x21D9 DUP4 PUSH2 0x22FB JUMP JUMPDEST SWAP3 POP DUP3 PUSH1 0xFF SUB DUP3 GT ISZERO PUSH2 0x21EF JUMPI PUSH2 0x21EE PUSH2 0x24A0 JUMP JUMPDEST JUMPDEST DUP3 DUP3 ADD SWAP1 POP SWAP3 SWAP2 POP POP JUMP JUMPDEST PUSH1 0x0 PUSH2 0x2205 DUP3 PUSH2 0x22F1 JUMP JUMPDEST SWAP2 POP PUSH2 0x2210 DUP4 PUSH2 0x22F1 JUMP JUMPDEST SWAP3 POP DUP3 PUSH2 0x2220 JUMPI PUSH2 0x221F PUSH2 0x24CF JUMP JUMPDEST JUMPDEST DUP3 DUP3 DIV SWAP1 POP SWAP3 SWAP2 POP POP JUMP JUMPDEST PUSH1 0x0 PUSH2 0x2236 DUP3 PUSH2 0x22F1 JUMP JUMPDEST SWAP2 POP PUSH2 0x2241 DUP4 PUSH2 0x22F1 JUMP JUMPDEST SWAP3 POP DUP2 PUSH32 0xFFFFFFFFFFFFFFFFFFFFFFFFFFFFFFFFFFFFFFFFFFFFFFFFFFFFFFFFFFFFFFFF DIV DUP4 GT DUP3 ISZERO ISZERO AND ISZERO PUSH2 0x227A JUMPI PUSH2 0x2279 PUSH2 0x24A0 JUMP JUMPDEST JUMPDEST DUP3 DUP3 MUL SWAP1 POP SWAP3 SWAP2 POP POP JUMP JUMPDEST PUSH1 0x0 PUSH2 0x2290 DUP3 PUSH2 0x22D1 JUMP JUMPDEST SWAP1 POP SWAP2 SWAP1 POP JUMP JUMPDEST PUSH1 0x0 PUSH2 0x22A2 DUP3 PUSH2 0x22D1 JUMP JUMPDEST SWAP1 POP SWAP2 SWAP1 POP JUMP JUMPDEST PUSH1 0x0 DUP2 ISZERO ISZERO SWAP1 POP SWAP2 SWAP1 POP JUMP JUMPDEST PUSH1 0x0 DUP2 SWAP1 POP SWAP2 SWAP1 POP JUMP JUMPDEST PUSH1 0x0 PUSH2 0x22CA DUP3 PUSH2 0x2285 JUMP JUMPDEST SWAP1 POP SWAP2 SWAP1 POP JUMP JUMPDEST PUSH1 0x0 PUSH20 0xFFFFFFFFFFFFFFFFFFFFFFFFFFFFFFFFFFFFFFFF DUP3 AND SWAP1 POP SWAP2 SWAP1 POP JUMP JUMPDEST PUSH1 0x0 DUP2 SWAP1 POP SWAP2 SWAP1 POP JUMP JUMPDEST PUSH1 0x0 PUSH1 0xFF DUP3 AND SWAP1 POP SWAP2 SWAP1 POP JUMP JUMPDEST PUSH1 0x0 PUSH2 0x2313 DUP3 PUSH2 0x231A JUMP JUMPDEST SWAP1 POP SWAP2 SWAP1 POP JUMP JUMPDEST PUSH1 0x0 PUSH2 0x2325 DUP3 PUSH2 0x232C JUMP JUMPDEST SWAP1 POP SWAP2 SWAP1 POP JUMP JUMPDEST PUSH1 0x0 PUSH2 0x2337 DUP3 PUSH2 0x22D1 JUMP JUMPDEST SWAP1 POP SWAP2 SWAP1 POP JUMP JUMPDEST DUP3 DUP2 DUP4 CALLDATACOPY PUSH1 0x0 DUP4 DUP4 ADD MSTORE POP POP POP JUMP JUMPDEST PUSH1 0x0 JUMPDEST DUP4 DUP2 LT ISZERO PUSH2 0x236B JUMPI DUP1 DUP3 ADD MLOAD DUP2 DUP5 ADD MSTORE PUSH1 0x20 DUP2 ADD SWAP1 POP PUSH2 0x2350 JUMP JUMPDEST DUP4 DUP2 GT ISZERO PUSH2 0x237A JUMPI PUSH1 0x0 DUP5 DUP5 ADD MSTORE JUMPDEST POP POP POP POP JUMP JUMPDEST PUSH1 0x0 PUSH2 0x238B DUP3 PUSH2 0x22F1 JUMP JUMPDEST SWAP2 POP PUSH1 0x0 DUP3 EQ ISZERO PUSH2 0x239F JUMPI PUSH2 0x239E PUSH2 0x24A0 JUMP JUMPDEST JUMPDEST PUSH1 0x1 DUP3 SUB SWAP1 POP SWAP2 SWAP1 POP JUMP JUMPDEST PUSH1 0x0 PUSH1 0x2 DUP3 DIV SWAP1 POP PUSH1 0x1 DUP3 AND DUP1 PUSH2 0x23C2 JUMPI PUSH1 0x7F DUP3 AND SWAP2 POP JUMPDEST PUSH1 0x20 DUP3 LT DUP2 EQ ISZERO PUSH2 0x23D6 JUMPI PUSH2 0x23D5 PUSH2 0x24FE JUMP JUMPDEST JUMPDEST POP SWAP2 SWAP1 POP JUMP JUMPDEST PUSH2 0x23E5 DUP3 PUSH2 0x25AE JUMP JUMPDEST DUP2 ADD DUP2 DUP2 LT PUSH8 0xFFFFFFFFFFFFFFFF DUP3 GT OR ISZERO PUSH2 0x2404 JUMPI PUSH2 0x2403 PUSH2 0x255C JUMP JUMPDEST JUMPDEST DUP1 PUSH1 0x40 MSTORE POP POP POP JUMP JUMPDEST PUSH1 0x0 PUSH2 0x2418 DUP3 PUSH2 0x22F1 JUMP JUMPDEST SWAP2 POP PUSH32 0xFFFFFFFFFFFFFFFFFFFFFFFFFFFFFFFFFFFFFFFFFFFFFFFFFFFFFFFFFFFFFFFF DUP3 EQ ISZERO PUSH2 0x244B JUMPI PUSH2 0x244A PUSH2 0x24A0 JUMP JUMPDEST JUMPDEST PUSH1 0x1 DUP3 ADD SWAP1 POP SWAP2 SWAP1 POP JUMP JUMPDEST PUSH1 0x0 PUSH2 0x2461 DUP3 PUSH2 0x2484 JUMP JUMPDEST SWAP1 POP SWAP2 SWAP1 POP JUMP JUMPDEST PUSH1 0x0 PUSH2 0x2473 DUP3 PUSH2 0x2484 JUMP JUMPDEST SWAP1 POP SWAP2 SWAP1 POP JUMP JUMPDEST PUSH1 0x0 DUP2 SWAP1 POP SWAP2 SWAP1 POP JUMP JUMPDEST PUSH1 0x0 PUSH2 0x248F DUP3 PUSH2 0x25BF JUMP JUMPDEST SWAP1 POP SWAP2 SWAP1 POP JUMP JUMPDEST PUSH1 0x0 DUP2 SWAP1 POP SWAP2 SWAP1 POP JUMP JUMPDEST PUSH32 0x4E487B7100000000000000000000000000000000000000000000000000000000 PUSH1 0x0 MSTORE PUSH1 0x11 PUSH1 0x4 MSTORE PUSH1 0x24 PUSH1 0x0 REVERT JUMPDEST PUSH32 0x4E487B7100000000000000000000000000000000000000000000000000000000 PUSH1 0x0 MSTORE PUSH1 0x12 PUSH1 0x4 MSTORE PUSH1 0x24 PUSH1 0x0 REVERT JUMPDEST PUSH32 0x4E487B7100000000000000000000000000000000000000000000000000000000 PUSH1 0x0 MSTORE PUSH1 0x22 PUSH1 0x4 MSTORE PUSH1 0x24 PUSH1 0x0 REVERT JUMPDEST PUSH32 0x4E487B7100000000000000000000000000000000000000000000000000000000 PUSH1 0x0 MSTORE PUSH1 0x32 PUSH1 0x4 MSTORE PUSH1 0x24 PUSH1 0x0 REVERT JUMPDEST PUSH32 0x4E487B7100000000000000000000000000000000000000000000000000000000 PUSH1 0x0 MSTORE PUSH1 0x41 PUSH1 0x4 MSTORE PUSH1 0x24 PUSH1 0x0 REVERT JUMPDEST PUSH1 0x0 DUP1 REVERT JUMPDEST PUSH1 0x0 DUP1 REVERT JUMPDEST PUSH1 0x0 DUP1 REVERT JUMPDEST PUSH1 0x0 DUP1 REVERT JUMPDEST PUSH1 0x0 DUP1 REVERT JUMPDEST PUSH1 0x0 DUP1 REVERT JUMPDEST PUSH1 0x0 DUP1 REVERT JUMPDEST PUSH1 0x0 PUSH1 0x1F NOT PUSH1 0x1F DUP4 ADD AND SWAP1 POP SWAP2 SWAP1 POP JUMP JUMPDEST PUSH1 0x0 DUP2 PUSH1 0x60 SHL SWAP1 POP SWAP2 SWAP1 POP JUMP JUMPDEST PUSH32 0x4C6F636B65640000000000000000000000000000000000000000000000000000 PUSH1 0x0 DUP3 ADD MSTORE POP JUMP JUMPDEST PUSH32 0x5472616E73666572206661696C65640000000000000000000000000000000000 PUSH1 0x0 DUP3 ADD MSTORE POP JUMP JUMPDEST PUSH32 0x416C726561647920657869737473000000000000000000000000000000000000 PUSH1 0x0 DUP3 ADD MSTORE POP JUMP JUMPDEST PUSH32 0x496E76616C6964207369676E6174757265000000000000000000000000000000 PUSH1 0x0 DUP3 ADD MSTORE POP JUMP JUMPDEST PUSH32 0x496E76616C696420627269646765626C6F636B00000000000000000000000000 PUSH1 0x0 DUP3 ADD MSTORE POP JUMP JUMPDEST PUSH32 0x556E6F70656E6564206173736574204272696467650000000000000000000000 PUSH1 0x0 DUP3 ADD MSTORE POP JUMP JUMPDEST PUSH32 0x546F6F206C6974746C65206465706F7369740000000000000000000000000000 PUSH1 0x0 DUP3 ADD MSTORE POP JUMP JUMPDEST PUSH32 0x496E76616C6964206F70657261746F7200000000000000000000000000000000 PUSH1 0x0 DUP3 ADD MSTORE POP JUMP JUMPDEST PUSH32 0x5472616E7366657246726F6D206661696C656400000000000000000000000000 PUSH1 0x0 DUP3 ADD MSTORE POP JUMP JUMPDEST PUSH32 0x496E73756666696369656E742065746820746F6B656E73000000000000000000 PUSH1 0x0 DUP3 ADD MSTORE POP JUMP JUMPDEST PUSH2 0x276F DUP2 PUSH2 0x2285 JUMP JUMPDEST DUP2 EQ PUSH2 0x277A JUMPI PUSH1 0x0 DUP1 REVERT JUMPDEST POP JUMP JUMPDEST PUSH2 0x2786 DUP2 PUSH2 0x2297 JUMP JUMPDEST DUP2 EQ PUSH2 0x2791 JUMPI PUSH1 0x0 DUP1 REVERT JUMPDEST POP JUMP JUMPDEST PUSH2 0x279D DUP2 PUSH2 0x22A9 JUMP JUMPDEST DUP2 EQ PUSH2 0x27A8 JUMPI PUSH1 0x0 DUP1 REVERT JUMPDEST POP JUMP JUMPDEST PUSH2 0x27B4 DUP2 PUSH2 0x22BF JUMP JUMPDEST DUP2 EQ PUSH2 0x27BF JUMPI PUSH1 0x0 DUP1 REVERT JUMPDEST POP JUMP JUMPDEST PUSH2 0x27CB DUP2 PUSH2 0x22F1 JUMP JUMPDEST DUP2 EQ PUSH2 0x27D6 JUMPI PUSH1 0x0 DUP1 REVERT JUMPDEST POP JUMP INVALID 0x49 PUSH15 0x73756666696369656E74206E756D62 PUSH6 0x72206F66206D PUSH6 0x6D6265722061 PUSH17 0x70726F76616C73A2646970667358221220 0xE9 CREATE2 DUP12 0x4D ORIGIN 0xC5 0xFC CALLDATACOPY PUSH30 0x51599FDD2C3D99D9754B44CDA479B4C59EF7FA97FBC53E64736F6C634300 ADDMOD SMOD STOP CALLER "
		},
		"gasEstimates": {
			"creation": {
				"codeDepositCost": "2058800",
				"executionCost": "infinite",
				"totalCost": "infinite"
			},
			"external": {
				"EthAddress()": "2630",
				"accountLock(address)": "53698",
				"accountLockout(address)": "2956",
				"accountUnlock(address)": "477",
				"addCommittee(address)": "75824",
				"addErc20Asset(address)": "24855",
				"assetTable(address)": "2912",
				"committee(address)": "5127",
				"committeeNum()": "2473",
				"depositErc20Token(address,uint256,string,string)": "infinite",
				"depositEth(string,string)": "infinite",
				"mint(((uint256,address,address)[],(bytes,address)[],uint256))": "infinite"
			},
			"internal": {
				"addressVerification(struct BridgeLibrary.Rollup memory)": "infinite"
			}
		},
		"methodIdentifiers": {
			"EthAddress()": "baf0bfd3",
			"accountLock(address)": "129ed395",
			"accountLockout(address)": "7669c35f",
			"accountUnlock(address)": "9f581b88",
			"addCommittee(address)": "38046217",
			"addErc20Asset(address)": "85a383d0",
			"assetTable(address)": "236e0e40",
			"committee(address)": "130f679d",
			"committeeNum()": "b6fb39d5",
			"depositErc20Token(address,uint256,string,string)": "02afc34f",
			"depositEth(string,string)": "e50381fc",
			"mint(((uint256,address,address)[],(bytes,address)[],uint256))": "ddd92799"
		}
	},
	"abi": [
		{
			"inputs": [
				{
					"internalType": "address[]",
					"name": "_member",
					"type": "address[]"
				}
			],
			"stateMutability": "nonpayable",
			"type": "constructor"
		},
		{
			"anonymous": false,
			"inputs": [
				{
					"indexed": true,
					"internalType": "address",
					"name": "sender",
					"type": "address"
				},
				{
					"indexed": true,
					"internalType": "uint256",
					"name": "amount",
					"type": "uint256"
				},
				{
					"indexed": false,
					"internalType": "uint256",
					"name": "blockNumber",
					"type": "uint256"
				},
				{
					"indexed": false,
					"internalType": "address",
					"name": "targetErc20TokenAddress",
					"type": "address"
				},
				{
					"indexed": false,
					"internalType": "string",
					"name": "tokenCanister",
					"type": "string"
				},
				{
					"indexed": false,
					"internalType": "string",
					"name": "icwallet",
					"type": "string"
				}
			],
			"name": "Deposit",
			"type": "event"
		},
		{
			"inputs": [],
			"name": "EthAddress",
			"outputs": [
				{
					"internalType": "address",
					"name": "",
					"type": "address"
				}
			],
			"stateMutability": "view",
			"type": "function"
		},
		{
			"inputs": [
				{
					"internalType": "address",
					"name": "_newMember",
					"type": "address"
				}
			],
			"name": "accountLock",
			"outputs": [],
			"stateMutability": "nonpayable",
			"type": "function"
		},
		{
			"inputs": [
				{
					"internalType": "address",
					"name": "",
					"type": "address"
				}
			],
			"name": "accountLockout",
			"outputs": [
				{
					"internalType": "bool",
					"name": "",
					"type": "bool"
				}
			],
			"stateMutability": "view",
			"type": "function"
		},
		{
			"inputs": [
				{
					"internalType": "address",
					"name": "_newMember",
					"type": "address"
				}
			],
			"name": "accountUnlock",
			"outputs": [],
			"stateMutability": "nonpayable",
			"type": "function"
		},
		{
			"inputs": [
				{
					"internalType": "address",
					"name": "_newMember",
					"type": "address"
				}
			],
			"name": "addCommittee",
			"outputs": [],
			"stateMutability": "nonpayable",
			"type": "function"
		},
		{
			"inputs": [
				{
					"internalType": "contract IERC20",
					"name": "_erc20token",
					"type": "address"
				}
			],
			"name": "addErc20Asset",
			"outputs": [],
			"stateMutability": "nonpayable",
			"type": "function"
		},
		{
			"inputs": [
				{
					"internalType": "address",
					"name": "",
					"type": "address"
				}
			],
			"name": "assetTable",
			"outputs": [
				{
					"internalType": "bool",
					"name": "",
					"type": "bool"
				}
			],
			"stateMutability": "view",
			"type": "function"
		},
		{
			"inputs": [
				{
					"internalType": "address",
					"name": "",
					"type": "address"
				}
			],
			"name": "committee",
			"outputs": [
				{
					"internalType": "uint256",
					"name": "index",
					"type": "uint256"
				},
				{
					"internalType": "bool",
					"name": "isMember",
					"type": "bool"
				}
			],
			"stateMutability": "view",
			"type": "function"
		},
		{
			"inputs": [],
			"name": "committeeNum",
			"outputs": [
				{
					"internalType": "uint256",
					"name": "",
					"type": "uint256"
				}
			],
			"stateMutability": "view",
			"type": "function"
		},
		{
			"inputs": [
				{
					"internalType": "contract IERC20",
					"name": "_erc20token",
					"type": "address"
				},
				{
					"internalType": "uint256",
					"name": "_amount",
					"type": "uint256"
				},
				{
					"internalType": "string",
					"name": "_tokenCanister",
					"type": "string"
				},
				{
					"internalType": "string",
					"name": "_icwallet",
					"type": "string"
				}
			],
			"name": "depositErc20Token",
			"outputs": [],
			"stateMutability": "nonpayable",
			"type": "function"
		},
		{
			"inputs": [
				{
					"internalType": "string",
					"name": "_tokenCanister",
					"type": "string"
				},
				{
					"internalType": "string",
					"name": "_icwallet",
					"type": "string"
				}
			],
			"name": "depositEth",
			"outputs": [],
			"stateMutability": "payable",
			"type": "function"
		},
		{
			"inputs": [
				{
					"components": [
						{
							"components": [
								{
									"internalType": "uint256",
									"name": "amount",
									"type": "uint256"
								},
								{
									"internalType": "address payable",
									"name": "account",
									"type": "address"
								},
								{
									"internalType": "address",
									"name": "erc20Token",
									"type": "address"
								}
							],
							"internalType": "struct BridgeLibrary.Transaction[]",
							"name": "transactions",
							"type": "tuple[]"
						},
						{
							"components": [
								{
									"internalType": "bytes",
									"name": "sign",
									"type": "bytes"
								},
								{
									"internalType": "address",
									"name": "signAddress",
									"type": "address"
								}
							],
							"internalType": "struct BridgeLibrary.CommitteeSign[]",
							"name": "committeeSigns",
							"type": "tuple[]"
						},
						{
							"internalType": "uint256",
							"name": "bridgeBlock",
							"type": "uint256"
						}
					],
					"internalType": "struct BridgeLibrary.Rollup",
					"name": "_rollup",
					"type": "tuple"
				}
			],
			"name": "mint",
			"outputs": [],
			"stateMutability": "nonpayable",
			"type": "function"
		}
	]
}