{
	"data": {
		"bytecode": {
			"linkReferences": {},
			"object": "60806040523480156200001157600080fd5b506040516200167b3803806200167b83398181016040528101906200003791906200064c565b8181818160017f360894a13ba1a3210667c828492db98dca3e2076cc3735a920a3ca505d382bbd60001c6200006d919062000911565b60001b7f360894a13ba1a3210667c828492db98dca3e2076cc3735a920a3ca505d382bbc60001b14620000a557620000a4620009f6565b5b620000b982826000620000f160201b60201c565b5050620000d1336200013460201b620001671760201c565b5050620000e9336200013460201b620001671760201c565b505062000baf565b62000102836200019260201b60201c565b600082511180620001105750805b156200012f576200012d8383620001e960201b620001b31760201c565b505b505050565b7f7e644d79422f17c01e4894b5f4f588d331ebfa28653d42ae832dc59e38c9798f620001656200021f60201b60201c565b8260405162000176929190620007c9565b60405180910390a16200018f816200028360201b60201c565b50565b620001a3816200037460201b60201c565b8073ffffffffffffffffffffffffffffffffffffffff167fbc7cd75a20ee27fd9adebab32041f755214dbc6bffa90cc0225b39da2e5c2d3b60405160405180910390a250565b606062000217838360405180606001604052806027815260200162001654602791396200044a60201b60201c565b905092915050565b60006200025a7fb53127684a568b3173ae13b9f8a6016e243e63b6e8ee1178d6a717850b5d610360001b6200052e60201b620001e01760201c565b60000160009054906101000a900473ffffffffffffffffffffffffffffffffffffffff16905090565b600073ffffffffffffffffffffffffffffffffffffffff168173ffffffffffffffffffffffffffffffffffffffff161415620002f6576040517f08c379a0000000000000000000000000000000000000000000000000000000008152600401620002ed906200081a565b60405180910390fd5b80620003307fb53127684a568b3173ae13b9f8a6016e243e63b6e8ee1178d6a717850b5d610360001b6200052e60201b620001e01760201c565b60000160006101000a81548173ffffffffffffffffffffffffffffffffffffffff021916908373ffffffffffffffffffffffffffffffffffffffff16021790555050565b6200038a816200053860201b620001ea1760201c565b620003cc576040517f08c379a0000000000000000000000000000000000000000000000000000000008152600401620003c3906200083c565b60405180910390fd5b80620004067f360894a13ba1a3210667c828492db98dca3e2076cc3735a920a3ca505d382bbc60001b6200052e60201b620001e01760201c565b60000160006101000a81548173ffffffffffffffffffffffffffffffffffffffff021916908373ffffffffffffffffffffffffffffffffffffffff16021790555050565b60606200045d846200053860201b60201c565b6200049f576040517f08c379a000000000000000000000000000000000000000000000000000000000815260040162000496906200085e565b60405180910390fd5b6000808573ffffffffffffffffffffffffffffffffffffffff1685604051620004c99190620007b0565b600060405180830381855af49150503d806000811462000506576040519150601f19603f3d011682016040523d82523d6000602084013e6200050b565b606091505b5091509150620005238282866200054b60201b60201c565b925050509392505050565b6000819050919050565b600080823b905060008111915050919050565b606083156200055d57829050620005b0565b600083511115620005715782518084602001fd5b816040517f08c379a0000000000000000000000000000000000000000000000000000000008152600401620005a79190620007f6565b60405180910390fd5b9392505050565b6000620005ce620005c884620008a9565b62000880565b905082815260208101848484011115620005ed57620005ec62000a88565b5b620005fa8482856200098a565b509392505050565b600081519050620006138162000b95565b92915050565b600082601f83011262000631576200063062000a83565b5b815162000643848260208601620005b7565b91505092915050565b6000806040838503121562000666576200066562000a92565b5b6000620006768582860162000602565b925050602083015167ffffffffffffffff8111156200069a576200069962000a8d565b5b620006a88582860162000619565b9150509250929050565b620006bd816200094c565b82525050565b6000620006d082620008df565b620006dc8185620008f5565b9350620006ee8185602086016200098a565b80840191505092915050565b60006200070782620008ea565b62000713818562000900565b9350620007258185602086016200098a565b620007308162000a97565b840191505092915050565b60006200074a60268362000900565b9150620007578262000aa8565b604082019050919050565b600062000771602d8362000900565b91506200077e8262000af7565b604082019050919050565b60006200079860268362000900565b9150620007a58262000b46565b604082019050919050565b6000620007be8284620006c3565b915081905092915050565b6000604082019050620007e06000830185620006b2565b620007ef6020830184620006b2565b9392505050565b60006020820190508181036000830152620008128184620006fa565b905092915050565b6000602082019050818103600083015262000835816200073b565b9050919050565b60006020820190508181036000830152620008578162000762565b9050919050565b60006020820190508181036000830152620008798162000789565b9050919050565b60006200088c6200089f565b90506200089a8282620009c0565b919050565b6000604051905090565b600067ffffffffffffffff821115620008c757620008c662000a54565b5b620008d28262000a97565b9050602081019050919050565b600081519050919050565b600081519050919050565b600081905092915050565b600082825260208201905092915050565b60006200091e8262000980565b91506200092b8362000980565b92508282101562000941576200094062000a25565b5b828203905092915050565b6000620009598262000960565b9050919050565b600073ffffffffffffffffffffffffffffffffffffffff82169050919050565b6000819050919050565b60005b83811015620009aa5780820151818401526020810190506200098d565b83811115620009ba576000848401525b50505050565b620009cb8262000a97565b810181811067ffffffffffffffff82111715620009ed57620009ec62000a54565b5b80604052505050565b7f4e487b7100000000000000000000000000000000000000000000000000000000600052600160045260246000fd5b7f4e487b7100000000000000000000000000000000000000000000000000000000600052601160045260246000fd5b7f4e487b7100000000000000000000000000000000000000000000000000000000600052604160045260246000fd5b600080fd5b600080fd5b600080fd5b600080fd5b6000601f19601f8301169050919050565b7f455243313936373a206e65772061646d696e20697320746865207a65726f206160008201527f6464726573730000000000000000000000000000000000000000000000000000602082015250565b7f455243313936373a206e657720696d706c656d656e746174696f6e206973206e60008201527f6f74206120636f6e747261637400000000000000000000000000000000000000602082015250565b7f416464726573733a2064656c65676174652063616c6c20746f206e6f6e2d636f60008201527f6e74726163740000000000000000000000000000000000000000000000000000602082015250565b62000ba0816200094c565b811462000bac57600080fd5b50565b610a958062000bbf6000396000f3fe60806040526004361061002d5760003560e01c8063130f679d146100465780633659cfe6146100835761003c565b3661003c5761003a6100ac565b005b6100446100ac565b005b34801561005257600080fd5b5061006d60048036038101906100689190610614565b6100c6565b60405161007a9190610795565b60405180910390f35b34801561008f57600080fd5b506100aa60048036038101906100a59190610614565b6100e6565b005b6100b46101fd565b6100c46100bf6101ff565b61020e565b565b60006020528060005260406000206000915054906101000a900460ff1681565b6100ee610234565b73ffffffffffffffffffffffffffffffffffffffff163373ffffffffffffffffffffffffffffffffffffffff161461015b576040517f08c379a000000000000000000000000000000000000000000000000000000000815260040161015290610812565b60405180910390fd5b6101648161028b565b50565b7f7e644d79422f17c01e4894b5f4f588d331ebfa28653d42ae832dc59e38c9798f610190610234565b8260405161019f92919061076c565b60405180910390a16101b0816102da565b50565b60606101d88383604051806060016040528060278152602001610a39602791396103bb565b905092915050565b6000819050919050565b600080823b905060008111915050919050565b565b6000610209610488565b905090565b3660008037600080366000845af43d6000803e806000811461022f573d6000f35b3d6000fd5b60006102627fb53127684a568b3173ae13b9f8a6016e243e63b6e8ee1178d6a717850b5d610360001b6101e0565b60000160009054906101000a900473ffffffffffffffffffffffffffffffffffffffff16905090565b610294816104df565b8073ffffffffffffffffffffffffffffffffffffffff167fbc7cd75a20ee27fd9adebab32041f755214dbc6bffa90cc0225b39da2e5c2d3b60405160405180910390a250565b600073ffffffffffffffffffffffffffffffffffffffff168173ffffffffffffffffffffffffffffffffffffffff16141561034a576040517f08c379a0000000000000000000000000000000000000000000000000000000008152600401610341906107d2565b60405180910390fd5b806103777fb53127684a568b3173ae13b9f8a6016e243e63b6e8ee1178d6a717850b5d610360001b6101e0565b60000160006101000a81548173ffffffffffffffffffffffffffffffffffffffff021916908373ffffffffffffffffffffffffffffffffffffffff16021790555050565b60606103c6846101ea565b610405576040517f08c379a00000000000000000000000000000000000000000000000000000000081526004016103fc90610832565b60405180910390fd5b6000808573ffffffffffffffffffffffffffffffffffffffff168560405161042d9190610755565b600060405180830381855af49150503d8060008114610468576040519150601f19603f3d011682016040523d82523d6000602084013e61046d565b606091505b509150915061047d828286610598565b925050509392505050565b60006104b67f360894a13ba1a3210667c828492db98dca3e2076cc3735a920a3ca505d382bbc60001b6101e0565b60000160009054906101000a900473ffffffffffffffffffffffffffffffffffffffff16905090565b6104e8816101ea565b610527576040517f08c379a000000000000000000000000000000000000000000000000000000000815260040161051e906107f2565b60405180910390fd5b806105547f360894a13ba1a3210667c828492db98dca3e2076cc3735a920a3ca505d382bbc60001b6101e0565b60000160006101000a81548173ffffffffffffffffffffffffffffffffffffffff021916908373ffffffffffffffffffffffffffffffffffffffff16021790555050565b606083156105a8578290506105f8565b6000835111156105bb5782518084602001fd5b816040517f08c379a00000000000000000000000000000000000000000000000000000000081526004016105ef91906107b0565b60405180910390fd5b9392505050565b60008135905061060e81610a21565b92915050565b60006020828403121561062a576106296108f5565b5b6000610638848285016105ff565b91505092915050565b61064a81610884565b82525050565b61065981610896565b82525050565b600061066a82610852565b6106748185610868565b93506106848185602086016108c2565b80840191505092915050565b600061069b8261085d565b6106a58185610873565b93506106b58185602086016108c2565b6106be816108fa565b840191505092915050565b60006106d6602683610873565b91506106e18261090b565b604082019050919050565b60006106f9602d83610873565b91506107048261095a565b604082019050919050565b600061071c601083610873565b9150610727826109a9565b602082019050919050565b600061073f602683610873565b915061074a826109d2565b604082019050919050565b6000610761828461065f565b915081905092915050565b60006040820190506107816000830185610641565b61078e6020830184610641565b9392505050565b60006020820190506107aa6000830184610650565b92915050565b600060208201905081810360008301526107ca8184610690565b905092915050565b600060208201905081810360008301526107eb816106c9565b9050919050565b6000602082019050818103600083015261080b816106ec565b9050919050565b6000602082019050818103600083015261082b8161070f565b9050919050565b6000602082019050818103600083015261084b81610732565b9050919050565b600081519050919050565b600081519050919050565b600081905092915050565b600082825260208201905092915050565b600061088f826108a2565b9050919050565b60008115159050919050565b600073ffffffffffffffffffffffffffffffffffffffff82169050919050565b60005b838110156108e05780820151818401526020810190506108c5565b838111156108ef576000848401525b50505050565b600080fd5b6000601f19601f8301169050919050565b7f455243313936373a206e65772061646d696e20697320746865207a65726f206160008201527f6464726573730000000000000000000000000000000000000000000000000000602082015250565b7f455243313936373a206e657720696d706c656d656e746174696f6e206973206e60008201527f6f74206120636f6e747261637400000000000000000000000000000000000000602082015250565b7f496e76616c6964206f70657261746f7200000000000000000000000000000000600082015250565b7f416464726573733a2064656c65676174652063616c6c20746f206e6f6e2d636f60008201527f6e74726163740000000000000000000000000000000000000000000000000000602082015250565b610a2a81610884565b8114610a3557600080fd5b5056fe416464726573733a206c6f772d6c6576656c2064656c65676174652063616c6c206661696c6564a26469706673582212207d9ca092572c393f7a9c42b40d6f5ba04ffc093fa85c85cebaa2f05bfbc7726c64736f6c63430008070033416464726573733a206c6f772d6c6576656c2064656c65676174652063616c6c206661696c6564",
			"opcodes": "PUSH1 0x80 PUSH1 0x40 MSTORE CALLVALUE DUP1 ISZERO PUSH3 0x11 JUMPI PUSH1 0x0 DUP1 REVERT JUMPDEST POP PUSH1 0x40 MLOAD PUSH3 0x167B CODESIZE SUB DUP1 PUSH3 0x167B DUP4 CODECOPY DUP2 DUP2 ADD PUSH1 0x40 MSTORE DUP2 ADD SWAP1 PUSH3 0x37 SWAP2 SWAP1 PUSH3 0x64C JUMP JUMPDEST DUP2 DUP2 DUP2 DUP2 PUSH1 0x1 PUSH32 0x360894A13BA1A3210667C828492DB98DCA3E2076CC3735A920A3CA505D382BBD PUSH1 0x0 SHR PUSH3 0x6D SWAP2 SWAP1 PUSH3 0x911 JUMP JUMPDEST PUSH1 0x0 SHL PUSH32 0x360894A13BA1A3210667C828492DB98DCA3E2076CC3735A920A3CA505D382BBC PUSH1 0x0 SHL EQ PUSH3 0xA5 JUMPI PUSH3 0xA4 PUSH3 0x9F6 JUMP JUMPDEST JUMPDEST PUSH3 0xB9 DUP3 DUP3 PUSH1 0x0 PUSH3 0xF1 PUSH1 0x20 SHL PUSH1 0x20 SHR JUMP JUMPDEST POP POP PUSH3 0xD1 CALLER PUSH3 0x134 PUSH1 0x20 SHL PUSH3 0x167 OR PUSH1 0x20 SHR JUMP JUMPDEST POP POP PUSH3 0xE9 CALLER PUSH3 0x134 PUSH1 0x20 SHL PUSH3 0x167 OR PUSH1 0x20 SHR JUMP JUMPDEST POP POP PUSH3 0xBAF JUMP JUMPDEST PUSH3 0x102 DUP4 PUSH3 0x192 PUSH1 0x20 SHL PUSH1 0x20 SHR JUMP JUMPDEST PUSH1 0x0 DUP3 MLOAD GT DUP1 PUSH3 0x110 JUMPI POP DUP1 JUMPDEST ISZERO PUSH3 0x12F JUMPI PUSH3 0x12D DUP4 DUP4 PUSH3 0x1E9 PUSH1 0x20 SHL PUSH3 0x1B3 OR PUSH1 0x20 SHR JUMP JUMPDEST POP JUMPDEST POP POP POP JUMP JUMPDEST PUSH32 0x7E644D79422F17C01E4894B5F4F588D331EBFA28653D42AE832DC59E38C9798F PUSH3 0x165 PUSH3 0x21F PUSH1 0x20 SHL PUSH1 0x20 SHR JUMP JUMPDEST DUP3 PUSH1 0x40 MLOAD PUSH3 0x176 SWAP3 SWAP2 SWAP1 PUSH3 0x7C9 JUMP JUMPDEST PUSH1 0x40 MLOAD DUP1 SWAP2 SUB SWAP1 LOG1 PUSH3 0x18F DUP2 PUSH3 0x283 PUSH1 0x20 SHL PUSH1 0x20 SHR JUMP JUMPDEST POP JUMP JUMPDEST PUSH3 0x1A3 DUP2 PUSH3 0x374 PUSH1 0x20 SHL PUSH1 0x20 SHR JUMP JUMPDEST DUP1 PUSH20 0xFFFFFFFFFFFFFFFFFFFFFFFFFFFFFFFFFFFFFFFF AND PUSH32 0xBC7CD75A20EE27FD9ADEBAB32041F755214DBC6BFFA90CC0225B39DA2E5C2D3B PUSH1 0x40 MLOAD PUSH1 0x40 MLOAD DUP1 SWAP2 SUB SWAP1 LOG2 POP JUMP JUMPDEST PUSH1 0x60 PUSH3 0x217 DUP4 DUP4 PUSH1 0x40 MLOAD DUP1 PUSH1 0x60 ADD PUSH1 0x40 MSTORE DUP1 PUSH1 0x27 DUP2 MSTORE PUSH1 0x20 ADD PUSH3 0x1654 PUSH1 0x27 SWAP2 CODECOPY PUSH3 0x44A PUSH1 0x20 SHL PUSH1 0x20 SHR JUMP JUMPDEST SWAP1 POP SWAP3 SWAP2 POP POP JUMP JUMPDEST PUSH1 0x0 PUSH3 0x25A PUSH32 0xB53127684A568B3173AE13B9F8A6016E243E63B6E8EE1178D6A717850B5D6103 PUSH1 0x0 SHL PUSH3 0x52E PUSH1 0x20 SHL PUSH3 0x1E0 OR PUSH1 0x20 SHR JUMP JUMPDEST PUSH1 0x0 ADD PUSH1 0x0 SWAP1 SLOAD SWAP1 PUSH2 0x100 EXP SWAP1 DIV PUSH20 0xFFFFFFFFFFFFFFFFFFFFFFFFFFFFFFFFFFFFFFFF AND SWAP1 POP SWAP1 JUMP JUMPDEST PUSH1 0x0 PUSH20 0xFFFFFFFFFFFFFFFFFFFFFFFFFFFFFFFFFFFFFFFF AND DUP2 PUSH20 0xFFFFFFFFFFFFFFFFFFFFFFFFFFFFFFFFFFFFFFFF AND EQ ISZERO PUSH3 0x2F6 JUMPI PUSH1 0x40 MLOAD PUSH32 0x8C379A000000000000000000000000000000000000000000000000000000000 DUP2 MSTORE PUSH1 0x4 ADD PUSH3 0x2ED SWAP1 PUSH3 0x81A JUMP JUMPDEST PUSH1 0x40 MLOAD DUP1 SWAP2 SUB SWAP1 REVERT JUMPDEST DUP1 PUSH3 0x330 PUSH32 0xB53127684A568B3173AE13B9F8A6016E243E63B6E8EE1178D6A717850B5D6103 PUSH1 0x0 SHL PUSH3 0x52E PUSH1 0x20 SHL PUSH3 0x1E0 OR PUSH1 0x20 SHR JUMP JUMPDEST PUSH1 0x0 ADD PUSH1 0x0 PUSH2 0x100 EXP DUP2 SLOAD DUP2 PUSH20 0xFFFFFFFFFFFFFFFFFFFFFFFFFFFFFFFFFFFFFFFF MUL NOT AND SWAP1 DUP4 PUSH20 0xFFFFFFFFFFFFFFFFFFFFFFFFFFFFFFFFFFFFFFFF AND MUL OR SWAP1 SSTORE POP POP JUMP JUMPDEST PUSH3 0x38A DUP2 PUSH3 0x538 PUSH1 0x20 SHL PUSH3 0x1EA OR PUSH1 0x20 SHR JUMP JUMPDEST PUSH3 0x3CC JUMPI PUSH1 0x40 MLOAD PUSH32 0x8C379A000000000000000000000000000000000000000000000000000000000 DUP2 MSTORE PUSH1 0x4 ADD PUSH3 0x3C3 SWAP1 PUSH3 0x83C JUMP JUMPDEST PUSH1 0x40 MLOAD DUP1 SWAP2 SUB SWAP1 REVERT JUMPDEST DUP1 PUSH3 0x406 PUSH32 0x360894A13BA1A3210667C828492DB98DCA3E2076CC3735A920A3CA505D382BBC PUSH1 0x0 SHL PUSH3 0x52E PUSH1 0x20 SHL PUSH3 0x1E0 OR PUSH1 0x20 SHR JUMP JUMPDEST PUSH1 0x0 ADD PUSH1 0x0 PUSH2 0x100 EXP DUP2 SLOAD DUP2 PUSH20 0xFFFFFFFFFFFFFFFFFFFFFFFFFFFFFFFFFFFFFFFF MUL NOT AND SWAP1 DUP4 PUSH20 0xFFFFFFFFFFFFFFFFFFFFFFFFFFFFFFFFFFFFFFFF AND MUL OR SWAP1 SSTORE POP POP JUMP JUMPDEST PUSH1 0x60 PUSH3 0x45D DUP5 PUSH3 0x538 PUSH1 0x20 SHL PUSH1 0x20 SHR JUMP JUMPDEST PUSH3 0x49F JUMPI PUSH1 0x40 MLOAD PUSH32 0x8C379A000000000000000000000000000000000000000000000000000000000 DUP2 MSTORE PUSH1 0x4 ADD PUSH3 0x496 SWAP1 PUSH3 0x85E JUMP JUMPDEST PUSH1 0x40 MLOAD DUP1 SWAP2 SUB SWAP1 REVERT JUMPDEST PUSH1 0x0 DUP1 DUP6 PUSH20 0xFFFFFFFFFFFFFFFFFFFFFFFFFFFFFFFFFFFFFFFF AND DUP6 PUSH1 0x40 MLOAD PUSH3 0x4C9 SWAP2 SWAP1 PUSH3 0x7B0 JUMP JUMPDEST PUSH1 0x0 PUSH1 0x40 MLOAD DUP1 DUP4 SUB DUP2 DUP6 GAS DELEGATECALL SWAP2 POP POP RETURNDATASIZE DUP1 PUSH1 0x0 DUP2 EQ PUSH3 0x506 JUMPI PUSH1 0x40 MLOAD SWAP2 POP PUSH1 0x1F NOT PUSH1 0x3F RETURNDATASIZE ADD AND DUP3 ADD PUSH1 0x40 MSTORE RETURNDATASIZE DUP3 MSTORE RETURNDATASIZE PUSH1 0x0 PUSH1 0x20 DUP5 ADD RETURNDATACOPY PUSH3 0x50B JUMP JUMPDEST PUSH1 0x60 SWAP2 POP JUMPDEST POP SWAP2 POP SWAP2 POP PUSH3 0x523 DUP3 DUP3 DUP7 PUSH3 0x54B PUSH1 0x20 SHL PUSH1 0x20 SHR JUMP JUMPDEST SWAP3 POP POP POP SWAP4 SWAP3 POP POP POP JUMP JUMPDEST PUSH1 0x0 DUP2 SWAP1 POP SWAP2 SWAP1 POP JUMP JUMPDEST PUSH1 0x0 DUP1 DUP3 EXTCODESIZE SWAP1 POP PUSH1 0x0 DUP2 GT SWAP2 POP POP SWAP2 SWAP1 POP JUMP JUMPDEST PUSH1 0x60 DUP4 ISZERO PUSH3 0x55D JUMPI DUP3 SWAP1 POP PUSH3 0x5B0 JUMP JUMPDEST PUSH1 0x0 DUP4 MLOAD GT ISZERO PUSH3 0x571 JUMPI DUP3 MLOAD DUP1 DUP5 PUSH1 0x20 ADD REVERT JUMPDEST DUP2 PUSH1 0x40 MLOAD PUSH32 0x8C379A000000000000000000000000000000000000000000000000000000000 DUP2 MSTORE PUSH1 0x4 ADD PUSH3 0x5A7 SWAP2 SWAP1 PUSH3 0x7F6 JUMP JUMPDEST PUSH1 0x40 MLOAD DUP1 SWAP2 SUB SWAP1 REVERT JUMPDEST SWAP4 SWAP3 POP POP POP JUMP JUMPDEST PUSH1 0x0 PUSH3 0x5CE PUSH3 0x5C8 DUP5 PUSH3 0x8A9 JUMP JUMPDEST PUSH3 0x880 JUMP JUMPDEST SWAP1 POP DUP3 DUP2 MSTORE PUSH1 0x20 DUP2 ADD DUP5 DUP5 DUP5 ADD GT ISZERO PUSH3 0x5ED JUMPI PUSH3 0x5EC PUSH3 0xA88 JUMP JUMPDEST JUMPDEST PUSH3 0x5FA DUP5 DUP3 DUP6 PUSH3 0x98A JUMP JUMPDEST POP SWAP4 SWAP3 POP POP POP JUMP JUMPDEST PUSH1 0x0 DUP2 MLOAD SWAP1 POP PUSH3 0x613 DUP2 PUSH3 0xB95 JUMP JUMPDEST SWAP3 SWAP2 POP POP JUMP JUMPDEST PUSH1 0x0 DUP3 PUSH1 0x1F DUP4 ADD SLT PUSH3 0x631 JUMPI PUSH3 0x630 PUSH3 0xA83 JUMP JUMPDEST JUMPDEST DUP2 MLOAD PUSH3 0x643 DUP5 DUP3 PUSH1 0x20 DUP7 ADD PUSH3 0x5B7 JUMP JUMPDEST SWAP2 POP POP SWAP3 SWAP2 POP POP JUMP JUMPDEST PUSH1 0x0 DUP1 PUSH1 0x40 DUP4 DUP6 SUB SLT ISZERO PUSH3 0x666 JUMPI PUSH3 0x665 PUSH3 0xA92 JUMP JUMPDEST JUMPDEST PUSH1 0x0 PUSH3 0x676 DUP6 DUP3 DUP7 ADD PUSH3 0x602 JUMP JUMPDEST SWAP3 POP POP PUSH1 0x20 DUP4 ADD MLOAD PUSH8 0xFFFFFFFFFFFFFFFF DUP2 GT ISZERO PUSH3 0x69A JUMPI PUSH3 0x699 PUSH3 0xA8D JUMP JUMPDEST JUMPDEST PUSH3 0x6A8 DUP6 DUP3 DUP7 ADD PUSH3 0x619 JUMP JUMPDEST SWAP2 POP POP SWAP3 POP SWAP3 SWAP1 POP JUMP JUMPDEST PUSH3 0x6BD DUP2 PUSH3 0x94C JUMP JUMPDEST DUP3 MSTORE POP POP JUMP JUMPDEST PUSH1 0x0 PUSH3 0x6D0 DUP3 PUSH3 0x8DF JUMP JUMPDEST PUSH3 0x6DC DUP2 DUP6 PUSH3 0x8F5 JUMP JUMPDEST SWAP4 POP PUSH3 0x6EE DUP2 DUP6 PUSH1 0x20 DUP7 ADD PUSH3 0x98A JUMP JUMPDEST DUP1 DUP5 ADD SWAP2 POP POP SWAP3 SWAP2 POP POP JUMP JUMPDEST PUSH1 0x0 PUSH3 0x707 DUP3 PUSH3 0x8EA JUMP JUMPDEST PUSH3 0x713 DUP2 DUP6 PUSH3 0x900 JUMP JUMPDEST SWAP4 POP PUSH3 0x725 DUP2 DUP6 PUSH1 0x20 DUP7 ADD PUSH3 0x98A JUMP JUMPDEST PUSH3 0x730 DUP2 PUSH3 0xA97 JUMP JUMPDEST DUP5 ADD SWAP2 POP POP SWAP3 SWAP2 POP POP JUMP JUMPDEST PUSH1 0x0 PUSH3 0x74A PUSH1 0x26 DUP4 PUSH3 0x900 JUMP JUMPDEST SWAP2 POP PUSH3 0x757 DUP3 PUSH3 0xAA8 JUMP JUMPDEST PUSH1 0x40 DUP3 ADD SWAP1 POP SWAP2 SWAP1 POP JUMP JUMPDEST PUSH1 0x0 PUSH3 0x771 PUSH1 0x2D DUP4 PUSH3 0x900 JUMP JUMPDEST SWAP2 POP PUSH3 0x77E DUP3 PUSH3 0xAF7 JUMP JUMPDEST PUSH1 0x40 DUP3 ADD SWAP1 POP SWAP2 SWAP1 POP JUMP JUMPDEST PUSH1 0x0 PUSH3 0x798 PUSH1 0x26 DUP4 PUSH3 0x900 JUMP JUMPDEST SWAP2 POP PUSH3 0x7A5 DUP3 PUSH3 0xB46 JUMP JUMPDEST PUSH1 0x40 DUP3 ADD SWAP1 POP SWAP2 SWAP1 POP JUMP JUMPDEST PUSH1 0x0 PUSH3 0x7BE DUP3 DUP5 PUSH3 0x6C3 JUMP JUMPDEST SWAP2 POP DUP2 SWAP1 POP SWAP3 SWAP2 POP POP JUMP JUMPDEST PUSH1 0x0 PUSH1 0x40 DUP3 ADD SWAP1 POP PUSH3 0x7E0 PUSH1 0x0 DUP4 ADD DUP6 PUSH3 0x6B2 JUMP JUMPDEST PUSH3 0x7EF PUSH1 0x20 DUP4 ADD DUP5 PUSH3 0x6B2 JUMP JUMPDEST SWAP4 SWAP3 POP POP POP JUMP JUMPDEST PUSH1 0x0 PUSH1 0x20 DUP3 ADD SWAP1 POP DUP2 DUP2 SUB PUSH1 0x0 DUP4 ADD MSTORE PUSH3 0x812 DUP2 DUP5 PUSH3 0x6FA JUMP JUMPDEST SWAP1 POP SWAP3 SWAP2 POP POP JUMP JUMPDEST PUSH1 0x0 PUSH1 0x20 DUP3 ADD SWAP1 POP DUP2 DUP2 SUB PUSH1 0x0 DUP4 ADD MSTORE PUSH3 0x835 DUP2 PUSH3 0x73B JUMP JUMPDEST SWAP1 POP SWAP2 SWAP1 POP JUMP JUMPDEST PUSH1 0x0 PUSH1 0x20 DUP3 ADD SWAP1 POP DUP2 DUP2 SUB PUSH1 0x0 DUP4 ADD MSTORE PUSH3 0x857 DUP2 PUSH3 0x762 JUMP JUMPDEST SWAP1 POP SWAP2 SWAP1 POP JUMP JUMPDEST PUSH1 0x0 PUSH1 0x20 DUP3 ADD SWAP1 POP DUP2 DUP2 SUB PUSH1 0x0 DUP4 ADD MSTORE PUSH3 0x879 DUP2 PUSH3 0x789 JUMP JUMPDEST SWAP1 POP SWAP2 SWAP1 POP JUMP JUMPDEST PUSH1 0x0 PUSH3 0x88C PUSH3 0x89F JUMP JUMPDEST SWAP1 POP PUSH3 0x89A DUP3 DUP3 PUSH3 0x9C0 JUMP JUMPDEST SWAP2 SWAP1 POP JUMP JUMPDEST PUSH1 0x0 PUSH1 0x40 MLOAD SWAP1 POP SWAP1 JUMP JUMPDEST PUSH1 0x0 PUSH8 0xFFFFFFFFFFFFFFFF DUP3 GT ISZERO PUSH3 0x8C7 JUMPI PUSH3 0x8C6 PUSH3 0xA54 JUMP JUMPDEST JUMPDEST PUSH3 0x8D2 DUP3 PUSH3 0xA97 JUMP JUMPDEST SWAP1 POP PUSH1 0x20 DUP2 ADD SWAP1 POP SWAP2 SWAP1 POP JUMP JUMPDEST PUSH1 0x0 DUP2 MLOAD SWAP1 POP SWAP2 SWAP1 POP JUMP JUMPDEST PUSH1 0x0 DUP2 MLOAD SWAP1 POP SWAP2 SWAP1 POP JUMP JUMPDEST PUSH1 0x0 DUP2 SWAP1 POP SWAP3 SWAP2 POP POP JUMP JUMPDEST PUSH1 0x0 DUP3 DUP3 MSTORE PUSH1 0x20 DUP3 ADD SWAP1 POP SWAP3 SWAP2 POP POP JUMP JUMPDEST PUSH1 0x0 PUSH3 0x91E DUP3 PUSH3 0x980 JUMP JUMPDEST SWAP2 POP PUSH3 0x92B DUP4 PUSH3 0x980 JUMP JUMPDEST SWAP3 POP DUP3 DUP3 LT ISZERO PUSH3 0x941 JUMPI PUSH3 0x940 PUSH3 0xA25 JUMP JUMPDEST JUMPDEST DUP3 DUP3 SUB SWAP1 POP SWAP3 SWAP2 POP POP JUMP JUMPDEST PUSH1 0x0 PUSH3 0x959 DUP3 PUSH3 0x960 JUMP JUMPDEST SWAP1 POP SWAP2 SWAP1 POP JUMP JUMPDEST PUSH1 0x0 PUSH20 0xFFFFFFFFFFFFFFFFFFFFFFFFFFFFFFFFFFFFFFFF DUP3 AND SWAP1 POP SWAP2 SWAP1 POP JUMP JUMPDEST PUSH1 0x0 DUP2 SWAP1 POP SWAP2 SWAP1 POP JUMP JUMPDEST PUSH1 0x0 JUMPDEST DUP4 DUP2 LT ISZERO PUSH3 0x9AA JUMPI DUP1 DUP3 ADD MLOAD DUP2 DUP5 ADD MSTORE PUSH1 0x20 DUP2 ADD SWAP1 POP PUSH3 0x98D JUMP JUMPDEST DUP4 DUP2 GT ISZERO PUSH3 0x9BA JUMPI PUSH1 0x0 DUP5 DUP5 ADD MSTORE JUMPDEST POP POP POP POP JUMP JUMPDEST PUSH3 0x9CB DUP3 PUSH3 0xA97 JUMP JUMPDEST DUP2 ADD DUP2 DUP2 LT PUSH8 0xFFFFFFFFFFFFFFFF DUP3 GT OR ISZERO PUSH3 0x9ED JUMPI PUSH3 0x9EC PUSH3 0xA54 JUMP JUMPDEST JUMPDEST DUP1 PUSH1 0x40 MSTORE POP POP POP JUMP JUMPDEST PUSH32 0x4E487B7100000000000000000000000000000000000000000000000000000000 PUSH1 0x0 MSTORE PUSH1 0x1 PUSH1 0x4 MSTORE PUSH1 0x24 PUSH1 0x0 REVERT JUMPDEST PUSH32 0x4E487B7100000000000000000000000000000000000000000000000000000000 PUSH1 0x0 MSTORE PUSH1 0x11 PUSH1 0x4 MSTORE PUSH1 0x24 PUSH1 0x0 REVERT JUMPDEST PUSH32 0x4E487B7100000000000000000000000000000000000000000000000000000000 PUSH1 0x0 MSTORE PUSH1 0x41 PUSH1 0x4 MSTORE PUSH1 0x24 PUSH1 0x0 REVERT JUMPDEST PUSH1 0x0 DUP1 REVERT JUMPDEST PUSH1 0x0 DUP1 REVERT JUMPDEST PUSH1 0x0 DUP1 REVERT JUMPDEST PUSH1 0x0 DUP1 REVERT JUMPDEST PUSH1 0x0 PUSH1 0x1F NOT PUSH1 0x1F DUP4 ADD AND SWAP1 POP SWAP2 SWAP1 POP JUMP JUMPDEST PUSH32 0x455243313936373A206E65772061646D696E20697320746865207A65726F2061 PUSH1 0x0 DUP3 ADD MSTORE PUSH32 0x6464726573730000000000000000000000000000000000000000000000000000 PUSH1 0x20 DUP3 ADD MSTORE POP JUMP JUMPDEST PUSH32 0x455243313936373A206E657720696D706C656D656E746174696F6E206973206E PUSH1 0x0 DUP3 ADD MSTORE PUSH32 0x6F74206120636F6E747261637400000000000000000000000000000000000000 PUSH1 0x20 DUP3 ADD MSTORE POP JUMP JUMPDEST PUSH32 0x416464726573733A2064656C65676174652063616C6C20746F206E6F6E2D636F PUSH1 0x0 DUP3 ADD MSTORE PUSH32 0x6E74726163740000000000000000000000000000000000000000000000000000 PUSH1 0x20 DUP3 ADD MSTORE POP JUMP JUMPDEST PUSH3 0xBA0 DUP2 PUSH3 0x94C JUMP JUMPDEST DUP2 EQ PUSH3 0xBAC JUMPI PUSH1 0x0 DUP1 REVERT JUMPDEST POP JUMP JUMPDEST PUSH2 0xA95 DUP1 PUSH3 0xBBF PUSH1 0x0 CODECOPY PUSH1 0x0 RETURN INVALID PUSH1 0x80 PUSH1 0x40 MSTORE PUSH1 0x4 CALLDATASIZE LT PUSH2 0x2D JUMPI PUSH1 0x0 CALLDATALOAD PUSH1 0xE0 SHR DUP1 PUSH4 0x130F679D EQ PUSH2 0x46 JUMPI DUP1 PUSH4 0x3659CFE6 EQ PUSH2 0x83 JUMPI PUSH2 0x3C JUMP JUMPDEST CALLDATASIZE PUSH2 0x3C JUMPI PUSH2 0x3A PUSH2 0xAC JUMP JUMPDEST STOP JUMPDEST PUSH2 0x44 PUSH2 0xAC JUMP JUMPDEST STOP JUMPDEST CALLVALUE DUP1 ISZERO PUSH2 0x52 JUMPI PUSH1 0x0 DUP1 REVERT JUMPDEST POP PUSH2 0x6D PUSH1 0x4 DUP1 CALLDATASIZE SUB DUP2 ADD SWAP1 PUSH2 0x68 SWAP2 SWAP1 PUSH2 0x614 JUMP JUMPDEST PUSH2 0xC6 JUMP JUMPDEST PUSH1 0x40 MLOAD PUSH2 0x7A SWAP2 SWAP1 PUSH2 0x795 JUMP JUMPDEST PUSH1 0x40 MLOAD DUP1 SWAP2 SUB SWAP1 RETURN JUMPDEST CALLVALUE DUP1 ISZERO PUSH2 0x8F JUMPI PUSH1 0x0 DUP1 REVERT JUMPDEST POP PUSH2 0xAA PUSH1 0x4 DUP1 CALLDATASIZE SUB DUP2 ADD SWAP1 PUSH2 0xA5 SWAP2 SWAP1 PUSH2 0x614 JUMP JUMPDEST PUSH2 0xE6 JUMP JUMPDEST STOP JUMPDEST PUSH2 0xB4 PUSH2 0x1FD JUMP JUMPDEST PUSH2 0xC4 PUSH2 0xBF PUSH2 0x1FF JUMP JUMPDEST PUSH2 0x20E JUMP JUMPDEST JUMP JUMPDEST PUSH1 0x0 PUSH1 0x20 MSTORE DUP1 PUSH1 0x0 MSTORE PUSH1 0x40 PUSH1 0x0 KECCAK256 PUSH1 0x0 SWAP2 POP SLOAD SWAP1 PUSH2 0x100 EXP SWAP1 DIV PUSH1 0xFF AND DUP2 JUMP JUMPDEST PUSH2 0xEE PUSH2 0x234 JUMP JUMPDEST PUSH20 0xFFFFFFFFFFFFFFFFFFFFFFFFFFFFFFFFFFFFFFFF AND CALLER PUSH20 0xFFFFFFFFFFFFFFFFFFFFFFFFFFFFFFFFFFFFFFFF AND EQ PUSH2 0x15B JUMPI PUSH1 0x40 MLOAD PUSH32 0x8C379A000000000000000000000000000000000000000000000000000000000 DUP2 MSTORE PUSH1 0x4 ADD PUSH2 0x152 SWAP1 PUSH2 0x812 JUMP JUMPDEST PUSH1 0x40 MLOAD DUP1 SWAP2 SUB SWAP1 REVERT JUMPDEST PUSH2 0x164 DUP2 PUSH2 0x28B JUMP JUMPDEST POP JUMP JUMPDEST PUSH32 0x7E644D79422F17C01E4894B5F4F588D331EBFA28653D42AE832DC59E38C9798F PUSH2 0x190 PUSH2 0x234 JUMP JUMPDEST DUP3 PUSH1 0x40 MLOAD PUSH2 0x19F SWAP3 SWAP2 SWAP1 PUSH2 0x76C JUMP JUMPDEST PUSH1 0x40 MLOAD DUP1 SWAP2 SUB SWAP1 LOG1 PUSH2 0x1B0 DUP2 PUSH2 0x2DA JUMP JUMPDEST POP JUMP JUMPDEST PUSH1 0x60 PUSH2 0x1D8 DUP4 DUP4 PUSH1 0x40 MLOAD DUP1 PUSH1 0x60 ADD PUSH1 0x40 MSTORE DUP1 PUSH1 0x27 DUP2 MSTORE PUSH1 0x20 ADD PUSH2 0xA39 PUSH1 0x27 SWAP2 CODECOPY PUSH2 0x3BB JUMP JUMPDEST SWAP1 POP SWAP3 SWAP2 POP POP JUMP JUMPDEST PUSH1 0x0 DUP2 SWAP1 POP SWAP2 SWAP1 POP JUMP JUMPDEST PUSH1 0x0 DUP1 DUP3 EXTCODESIZE SWAP1 POP PUSH1 0x0 DUP2 GT SWAP2 POP POP SWAP2 SWAP1 POP JUMP JUMPDEST JUMP JUMPDEST PUSH1 0x0 PUSH2 0x209 PUSH2 0x488 JUMP JUMPDEST SWAP1 POP SWAP1 JUMP JUMPDEST CALLDATASIZE PUSH1 0x0 DUP1 CALLDATACOPY PUSH1 0x0 DUP1 CALLDATASIZE PUSH1 0x0 DUP5 GAS DELEGATECALL RETURNDATASIZE PUSH1 0x0 DUP1 RETURNDATACOPY DUP1 PUSH1 0x0 DUP2 EQ PUSH2 0x22F JUMPI RETURNDATASIZE PUSH1 0x0 RETURN JUMPDEST RETURNDATASIZE PUSH1 0x0 REVERT JUMPDEST PUSH1 0x0 PUSH2 0x262 PUSH32 0xB53127684A568B3173AE13B9F8A6016E243E63B6E8EE1178D6A717850B5D6103 PUSH1 0x0 SHL PUSH2 0x1E0 JUMP JUMPDEST PUSH1 0x0 ADD PUSH1 0x0 SWAP1 SLOAD SWAP1 PUSH2 0x100 EXP SWAP1 DIV PUSH20 0xFFFFFFFFFFFFFFFFFFFFFFFFFFFFFFFFFFFFFFFF AND SWAP1 POP SWAP1 JUMP JUMPDEST PUSH2 0x294 DUP2 PUSH2 0x4DF JUMP JUMPDEST DUP1 PUSH20 0xFFFFFFFFFFFFFFFFFFFFFFFFFFFFFFFFFFFFFFFF AND PUSH32 0xBC7CD75A20EE27FD9ADEBAB32041F755214DBC6BFFA90CC0225B39DA2E5C2D3B PUSH1 0x40 MLOAD PUSH1 0x40 MLOAD DUP1 SWAP2 SUB SWAP1 LOG2 POP JUMP JUMPDEST PUSH1 0x0 PUSH20 0xFFFFFFFFFFFFFFFFFFFFFFFFFFFFFFFFFFFFFFFF AND DUP2 PUSH20 0xFFFFFFFFFFFFFFFFFFFFFFFFFFFFFFFFFFFFFFFF AND EQ ISZERO PUSH2 0x34A JUMPI PUSH1 0x40 MLOAD PUSH32 0x8C379A000000000000000000000000000000000000000000000000000000000 DUP2 MSTORE PUSH1 0x4 ADD PUSH2 0x341 SWAP1 PUSH2 0x7D2 JUMP JUMPDEST PUSH1 0x40 MLOAD DUP1 SWAP2 SUB SWAP1 REVERT JUMPDEST DUP1 PUSH2 0x377 PUSH32 0xB53127684A568B3173AE13B9F8A6016E243E63B6E8EE1178D6A717850B5D6103 PUSH1 0x0 SHL PUSH2 0x1E0 JUMP JUMPDEST PUSH1 0x0 ADD PUSH1 0x0 PUSH2 0x100 EXP DUP2 SLOAD DUP2 PUSH20 0xFFFFFFFFFFFFFFFFFFFFFFFFFFFFFFFFFFFFFFFF MUL NOT AND SWAP1 DUP4 PUSH20 0xFFFFFFFFFFFFFFFFFFFFFFFFFFFFFFFFFFFFFFFF AND MUL OR SWAP1 SSTORE POP POP JUMP JUMPDEST PUSH1 0x60 PUSH2 0x3C6 DUP5 PUSH2 0x1EA JUMP JUMPDEST PUSH2 0x405 JUMPI PUSH1 0x40 MLOAD PUSH32 0x8C379A000000000000000000000000000000000000000000000000000000000 DUP2 MSTORE PUSH1 0x4 ADD PUSH2 0x3FC SWAP1 PUSH2 0x832 JUMP JUMPDEST PUSH1 0x40 MLOAD DUP1 SWAP2 SUB SWAP1 REVERT JUMPDEST PUSH1 0x0 DUP1 DUP6 PUSH20 0xFFFFFFFFFFFFFFFFFFFFFFFFFFFFFFFFFFFFFFFF AND DUP6 PUSH1 0x40 MLOAD PUSH2 0x42D SWAP2 SWAP1 PUSH2 0x755 JUMP JUMPDEST PUSH1 0x0 PUSH1 0x40 MLOAD DUP1 DUP4 SUB DUP2 DUP6 GAS DELEGATECALL SWAP2 POP POP RETURNDATASIZE DUP1 PUSH1 0x0 DUP2 EQ PUSH2 0x468 JUMPI PUSH1 0x40 MLOAD SWAP2 POP PUSH1 0x1F NOT PUSH1 0x3F RETURNDATASIZE ADD AND DUP3 ADD PUSH1 0x40 MSTORE RETURNDATASIZE DUP3 MSTORE RETURNDATASIZE PUSH1 0x0 PUSH1 0x20 DUP5 ADD RETURNDATACOPY PUSH2 0x46D JUMP JUMPDEST PUSH1 0x60 SWAP2 POP JUMPDEST POP SWAP2 POP SWAP2 POP PUSH2 0x47D DUP3 DUP3 DUP7 PUSH2 0x598 JUMP JUMPDEST SWAP3 POP POP POP SWAP4 SWAP3 POP POP POP JUMP JUMPDEST PUSH1 0x0 PUSH2 0x4B6 PUSH32 0x360894A13BA1A3210667C828492DB98DCA3E2076CC3735A920A3CA505D382BBC PUSH1 0x0 SHL PUSH2 0x1E0 JUMP JUMPDEST PUSH1 0x0 ADD PUSH1 0x0 SWAP1 SLOAD SWAP1 PUSH2 0x100 EXP SWAP1 DIV PUSH20 0xFFFFFFFFFFFFFFFFFFFFFFFFFFFFFFFFFFFFFFFF AND SWAP1 POP SWAP1 JUMP JUMPDEST PUSH2 0x4E8 DUP2 PUSH2 0x1EA JUMP JUMPDEST PUSH2 0x527 JUMPI PUSH1 0x40 MLOAD PUSH32 0x8C379A000000000000000000000000000000000000000000000000000000000 DUP2 MSTORE PUSH1 0x4 ADD PUSH2 0x51E SWAP1 PUSH2 0x7F2 JUMP JUMPDEST PUSH1 0x40 MLOAD DUP1 SWAP2 SUB SWAP1 REVERT JUMPDEST DUP1 PUSH2 0x554 PUSH32 0x360894A13BA1A3210667C828492DB98DCA3E2076CC3735A920A3CA505D382BBC PUSH1 0x0 SHL PUSH2 0x1E0 JUMP JUMPDEST PUSH1 0x0 ADD PUSH1 0x0 PUSH2 0x100 EXP DUP2 SLOAD DUP2 PUSH20 0xFFFFFFFFFFFFFFFFFFFFFFFFFFFFFFFFFFFFFFFF MUL NOT AND SWAP1 DUP4 PUSH20 0xFFFFFFFFFFFFFFFFFFFFFFFFFFFFFFFFFFFFFFFF AND MUL OR SWAP1 SSTORE POP POP JUMP JUMPDEST PUSH1 0x60 DUP4 ISZERO PUSH2 0x5A8 JUMPI DUP3 SWAP1 POP PUSH2 0x5F8 JUMP JUMPDEST PUSH1 0x0 DUP4 MLOAD GT ISZERO PUSH2 0x5BB JUMPI DUP3 MLOAD DUP1 DUP5 PUSH1 0x20 ADD REVERT JUMPDEST DUP2 PUSH1 0x40 MLOAD PUSH32 0x8C379A000000000000000000000000000000000000000000000000000000000 DUP2 MSTORE PUSH1 0x4 ADD PUSH2 0x5EF SWAP2 SWAP1 PUSH2 0x7B0 JUMP JUMPDEST PUSH1 0x40 MLOAD DUP1 SWAP2 SUB SWAP1 REVERT JUMPDEST SWAP4 SWAP3 POP POP POP JUMP JUMPDEST PUSH1 0x0 DUP2 CALLDATALOAD SWAP1 POP PUSH2 0x60E DUP2 PUSH2 0xA21 JUMP JUMPDEST SWAP3 SWAP2 POP POP JUMP JUMPDEST PUSH1 0x0 PUSH1 0x20 DUP3 DUP5 SUB SLT ISZERO PUSH2 0x62A JUMPI PUSH2 0x629 PUSH2 0x8F5 JUMP JUMPDEST JUMPDEST PUSH1 0x0 PUSH2 0x638 DUP5 DUP3 DUP6 ADD PUSH2 0x5FF JUMP JUMPDEST SWAP2 POP POP SWAP3 SWAP2 POP POP JUMP JUMPDEST PUSH2 0x64A DUP2 PUSH2 0x884 JUMP JUMPDEST DUP3 MSTORE POP POP JUMP JUMPDEST PUSH2 0x659 DUP2 PUSH2 0x896 JUMP JUMPDEST DUP3 MSTORE POP POP JUMP JUMPDEST PUSH1 0x0 PUSH2 0x66A DUP3 PUSH2 0x852 JUMP JUMPDEST PUSH2 0x674 DUP2 DUP6 PUSH2 0x868 JUMP JUMPDEST SWAP4 POP PUSH2 0x684 DUP2 DUP6 PUSH1 0x20 DUP7 ADD PUSH2 0x8C2 JUMP JUMPDEST DUP1 DUP5 ADD SWAP2 POP POP SWAP3 SWAP2 POP POP JUMP JUMPDEST PUSH1 0x0 PUSH2 0x69B DUP3 PUSH2 0x85D JUMP JUMPDEST PUSH2 0x6A5 DUP2 DUP6 PUSH2 0x873 JUMP JUMPDEST SWAP4 POP PUSH2 0x6B5 DUP2 DUP6 PUSH1 0x20 DUP7 ADD PUSH2 0x8C2 JUMP JUMPDEST PUSH2 0x6BE DUP2 PUSH2 0x8FA JUMP JUMPDEST DUP5 ADD SWAP2 POP POP SWAP3 SWAP2 POP POP JUMP JUMPDEST PUSH1 0x0 PUSH2 0x6D6 PUSH1 0x26 DUP4 PUSH2 0x873 JUMP JUMPDEST SWAP2 POP PUSH2 0x6E1 DUP3 PUSH2 0x90B JUMP JUMPDEST PUSH1 0x40 DUP3 ADD SWAP1 POP SWAP2 SWAP1 POP JUMP JUMPDEST PUSH1 0x0 PUSH2 0x6F9 PUSH1 0x2D DUP4 PUSH2 0x873 JUMP JUMPDEST SWAP2 POP PUSH2 0x704 DUP3 PUSH2 0x95A JUMP JUMPDEST PUSH1 0x40 DUP3 ADD SWAP1 POP SWAP2 SWAP1 POP JUMP JUMPDEST PUSH1 0x0 PUSH2 0x71C PUSH1 0x10 DUP4 PUSH2 0x873 JUMP JUMPDEST SWAP2 POP PUSH2 0x727 DUP3 PUSH2 0x9A9 JUMP JUMPDEST PUSH1 0x20 DUP3 ADD SWAP1 POP SWAP2 SWAP1 POP JUMP JUMPDEST PUSH1 0x0 PUSH2 0x73F PUSH1 0x26 DUP4 PUSH2 0x873 JUMP JUMPDEST SWAP2 POP PUSH2 0x74A DUP3 PUSH2 0x9D2 JUMP JUMPDEST PUSH1 0x40 DUP3 ADD SWAP1 POP SWAP2 SWAP1 POP JUMP JUMPDEST PUSH1 0x0 PUSH2 0x761 DUP3 DUP5 PUSH2 0x65F JUMP JUMPDEST SWAP2 POP DUP2 SWAP1 POP SWAP3 SWAP2 POP POP JUMP JUMPDEST PUSH1 0x0 PUSH1 0x40 DUP3 ADD SWAP1 POP PUSH2 0x781 PUSH1 0x0 DUP4 ADD DUP6 PUSH2 0x641 JUMP JUMPDEST PUSH2 0x78E PUSH1 0x20 DUP4 ADD DUP5 PUSH2 0x641 JUMP JUMPDEST SWAP4 SWAP3 POP POP POP JUMP JUMPDEST PUSH1 0x0 PUSH1 0x20 DUP3 ADD SWAP1 POP PUSH2 0x7AA PUSH1 0x0 DUP4 ADD DUP5 PUSH2 0x650 JUMP JUMPDEST SWAP3 SWAP2 POP POP JUMP JUMPDEST PUSH1 0x0 PUSH1 0x20 DUP3 ADD SWAP1 POP DUP2 DUP2 SUB PUSH1 0x0 DUP4 ADD MSTORE PUSH2 0x7CA DUP2 DUP5 PUSH2 0x690 JUMP JUMPDEST SWAP1 POP SWAP3 SWAP2 POP POP JUMP JUMPDEST PUSH1 0x0 PUSH1 0x20 DUP3 ADD SWAP1 POP DUP2 DUP2 SUB PUSH1 0x0 DUP4 ADD MSTORE PUSH2 0x7EB DUP2 PUSH2 0x6C9 JUMP JUMPDEST SWAP1 POP SWAP2 SWAP1 POP JUMP JUMPDEST PUSH1 0x0 PUSH1 0x20 DUP3 ADD SWAP1 POP DUP2 DUP2 SUB PUSH1 0x0 DUP4 ADD MSTORE PUSH2 0x80B DUP2 PUSH2 0x6EC JUMP JUMPDEST SWAP1 POP SWAP2 SWAP1 POP JUMP JUMPDEST PUSH1 0x0 PUSH1 0x20 DUP3 ADD SWAP1 POP DUP2 DUP2 SUB PUSH1 0x0 DUP4 ADD MSTORE PUSH2 0x82B DUP2 PUSH2 0x70F JUMP JUMPDEST SWAP1 POP SWAP2 SWAP1 POP JUMP JUMPDEST PUSH1 0x0 PUSH1 0x20 DUP3 ADD SWAP1 POP DUP2 DUP2 SUB PUSH1 0x0 DUP4 ADD MSTORE PUSH2 0x84B DUP2 PUSH2 0x732 JUMP JUMPDEST SWAP1 POP SWAP2 SWAP1 POP JUMP JUMPDEST PUSH1 0x0 DUP2 MLOAD SWAP1 POP SWAP2 SWAP1 POP JUMP JUMPDEST PUSH1 0x0 DUP2 MLOAD SWAP1 POP SWAP2 SWAP1 POP JUMP JUMPDEST PUSH1 0x0 DUP2 SWAP1 POP SWAP3 SWAP2 POP POP JUMP JUMPDEST PUSH1 0x0 DUP3 DUP3 MSTORE PUSH1 0x20 DUP3 ADD SWAP1 POP SWAP3 SWAP2 POP POP JUMP JUMPDEST PUSH1 0x0 PUSH2 0x88F DUP3 PUSH2 0x8A2 JUMP JUMPDEST SWAP1 POP SWAP2 SWAP1 POP JUMP JUMPDEST PUSH1 0x0 DUP2 ISZERO ISZERO SWAP1 POP SWAP2 SWAP1 POP JUMP JUMPDEST PUSH1 0x0 PUSH20 0xFFFFFFFFFFFFFFFFFFFFFFFFFFFFFFFFFFFFFFFF DUP3 AND SWAP1 POP SWAP2 SWAP1 POP JUMP JUMPDEST PUSH1 0x0 JUMPDEST DUP4 DUP2 LT ISZERO PUSH2 0x8E0 JUMPI DUP1 DUP3 ADD MLOAD DUP2 DUP5 ADD MSTORE PUSH1 0x20 DUP2 ADD SWAP1 POP PUSH2 0x8C5 JUMP JUMPDEST DUP4 DUP2 GT ISZERO PUSH2 0x8EF JUMPI PUSH1 0x0 DUP5 DUP5 ADD MSTORE JUMPDEST POP POP POP POP JUMP JUMPDEST PUSH1 0x0 DUP1 REVERT JUMPDEST PUSH1 0x0 PUSH1 0x1F NOT PUSH1 0x1F DUP4 ADD AND SWAP1 POP SWAP2 SWAP1 POP JUMP JUMPDEST PUSH32 0x455243313936373A206E65772061646D696E20697320746865207A65726F2061 PUSH1 0x0 DUP3 ADD MSTORE PUSH32 0x6464726573730000000000000000000000000000000000000000000000000000 PUSH1 0x20 DUP3 ADD MSTORE POP JUMP JUMPDEST PUSH32 0x455243313936373A206E657720696D706C656D656E746174696F6E206973206E PUSH1 0x0 DUP3 ADD MSTORE PUSH32 0x6F74206120636F6E747261637400000000000000000000000000000000000000 PUSH1 0x20 DUP3 ADD MSTORE POP JUMP JUMPDEST PUSH32 0x496E76616C6964206F70657261746F7200000000000000000000000000000000 PUSH1 0x0 DUP3 ADD MSTORE POP JUMP JUMPDEST PUSH32 0x416464726573733A2064656C65676174652063616C6C20746F206E6F6E2D636F PUSH1 0x0 DUP3 ADD MSTORE PUSH32 0x6E74726163740000000000000000000000000000000000000000000000000000 PUSH1 0x20 DUP3 ADD MSTORE POP JUMP JUMPDEST PUSH2 0xA2A DUP2 PUSH2 0x884 JUMP JUMPDEST DUP2 EQ PUSH2 0xA35 JUMPI PUSH1 0x0 DUP1 REVERT JUMPDEST POP JUMP INVALID COINBASE PUSH5 0x6472657373 GASPRICE KECCAK256 PUSH13 0x6F772D6C6576656C2064656C65 PUSH8 0x6174652063616C6C KECCAK256 PUSH7 0x61696C6564A264 PUSH10 0x706673582212207D9CA0 SWAP3 JUMPI 0x2C CODECOPY EXTCODEHASH PUSH27 0x9C42B40D6F5BA04FFC093FA85C85CEBAA2F05BFBC7726C64736F6C PUSH4 0x43000807 STOP CALLER COINBASE PUSH5 0x6472657373 GASPRICE KECCAK256 PUSH13 0x6F772D6C6576656C2064656C65 PUSH8 0x6174652063616C6C KECCAK256 PUSH7 0x61696C65640000 "
		},
		"gasEstimates": {
			"creation": {
				"codeDepositCost": "541800",
				"executionCost": "infinite",
				"totalCost": "infinite"
			},
			"external": {
				"": "infinite",
				"committee(address)": "2823",
				"upgradeTo(address)": "infinite"
			}
		},
		"methodIdentifiers": {
			"committee(address)": "130f679d",
			"upgradeTo(address)": "3659cfe6"
		}
	},
	"abi": [
		{
			"inputs": [
				{
					"internalType": "address",
					"name": "_logic",
					"type": "address"
				},
				{
					"internalType": "bytes",
					"name": "_data",
					"type": "bytes"
				}
			],
			"stateMutability": "nonpayable",
			"type": "constructor"
		},
		{
			"anonymous": false,
			"inputs": [
				{
					"indexed": false,
					"internalType": "address",
					"name": "previousAdmin",
					"type": "address"
				},
				{
					"indexed": false,
					"internalType": "address",
					"name": "newAdmin",
					"type": "address"
				}
			],
			"name": "AdminChanged",
			"type": "event"
		},
		{
			"anonymous": false,
			"inputs": [
				{
					"indexed": true,
					"internalType": "address",
					"name": "beacon",
					"type": "address"
				}
			],
			"name": "BeaconUpgraded",
			"type": "event"
		},
		{
			"anonymous": false,
			"inputs": [
				{
					"indexed": true,
					"internalType": "address",
					"name": "implementation",
					"type": "address"
				}
			],
			"name": "Upgraded",
			"type": "event"
		},
		{
			"stateMutability": "payable",
			"type": "fallback"
		},
		{
			"inputs": [
				{
					"internalType": "address",
					"name": "",
					"type": "address"
				}
			],
			"name": "committee",
			"outputs": [
				{
					"internalType": "bool",
					"name": "",
					"type": "bool"
				}
			],
			"stateMutability": "view",
			"type": "function"
		},
		{
			"inputs": [
				{
					"internalType": "address",
					"name": "newImplementation",
					"type": "address"
				}
			],
			"name": "upgradeTo",
			"outputs": [],
			"stateMutability": "nonpayable",
			"type": "function"
		},
		{
			"stateMutability": "payable",
			"type": "receive"
		}
	]
}