{
	"data": {
		"bytecode": {
			"linkReferences": {},
			"object": "608060405260008060006101000a81548160ff021916908315150217905550600060045573eeeeeeeeeeeeeeeeeeeeeeeeeeeeeeeeeeeeeeee600560016101000a81548173ffffffffffffffffffffffffffffffffffffffff021916908373ffffffffffffffffffffffffffffffffffffffff160217905550655af3107a40006006556040518060400160405280600481526020017f76312e300000000000000000000000000000000000000000000000000000000081525060079080519060200190620000cf9291906200025e565b50348015620000dd57600080fd5b50604051620052a3380380620052a38339818101604052810190620001039190620003d3565b60005b81518110156200025657600860008383815181106200012a5762000129620005d2565b5b602002602001015173ffffffffffffffffffffffffffffffffffffffff1673ffffffffffffffffffffffffffffffffffffffff16815260200190815260200160002060010160009054906101000a900460ff166200024057604051806040016040528060045481526020016001151581525060086000848481518110620001b657620001b5620005d2565b5b602002602001015173ffffffffffffffffffffffffffffffffffffffff1673ffffffffffffffffffffffffffffffffffffffff1681526020019081526020016000206000820151816000015560208201518160010160006101000a81548160ff021916908315150217905550905050600460008154809291906200023a9062000526565b91905055505b80806200024d9062000526565b91505062000106565b50506200066f565b8280546200026c90620004ba565b90600052602060002090601f016020900481019282620002905760008555620002dc565b82601f10620002ab57805160ff1916838001178555620002dc565b82800160010185558215620002dc579182015b82811115620002db578251825591602001919060010190620002be565b5b509050620002eb9190620002ef565b5090565b5b808211156200030a576000816000905550600101620002f0565b5090565b6000620003256200031f846200044d565b62000424565b905080838252602082019050828560208602820111156200034b576200034a62000635565b5b60005b858110156200037f578162000364888262000389565b8452602084019350602083019250506001810190506200034e565b5050509392505050565b6000815190506200039a8162000655565b92915050565b600082601f830112620003b857620003b762000630565b5b8151620003ca8482602086016200030e565b91505092915050565b600060208284031215620003ec57620003eb6200063f565b5b600082015167ffffffffffffffff8111156200040d576200040c6200063a565b5b6200041b84828501620003a0565b91505092915050565b60006200043062000443565b90506200043e8282620004f0565b919050565b6000604051905090565b600067ffffffffffffffff8211156200046b576200046a62000601565b5b602082029050602081019050919050565b6000620004898262000490565b9050919050565b600073ffffffffffffffffffffffffffffffffffffffff82169050919050565b6000819050919050565b60006002820490506001821680620004d357607f821691505b60208210811415620004ea57620004e9620005a3565b5b50919050565b620004fb8262000644565b810181811067ffffffffffffffff821117156200051d576200051c62000601565b5b80604052505050565b60006200053382620004b0565b91507fffffffffffffffffffffffffffffffffffffffffffffffffffffffffffffffff82141562000569576200056862000574565b5b600182019050919050565b7f4e487b7100000000000000000000000000000000000000000000000000000000600052601160045260246000fd5b7f4e487b7100000000000000000000000000000000000000000000000000000000600052602260045260246000fd5b7f4e487b7100000000000000000000000000000000000000000000000000000000600052603260045260246000fd5b7f4e487b7100000000000000000000000000000000000000000000000000000000600052604160045260246000fd5b600080fd5b600080fd5b600080fd5b600080fd5b6000601f19601f8301169050919050565b62000660816200047c565b81146200066c57600080fd5b50565b614c24806200067f6000396000f3fe6080604052600436106101815760003560e01c806385a383d0116100d1578063bbb82d891161008a578063f3fef3a311610064578063f3fef3a31461056e578063f6e548e914610597578063f7888aec146105c0578063fcfff16f146105fd57610181565b8063bbb82d89146104fe578063beabacc814610529578063e50381fc1461055257610181565b806385a383d0146103f05780638674df8c146104195780639f581b8814610456578063ace43d9d1461047f578063b6fb39d5146104a8578063baf0bfd3146104d357610181565b80632e517e9b1161013e578063501145f911610118578063501145f914610324578063557bb0381461034d578063566887001461038a5780637669c35f146103b357610181565b80632e517e9b146102b95780632ee79ded146102e457806338046217146102fb57610181565b806302afc34f146101865780630bd95138146101af578063129ed395146101ec578063130f679d14610215578063194756af14610253578063236e0e401461027c575b600080fd5b34801561019257600080fd5b506101ad60048036038101906101a89190613a05565b610628565b005b3480156101bb57600080fd5b506101d660048036038101906101d191906137e9565b610821565b6040516101e39190614012565b60405180910390f35b3480156101f857600080fd5b50610213600480360381019061020e9190613577565b610978565b005b34801561022157600080fd5b5061023c60048036038101906102379190613577565b610ad0565b60405161024a929190614278565b60405180910390f35b34801561025f57600080fd5b5061027a6004803603810190610275919061365a565b610b01565b005b34801561028857600080fd5b506102a3600480360381019061029e9190613577565b610b0b565b6040516102b09190614012565b60405180910390f35b3480156102c557600080fd5b506102ce610b2b565b6040516102db919061402d565b60405180910390f35b3480156102f057600080fd5b506102f9610b31565b005b34801561030757600080fd5b50610322600480360381019061031d9190613577565b610b5a565b005b34801561033057600080fd5b5061034b60048036038101906103469190613735565b610c8b565b005b34801561035957600080fd5b50610374600480360381019061036f91906136b4565b610da7565b6040516103819190614048565b60405180910390f35b34801561039657600080fd5b506103b160048036038101906103ac91906139c5565b610e84565b005b3480156103bf57600080fd5b506103da60048036038101906103d59190613577565b611136565b6040516103e79190614012565b60405180910390f35b3480156103fc57600080fd5b5061041760048036038101906104129190613945565b611156565b005b34801561042557600080fd5b50610440600480360381019061043b91906138e5565b6111b1565b60405161044d9190614048565b60405180910390f35b34801561046257600080fd5b5061047d60048036038101906104789190613577565b611277565b005b34801561048b57600080fd5b506104a660048036038101906104a19190613b1c565b61127a565b005b3480156104b457600080fd5b506104bd611701565b6040516104ca919061420a565b60405180910390f35b3480156104df57600080fd5b506104e8611707565b6040516104f59190613f97565b60405180910390f35b34801561050a57600080fd5b5061051361172d565b6040516105209190614012565b60405180910390f35b34801561053557600080fd5b50610550600480360381019061054b9190613972565b611740565b005b61056c60048036038101906105679190613aa4565b6119f9565b005b34801561057a57600080fd5b50610595600480360381019061059091906139c5565b611ab8565b005b3480156105a357600080fd5b506105be60048036038101906105b99190613735565b611cef565b005b3480156105cc57600080fd5b506105e760048036038101906105e291906135a4565b611e03565b6040516105f4919061420a565b60405180910390f35b34801561060957600080fd5b50610612611e28565b60405161061f9190614012565b60405180910390f35b600654831061066c576040517f08c379a00000000000000000000000000000000000000000000000000000000081526004016106639061412a565b60405180910390fd5b600a60008573ffffffffffffffffffffffffffffffffffffffff1673ffffffffffffffffffffffffffffffffffffffff16815260200190815260200160002060009054906101000a900460ff166106f8576040517f08c379a00000000000000000000000000000000000000000000000000000000081526004016106ef9061410a565b60405180910390fd5b8373ffffffffffffffffffffffffffffffffffffffff166323b872dd3330866040518463ffffffff1660e01b815260040161073593929190613fb2565b602060405180830381600087803b15801561074f57600080fd5b505af1158015610763573d6000803e3d6000fd5b505050506040513d601f19601f82011682018060405250810190610787919061362d565b6107c6576040517f08c379a00000000000000000000000000000000000000000000000000000000081526004016107bd9061416a565b60405180910390fd5b823373ffffffffffffffffffffffffffffffffffffffff167fd575ae283b17b524082c4c985d3b6fc0112317b0a5bb42273729c8ab38417889438786866040516108139493929190614225565b60405180910390a350505050565b6000806108718b8b8080601f016020809104026020016040519081016040528093929190818152602001838380828437600081840152601f19601f82011690508083019250505050505050611e39565b905060006108c28a8a8080601f016020809104026020016040519081016040528093929190818152602001838380828437600081840152601f19601f82011690508083019250505050505050611e39565b9050600061091387878080601f016020809104026020016040519081016040528093929190818152602001838380828437600081840152601f19601f82011690508083019250505050505050611fc1565b905061096683838b8b8080601f016020809104026020016040519081016040528093929190818152602001838380828437600081840152601f19601f82011690508083019250505050505050848961209f565b93505050509998505050505050505050565b600960008273ffffffffffffffffffffffffffffffffffffffff1673ffffffffffffffffffffffffffffffffffffffff16815260200190815260200160002060009054906101000a900460ff16158015610a1e5750600860008273ffffffffffffffffffffffffffffffffffffffff1673ffffffffffffffffffffffffffffffffffffffff16815260200190815260200160002060010160009054906101000a900460ff165b610a5d576040517f08c379a0000000000000000000000000000000000000000000000000000000008152600401610a549061408a565b60405180910390fd5b6001600960008373ffffffffffffffffffffffffffffffffffffffff1673ffffffffffffffffffffffffffffffffffffffff16815260200190815260200160002060006101000a81548160ff02191690831515021790555060046000815480929190610ac890614785565b919050555050565b60086020528060005260406000206000915090508060000154908060010160009054906101000a900460ff16905082565b8060038190555050565b600a6020528060005260406000206000915054906101000a900460ff1681565b60035481565b60008054906101000a900460ff16156000806101000a81548160ff021916908315150217905550565b600860008273ffffffffffffffffffffffffffffffffffffffff1673ffffffffffffffffffffffffffffffffffffffff16815260200190815260200160002060010160009054906101000a900460ff1615610bea576040517f08c379a0000000000000000000000000000000000000000000000000000000008152600401610be1906140ca565b60405180910390fd5b6040518060400160405280600454815260200160011515815250600860008373ffffffffffffffffffffffffffffffffffffffff1673ffffffffffffffffffffffffffffffffffffffff1681526020019081526020016000206000820151816000015560208201518160010160006101000a81548160ff02191690831515021790555090505060046000815480929190610c83906147e0565b919050555050565b6000610cda87878080601f016020809104026020016040519081016040528093929190818152602001838380828437600081840152601f19601f82011690508083019250505050505050611e39565b90506000610d2b84848080601f016020809104026020016040519081016040528093929190818152602001838380828437600081840152601f19601f82011690508083019250505050505050611fc1565b9050610d8482610d7e88888080601f016020809104026020016040519081016040528093929190818152602001838380828437600081840152601f19601f82011690508083019250505050505050611fc1565b8361230b565b600260006101000a81548160ff0219169083151502179055505050505050505050565b60606000610e4d610dfb87878080601f016020809104026020016040519081016040528093929190818152602001838380828437600081840152601f19601f82011690508083019250505050505050611fc1565b610e4886868080601f016020809104026020016040519081016040528093929190818152602001838380828437600081840152601f19601f82011690508083019250505050505050611fc1565b612462565b905080600001518160200151604051602001610e6a9291906142a1565b604051602081830303815290604052915050949350505050565b8173ffffffffffffffffffffffffffffffffffffffff166323b872dd3330846040518463ffffffff1660e01b8152600401610ec193929190613fb2565b602060405180830381600087803b158015610edb57600080fd5b505af1158015610eef573d6000803e3d6000fd5b505050506040513d601f19601f82011682018060405250810190610f13919061362d565b50610fa381600160003373ffffffffffffffffffffffffffffffffffffffff1673ffffffffffffffffffffffffffffffffffffffff16815260200190815260200160002060008573ffffffffffffffffffffffffffffffffffffffff1673ffffffffffffffffffffffffffffffffffffffff1681526020019081526020016000205461255490919063ffffffff16565b600160003373ffffffffffffffffffffffffffffffffffffffff1673ffffffffffffffffffffffffffffffffffffffff16815260200190815260200160002060008473ffffffffffffffffffffffffffffffffffffffff1673ffffffffffffffffffffffffffffffffffffffff168152602001908152602001600020819055506110b281600160003073ffffffffffffffffffffffffffffffffffffffff1673ffffffffffffffffffffffffffffffffffffffff16815260200190815260200160002060008573ffffffffffffffffffffffffffffffffffffffff1673ffffffffffffffffffffffffffffffffffffffff1681526020019081526020016000205461255490919063ffffffff16565b600160003073ffffffffffffffffffffffffffffffffffffffff1673ffffffffffffffffffffffffffffffffffffffff16815260200190815260200160002060008473ffffffffffffffffffffffffffffffffffffffff1673ffffffffffffffffffffffffffffffffffffffff168152602001908152602001600020819055505050565b60096020528060005260406000206000915054906101000a900460ff1681565b6001600a60008373ffffffffffffffffffffffffffffffffffffffff1673ffffffffffffffffffffffffffffffffffffffff16815260200190815260200160002060006101000a81548160ff02191690831515021790555050565b6060600061120285858080601f016020809104026020016040519081016040528093929190818152602001838380828437600081840152601f19601f82011690508083019250505050505050611e39565b90506000816000015182602001518560405160200161122393929190613efe565b6040516020818303038152906040529050600061123f8261256a565b90508060000151816020015160405160200161125c929190613f6b565b60405160208183030381529060405293505050509392505050565b50565b600281806040019061128c919061432d565b806000019061129b91906142ca565b6040516112a9929190613f3b565b602060405180830381855afa1580156112c6573d6000803e3d6000fd5b5050506040513d601f19601f820116820180604052508101906112e99190613687565b6003541461132c576040517f08c379a00000000000000000000000000000000000000000000000000000000081526004016113239061418a565b60405180910390fd5b60006113c6828060400190611341919061432d565b806000019061135091906142ca565b848060400190611360919061432d565b806020019061136f91906142ca565b86806040019061137f919061432d565b806040019061138e91906142ca565b88806040019061139e919061432d565b80606001906113ad91906142ca565b8a80604001906113bd919061432d565b60800135610821565b905080611408576040517f08c379a00000000000000000000000000000000000000000000000000000000081526004016113ff906140ea565b60405180910390fd5b600061146583806020019061141d91906142ca565b8080601f016020809104026020016040519081016040528093929190818152602001838380828437600081840152601f19601f82011690508083019250505050505050612653565b905060005b81518110156116fb57600560019054906101000a900473ffffffffffffffffffffffffffffffffffffffff1673ffffffffffffffffffffffffffffffffffffffff168282815181106114bf576114be6148c2565b5b60200260200101516040015173ffffffffffffffffffffffffffffffffffffffff1614156115cf578181815181106114fa576114f96148c2565b5b6020026020010151600001514710611547576040517f08c379a000000000000000000000000000000000000000000000000000000000815260040161153e906141ca565b60405180910390fd5b81818151811061155a576115596148c2565b5b60200260200101516020015173ffffffffffffffffffffffffffffffffffffffff166108fc838381518110611592576115916148c2565b5b6020026020010151600001519081150290604051600060405180830381858888f193505050501580156115c9573d6000803e3d6000fd5b506116e8565b600a60008383815181106115e6576115e56148c2565b5b60200260200101516040015173ffffffffffffffffffffffffffffffffffffffff1673ffffffffffffffffffffffffffffffffffffffff16815260200190815260200160002060009054906101000a900460ff16611679576040517f08c379a00000000000000000000000000000000000000000000000000000000081526004016116709061410a565b60405180910390fd5b6116de82828151811061168f5761168e6148c2565b5b6020026020010151604001518383815181106116ae576116ad6148c2565b5b6020026020010151602001518484815181106116cd576116cc6148c2565b5b602002602001015160000151612676565b6116e757600080fd5b5b80806116f3906147e0565b91505061146a565b50505050565b60045481565b600560019054906101000a900473ffffffffffffffffffffffffffffffffffffffff1681565b600260009054906101000a900460ff1681565b60008054906101000a900460ff1661178d576040517f08c379a0000000000000000000000000000000000000000000000000000000008152600401611784906141aa565b60405180910390fd5b6000600160003373ffffffffffffffffffffffffffffffffffffffff1673ffffffffffffffffffffffffffffffffffffffff16815260200190815260200160002060008573ffffffffffffffffffffffffffffffffffffffff1673ffffffffffffffffffffffffffffffffffffffff16815260200190815260200160002054905081811015611851576040517f08c379a0000000000000000000000000000000000000000000000000000000008152600401611848906141aa565b60405180910390fd5b61186482826128b990919063ffffffff16565b600160003373ffffffffffffffffffffffffffffffffffffffff1673ffffffffffffffffffffffffffffffffffffffff16815260200190815260200160002060008673ffffffffffffffffffffffffffffffffffffffff1673ffffffffffffffffffffffffffffffffffffffff1681526020019081526020016000208190555061197382600160008673ffffffffffffffffffffffffffffffffffffffff1673ffffffffffffffffffffffffffffffffffffffff16815260200190815260200160002060008773ffffffffffffffffffffffffffffffffffffffff1673ffffffffffffffffffffffffffffffffffffffff1681526020019081526020016000205461255490919063ffffffff16565b600160008573ffffffffffffffffffffffffffffffffffffffff1673ffffffffffffffffffffffffffffffffffffffff16815260200190815260200160002060008673ffffffffffffffffffffffffffffffffffffffff1673ffffffffffffffffffffffffffffffffffffffff1681526020019081526020016000208190555050505050565b6006543410611a3d576040517f08c379a0000000000000000000000000000000000000000000000000000000008152600401611a349061412a565b60405180910390fd5b343373ffffffffffffffffffffffffffffffffffffffff167fd575ae283b17b524082c4c985d3b6fc0112317b0a5bb42273729c8ab3841788943600560019054906101000a900473ffffffffffffffffffffffffffffffffffffffff168686604051611aac9493929190614225565b60405180910390a35050565b60008054906101000a900460ff16611b05576040517f08c379a0000000000000000000000000000000000000000000000000000000008152600401611afc906141aa565b60405180910390fd5b6000600160003373ffffffffffffffffffffffffffffffffffffffff1673ffffffffffffffffffffffffffffffffffffffff16815260200190815260200160002060008473ffffffffffffffffffffffffffffffffffffffff1673ffffffffffffffffffffffffffffffffffffffff16815260200190815260200160002054905081811015611bc9576040517f08c379a0000000000000000000000000000000000000000000000000000000008152600401611bc0906141aa565b60405180910390fd5b8273ffffffffffffffffffffffffffffffffffffffff1663a9059cbb33846040518363ffffffff1660e01b8152600401611c04929190613fe9565b602060405180830381600087803b158015611c1e57600080fd5b505af1158015611c32573d6000803e3d6000fd5b505050506040513d601f19601f82011682018060405250810190611c56919061362d565b50611c6a82826128b990919063ffffffff16565b600160003373ffffffffffffffffffffffffffffffffffffffff1673ffffffffffffffffffffffffffffffffffffffff16815260200190815260200160002060008573ffffffffffffffffffffffffffffffffffffffff1673ffffffffffffffffffffffffffffffffffffffff16815260200190815260200160002081905550505050565b6000611d3e87878080601f016020809104026020016040519081016040528093929190818152602001838380828437600081840152601f19601f82011690508083019250505050505050611e39565b90506000611d8f84848080601f016020809104026020016040519081016040528093929190818152602001838380828437600081840152601f19601f82011690508083019250505050505050611fc1565b9050611de08287878080601f016020809104026020016040519081016040528093929190818152602001838380828437600081840152601f19601f82011690508083019250505050505050836128cf565b600260006101000a81548160ff0219169083151502179055505050505050505050565b6001602052816000526040600020602052806000526040600020600091509150505481565b60008054906101000a900460ff1681565b611e4161322d565b6000600467ffffffffffffffff811115611e5e57611e5d6148f1565b5b604051908082528060200260200182016040528015611e8c5781602001602082028036833780820191505090505b5090506000602090505b60208251611ea4919061463f565b8111611ec6578084015181830152602081611ebf9190614447565b9050611e96565b5080600081518110611edb57611eda6148c2565b5b60200260200101518260000151600060028110611efb57611efa6148c2565b5b60200201818152505080600181518110611f1857611f176148c2565b5b60200260200101518260000151600160028110611f3857611f376148c2565b5b60200201818152505080600281518110611f5557611f546148c2565b5b60200260200101518260200151600060028110611f7557611f746148c2565b5b60200201818152505080600381518110611f9257611f916148c2565b5b60200260200101518260200151600160028110611fb257611fb16148c2565b5b60200201818152505050919050565b611fc9613253565b6000600267ffffffffffffffff811115611fe657611fe56148f1565b5b6040519080825280602002602001820160405280156120145781602001602082028036833780820191505090505b5090506000602090505b6020825161202c919061463f565b811161204e5780840151818301526020816120479190614447565b905061201e565b5080600081518110612063576120626148c2565b5b602002602001015182600001818152505080600181518110612088576120876148c2565b5b602002602001015182602001818152505050919050565b60008060405180604001604052806000815260200160008152509050600080600190505b6000851461213d576000818616146121235780856120e19190614699565b94506121208361211b8b600001518c602001518660405160200161210793929190613efe565b60405160208183030381529060405261256a565b612462565b92505b600181901b90508180612135906147e0565b9250506120c3565b6000600367ffffffffffffffff81111561215a576121596148f1565b5b60405190808252806020026020018201604052801561219357816020015b612180613253565b8152602001906001900390816121785790505b5090506000600367ffffffffffffffff8111156121b3576121b26148f1565b5b6040519080825280602002602001820160405280156121ec57816020015b6121d961322d565b8152602001906001900390816121d15790505b5090506121f8886128ed565b8260008151811061220c5761220b6148c2565b5b602002602001018190525061224b8b600001518c602001518b60405160200161223793929190613ec5565b60405160208183030381529060405261256a565b8260018151811061225f5761225e6148c2565b5b6020026020010181905250848260028151811061227f5761227e6148c2565b5b602002602001018190525061229261299c565b816000815181106122a6576122a56148c2565b5b602002602001018190525089816001815181106122c6576122c56148c2565b5b60200260200101819052508a816002815181106122e6576122e56148c2565b5b60200260200101819052506122fb8282612a66565b9550505050505095945050505050565b600080600267ffffffffffffffff811115612329576123286148f1565b5b60405190808252806020026020018201604052801561236257816020015b61234f613253565b8152602001906001900390816123475790505b5090506000600267ffffffffffffffff811115612382576123816148f1565b5b6040519080825280602002602001820160405280156123bb57816020015b6123a861322d565b8152602001906001900390816123a05790505b5090506123c7846128ed565b826000815181106123db576123da6148c2565b5b602002602001018190525084826001815181106123fb576123fa6148c2565b5b602002602001018190525061240e61299c565b81600081518110612422576124216148c2565b5b60200260200101819052508581600181518110612442576124416148c2565b5b60200260200101819052506124578282612a66565b925050509392505050565b61246a613253565b61247261326d565b83600001518160006004811061248b5761248a6148c2565b5b6020020181815250508360200151816001600481106124ad576124ac6148c2565b5b6020020181815250508260000151816002600481106124cf576124ce6148c2565b5b6020020181815250508260200151816003600481106124f1576124f06148c2565b5b602002018181525050600060408360808460066107d05a03fa90508061254c576040517f08c379a00000000000000000000000000000000000000000000000000000000081526004016125439061414a565b60405180910390fd5b505092915050565b600081836125629190614447565b905092915050565b612572613253565b60006002836040516125849190613f54565b602060405180830381855afa1580156125a1573d6000803e3d6000fd5b5050506040513d601f19601f820116820180604052508101906125c49190613687565b905060007f30644e72e131a029b85045b68181585d97816a916871ca8d3c208c16d87cfd478260001c6125f79190614833565b905060005b60011561264a5761260c82612e1c565b9050600081111561263657604051806040016040528083815260200182815250935050505061264e565b6001826126439190614447565b91506125fc565b5050505b919050565b606060008280602001905181019061266b91906135e4565b905080915050919050565b600080600160003073ffffffffffffffffffffffffffffffffffffffff1673ffffffffffffffffffffffffffffffffffffffff16815260200190815260200160002060008673ffffffffffffffffffffffffffffffffffffffff1673ffffffffffffffffffffffffffffffffffffffff1681526020019081526020016000205490508281101561270a5760009150506128b2565b61271d83826128b990919063ffffffff16565b600160003073ffffffffffffffffffffffffffffffffffffffff1673ffffffffffffffffffffffffffffffffffffffff16815260200190815260200160002060008773ffffffffffffffffffffffffffffffffffffffff1673ffffffffffffffffffffffffffffffffffffffff1681526020019081526020016000208190555061282c83600160008773ffffffffffffffffffffffffffffffffffffffff1673ffffffffffffffffffffffffffffffffffffffff16815260200190815260200160002060008873ffffffffffffffffffffffffffffffffffffffff1673ffffffffffffffffffffffffffffffffffffffff1681526020019081526020016000205461255490919063ffffffff16565b600160008673ffffffffffffffffffffffffffffffffffffffff1673ffffffffffffffffffffffffffffffffffffffff16815260200190815260200160002060008773ffffffffffffffffffffffffffffffffffffffff1673ffffffffffffffffffffffffffffffffffffffff1681526020019081526020016000208190555060019150505b9392505050565b600081836128c79190614699565b905092915050565b60006128e4846128de8561256a565b8461230b565b90509392505050565b6128f5613253565b6128fe82612ea4565b156129215760405180604001604052806000815260200160008152509050612997565b6040518060400160405280836000015181526020017f30644e72e131a029b85045b68181585d97816a916871ca8d3c208c16d87cfd4784602001516129669190614833565b7f30644e72e131a029b85045b68181585d97816a916871ca8d3c208c16d87cfd476129919190614699565b81525090505b919050565b6129a461322d565b604051806040016040528060405180604001604052807f198e9393920d483a7260bfb731fb5d25f1aa493335a9e71297e485b7aef312c281526020017f1800deef121f1e76426a00665e5c4479674322d4f75edadd46debd5cd992f6ed815250815260200160405180604001604052807f090689d0585ff075ec9e99ad690c3395bc4b313370b38ef355acdadcd122975b81526020017f12c85ea5db8c6deb4aab71808dcb408fe3d1e7690c43d37b4ce6cc0166fa7daa815250815250905090565b60008151835114612aac576040517f08c379a0000000000000000000000000000000000000000000000000000000008152600401612aa3906141ea565b60405180910390fd5b6000835190506000600682612ac1919061463f565b905060008167ffffffffffffffff811115612adf57612ade6148f1565b5b604051908082528060200260200182016040528015612b0d5781602001602082028036833780820191505090505b50905060005b83811015612d9257868181518110612b2e57612b2d6148c2565b5b602002602001015160000151826000600684612b4a919061463f565b612b549190614447565b81518110612b6557612b646148c2565b5b602002602001018181525050868181518110612b8457612b836148c2565b5b602002602001015160200151826001600684612ba0919061463f565b612baa9190614447565b81518110612bbb57612bba6148c2565b5b602002602001018181525050858181518110612bda57612bd96148c2565b5b602002602001015160000151600060028110612bf957612bf86148c2565b5b6020020151826002600684612c0e919061463f565b612c189190614447565b81518110612c2957612c286148c2565b5b602002602001018181525050858181518110612c4857612c476148c2565b5b602002602001015160000151600160028110612c6757612c666148c2565b5b6020020151826003600684612c7c919061463f565b612c869190614447565b81518110612c9757612c966148c2565b5b602002602001018181525050858181518110612cb657612cb56148c2565b5b602002602001015160200151600060028110612cd557612cd46148c2565b5b6020020151826004600684612cea919061463f565b612cf49190614447565b81518110612d0557612d046148c2565b5b602002602001018181525050858181518110612d2457612d236148c2565b5b602002602001015160200151600160028110612d4357612d426148c2565b5b6020020151826005600684612d58919061463f565b612d629190614447565b81518110612d7357612d726148c2565b5b6020026020010181815250508080612d8a906147e0565b915050612b13565b50612d9b61328f565b6000602082602086026020860160086107d05a03fa905080612df2576040517f08c379a0000000000000000000000000000000000000000000000000000000008152600401612de9906140aa565b60405180910390fd5b600082600060018110612e0857612e076148c2565b5b602002015114159550505050505092915050565b6000612e9d7f30644e72e131a029b85045b68181585d97816a916871ca8d3c208c16d87cfd47806003612e7b60037f30644e72e131a029b85045b68181585d97816a916871ca8d3c208c16d87cfd4788612ec49092919063ffffffff16565b612e859190614447565b612e8f9190614833565b612f1290919063ffffffff16565b9050919050565b6000808260000151148015612ebd575060008260200151145b9050919050565b60006040516020810160208152602080820152602060408201528560608201528460808201528360a082015260208260c0836005600019fa612f0557600080fd5b8151925050509392505050565b60006001612f208484613162565b14612f2e576000905061315c565b6000831415612f40576000905061315c565b6003600483612f4f9190614833565b1415612f7f57612f78836004600185612f689190614447565b612f72919061449d565b84612ec4565b905061315c565b6000600183612f8e9190614699565b905060005b6000600283612fa29190614833565b1415612fcb57600282612fb5919061449d565b9150600181612fc49190614447565b9050612f93565b6000600290505b7fffffffffffffffffffffffffffffffffffffffffffffffffffffffffffffffff612ffd8287613162565b146130165760018161300f9190614447565b9050612fd2565b600061303b87600260018761302b9190614447565b613035919061449d565b88612ec4565b9050600061304a888689612ec4565b9050600061305984878a612ec4565b9050600085905060008060008590505b6001156131515785905060009150600091505b838210156130b3576001811415613092576130b3565b61309e8160028e612ec4565b905081806130ab906147e0565b92505061307c565b60008214156130ce57869a505050505050505050505061315c565b6130fc85600184876130e09190614699565b6130ea9190614699565b60026130f69190614521565b8e612ec4565b92508b838461310b919061463f565b6131159190614833565b94508b8388613124919061463f565b61312e9190614833565b96508b858761313d919061463f565b6131479190614833565b9550819350613069565b505050505050505050505b92915050565b6000806131888460026001866131789190614699565b613182919061449d565b85612ec4565b905060008114806131995750600181145b156131a75780915050613227565b6001836131b49190614699565b8114156131e4577fffffffffffffffffffffffffffffffffffffffffffffffffffffffffffffffff915050613227565b6000613225576040517f08c379a000000000000000000000000000000000000000000000000000000000815260040161321c9061406a565b60405180910390fd5b505b92915050565b60405180604001604052806132406132b1565b815260200161324d6132b1565b81525090565b604051806040016040528060008152602001600081525090565b6040518060800160405280600490602082028036833780820191505090505090565b6040518060200160405280600190602082028036833780820191505090505090565b6040518060400160405280600290602082028036833780820191505090505090565b60006132e66132e18461437a565b614355565b905080838252602082019050828560608602820111156133095761330861493e565b5b60005b85811015613339578161331f88826134e9565b84526020840193506060830192505060018101905061330c565b5050509392505050565b6000613356613351846143a6565b614355565b90508281526020810184848401111561337257613371614948565b5b61337d848285614743565b509392505050565b60008135905061339481614b64565b92915050565b6000815190506133a981614b64565b92915050565b6000815190506133be81614b7b565b92915050565b600082601f8301126133d9576133d8614925565b5b81516133e98482602086016132d3565b91505092915050565b60008151905061340181614b92565b92915050565b60008135905061341681614ba9565b92915050565b60008151905061342b81614ba9565b92915050565b60008083601f84011261344757613446614925565b5b8235905067ffffffffffffffff81111561346457613463614920565b5b6020830191508360018202830111156134805761347f61493e565b5b9250929050565b60008135905061349681614bc0565b92915050565b600082601f8301126134b1576134b0614925565b5b81356134c1848260208601613343565b91505092915050565b6000606082840312156134e0576134df61492f565b5b81905092915050565b6000606082840312156134ff576134fe614934565b5b6135096060614355565b9050600061351984828501613562565b600083015250602061352d848285016133af565b60208301525060406135418482850161339a565b60408301525092915050565b60008135905061355c81614bd7565b92915050565b60008151905061357181614bd7565b92915050565b60006020828403121561358d5761358c614952565b5b600061359b84828501613385565b91505092915050565b600080604083850312156135bb576135ba614952565b5b60006135c985828601613385565b92505060206135da85828601613385565b9150509250929050565b6000602082840312156135fa576135f9614952565b5b600082015167ffffffffffffffff8111156136185761361761494d565b5b613624848285016133c4565b91505092915050565b60006020828403121561364357613642614952565b5b6000613651848285016133f2565b91505092915050565b6000602082840312156136705761366f614952565b5b600061367e84828501613407565b91505092915050565b60006020828403121561369d5761369c614952565b5b60006136ab8482850161341c565b91505092915050565b600080600080604085870312156136ce576136cd614952565b5b600085013567ffffffffffffffff8111156136ec576136eb61494d565b5b6136f887828801613431565b9450945050602085013567ffffffffffffffff81111561371b5761371a61494d565b5b61372787828801613431565b925092505092959194509250565b6000806000806000806060878903121561375257613751614952565b5b600087013567ffffffffffffffff8111156137705761376f61494d565b5b61377c89828a01613431565b9650965050602087013567ffffffffffffffff81111561379f5761379e61494d565b5b6137ab89828a01613431565b9450945050604087013567ffffffffffffffff8111156137ce576137cd61494d565b5b6137da89828a01613431565b92509250509295509295509295565b600080600080600080600080600060a08a8c03121561380b5761380a614952565b5b60008a013567ffffffffffffffff8111156138295761382861494d565b5b6138358c828d01613431565b995099505060208a013567ffffffffffffffff8111156138585761385761494d565b5b6138648c828d01613431565b975097505060408a013567ffffffffffffffff8111156138875761388661494d565b5b6138938c828d01613431565b955095505060608a013567ffffffffffffffff8111156138b6576138b561494d565b5b6138c28c828d01613431565b935093505060806138d58c828d0161354d565b9150509295985092959850929598565b6000806000604084860312156138fe576138fd614952565b5b600084013567ffffffffffffffff81111561391c5761391b61494d565b5b61392886828701613431565b9350935050602061393b8682870161354d565b9150509250925092565b60006020828403121561395b5761395a614952565b5b600061396984828501613487565b91505092915050565b60008060006060848603121561398b5761398a614952565b5b600061399986828701613487565b93505060206139aa86828701613385565b92505060406139bb8682870161354d565b9150509250925092565b600080604083850312156139dc576139db614952565b5b60006139ea85828601613487565b92505060206139fb8582860161354d565b9150509250929050565b60008060008060808587031215613a1f57613a1e614952565b5b6000613a2d87828801613487565b9450506020613a3e8782880161354d565b935050604085013567ffffffffffffffff811115613a5f57613a5e61494d565b5b613a6b8782880161349c565b925050606085013567ffffffffffffffff811115613a8c57613a8b61494d565b5b613a988782880161349c565b91505092959194509250565b60008060408385031215613abb57613aba614952565b5b600083013567ffffffffffffffff811115613ad957613ad861494d565b5b613ae58582860161349c565b925050602083013567ffffffffffffffff811115613b0657613b0561494d565b5b613b128582860161349c565b9150509250929050565b600060208284031215613b3257613b31614952565b5b600082013567ffffffffffffffff811115613b5057613b4f61494d565b5b613b5c848285016134ca565b91505092915050565b6000613b718383613e9f565b60208301905092915050565b613b86816146cd565b82525050565b613b95816143e1565b613b9f818461440f565b9250613baa826143d7565b8060005b83811015613bdb578151613bc28782613b65565b9650613bcd83614402565b925050600181019050613bae565b505050505050565b613bec816146f1565b82525050565b613bfb816146fd565b82525050565b6000613c0d838561442b565b9350613c1a838584614743565b82840190509392505050565b6000613c31826143ec565b613c3b818561441a565b9350613c4b818560208601614752565b613c5481614957565b840191505092915050565b6000613c6a826143ec565b613c74818561442b565b9350613c84818560208601614752565b80840191505092915050565b6000613c9b826143f7565b613ca58185614436565b9350613cb5818560208601614752565b613cbe81614957565b840191505092915050565b6000613cd6601d83614436565b9150613ce182614975565b602082019050919050565b6000613cf9600683614436565b9150613d048261499e565b602082019050919050565b6000613d1c601983614436565b9150613d27826149c7565b602082019050919050565b6000613d3f600e83614436565b9150613d4a826149f0565b602082019050919050565b6000613d62601183614436565b9150613d6d82614a19565b602082019050919050565b6000613d85601583614436565b9150613d9082614a42565b602082019050919050565b6000613da8601283614436565b9150613db382614a6b565b602082019050919050565b6000613dcb601183614436565b9150613dd682614a94565b602082019050919050565b6000613dee601383614436565b9150613df982614abd565b602082019050919050565b6000613e11600b83614436565b9150613e1c82614ae6565b602082019050919050565b6000613e34600083614436565b9150613e3f82614b0f565b600082019050919050565b6000613e57601783614436565b9150613e6282614b12565b602082019050919050565b6000613e7a601583614436565b9150613e8582614b3b565b602082019050919050565b613e9981614739565b82525050565b613ea881614739565b82525050565b613ebf613eba82614739565b614829565b82525050565b6000613ed18286613b8c565b604082019150613ee18285613b8c565b604082019150613ef18284613c5f565b9150819050949350505050565b6000613f0a8286613b8c565b604082019150613f1a8285613b8c565b604082019150613f2a8284613eae565b602082019150819050949350505050565b6000613f48828486613c01565b91508190509392505050565b6000613f608284613c5f565b915081905092915050565b6000613f778285613eae565b602082019150613f878284613eae565b6020820191508190509392505050565b6000602082019050613fac6000830184613b7d565b92915050565b6000606082019050613fc76000830186613b7d565b613fd46020830185613b7d565b613fe16040830184613e90565b949350505050565b6000604082019050613ffe6000830185613b7d565b61400b6020830184613e90565b9392505050565b60006020820190506140276000830184613be3565b92915050565b60006020820190506140426000830184613bf2565b92915050565b600060208201905081810360008301526140628184613c26565b905092915050565b6000602082019050818103600083015261408381613cc9565b9050919050565b600060208201905081810360008301526140a381613cec565b9050919050565b600060208201905081810360008301526140c381613d0f565b9050919050565b600060208201905081810360008301526140e381613d32565b9050919050565b6000602082019050818103600083015261410381613d55565b9050919050565b6000602082019050818103600083015261412381613d78565b9050919050565b6000602082019050818103600083015261414381613d9b565b9050919050565b6000602082019050818103600083015261416381613dbe565b9050919050565b6000602082019050818103600083015261418381613de1565b9050919050565b600060208201905081810360008301526141a381613e04565b9050919050565b600060208201905081810360008301526141c381613e27565b9050919050565b600060208201905081810360008301526141e381613e4a565b9050919050565b6000602082019050818103600083015261420381613e6d565b9050919050565b600060208201905061421f6000830184613e90565b92915050565b600060808201905061423a6000830187613e90565b6142476020830186613b7d565b81810360408301526142598185613c90565b9050818103606083015261426d8184613c90565b905095945050505050565b600060408201905061428d6000830185613e90565b61429a6020830184613be3565b9392505050565b60006040820190506142b66000830185613e90565b6142c36020830184613e90565b9392505050565b600080833560016020038436030381126142e7576142e6614939565b5b80840192508235915067ffffffffffffffff8211156143095761430861492a565b5b60208301925060018202360383131561432557614324614943565b5b509250929050565b60008235600160a00383360303811261434957614348614939565b5b80830191505092915050565b600061435f614370565b905061436b82826147af565b919050565b6000604051905090565b600067ffffffffffffffff821115614395576143946148f1565b5b602082029050602081019050919050565b600067ffffffffffffffff8211156143c1576143c06148f1565b5b6143ca82614957565b9050602081019050919050565b6000819050919050565b600060029050919050565b600081519050919050565b600081519050919050565b6000602082019050919050565b600081905092915050565b600082825260208201905092915050565b600081905092915050565b600082825260208201905092915050565b600061445282614739565b915061445d83614739565b9250827fffffffffffffffffffffffffffffffffffffffffffffffffffffffffffffffff0382111561449257614491614864565b5b828201905092915050565b60006144a882614739565b91506144b383614739565b9250826144c3576144c2614893565b5b828204905092915050565b6000808291508390505b6001851115614518578086048111156144f4576144f3614864565b5b60018516156145035780820291505b808102905061451185614968565b94506144d8565b94509492505050565b600061452c82614739565b915061453783614739565b92506145647fffffffffffffffffffffffffffffffffffffffffffffffffffffffffffffffff848461456c565b905092915050565b60008261457c5760019050614638565b8161458a5760009050614638565b81600181146145a057600281146145aa576145d9565b6001915050614638565b60ff8411156145bc576145bb614864565b5b8360020a9150848211156145d3576145d2614864565b5b50614638565b5060208310610133831016604e8410600b841016171561460e5782820a90508381111561460957614608614864565b5b614638565b61461b84848460016144ce565b9250905081840481111561463257614631614864565b5b81810290505b9392505050565b600061464a82614739565b915061465583614739565b9250817fffffffffffffffffffffffffffffffffffffffffffffffffffffffffffffffff048311821515161561468e5761468d614864565b5b828202905092915050565b60006146a482614739565b91506146af83614739565b9250828210156146c2576146c1614864565b5b828203905092915050565b60006146d882614719565b9050919050565b60006146ea82614719565b9050919050565b60008115159050919050565b6000819050919050565b6000614712826146cd565b9050919050565b600073ffffffffffffffffffffffffffffffffffffffff82169050919050565b6000819050919050565b82818337600083830152505050565b60005b83811015614770578082015181840152602081019050614755565b8381111561477f576000848401525b50505050565b600061479082614739565b915060008214156147a4576147a3614864565b5b600182039050919050565b6147b882614957565b810181811067ffffffffffffffff821117156147d7576147d66148f1565b5b80604052505050565b60006147eb82614739565b91507fffffffffffffffffffffffffffffffffffffffffffffffffffffffffffffffff82141561481e5761481d614864565b5b600182019050919050565b6000819050919050565b600061483e82614739565b915061484983614739565b92508261485957614858614893565b5b828206905092915050565b7f4e487b7100000000000000000000000000000000000000000000000000000000600052601160045260246000fd5b7f4e487b7100000000000000000000000000000000000000000000000000000000600052601260045260246000fd5b7f4e487b7100000000000000000000000000000000000000000000000000000000600052603260045260246000fd5b7f4e487b7100000000000000000000000000000000000000000000000000000000600052604160045260246000fd5b600080fd5b600080fd5b600080fd5b600080fd5b600080fd5b600080fd5b600080fd5b600080fd5b600080fd5b600080fd5b600080fd5b6000601f19601f8301169050919050565b60008160011c9050919050565b7f4661696c656420746f2063616c63756c617465206c6567656e6472652e000000600082015250565b7f4c6f636b65640000000000000000000000000000000000000000000000000000600082015250565b7f50616972696e67206f7065726174696f6e206661696c65642e00000000000000600082015250565b7f416c726561647920657869737473000000000000000000000000000000000000600082015250565b7f496e76616c6964207369676e6174757265000000000000000000000000000000600082015250565b7f556e6f70656e6564206173736574204272696467650000000000000000000000600082015250565b7f546f6f206c6974746c65206465706f7369740000000000000000000000000000600082015250565b7f41646420706f696e7473206661696c6564000000000000000000000000000000600082015250565b7f5472616e7366657246726f6d206661696c656400000000000000000000000000600082015250565b7f696e76616c6964206b6579000000000000000000000000000000000000000000600082015250565b50565b7f496e73756666696369656e742065746820746f6b656e73000000000000000000600082015250565b7f506f696e7420636f756e74206d69736d617463682e0000000000000000000000600082015250565b614b6d816146cd565b8114614b7857600080fd5b50565b614b84816146df565b8114614b8f57600080fd5b50565b614b9b816146f1565b8114614ba657600080fd5b50565b614bb2816146fd565b8114614bbd57600080fd5b50565b614bc981614707565b8114614bd457600080fd5b50565b614be081614739565b8114614beb57600080fd5b5056fea2646970667358221220afe0ee8ac29945287cef98e34a0a3ae3a9dc0ca3c06852ca4fd80f50e64306e964736f6c63430008070033",
			"opcodes": "PUSH1 0x80 PUSH1 0x40 MSTORE PUSH1 0x0 DUP1 PUSH1 0x0 PUSH2 0x100 EXP DUP2 SLOAD DUP2 PUSH1 0xFF MUL NOT AND SWAP1 DUP4 ISZERO ISZERO MUL OR SWAP1 SSTORE POP PUSH1 0x0 PUSH1 0x4 SSTORE PUSH20 0xEEEEEEEEEEEEEEEEEEEEEEEEEEEEEEEEEEEEEEEE PUSH1 0x5 PUSH1 0x1 PUSH2 0x100 EXP DUP2 SLOAD DUP2 PUSH20 0xFFFFFFFFFFFFFFFFFFFFFFFFFFFFFFFFFFFFFFFF MUL NOT AND SWAP1 DUP4 PUSH20 0xFFFFFFFFFFFFFFFFFFFFFFFFFFFFFFFFFFFFFFFF AND MUL OR SWAP1 SSTORE POP PUSH6 0x5AF3107A4000 PUSH1 0x6 SSTORE PUSH1 0x40 MLOAD DUP1 PUSH1 0x40 ADD PUSH1 0x40 MSTORE DUP1 PUSH1 0x4 DUP2 MSTORE PUSH1 0x20 ADD PUSH32 0x76312E3000000000000000000000000000000000000000000000000000000000 DUP2 MSTORE POP PUSH1 0x7 SWAP1 DUP1 MLOAD SWAP1 PUSH1 0x20 ADD SWAP1 PUSH3 0xCF SWAP3 SWAP2 SWAP1 PUSH3 0x25E JUMP JUMPDEST POP CALLVALUE DUP1 ISZERO PUSH3 0xDD JUMPI PUSH1 0x0 DUP1 REVERT JUMPDEST POP PUSH1 0x40 MLOAD PUSH3 0x52A3 CODESIZE SUB DUP1 PUSH3 0x52A3 DUP4 CODECOPY DUP2 DUP2 ADD PUSH1 0x40 MSTORE DUP2 ADD SWAP1 PUSH3 0x103 SWAP2 SWAP1 PUSH3 0x3D3 JUMP JUMPDEST PUSH1 0x0 JUMPDEST DUP2 MLOAD DUP2 LT ISZERO PUSH3 0x256 JUMPI PUSH1 0x8 PUSH1 0x0 DUP4 DUP4 DUP2 MLOAD DUP2 LT PUSH3 0x12A JUMPI PUSH3 0x129 PUSH3 0x5D2 JUMP JUMPDEST JUMPDEST PUSH1 0x20 MUL PUSH1 0x20 ADD ADD MLOAD PUSH20 0xFFFFFFFFFFFFFFFFFFFFFFFFFFFFFFFFFFFFFFFF AND PUSH20 0xFFFFFFFFFFFFFFFFFFFFFFFFFFFFFFFFFFFFFFFF AND DUP2 MSTORE PUSH1 0x20 ADD SWAP1 DUP2 MSTORE PUSH1 0x20 ADD PUSH1 0x0 KECCAK256 PUSH1 0x1 ADD PUSH1 0x0 SWAP1 SLOAD SWAP1 PUSH2 0x100 EXP SWAP1 DIV PUSH1 0xFF AND PUSH3 0x240 JUMPI PUSH1 0x40 MLOAD DUP1 PUSH1 0x40 ADD PUSH1 0x40 MSTORE DUP1 PUSH1 0x4 SLOAD DUP2 MSTORE PUSH1 0x20 ADD PUSH1 0x1 ISZERO ISZERO DUP2 MSTORE POP PUSH1 0x8 PUSH1 0x0 DUP5 DUP5 DUP2 MLOAD DUP2 LT PUSH3 0x1B6 JUMPI PUSH3 0x1B5 PUSH3 0x5D2 JUMP JUMPDEST JUMPDEST PUSH1 0x20 MUL PUSH1 0x20 ADD ADD MLOAD PUSH20 0xFFFFFFFFFFFFFFFFFFFFFFFFFFFFFFFFFFFFFFFF AND PUSH20 0xFFFFFFFFFFFFFFFFFFFFFFFFFFFFFFFFFFFFFFFF AND DUP2 MSTORE PUSH1 0x20 ADD SWAP1 DUP2 MSTORE PUSH1 0x20 ADD PUSH1 0x0 KECCAK256 PUSH1 0x0 DUP3 ADD MLOAD DUP2 PUSH1 0x0 ADD SSTORE PUSH1 0x20 DUP3 ADD MLOAD DUP2 PUSH1 0x1 ADD PUSH1 0x0 PUSH2 0x100 EXP DUP2 SLOAD DUP2 PUSH1 0xFF MUL NOT AND SWAP1 DUP4 ISZERO ISZERO MUL OR SWAP1 SSTORE POP SWAP1 POP POP PUSH1 0x4 PUSH1 0x0 DUP2 SLOAD DUP1 SWAP3 SWAP2 SWAP1 PUSH3 0x23A SWAP1 PUSH3 0x526 JUMP JUMPDEST SWAP2 SWAP1 POP SSTORE POP JUMPDEST DUP1 DUP1 PUSH3 0x24D SWAP1 PUSH3 0x526 JUMP JUMPDEST SWAP2 POP POP PUSH3 0x106 JUMP JUMPDEST POP POP PUSH3 0x66F JUMP JUMPDEST DUP3 DUP1 SLOAD PUSH3 0x26C SWAP1 PUSH3 0x4BA JUMP JUMPDEST SWAP1 PUSH1 0x0 MSTORE PUSH1 0x20 PUSH1 0x0 KECCAK256 SWAP1 PUSH1 0x1F ADD PUSH1 0x20 SWAP1 DIV DUP2 ADD SWAP3 DUP3 PUSH3 0x290 JUMPI PUSH1 0x0 DUP6 SSTORE PUSH3 0x2DC JUMP JUMPDEST DUP3 PUSH1 0x1F LT PUSH3 0x2AB JUMPI DUP1 MLOAD PUSH1 0xFF NOT AND DUP4 DUP1 ADD OR DUP6 SSTORE PUSH3 0x2DC JUMP JUMPDEST DUP3 DUP1 ADD PUSH1 0x1 ADD DUP6 SSTORE DUP3 ISZERO PUSH3 0x2DC JUMPI SWAP2 DUP3 ADD JUMPDEST DUP3 DUP2 GT ISZERO PUSH3 0x2DB JUMPI DUP3 MLOAD DUP3 SSTORE SWAP2 PUSH1 0x20 ADD SWAP2 SWAP1 PUSH1 0x1 ADD SWAP1 PUSH3 0x2BE JUMP JUMPDEST JUMPDEST POP SWAP1 POP PUSH3 0x2EB SWAP2 SWAP1 PUSH3 0x2EF JUMP JUMPDEST POP SWAP1 JUMP JUMPDEST JUMPDEST DUP1 DUP3 GT ISZERO PUSH3 0x30A JUMPI PUSH1 0x0 DUP2 PUSH1 0x0 SWAP1 SSTORE POP PUSH1 0x1 ADD PUSH3 0x2F0 JUMP JUMPDEST POP SWAP1 JUMP JUMPDEST PUSH1 0x0 PUSH3 0x325 PUSH3 0x31F DUP5 PUSH3 0x44D JUMP JUMPDEST PUSH3 0x424 JUMP JUMPDEST SWAP1 POP DUP1 DUP4 DUP3 MSTORE PUSH1 0x20 DUP3 ADD SWAP1 POP DUP3 DUP6 PUSH1 0x20 DUP7 MUL DUP3 ADD GT ISZERO PUSH3 0x34B JUMPI PUSH3 0x34A PUSH3 0x635 JUMP JUMPDEST JUMPDEST PUSH1 0x0 JUMPDEST DUP6 DUP2 LT ISZERO PUSH3 0x37F JUMPI DUP2 PUSH3 0x364 DUP9 DUP3 PUSH3 0x389 JUMP JUMPDEST DUP5 MSTORE PUSH1 0x20 DUP5 ADD SWAP4 POP PUSH1 0x20 DUP4 ADD SWAP3 POP POP PUSH1 0x1 DUP2 ADD SWAP1 POP PUSH3 0x34E JUMP JUMPDEST POP POP POP SWAP4 SWAP3 POP POP POP JUMP JUMPDEST PUSH1 0x0 DUP2 MLOAD SWAP1 POP PUSH3 0x39A DUP2 PUSH3 0x655 JUMP JUMPDEST SWAP3 SWAP2 POP POP JUMP JUMPDEST PUSH1 0x0 DUP3 PUSH1 0x1F DUP4 ADD SLT PUSH3 0x3B8 JUMPI PUSH3 0x3B7 PUSH3 0x630 JUMP JUMPDEST JUMPDEST DUP2 MLOAD PUSH3 0x3CA DUP5 DUP3 PUSH1 0x20 DUP7 ADD PUSH3 0x30E JUMP JUMPDEST SWAP2 POP POP SWAP3 SWAP2 POP POP JUMP JUMPDEST PUSH1 0x0 PUSH1 0x20 DUP3 DUP5 SUB SLT ISZERO PUSH3 0x3EC JUMPI PUSH3 0x3EB PUSH3 0x63F JUMP JUMPDEST JUMPDEST PUSH1 0x0 DUP3 ADD MLOAD PUSH8 0xFFFFFFFFFFFFFFFF DUP2 GT ISZERO PUSH3 0x40D JUMPI PUSH3 0x40C PUSH3 0x63A JUMP JUMPDEST JUMPDEST PUSH3 0x41B DUP5 DUP3 DUP6 ADD PUSH3 0x3A0 JUMP JUMPDEST SWAP2 POP POP SWAP3 SWAP2 POP POP JUMP JUMPDEST PUSH1 0x0 PUSH3 0x430 PUSH3 0x443 JUMP JUMPDEST SWAP1 POP PUSH3 0x43E DUP3 DUP3 PUSH3 0x4F0 JUMP JUMPDEST SWAP2 SWAP1 POP JUMP JUMPDEST PUSH1 0x0 PUSH1 0x40 MLOAD SWAP1 POP SWAP1 JUMP JUMPDEST PUSH1 0x0 PUSH8 0xFFFFFFFFFFFFFFFF DUP3 GT ISZERO PUSH3 0x46B JUMPI PUSH3 0x46A PUSH3 0x601 JUMP JUMPDEST JUMPDEST PUSH1 0x20 DUP3 MUL SWAP1 POP PUSH1 0x20 DUP2 ADD SWAP1 POP SWAP2 SWAP1 POP JUMP JUMPDEST PUSH1 0x0 PUSH3 0x489 DUP3 PUSH3 0x490 JUMP JUMPDEST SWAP1 POP SWAP2 SWAP1 POP JUMP JUMPDEST PUSH1 0x0 PUSH20 0xFFFFFFFFFFFFFFFFFFFFFFFFFFFFFFFFFFFFFFFF DUP3 AND SWAP1 POP SWAP2 SWAP1 POP JUMP JUMPDEST PUSH1 0x0 DUP2 SWAP1 POP SWAP2 SWAP1 POP JUMP JUMPDEST PUSH1 0x0 PUSH1 0x2 DUP3 DIV SWAP1 POP PUSH1 0x1 DUP3 AND DUP1 PUSH3 0x4D3 JUMPI PUSH1 0x7F DUP3 AND SWAP2 POP JUMPDEST PUSH1 0x20 DUP3 LT DUP2 EQ ISZERO PUSH3 0x4EA JUMPI PUSH3 0x4E9 PUSH3 0x5A3 JUMP JUMPDEST JUMPDEST POP SWAP2 SWAP1 POP JUMP JUMPDEST PUSH3 0x4FB DUP3 PUSH3 0x644 JUMP JUMPDEST DUP2 ADD DUP2 DUP2 LT PUSH8 0xFFFFFFFFFFFFFFFF DUP3 GT OR ISZERO PUSH3 0x51D JUMPI PUSH3 0x51C PUSH3 0x601 JUMP JUMPDEST JUMPDEST DUP1 PUSH1 0x40 MSTORE POP POP POP JUMP JUMPDEST PUSH1 0x0 PUSH3 0x533 DUP3 PUSH3 0x4B0 JUMP JUMPDEST SWAP2 POP PUSH32 0xFFFFFFFFFFFFFFFFFFFFFFFFFFFFFFFFFFFFFFFFFFFFFFFFFFFFFFFFFFFFFFFF DUP3 EQ ISZERO PUSH3 0x569 JUMPI PUSH3 0x568 PUSH3 0x574 JUMP JUMPDEST JUMPDEST PUSH1 0x1 DUP3 ADD SWAP1 POP SWAP2 SWAP1 POP JUMP JUMPDEST PUSH32 0x4E487B7100000000000000000000000000000000000000000000000000000000 PUSH1 0x0 MSTORE PUSH1 0x11 PUSH1 0x4 MSTORE PUSH1 0x24 PUSH1 0x0 REVERT JUMPDEST PUSH32 0x4E487B7100000000000000000000000000000000000000000000000000000000 PUSH1 0x0 MSTORE PUSH1 0x22 PUSH1 0x4 MSTORE PUSH1 0x24 PUSH1 0x0 REVERT JUMPDEST PUSH32 0x4E487B7100000000000000000000000000000000000000000000000000000000 PUSH1 0x0 MSTORE PUSH1 0x32 PUSH1 0x4 MSTORE PUSH1 0x24 PUSH1 0x0 REVERT JUMPDEST PUSH32 0x4E487B7100000000000000000000000000000000000000000000000000000000 PUSH1 0x0 MSTORE PUSH1 0x41 PUSH1 0x4 MSTORE PUSH1 0x24 PUSH1 0x0 REVERT JUMPDEST PUSH1 0x0 DUP1 REVERT JUMPDEST PUSH1 0x0 DUP1 REVERT JUMPDEST PUSH1 0x0 DUP1 REVERT JUMPDEST PUSH1 0x0 DUP1 REVERT JUMPDEST PUSH1 0x0 PUSH1 0x1F NOT PUSH1 0x1F DUP4 ADD AND SWAP1 POP SWAP2 SWAP1 POP JUMP JUMPDEST PUSH3 0x660 DUP2 PUSH3 0x47C JUMP JUMPDEST DUP2 EQ PUSH3 0x66C JUMPI PUSH1 0x0 DUP1 REVERT JUMPDEST POP JUMP JUMPDEST PUSH2 0x4C24 DUP1 PUSH3 0x67F PUSH1 0x0 CODECOPY PUSH1 0x0 RETURN INVALID PUSH1 0x80 PUSH1 0x40 MSTORE PUSH1 0x4 CALLDATASIZE LT PUSH2 0x181 JUMPI PUSH1 0x0 CALLDATALOAD PUSH1 0xE0 SHR DUP1 PUSH4 0x85A383D0 GT PUSH2 0xD1 JUMPI DUP1 PUSH4 0xBBB82D89 GT PUSH2 0x8A JUMPI DUP1 PUSH4 0xF3FEF3A3 GT PUSH2 0x64 JUMPI DUP1 PUSH4 0xF3FEF3A3 EQ PUSH2 0x56E JUMPI DUP1 PUSH4 0xF6E548E9 EQ PUSH2 0x597 JUMPI DUP1 PUSH4 0xF7888AEC EQ PUSH2 0x5C0 JUMPI DUP1 PUSH4 0xFCFFF16F EQ PUSH2 0x5FD JUMPI PUSH2 0x181 JUMP JUMPDEST DUP1 PUSH4 0xBBB82D89 EQ PUSH2 0x4FE JUMPI DUP1 PUSH4 0xBEABACC8 EQ PUSH2 0x529 JUMPI DUP1 PUSH4 0xE50381FC EQ PUSH2 0x552 JUMPI PUSH2 0x181 JUMP JUMPDEST DUP1 PUSH4 0x85A383D0 EQ PUSH2 0x3F0 JUMPI DUP1 PUSH4 0x8674DF8C EQ PUSH2 0x419 JUMPI DUP1 PUSH4 0x9F581B88 EQ PUSH2 0x456 JUMPI DUP1 PUSH4 0xACE43D9D EQ PUSH2 0x47F JUMPI DUP1 PUSH4 0xB6FB39D5 EQ PUSH2 0x4A8 JUMPI DUP1 PUSH4 0xBAF0BFD3 EQ PUSH2 0x4D3 JUMPI PUSH2 0x181 JUMP JUMPDEST DUP1 PUSH4 0x2E517E9B GT PUSH2 0x13E JUMPI DUP1 PUSH4 0x501145F9 GT PUSH2 0x118 JUMPI DUP1 PUSH4 0x501145F9 EQ PUSH2 0x324 JUMPI DUP1 PUSH4 0x557BB038 EQ PUSH2 0x34D JUMPI DUP1 PUSH4 0x56688700 EQ PUSH2 0x38A JUMPI DUP1 PUSH4 0x7669C35F EQ PUSH2 0x3B3 JUMPI PUSH2 0x181 JUMP JUMPDEST DUP1 PUSH4 0x2E517E9B EQ PUSH2 0x2B9 JUMPI DUP1 PUSH4 0x2EE79DED EQ PUSH2 0x2E4 JUMPI DUP1 PUSH4 0x38046217 EQ PUSH2 0x2FB JUMPI PUSH2 0x181 JUMP JUMPDEST DUP1 PUSH4 0x2AFC34F EQ PUSH2 0x186 JUMPI DUP1 PUSH4 0xBD95138 EQ PUSH2 0x1AF JUMPI DUP1 PUSH4 0x129ED395 EQ PUSH2 0x1EC JUMPI DUP1 PUSH4 0x130F679D EQ PUSH2 0x215 JUMPI DUP1 PUSH4 0x194756AF EQ PUSH2 0x253 JUMPI DUP1 PUSH4 0x236E0E40 EQ PUSH2 0x27C JUMPI JUMPDEST PUSH1 0x0 DUP1 REVERT JUMPDEST CALLVALUE DUP1 ISZERO PUSH2 0x192 JUMPI PUSH1 0x0 DUP1 REVERT JUMPDEST POP PUSH2 0x1AD PUSH1 0x4 DUP1 CALLDATASIZE SUB DUP2 ADD SWAP1 PUSH2 0x1A8 SWAP2 SWAP1 PUSH2 0x3A05 JUMP JUMPDEST PUSH2 0x628 JUMP JUMPDEST STOP JUMPDEST CALLVALUE DUP1 ISZERO PUSH2 0x1BB JUMPI PUSH1 0x0 DUP1 REVERT JUMPDEST POP PUSH2 0x1D6 PUSH1 0x4 DUP1 CALLDATASIZE SUB DUP2 ADD SWAP1 PUSH2 0x1D1 SWAP2 SWAP1 PUSH2 0x37E9 JUMP JUMPDEST PUSH2 0x821 JUMP JUMPDEST PUSH1 0x40 MLOAD PUSH2 0x1E3 SWAP2 SWAP1 PUSH2 0x4012 JUMP JUMPDEST PUSH1 0x40 MLOAD DUP1 SWAP2 SUB SWAP1 RETURN JUMPDEST CALLVALUE DUP1 ISZERO PUSH2 0x1F8 JUMPI PUSH1 0x0 DUP1 REVERT JUMPDEST POP PUSH2 0x213 PUSH1 0x4 DUP1 CALLDATASIZE SUB DUP2 ADD SWAP1 PUSH2 0x20E SWAP2 SWAP1 PUSH2 0x3577 JUMP JUMPDEST PUSH2 0x978 JUMP JUMPDEST STOP JUMPDEST CALLVALUE DUP1 ISZERO PUSH2 0x221 JUMPI PUSH1 0x0 DUP1 REVERT JUMPDEST POP PUSH2 0x23C PUSH1 0x4 DUP1 CALLDATASIZE SUB DUP2 ADD SWAP1 PUSH2 0x237 SWAP2 SWAP1 PUSH2 0x3577 JUMP JUMPDEST PUSH2 0xAD0 JUMP JUMPDEST PUSH1 0x40 MLOAD PUSH2 0x24A SWAP3 SWAP2 SWAP1 PUSH2 0x4278 JUMP JUMPDEST PUSH1 0x40 MLOAD DUP1 SWAP2 SUB SWAP1 RETURN JUMPDEST CALLVALUE DUP1 ISZERO PUSH2 0x25F JUMPI PUSH1 0x0 DUP1 REVERT JUMPDEST POP PUSH2 0x27A PUSH1 0x4 DUP1 CALLDATASIZE SUB DUP2 ADD SWAP1 PUSH2 0x275 SWAP2 SWAP1 PUSH2 0x365A JUMP JUMPDEST PUSH2 0xB01 JUMP JUMPDEST STOP JUMPDEST CALLVALUE DUP1 ISZERO PUSH2 0x288 JUMPI PUSH1 0x0 DUP1 REVERT JUMPDEST POP PUSH2 0x2A3 PUSH1 0x4 DUP1 CALLDATASIZE SUB DUP2 ADD SWAP1 PUSH2 0x29E SWAP2 SWAP1 PUSH2 0x3577 JUMP JUMPDEST PUSH2 0xB0B JUMP JUMPDEST PUSH1 0x40 MLOAD PUSH2 0x2B0 SWAP2 SWAP1 PUSH2 0x4012 JUMP JUMPDEST PUSH1 0x40 MLOAD DUP1 SWAP2 SUB SWAP1 RETURN JUMPDEST CALLVALUE DUP1 ISZERO PUSH2 0x2C5 JUMPI PUSH1 0x0 DUP1 REVERT JUMPDEST POP PUSH2 0x2CE PUSH2 0xB2B JUMP JUMPDEST PUSH1 0x40 MLOAD PUSH2 0x2DB SWAP2 SWAP1 PUSH2 0x402D JUMP JUMPDEST PUSH1 0x40 MLOAD DUP1 SWAP2 SUB SWAP1 RETURN JUMPDEST CALLVALUE DUP1 ISZERO PUSH2 0x2F0 JUMPI PUSH1 0x0 DUP1 REVERT JUMPDEST POP PUSH2 0x2F9 PUSH2 0xB31 JUMP JUMPDEST STOP JUMPDEST CALLVALUE DUP1 ISZERO PUSH2 0x307 JUMPI PUSH1 0x0 DUP1 REVERT JUMPDEST POP PUSH2 0x322 PUSH1 0x4 DUP1 CALLDATASIZE SUB DUP2 ADD SWAP1 PUSH2 0x31D SWAP2 SWAP1 PUSH2 0x3577 JUMP JUMPDEST PUSH2 0xB5A JUMP JUMPDEST STOP JUMPDEST CALLVALUE DUP1 ISZERO PUSH2 0x330 JUMPI PUSH1 0x0 DUP1 REVERT JUMPDEST POP PUSH2 0x34B PUSH1 0x4 DUP1 CALLDATASIZE SUB DUP2 ADD SWAP1 PUSH2 0x346 SWAP2 SWAP1 PUSH2 0x3735 JUMP JUMPDEST PUSH2 0xC8B JUMP JUMPDEST STOP JUMPDEST CALLVALUE DUP1 ISZERO PUSH2 0x359 JUMPI PUSH1 0x0 DUP1 REVERT JUMPDEST POP PUSH2 0x374 PUSH1 0x4 DUP1 CALLDATASIZE SUB DUP2 ADD SWAP1 PUSH2 0x36F SWAP2 SWAP1 PUSH2 0x36B4 JUMP JUMPDEST PUSH2 0xDA7 JUMP JUMPDEST PUSH1 0x40 MLOAD PUSH2 0x381 SWAP2 SWAP1 PUSH2 0x4048 JUMP JUMPDEST PUSH1 0x40 MLOAD DUP1 SWAP2 SUB SWAP1 RETURN JUMPDEST CALLVALUE DUP1 ISZERO PUSH2 0x396 JUMPI PUSH1 0x0 DUP1 REVERT JUMPDEST POP PUSH2 0x3B1 PUSH1 0x4 DUP1 CALLDATASIZE SUB DUP2 ADD SWAP1 PUSH2 0x3AC SWAP2 SWAP1 PUSH2 0x39C5 JUMP JUMPDEST PUSH2 0xE84 JUMP JUMPDEST STOP JUMPDEST CALLVALUE DUP1 ISZERO PUSH2 0x3BF JUMPI PUSH1 0x0 DUP1 REVERT JUMPDEST POP PUSH2 0x3DA PUSH1 0x4 DUP1 CALLDATASIZE SUB DUP2 ADD SWAP1 PUSH2 0x3D5 SWAP2 SWAP1 PUSH2 0x3577 JUMP JUMPDEST PUSH2 0x1136 JUMP JUMPDEST PUSH1 0x40 MLOAD PUSH2 0x3E7 SWAP2 SWAP1 PUSH2 0x4012 JUMP JUMPDEST PUSH1 0x40 MLOAD DUP1 SWAP2 SUB SWAP1 RETURN JUMPDEST CALLVALUE DUP1 ISZERO PUSH2 0x3FC JUMPI PUSH1 0x0 DUP1 REVERT JUMPDEST POP PUSH2 0x417 PUSH1 0x4 DUP1 CALLDATASIZE SUB DUP2 ADD SWAP1 PUSH2 0x412 SWAP2 SWAP1 PUSH2 0x3945 JUMP JUMPDEST PUSH2 0x1156 JUMP JUMPDEST STOP JUMPDEST CALLVALUE DUP1 ISZERO PUSH2 0x425 JUMPI PUSH1 0x0 DUP1 REVERT JUMPDEST POP PUSH2 0x440 PUSH1 0x4 DUP1 CALLDATASIZE SUB DUP2 ADD SWAP1 PUSH2 0x43B SWAP2 SWAP1 PUSH2 0x38E5 JUMP JUMPDEST PUSH2 0x11B1 JUMP JUMPDEST PUSH1 0x40 MLOAD PUSH2 0x44D SWAP2 SWAP1 PUSH2 0x4048 JUMP JUMPDEST PUSH1 0x40 MLOAD DUP1 SWAP2 SUB SWAP1 RETURN JUMPDEST CALLVALUE DUP1 ISZERO PUSH2 0x462 JUMPI PUSH1 0x0 DUP1 REVERT JUMPDEST POP PUSH2 0x47D PUSH1 0x4 DUP1 CALLDATASIZE SUB DUP2 ADD SWAP1 PUSH2 0x478 SWAP2 SWAP1 PUSH2 0x3577 JUMP JUMPDEST PUSH2 0x1277 JUMP JUMPDEST STOP JUMPDEST CALLVALUE DUP1 ISZERO PUSH2 0x48B JUMPI PUSH1 0x0 DUP1 REVERT JUMPDEST POP PUSH2 0x4A6 PUSH1 0x4 DUP1 CALLDATASIZE SUB DUP2 ADD SWAP1 PUSH2 0x4A1 SWAP2 SWAP1 PUSH2 0x3B1C JUMP JUMPDEST PUSH2 0x127A JUMP JUMPDEST STOP JUMPDEST CALLVALUE DUP1 ISZERO PUSH2 0x4B4 JUMPI PUSH1 0x0 DUP1 REVERT JUMPDEST POP PUSH2 0x4BD PUSH2 0x1701 JUMP JUMPDEST PUSH1 0x40 MLOAD PUSH2 0x4CA SWAP2 SWAP1 PUSH2 0x420A JUMP JUMPDEST PUSH1 0x40 MLOAD DUP1 SWAP2 SUB SWAP1 RETURN JUMPDEST CALLVALUE DUP1 ISZERO PUSH2 0x4DF JUMPI PUSH1 0x0 DUP1 REVERT JUMPDEST POP PUSH2 0x4E8 PUSH2 0x1707 JUMP JUMPDEST PUSH1 0x40 MLOAD PUSH2 0x4F5 SWAP2 SWAP1 PUSH2 0x3F97 JUMP JUMPDEST PUSH1 0x40 MLOAD DUP1 SWAP2 SUB SWAP1 RETURN JUMPDEST CALLVALUE DUP1 ISZERO PUSH2 0x50A JUMPI PUSH1 0x0 DUP1 REVERT JUMPDEST POP PUSH2 0x513 PUSH2 0x172D JUMP JUMPDEST PUSH1 0x40 MLOAD PUSH2 0x520 SWAP2 SWAP1 PUSH2 0x4012 JUMP JUMPDEST PUSH1 0x40 MLOAD DUP1 SWAP2 SUB SWAP1 RETURN JUMPDEST CALLVALUE DUP1 ISZERO PUSH2 0x535 JUMPI PUSH1 0x0 DUP1 REVERT JUMPDEST POP PUSH2 0x550 PUSH1 0x4 DUP1 CALLDATASIZE SUB DUP2 ADD SWAP1 PUSH2 0x54B SWAP2 SWAP1 PUSH2 0x3972 JUMP JUMPDEST PUSH2 0x1740 JUMP JUMPDEST STOP JUMPDEST PUSH2 0x56C PUSH1 0x4 DUP1 CALLDATASIZE SUB DUP2 ADD SWAP1 PUSH2 0x567 SWAP2 SWAP1 PUSH2 0x3AA4 JUMP JUMPDEST PUSH2 0x19F9 JUMP JUMPDEST STOP JUMPDEST CALLVALUE DUP1 ISZERO PUSH2 0x57A JUMPI PUSH1 0x0 DUP1 REVERT JUMPDEST POP PUSH2 0x595 PUSH1 0x4 DUP1 CALLDATASIZE SUB DUP2 ADD SWAP1 PUSH2 0x590 SWAP2 SWAP1 PUSH2 0x39C5 JUMP JUMPDEST PUSH2 0x1AB8 JUMP JUMPDEST STOP JUMPDEST CALLVALUE DUP1 ISZERO PUSH2 0x5A3 JUMPI PUSH1 0x0 DUP1 REVERT JUMPDEST POP PUSH2 0x5BE PUSH1 0x4 DUP1 CALLDATASIZE SUB DUP2 ADD SWAP1 PUSH2 0x5B9 SWAP2 SWAP1 PUSH2 0x3735 JUMP JUMPDEST PUSH2 0x1CEF JUMP JUMPDEST STOP JUMPDEST CALLVALUE DUP1 ISZERO PUSH2 0x5CC JUMPI PUSH1 0x0 DUP1 REVERT JUMPDEST POP PUSH2 0x5E7 PUSH1 0x4 DUP1 CALLDATASIZE SUB DUP2 ADD SWAP1 PUSH2 0x5E2 SWAP2 SWAP1 PUSH2 0x35A4 JUMP JUMPDEST PUSH2 0x1E03 JUMP JUMPDEST PUSH1 0x40 MLOAD PUSH2 0x5F4 SWAP2 SWAP1 PUSH2 0x420A JUMP JUMPDEST PUSH1 0x40 MLOAD DUP1 SWAP2 SUB SWAP1 RETURN JUMPDEST CALLVALUE DUP1 ISZERO PUSH2 0x609 JUMPI PUSH1 0x0 DUP1 REVERT JUMPDEST POP PUSH2 0x612 PUSH2 0x1E28 JUMP JUMPDEST PUSH1 0x40 MLOAD PUSH2 0x61F SWAP2 SWAP1 PUSH2 0x4012 JUMP JUMPDEST PUSH1 0x40 MLOAD DUP1 SWAP2 SUB SWAP1 RETURN JUMPDEST PUSH1 0x6 SLOAD DUP4 LT PUSH2 0x66C JUMPI PUSH1 0x40 MLOAD PUSH32 0x8C379A000000000000000000000000000000000000000000000000000000000 DUP2 MSTORE PUSH1 0x4 ADD PUSH2 0x663 SWAP1 PUSH2 0x412A JUMP JUMPDEST PUSH1 0x40 MLOAD DUP1 SWAP2 SUB SWAP1 REVERT JUMPDEST PUSH1 0xA PUSH1 0x0 DUP6 PUSH20 0xFFFFFFFFFFFFFFFFFFFFFFFFFFFFFFFFFFFFFFFF AND PUSH20 0xFFFFFFFFFFFFFFFFFFFFFFFFFFFFFFFFFFFFFFFF AND DUP2 MSTORE PUSH1 0x20 ADD SWAP1 DUP2 MSTORE PUSH1 0x20 ADD PUSH1 0x0 KECCAK256 PUSH1 0x0 SWAP1 SLOAD SWAP1 PUSH2 0x100 EXP SWAP1 DIV PUSH1 0xFF AND PUSH2 0x6F8 JUMPI PUSH1 0x40 MLOAD PUSH32 0x8C379A000000000000000000000000000000000000000000000000000000000 DUP2 MSTORE PUSH1 0x4 ADD PUSH2 0x6EF SWAP1 PUSH2 0x410A JUMP JUMPDEST PUSH1 0x40 MLOAD DUP1 SWAP2 SUB SWAP1 REVERT JUMPDEST DUP4 PUSH20 0xFFFFFFFFFFFFFFFFFFFFFFFFFFFFFFFFFFFFFFFF AND PUSH4 0x23B872DD CALLER ADDRESS DUP7 PUSH1 0x40 MLOAD DUP5 PUSH4 0xFFFFFFFF AND PUSH1 0xE0 SHL DUP2 MSTORE PUSH1 0x4 ADD PUSH2 0x735 SWAP4 SWAP3 SWAP2 SWAP1 PUSH2 0x3FB2 JUMP JUMPDEST PUSH1 0x20 PUSH1 0x40 MLOAD DUP1 DUP4 SUB DUP2 PUSH1 0x0 DUP8 DUP1 EXTCODESIZE ISZERO DUP1 ISZERO PUSH2 0x74F JUMPI PUSH1 0x0 DUP1 REVERT JUMPDEST POP GAS CALL ISZERO DUP1 ISZERO PUSH2 0x763 JUMPI RETURNDATASIZE PUSH1 0x0 DUP1 RETURNDATACOPY RETURNDATASIZE PUSH1 0x0 REVERT JUMPDEST POP POP POP POP PUSH1 0x40 MLOAD RETURNDATASIZE PUSH1 0x1F NOT PUSH1 0x1F DUP3 ADD AND DUP3 ADD DUP1 PUSH1 0x40 MSTORE POP DUP2 ADD SWAP1 PUSH2 0x787 SWAP2 SWAP1 PUSH2 0x362D JUMP JUMPDEST PUSH2 0x7C6 JUMPI PUSH1 0x40 MLOAD PUSH32 0x8C379A000000000000000000000000000000000000000000000000000000000 DUP2 MSTORE PUSH1 0x4 ADD PUSH2 0x7BD SWAP1 PUSH2 0x416A JUMP JUMPDEST PUSH1 0x40 MLOAD DUP1 SWAP2 SUB SWAP1 REVERT JUMPDEST DUP3 CALLER PUSH20 0xFFFFFFFFFFFFFFFFFFFFFFFFFFFFFFFFFFFFFFFF AND PUSH32 0xD575AE283B17B524082C4C985D3B6FC0112317B0A5BB42273729C8AB38417889 NUMBER DUP8 DUP7 DUP7 PUSH1 0x40 MLOAD PUSH2 0x813 SWAP5 SWAP4 SWAP3 SWAP2 SWAP1 PUSH2 0x4225 JUMP JUMPDEST PUSH1 0x40 MLOAD DUP1 SWAP2 SUB SWAP1 LOG3 POP POP POP POP JUMP JUMPDEST PUSH1 0x0 DUP1 PUSH2 0x871 DUP12 DUP12 DUP1 DUP1 PUSH1 0x1F ADD PUSH1 0x20 DUP1 SWAP2 DIV MUL PUSH1 0x20 ADD PUSH1 0x40 MLOAD SWAP1 DUP2 ADD PUSH1 0x40 MSTORE DUP1 SWAP4 SWAP3 SWAP2 SWAP1 DUP2 DUP2 MSTORE PUSH1 0x20 ADD DUP4 DUP4 DUP1 DUP3 DUP5 CALLDATACOPY PUSH1 0x0 DUP2 DUP5 ADD MSTORE PUSH1 0x1F NOT PUSH1 0x1F DUP3 ADD AND SWAP1 POP DUP1 DUP4 ADD SWAP3 POP POP POP POP POP POP POP PUSH2 0x1E39 JUMP JUMPDEST SWAP1 POP PUSH1 0x0 PUSH2 0x8C2 DUP11 DUP11 DUP1 DUP1 PUSH1 0x1F ADD PUSH1 0x20 DUP1 SWAP2 DIV MUL PUSH1 0x20 ADD PUSH1 0x40 MLOAD SWAP1 DUP2 ADD PUSH1 0x40 MSTORE DUP1 SWAP4 SWAP3 SWAP2 SWAP1 DUP2 DUP2 MSTORE PUSH1 0x20 ADD DUP4 DUP4 DUP1 DUP3 DUP5 CALLDATACOPY PUSH1 0x0 DUP2 DUP5 ADD MSTORE PUSH1 0x1F NOT PUSH1 0x1F DUP3 ADD AND SWAP1 POP DUP1 DUP4 ADD SWAP3 POP POP POP POP POP POP POP PUSH2 0x1E39 JUMP JUMPDEST SWAP1 POP PUSH1 0x0 PUSH2 0x913 DUP8 DUP8 DUP1 DUP1 PUSH1 0x1F ADD PUSH1 0x20 DUP1 SWAP2 DIV MUL PUSH1 0x20 ADD PUSH1 0x40 MLOAD SWAP1 DUP2 ADD PUSH1 0x40 MSTORE DUP1 SWAP4 SWAP3 SWAP2 SWAP1 DUP2 DUP2 MSTORE PUSH1 0x20 ADD DUP4 DUP4 DUP1 DUP3 DUP5 CALLDATACOPY PUSH1 0x0 DUP2 DUP5 ADD MSTORE PUSH1 0x1F NOT PUSH1 0x1F DUP3 ADD AND SWAP1 POP DUP1 DUP4 ADD SWAP3 POP POP POP POP POP POP POP PUSH2 0x1FC1 JUMP JUMPDEST SWAP1 POP PUSH2 0x966 DUP4 DUP4 DUP12 DUP12 DUP1 DUP1 PUSH1 0x1F ADD PUSH1 0x20 DUP1 SWAP2 DIV MUL PUSH1 0x20 ADD PUSH1 0x40 MLOAD SWAP1 DUP2 ADD PUSH1 0x40 MSTORE DUP1 SWAP4 SWAP3 SWAP2 SWAP1 DUP2 DUP2 MSTORE PUSH1 0x20 ADD DUP4 DUP4 DUP1 DUP3 DUP5 CALLDATACOPY PUSH1 0x0 DUP2 DUP5 ADD MSTORE PUSH1 0x1F NOT PUSH1 0x1F DUP3 ADD AND SWAP1 POP DUP1 DUP4 ADD SWAP3 POP POP POP POP POP POP POP DUP5 DUP10 PUSH2 0x209F JUMP JUMPDEST SWAP4 POP POP POP POP SWAP10 SWAP9 POP POP POP POP POP POP POP POP POP JUMP JUMPDEST PUSH1 0x9 PUSH1 0x0 DUP3 PUSH20 0xFFFFFFFFFFFFFFFFFFFFFFFFFFFFFFFFFFFFFFFF AND PUSH20 0xFFFFFFFFFFFFFFFFFFFFFFFFFFFFFFFFFFFFFFFF AND DUP2 MSTORE PUSH1 0x20 ADD SWAP1 DUP2 MSTORE PUSH1 0x20 ADD PUSH1 0x0 KECCAK256 PUSH1 0x0 SWAP1 SLOAD SWAP1 PUSH2 0x100 EXP SWAP1 DIV PUSH1 0xFF AND ISZERO DUP1 ISZERO PUSH2 0xA1E JUMPI POP PUSH1 0x8 PUSH1 0x0 DUP3 PUSH20 0xFFFFFFFFFFFFFFFFFFFFFFFFFFFFFFFFFFFFFFFF AND PUSH20 0xFFFFFFFFFFFFFFFFFFFFFFFFFFFFFFFFFFFFFFFF AND DUP2 MSTORE PUSH1 0x20 ADD SWAP1 DUP2 MSTORE PUSH1 0x20 ADD PUSH1 0x0 KECCAK256 PUSH1 0x1 ADD PUSH1 0x0 SWAP1 SLOAD SWAP1 PUSH2 0x100 EXP SWAP1 DIV PUSH1 0xFF AND JUMPDEST PUSH2 0xA5D JUMPI PUSH1 0x40 MLOAD PUSH32 0x8C379A000000000000000000000000000000000000000000000000000000000 DUP2 MSTORE PUSH1 0x4 ADD PUSH2 0xA54 SWAP1 PUSH2 0x408A JUMP JUMPDEST PUSH1 0x40 MLOAD DUP1 SWAP2 SUB SWAP1 REVERT JUMPDEST PUSH1 0x1 PUSH1 0x9 PUSH1 0x0 DUP4 PUSH20 0xFFFFFFFFFFFFFFFFFFFFFFFFFFFFFFFFFFFFFFFF AND PUSH20 0xFFFFFFFFFFFFFFFFFFFFFFFFFFFFFFFFFFFFFFFF AND DUP2 MSTORE PUSH1 0x20 ADD SWAP1 DUP2 MSTORE PUSH1 0x20 ADD PUSH1 0x0 KECCAK256 PUSH1 0x0 PUSH2 0x100 EXP DUP2 SLOAD DUP2 PUSH1 0xFF MUL NOT AND SWAP1 DUP4 ISZERO ISZERO MUL OR SWAP1 SSTORE POP PUSH1 0x4 PUSH1 0x0 DUP2 SLOAD DUP1 SWAP3 SWAP2 SWAP1 PUSH2 0xAC8 SWAP1 PUSH2 0x4785 JUMP JUMPDEST SWAP2 SWAP1 POP SSTORE POP POP JUMP JUMPDEST PUSH1 0x8 PUSH1 0x20 MSTORE DUP1 PUSH1 0x0 MSTORE PUSH1 0x40 PUSH1 0x0 KECCAK256 PUSH1 0x0 SWAP2 POP SWAP1 POP DUP1 PUSH1 0x0 ADD SLOAD SWAP1 DUP1 PUSH1 0x1 ADD PUSH1 0x0 SWAP1 SLOAD SWAP1 PUSH2 0x100 EXP SWAP1 DIV PUSH1 0xFF AND SWAP1 POP DUP3 JUMP JUMPDEST DUP1 PUSH1 0x3 DUP2 SWAP1 SSTORE POP POP JUMP JUMPDEST PUSH1 0xA PUSH1 0x20 MSTORE DUP1 PUSH1 0x0 MSTORE PUSH1 0x40 PUSH1 0x0 KECCAK256 PUSH1 0x0 SWAP2 POP SLOAD SWAP1 PUSH2 0x100 EXP SWAP1 DIV PUSH1 0xFF AND DUP2 JUMP JUMPDEST PUSH1 0x3 SLOAD DUP2 JUMP JUMPDEST PUSH1 0x0 DUP1 SLOAD SWAP1 PUSH2 0x100 EXP SWAP1 DIV PUSH1 0xFF AND ISZERO PUSH1 0x0 DUP1 PUSH2 0x100 EXP DUP2 SLOAD DUP2 PUSH1 0xFF MUL NOT AND SWAP1 DUP4 ISZERO ISZERO MUL OR SWAP1 SSTORE POP JUMP JUMPDEST PUSH1 0x8 PUSH1 0x0 DUP3 PUSH20 0xFFFFFFFFFFFFFFFFFFFFFFFFFFFFFFFFFFFFFFFF AND PUSH20 0xFFFFFFFFFFFFFFFFFFFFFFFFFFFFFFFFFFFFFFFF AND DUP2 MSTORE PUSH1 0x20 ADD SWAP1 DUP2 MSTORE PUSH1 0x20 ADD PUSH1 0x0 KECCAK256 PUSH1 0x1 ADD PUSH1 0x0 SWAP1 SLOAD SWAP1 PUSH2 0x100 EXP SWAP1 DIV PUSH1 0xFF AND ISZERO PUSH2 0xBEA JUMPI PUSH1 0x40 MLOAD PUSH32 0x8C379A000000000000000000000000000000000000000000000000000000000 DUP2 MSTORE PUSH1 0x4 ADD PUSH2 0xBE1 SWAP1 PUSH2 0x40CA JUMP JUMPDEST PUSH1 0x40 MLOAD DUP1 SWAP2 SUB SWAP1 REVERT JUMPDEST PUSH1 0x40 MLOAD DUP1 PUSH1 0x40 ADD PUSH1 0x40 MSTORE DUP1 PUSH1 0x4 SLOAD DUP2 MSTORE PUSH1 0x20 ADD PUSH1 0x1 ISZERO ISZERO DUP2 MSTORE POP PUSH1 0x8 PUSH1 0x0 DUP4 PUSH20 0xFFFFFFFFFFFFFFFFFFFFFFFFFFFFFFFFFFFFFFFF AND PUSH20 0xFFFFFFFFFFFFFFFFFFFFFFFFFFFFFFFFFFFFFFFF AND DUP2 MSTORE PUSH1 0x20 ADD SWAP1 DUP2 MSTORE PUSH1 0x20 ADD PUSH1 0x0 KECCAK256 PUSH1 0x0 DUP3 ADD MLOAD DUP2 PUSH1 0x0 ADD SSTORE PUSH1 0x20 DUP3 ADD MLOAD DUP2 PUSH1 0x1 ADD PUSH1 0x0 PUSH2 0x100 EXP DUP2 SLOAD DUP2 PUSH1 0xFF MUL NOT AND SWAP1 DUP4 ISZERO ISZERO MUL OR SWAP1 SSTORE POP SWAP1 POP POP PUSH1 0x4 PUSH1 0x0 DUP2 SLOAD DUP1 SWAP3 SWAP2 SWAP1 PUSH2 0xC83 SWAP1 PUSH2 0x47E0 JUMP JUMPDEST SWAP2 SWAP1 POP SSTORE POP POP JUMP JUMPDEST PUSH1 0x0 PUSH2 0xCDA DUP8 DUP8 DUP1 DUP1 PUSH1 0x1F ADD PUSH1 0x20 DUP1 SWAP2 DIV MUL PUSH1 0x20 ADD PUSH1 0x40 MLOAD SWAP1 DUP2 ADD PUSH1 0x40 MSTORE DUP1 SWAP4 SWAP3 SWAP2 SWAP1 DUP2 DUP2 MSTORE PUSH1 0x20 ADD DUP4 DUP4 DUP1 DUP3 DUP5 CALLDATACOPY PUSH1 0x0 DUP2 DUP5 ADD MSTORE PUSH1 0x1F NOT PUSH1 0x1F DUP3 ADD AND SWAP1 POP DUP1 DUP4 ADD SWAP3 POP POP POP POP POP POP POP PUSH2 0x1E39 JUMP JUMPDEST SWAP1 POP PUSH1 0x0 PUSH2 0xD2B DUP5 DUP5 DUP1 DUP1 PUSH1 0x1F ADD PUSH1 0x20 DUP1 SWAP2 DIV MUL PUSH1 0x20 ADD PUSH1 0x40 MLOAD SWAP1 DUP2 ADD PUSH1 0x40 MSTORE DUP1 SWAP4 SWAP3 SWAP2 SWAP1 DUP2 DUP2 MSTORE PUSH1 0x20 ADD DUP4 DUP4 DUP1 DUP3 DUP5 CALLDATACOPY PUSH1 0x0 DUP2 DUP5 ADD MSTORE PUSH1 0x1F NOT PUSH1 0x1F DUP3 ADD AND SWAP1 POP DUP1 DUP4 ADD SWAP3 POP POP POP POP POP POP POP PUSH2 0x1FC1 JUMP JUMPDEST SWAP1 POP PUSH2 0xD84 DUP3 PUSH2 0xD7E DUP9 DUP9 DUP1 DUP1 PUSH1 0x1F ADD PUSH1 0x20 DUP1 SWAP2 DIV MUL PUSH1 0x20 ADD PUSH1 0x40 MLOAD SWAP1 DUP2 ADD PUSH1 0x40 MSTORE DUP1 SWAP4 SWAP3 SWAP2 SWAP1 DUP2 DUP2 MSTORE PUSH1 0x20 ADD DUP4 DUP4 DUP1 DUP3 DUP5 CALLDATACOPY PUSH1 0x0 DUP2 DUP5 ADD MSTORE PUSH1 0x1F NOT PUSH1 0x1F DUP3 ADD AND SWAP1 POP DUP1 DUP4 ADD SWAP3 POP POP POP POP POP POP POP PUSH2 0x1FC1 JUMP JUMPDEST DUP4 PUSH2 0x230B JUMP JUMPDEST PUSH1 0x2 PUSH1 0x0 PUSH2 0x100 EXP DUP2 SLOAD DUP2 PUSH1 0xFF MUL NOT AND SWAP1 DUP4 ISZERO ISZERO MUL OR SWAP1 SSTORE POP POP POP POP POP POP POP POP POP JUMP JUMPDEST PUSH1 0x60 PUSH1 0x0 PUSH2 0xE4D PUSH2 0xDFB DUP8 DUP8 DUP1 DUP1 PUSH1 0x1F ADD PUSH1 0x20 DUP1 SWAP2 DIV MUL PUSH1 0x20 ADD PUSH1 0x40 MLOAD SWAP1 DUP2 ADD PUSH1 0x40 MSTORE DUP1 SWAP4 SWAP3 SWAP2 SWAP1 DUP2 DUP2 MSTORE PUSH1 0x20 ADD DUP4 DUP4 DUP1 DUP3 DUP5 CALLDATACOPY PUSH1 0x0 DUP2 DUP5 ADD MSTORE PUSH1 0x1F NOT PUSH1 0x1F DUP3 ADD AND SWAP1 POP DUP1 DUP4 ADD SWAP3 POP POP POP POP POP POP POP PUSH2 0x1FC1 JUMP JUMPDEST PUSH2 0xE48 DUP7 DUP7 DUP1 DUP1 PUSH1 0x1F ADD PUSH1 0x20 DUP1 SWAP2 DIV MUL PUSH1 0x20 ADD PUSH1 0x40 MLOAD SWAP1 DUP2 ADD PUSH1 0x40 MSTORE DUP1 SWAP4 SWAP3 SWAP2 SWAP1 DUP2 DUP2 MSTORE PUSH1 0x20 ADD DUP4 DUP4 DUP1 DUP3 DUP5 CALLDATACOPY PUSH1 0x0 DUP2 DUP5 ADD MSTORE PUSH1 0x1F NOT PUSH1 0x1F DUP3 ADD AND SWAP1 POP DUP1 DUP4 ADD SWAP3 POP POP POP POP POP POP POP PUSH2 0x1FC1 JUMP JUMPDEST PUSH2 0x2462 JUMP JUMPDEST SWAP1 POP DUP1 PUSH1 0x0 ADD MLOAD DUP2 PUSH1 0x20 ADD MLOAD PUSH1 0x40 MLOAD PUSH1 0x20 ADD PUSH2 0xE6A SWAP3 SWAP2 SWAP1 PUSH2 0x42A1 JUMP JUMPDEST PUSH1 0x40 MLOAD PUSH1 0x20 DUP2 DUP4 SUB SUB DUP2 MSTORE SWAP1 PUSH1 0x40 MSTORE SWAP2 POP POP SWAP5 SWAP4 POP POP POP POP JUMP JUMPDEST DUP2 PUSH20 0xFFFFFFFFFFFFFFFFFFFFFFFFFFFFFFFFFFFFFFFF AND PUSH4 0x23B872DD CALLER ADDRESS DUP5 PUSH1 0x40 MLOAD DUP5 PUSH4 0xFFFFFFFF AND PUSH1 0xE0 SHL DUP2 MSTORE PUSH1 0x4 ADD PUSH2 0xEC1 SWAP4 SWAP3 SWAP2 SWAP1 PUSH2 0x3FB2 JUMP JUMPDEST PUSH1 0x20 PUSH1 0x40 MLOAD DUP1 DUP4 SUB DUP2 PUSH1 0x0 DUP8 DUP1 EXTCODESIZE ISZERO DUP1 ISZERO PUSH2 0xEDB JUMPI PUSH1 0x0 DUP1 REVERT JUMPDEST POP GAS CALL ISZERO DUP1 ISZERO PUSH2 0xEEF JUMPI RETURNDATASIZE PUSH1 0x0 DUP1 RETURNDATACOPY RETURNDATASIZE PUSH1 0x0 REVERT JUMPDEST POP POP POP POP PUSH1 0x40 MLOAD RETURNDATASIZE PUSH1 0x1F NOT PUSH1 0x1F DUP3 ADD AND DUP3 ADD DUP1 PUSH1 0x40 MSTORE POP DUP2 ADD SWAP1 PUSH2 0xF13 SWAP2 SWAP1 PUSH2 0x362D JUMP JUMPDEST POP PUSH2 0xFA3 DUP2 PUSH1 0x1 PUSH1 0x0 CALLER PUSH20 0xFFFFFFFFFFFFFFFFFFFFFFFFFFFFFFFFFFFFFFFF AND PUSH20 0xFFFFFFFFFFFFFFFFFFFFFFFFFFFFFFFFFFFFFFFF AND DUP2 MSTORE PUSH1 0x20 ADD SWAP1 DUP2 MSTORE PUSH1 0x20 ADD PUSH1 0x0 KECCAK256 PUSH1 0x0 DUP6 PUSH20 0xFFFFFFFFFFFFFFFFFFFFFFFFFFFFFFFFFFFFFFFF AND PUSH20 0xFFFFFFFFFFFFFFFFFFFFFFFFFFFFFFFFFFFFFFFF AND DUP2 MSTORE PUSH1 0x20 ADD SWAP1 DUP2 MSTORE PUSH1 0x20 ADD PUSH1 0x0 KECCAK256 SLOAD PUSH2 0x2554 SWAP1 SWAP2 SWAP1 PUSH4 0xFFFFFFFF AND JUMP JUMPDEST PUSH1 0x1 PUSH1 0x0 CALLER PUSH20 0xFFFFFFFFFFFFFFFFFFFFFFFFFFFFFFFFFFFFFFFF AND PUSH20 0xFFFFFFFFFFFFFFFFFFFFFFFFFFFFFFFFFFFFFFFF AND DUP2 MSTORE PUSH1 0x20 ADD SWAP1 DUP2 MSTORE PUSH1 0x20 ADD PUSH1 0x0 KECCAK256 PUSH1 0x0 DUP5 PUSH20 0xFFFFFFFFFFFFFFFFFFFFFFFFFFFFFFFFFFFFFFFF AND PUSH20 0xFFFFFFFFFFFFFFFFFFFFFFFFFFFFFFFFFFFFFFFF AND DUP2 MSTORE PUSH1 0x20 ADD SWAP1 DUP2 MSTORE PUSH1 0x20 ADD PUSH1 0x0 KECCAK256 DUP2 SWAP1 SSTORE POP PUSH2 0x10B2 DUP2 PUSH1 0x1 PUSH1 0x0 ADDRESS PUSH20 0xFFFFFFFFFFFFFFFFFFFFFFFFFFFFFFFFFFFFFFFF AND PUSH20 0xFFFFFFFFFFFFFFFFFFFFFFFFFFFFFFFFFFFFFFFF AND DUP2 MSTORE PUSH1 0x20 ADD SWAP1 DUP2 MSTORE PUSH1 0x20 ADD PUSH1 0x0 KECCAK256 PUSH1 0x0 DUP6 PUSH20 0xFFFFFFFFFFFFFFFFFFFFFFFFFFFFFFFFFFFFFFFF AND PUSH20 0xFFFFFFFFFFFFFFFFFFFFFFFFFFFFFFFFFFFFFFFF AND DUP2 MSTORE PUSH1 0x20 ADD SWAP1 DUP2 MSTORE PUSH1 0x20 ADD PUSH1 0x0 KECCAK256 SLOAD PUSH2 0x2554 SWAP1 SWAP2 SWAP1 PUSH4 0xFFFFFFFF AND JUMP JUMPDEST PUSH1 0x1 PUSH1 0x0 ADDRESS PUSH20 0xFFFFFFFFFFFFFFFFFFFFFFFFFFFFFFFFFFFFFFFF AND PUSH20 0xFFFFFFFFFFFFFFFFFFFFFFFFFFFFFFFFFFFFFFFF AND DUP2 MSTORE PUSH1 0x20 ADD SWAP1 DUP2 MSTORE PUSH1 0x20 ADD PUSH1 0x0 KECCAK256 PUSH1 0x0 DUP5 PUSH20 0xFFFFFFFFFFFFFFFFFFFFFFFFFFFFFFFFFFFFFFFF AND PUSH20 0xFFFFFFFFFFFFFFFFFFFFFFFFFFFFFFFFFFFFFFFF AND DUP2 MSTORE PUSH1 0x20 ADD SWAP1 DUP2 MSTORE PUSH1 0x20 ADD PUSH1 0x0 KECCAK256 DUP2 SWAP1 SSTORE POP POP POP JUMP JUMPDEST PUSH1 0x9 PUSH1 0x20 MSTORE DUP1 PUSH1 0x0 MSTORE PUSH1 0x40 PUSH1 0x0 KECCAK256 PUSH1 0x0 SWAP2 POP SLOAD SWAP1 PUSH2 0x100 EXP SWAP1 DIV PUSH1 0xFF AND DUP2 JUMP JUMPDEST PUSH1 0x1 PUSH1 0xA PUSH1 0x0 DUP4 PUSH20 0xFFFFFFFFFFFFFFFFFFFFFFFFFFFFFFFFFFFFFFFF AND PUSH20 0xFFFFFFFFFFFFFFFFFFFFFFFFFFFFFFFFFFFFFFFF AND DUP2 MSTORE PUSH1 0x20 ADD SWAP1 DUP2 MSTORE PUSH1 0x20 ADD PUSH1 0x0 KECCAK256 PUSH1 0x0 PUSH2 0x100 EXP DUP2 SLOAD DUP2 PUSH1 0xFF MUL NOT AND SWAP1 DUP4 ISZERO ISZERO MUL OR SWAP1 SSTORE POP POP JUMP JUMPDEST PUSH1 0x60 PUSH1 0x0 PUSH2 0x1202 DUP6 DUP6 DUP1 DUP1 PUSH1 0x1F ADD PUSH1 0x20 DUP1 SWAP2 DIV MUL PUSH1 0x20 ADD PUSH1 0x40 MLOAD SWAP1 DUP2 ADD PUSH1 0x40 MSTORE DUP1 SWAP4 SWAP3 SWAP2 SWAP1 DUP2 DUP2 MSTORE PUSH1 0x20 ADD DUP4 DUP4 DUP1 DUP3 DUP5 CALLDATACOPY PUSH1 0x0 DUP2 DUP5 ADD MSTORE PUSH1 0x1F NOT PUSH1 0x1F DUP3 ADD AND SWAP1 POP DUP1 DUP4 ADD SWAP3 POP POP POP POP POP POP POP PUSH2 0x1E39 JUMP JUMPDEST SWAP1 POP PUSH1 0x0 DUP2 PUSH1 0x0 ADD MLOAD DUP3 PUSH1 0x20 ADD MLOAD DUP6 PUSH1 0x40 MLOAD PUSH1 0x20 ADD PUSH2 0x1223 SWAP4 SWAP3 SWAP2 SWAP1 PUSH2 0x3EFE JUMP JUMPDEST PUSH1 0x40 MLOAD PUSH1 0x20 DUP2 DUP4 SUB SUB DUP2 MSTORE SWAP1 PUSH1 0x40 MSTORE SWAP1 POP PUSH1 0x0 PUSH2 0x123F DUP3 PUSH2 0x256A JUMP JUMPDEST SWAP1 POP DUP1 PUSH1 0x0 ADD MLOAD DUP2 PUSH1 0x20 ADD MLOAD PUSH1 0x40 MLOAD PUSH1 0x20 ADD PUSH2 0x125C SWAP3 SWAP2 SWAP1 PUSH2 0x3F6B JUMP JUMPDEST PUSH1 0x40 MLOAD PUSH1 0x20 DUP2 DUP4 SUB SUB DUP2 MSTORE SWAP1 PUSH1 0x40 MSTORE SWAP4 POP POP POP POP SWAP4 SWAP3 POP POP POP JUMP JUMPDEST POP JUMP JUMPDEST PUSH1 0x2 DUP2 DUP1 PUSH1 0x40 ADD SWAP1 PUSH2 0x128C SWAP2 SWAP1 PUSH2 0x432D JUMP JUMPDEST DUP1 PUSH1 0x0 ADD SWAP1 PUSH2 0x129B SWAP2 SWAP1 PUSH2 0x42CA JUMP JUMPDEST PUSH1 0x40 MLOAD PUSH2 0x12A9 SWAP3 SWAP2 SWAP1 PUSH2 0x3F3B JUMP JUMPDEST PUSH1 0x20 PUSH1 0x40 MLOAD DUP1 DUP4 SUB DUP2 DUP6 GAS STATICCALL ISZERO DUP1 ISZERO PUSH2 0x12C6 JUMPI RETURNDATASIZE PUSH1 0x0 DUP1 RETURNDATACOPY RETURNDATASIZE PUSH1 0x0 REVERT JUMPDEST POP POP POP PUSH1 0x40 MLOAD RETURNDATASIZE PUSH1 0x1F NOT PUSH1 0x1F DUP3 ADD AND DUP3 ADD DUP1 PUSH1 0x40 MSTORE POP DUP2 ADD SWAP1 PUSH2 0x12E9 SWAP2 SWAP1 PUSH2 0x3687 JUMP JUMPDEST PUSH1 0x3 SLOAD EQ PUSH2 0x132C JUMPI PUSH1 0x40 MLOAD PUSH32 0x8C379A000000000000000000000000000000000000000000000000000000000 DUP2 MSTORE PUSH1 0x4 ADD PUSH2 0x1323 SWAP1 PUSH2 0x418A JUMP JUMPDEST PUSH1 0x40 MLOAD DUP1 SWAP2 SUB SWAP1 REVERT JUMPDEST PUSH1 0x0 PUSH2 0x13C6 DUP3 DUP1 PUSH1 0x40 ADD SWAP1 PUSH2 0x1341 SWAP2 SWAP1 PUSH2 0x432D JUMP JUMPDEST DUP1 PUSH1 0x0 ADD SWAP1 PUSH2 0x1350 SWAP2 SWAP1 PUSH2 0x42CA JUMP JUMPDEST DUP5 DUP1 PUSH1 0x40 ADD SWAP1 PUSH2 0x1360 SWAP2 SWAP1 PUSH2 0x432D JUMP JUMPDEST DUP1 PUSH1 0x20 ADD SWAP1 PUSH2 0x136F SWAP2 SWAP1 PUSH2 0x42CA JUMP JUMPDEST DUP7 DUP1 PUSH1 0x40 ADD SWAP1 PUSH2 0x137F SWAP2 SWAP1 PUSH2 0x432D JUMP JUMPDEST DUP1 PUSH1 0x40 ADD SWAP1 PUSH2 0x138E SWAP2 SWAP1 PUSH2 0x42CA JUMP JUMPDEST DUP9 DUP1 PUSH1 0x40 ADD SWAP1 PUSH2 0x139E SWAP2 SWAP1 PUSH2 0x432D JUMP JUMPDEST DUP1 PUSH1 0x60 ADD SWAP1 PUSH2 0x13AD SWAP2 SWAP1 PUSH2 0x42CA JUMP JUMPDEST DUP11 DUP1 PUSH1 0x40 ADD SWAP1 PUSH2 0x13BD SWAP2 SWAP1 PUSH2 0x432D JUMP JUMPDEST PUSH1 0x80 ADD CALLDATALOAD PUSH2 0x821 JUMP JUMPDEST SWAP1 POP DUP1 PUSH2 0x1408 JUMPI PUSH1 0x40 MLOAD PUSH32 0x8C379A000000000000000000000000000000000000000000000000000000000 DUP2 MSTORE PUSH1 0x4 ADD PUSH2 0x13FF SWAP1 PUSH2 0x40EA JUMP JUMPDEST PUSH1 0x40 MLOAD DUP1 SWAP2 SUB SWAP1 REVERT JUMPDEST PUSH1 0x0 PUSH2 0x1465 DUP4 DUP1 PUSH1 0x20 ADD SWAP1 PUSH2 0x141D SWAP2 SWAP1 PUSH2 0x42CA JUMP JUMPDEST DUP1 DUP1 PUSH1 0x1F ADD PUSH1 0x20 DUP1 SWAP2 DIV MUL PUSH1 0x20 ADD PUSH1 0x40 MLOAD SWAP1 DUP2 ADD PUSH1 0x40 MSTORE DUP1 SWAP4 SWAP3 SWAP2 SWAP1 DUP2 DUP2 MSTORE PUSH1 0x20 ADD DUP4 DUP4 DUP1 DUP3 DUP5 CALLDATACOPY PUSH1 0x0 DUP2 DUP5 ADD MSTORE PUSH1 0x1F NOT PUSH1 0x1F DUP3 ADD AND SWAP1 POP DUP1 DUP4 ADD SWAP3 POP POP POP POP POP POP POP PUSH2 0x2653 JUMP JUMPDEST SWAP1 POP PUSH1 0x0 JUMPDEST DUP2 MLOAD DUP2 LT ISZERO PUSH2 0x16FB JUMPI PUSH1 0x5 PUSH1 0x1 SWAP1 SLOAD SWAP1 PUSH2 0x100 EXP SWAP1 DIV PUSH20 0xFFFFFFFFFFFFFFFFFFFFFFFFFFFFFFFFFFFFFFFF AND PUSH20 0xFFFFFFFFFFFFFFFFFFFFFFFFFFFFFFFFFFFFFFFF AND DUP3 DUP3 DUP2 MLOAD DUP2 LT PUSH2 0x14BF JUMPI PUSH2 0x14BE PUSH2 0x48C2 JUMP JUMPDEST JUMPDEST PUSH1 0x20 MUL PUSH1 0x20 ADD ADD MLOAD PUSH1 0x40 ADD MLOAD PUSH20 0xFFFFFFFFFFFFFFFFFFFFFFFFFFFFFFFFFFFFFFFF AND EQ ISZERO PUSH2 0x15CF JUMPI DUP2 DUP2 DUP2 MLOAD DUP2 LT PUSH2 0x14FA JUMPI PUSH2 0x14F9 PUSH2 0x48C2 JUMP JUMPDEST JUMPDEST PUSH1 0x20 MUL PUSH1 0x20 ADD ADD MLOAD PUSH1 0x0 ADD MLOAD SELFBALANCE LT PUSH2 0x1547 JUMPI PUSH1 0x40 MLOAD PUSH32 0x8C379A000000000000000000000000000000000000000000000000000000000 DUP2 MSTORE PUSH1 0x4 ADD PUSH2 0x153E SWAP1 PUSH2 0x41CA JUMP JUMPDEST PUSH1 0x40 MLOAD DUP1 SWAP2 SUB SWAP1 REVERT JUMPDEST DUP2 DUP2 DUP2 MLOAD DUP2 LT PUSH2 0x155A JUMPI PUSH2 0x1559 PUSH2 0x48C2 JUMP JUMPDEST JUMPDEST PUSH1 0x20 MUL PUSH1 0x20 ADD ADD MLOAD PUSH1 0x20 ADD MLOAD PUSH20 0xFFFFFFFFFFFFFFFFFFFFFFFFFFFFFFFFFFFFFFFF AND PUSH2 0x8FC DUP4 DUP4 DUP2 MLOAD DUP2 LT PUSH2 0x1592 JUMPI PUSH2 0x1591 PUSH2 0x48C2 JUMP JUMPDEST JUMPDEST PUSH1 0x20 MUL PUSH1 0x20 ADD ADD MLOAD PUSH1 0x0 ADD MLOAD SWAP1 DUP2 ISZERO MUL SWAP1 PUSH1 0x40 MLOAD PUSH1 0x0 PUSH1 0x40 MLOAD DUP1 DUP4 SUB DUP2 DUP6 DUP9 DUP9 CALL SWAP4 POP POP POP POP ISZERO DUP1 ISZERO PUSH2 0x15C9 JUMPI RETURNDATASIZE PUSH1 0x0 DUP1 RETURNDATACOPY RETURNDATASIZE PUSH1 0x0 REVERT JUMPDEST POP PUSH2 0x16E8 JUMP JUMPDEST PUSH1 0xA PUSH1 0x0 DUP4 DUP4 DUP2 MLOAD DUP2 LT PUSH2 0x15E6 JUMPI PUSH2 0x15E5 PUSH2 0x48C2 JUMP JUMPDEST JUMPDEST PUSH1 0x20 MUL PUSH1 0x20 ADD ADD MLOAD PUSH1 0x40 ADD MLOAD PUSH20 0xFFFFFFFFFFFFFFFFFFFFFFFFFFFFFFFFFFFFFFFF AND PUSH20 0xFFFFFFFFFFFFFFFFFFFFFFFFFFFFFFFFFFFFFFFF AND DUP2 MSTORE PUSH1 0x20 ADD SWAP1 DUP2 MSTORE PUSH1 0x20 ADD PUSH1 0x0 KECCAK256 PUSH1 0x0 SWAP1 SLOAD SWAP1 PUSH2 0x100 EXP SWAP1 DIV PUSH1 0xFF AND PUSH2 0x1679 JUMPI PUSH1 0x40 MLOAD PUSH32 0x8C379A000000000000000000000000000000000000000000000000000000000 DUP2 MSTORE PUSH1 0x4 ADD PUSH2 0x1670 SWAP1 PUSH2 0x410A JUMP JUMPDEST PUSH1 0x40 MLOAD DUP1 SWAP2 SUB SWAP1 REVERT JUMPDEST PUSH2 0x16DE DUP3 DUP3 DUP2 MLOAD DUP2 LT PUSH2 0x168F JUMPI PUSH2 0x168E PUSH2 0x48C2 JUMP JUMPDEST JUMPDEST PUSH1 0x20 MUL PUSH1 0x20 ADD ADD MLOAD PUSH1 0x40 ADD MLOAD DUP4 DUP4 DUP2 MLOAD DUP2 LT PUSH2 0x16AE JUMPI PUSH2 0x16AD PUSH2 0x48C2 JUMP JUMPDEST JUMPDEST PUSH1 0x20 MUL PUSH1 0x20 ADD ADD MLOAD PUSH1 0x20 ADD MLOAD DUP5 DUP5 DUP2 MLOAD DUP2 LT PUSH2 0x16CD JUMPI PUSH2 0x16CC PUSH2 0x48C2 JUMP JUMPDEST JUMPDEST PUSH1 0x20 MUL PUSH1 0x20 ADD ADD MLOAD PUSH1 0x0 ADD MLOAD PUSH2 0x2676 JUMP JUMPDEST PUSH2 0x16E7 JUMPI PUSH1 0x0 DUP1 REVERT JUMPDEST JUMPDEST DUP1 DUP1 PUSH2 0x16F3 SWAP1 PUSH2 0x47E0 JUMP JUMPDEST SWAP2 POP POP PUSH2 0x146A JUMP JUMPDEST POP POP POP POP JUMP JUMPDEST PUSH1 0x4 SLOAD DUP2 JUMP JUMPDEST PUSH1 0x5 PUSH1 0x1 SWAP1 SLOAD SWAP1 PUSH2 0x100 EXP SWAP1 DIV PUSH20 0xFFFFFFFFFFFFFFFFFFFFFFFFFFFFFFFFFFFFFFFF AND DUP2 JUMP JUMPDEST PUSH1 0x2 PUSH1 0x0 SWAP1 SLOAD SWAP1 PUSH2 0x100 EXP SWAP1 DIV PUSH1 0xFF AND DUP2 JUMP JUMPDEST PUSH1 0x0 DUP1 SLOAD SWAP1 PUSH2 0x100 EXP SWAP1 DIV PUSH1 0xFF AND PUSH2 0x178D JUMPI PUSH1 0x40 MLOAD PUSH32 0x8C379A000000000000000000000000000000000000000000000000000000000 DUP2 MSTORE PUSH1 0x4 ADD PUSH2 0x1784 SWAP1 PUSH2 0x41AA JUMP JUMPDEST PUSH1 0x40 MLOAD DUP1 SWAP2 SUB SWAP1 REVERT JUMPDEST PUSH1 0x0 PUSH1 0x1 PUSH1 0x0 CALLER PUSH20 0xFFFFFFFFFFFFFFFFFFFFFFFFFFFFFFFFFFFFFFFF AND PUSH20 0xFFFFFFFFFFFFFFFFFFFFFFFFFFFFFFFFFFFFFFFF AND DUP2 MSTORE PUSH1 0x20 ADD SWAP1 DUP2 MSTORE PUSH1 0x20 ADD PUSH1 0x0 KECCAK256 PUSH1 0x0 DUP6 PUSH20 0xFFFFFFFFFFFFFFFFFFFFFFFFFFFFFFFFFFFFFFFF AND PUSH20 0xFFFFFFFFFFFFFFFFFFFFFFFFFFFFFFFFFFFFFFFF AND DUP2 MSTORE PUSH1 0x20 ADD SWAP1 DUP2 MSTORE PUSH1 0x20 ADD PUSH1 0x0 KECCAK256 SLOAD SWAP1 POP DUP2 DUP2 LT ISZERO PUSH2 0x1851 JUMPI PUSH1 0x40 MLOAD PUSH32 0x8C379A000000000000000000000000000000000000000000000000000000000 DUP2 MSTORE PUSH1 0x4 ADD PUSH2 0x1848 SWAP1 PUSH2 0x41AA JUMP JUMPDEST PUSH1 0x40 MLOAD DUP1 SWAP2 SUB SWAP1 REVERT JUMPDEST PUSH2 0x1864 DUP3 DUP3 PUSH2 0x28B9 SWAP1 SWAP2 SWAP1 PUSH4 0xFFFFFFFF AND JUMP JUMPDEST PUSH1 0x1 PUSH1 0x0 CALLER PUSH20 0xFFFFFFFFFFFFFFFFFFFFFFFFFFFFFFFFFFFFFFFF AND PUSH20 0xFFFFFFFFFFFFFFFFFFFFFFFFFFFFFFFFFFFFFFFF AND DUP2 MSTORE PUSH1 0x20 ADD SWAP1 DUP2 MSTORE PUSH1 0x20 ADD PUSH1 0x0 KECCAK256 PUSH1 0x0 DUP7 PUSH20 0xFFFFFFFFFFFFFFFFFFFFFFFFFFFFFFFFFFFFFFFF AND PUSH20 0xFFFFFFFFFFFFFFFFFFFFFFFFFFFFFFFFFFFFFFFF AND DUP2 MSTORE PUSH1 0x20 ADD SWAP1 DUP2 MSTORE PUSH1 0x20 ADD PUSH1 0x0 KECCAK256 DUP2 SWAP1 SSTORE POP PUSH2 0x1973 DUP3 PUSH1 0x1 PUSH1 0x0 DUP7 PUSH20 0xFFFFFFFFFFFFFFFFFFFFFFFFFFFFFFFFFFFFFFFF AND PUSH20 0xFFFFFFFFFFFFFFFFFFFFFFFFFFFFFFFFFFFFFFFF AND DUP2 MSTORE PUSH1 0x20 ADD SWAP1 DUP2 MSTORE PUSH1 0x20 ADD PUSH1 0x0 KECCAK256 PUSH1 0x0 DUP8 PUSH20 0xFFFFFFFFFFFFFFFFFFFFFFFFFFFFFFFFFFFFFFFF AND PUSH20 0xFFFFFFFFFFFFFFFFFFFFFFFFFFFFFFFFFFFFFFFF AND DUP2 MSTORE PUSH1 0x20 ADD SWAP1 DUP2 MSTORE PUSH1 0x20 ADD PUSH1 0x0 KECCAK256 SLOAD PUSH2 0x2554 SWAP1 SWAP2 SWAP1 PUSH4 0xFFFFFFFF AND JUMP JUMPDEST PUSH1 0x1 PUSH1 0x0 DUP6 PUSH20 0xFFFFFFFFFFFFFFFFFFFFFFFFFFFFFFFFFFFFFFFF AND PUSH20 0xFFFFFFFFFFFFFFFFFFFFFFFFFFFFFFFFFFFFFFFF AND DUP2 MSTORE PUSH1 0x20 ADD SWAP1 DUP2 MSTORE PUSH1 0x20 ADD PUSH1 0x0 KECCAK256 PUSH1 0x0 DUP7 PUSH20 0xFFFFFFFFFFFFFFFFFFFFFFFFFFFFFFFFFFFFFFFF AND PUSH20 0xFFFFFFFFFFFFFFFFFFFFFFFFFFFFFFFFFFFFFFFF AND DUP2 MSTORE PUSH1 0x20 ADD SWAP1 DUP2 MSTORE PUSH1 0x20 ADD PUSH1 0x0 KECCAK256 DUP2 SWAP1 SSTORE POP POP POP POP POP JUMP JUMPDEST PUSH1 0x6 SLOAD CALLVALUE LT PUSH2 0x1A3D JUMPI PUSH1 0x40 MLOAD PUSH32 0x8C379A000000000000000000000000000000000000000000000000000000000 DUP2 MSTORE PUSH1 0x4 ADD PUSH2 0x1A34 SWAP1 PUSH2 0x412A JUMP JUMPDEST PUSH1 0x40 MLOAD DUP1 SWAP2 SUB SWAP1 REVERT JUMPDEST CALLVALUE CALLER PUSH20 0xFFFFFFFFFFFFFFFFFFFFFFFFFFFFFFFFFFFFFFFF AND PUSH32 0xD575AE283B17B524082C4C985D3B6FC0112317B0A5BB42273729C8AB38417889 NUMBER PUSH1 0x5 PUSH1 0x1 SWAP1 SLOAD SWAP1 PUSH2 0x100 EXP SWAP1 DIV PUSH20 0xFFFFFFFFFFFFFFFFFFFFFFFFFFFFFFFFFFFFFFFF AND DUP7 DUP7 PUSH1 0x40 MLOAD PUSH2 0x1AAC SWAP5 SWAP4 SWAP3 SWAP2 SWAP1 PUSH2 0x4225 JUMP JUMPDEST PUSH1 0x40 MLOAD DUP1 SWAP2 SUB SWAP1 LOG3 POP POP JUMP JUMPDEST PUSH1 0x0 DUP1 SLOAD SWAP1 PUSH2 0x100 EXP SWAP1 DIV PUSH1 0xFF AND PUSH2 0x1B05 JUMPI PUSH1 0x40 MLOAD PUSH32 0x8C379A000000000000000000000000000000000000000000000000000000000 DUP2 MSTORE PUSH1 0x4 ADD PUSH2 0x1AFC SWAP1 PUSH2 0x41AA JUMP JUMPDEST PUSH1 0x40 MLOAD DUP1 SWAP2 SUB SWAP1 REVERT JUMPDEST PUSH1 0x0 PUSH1 0x1 PUSH1 0x0 CALLER PUSH20 0xFFFFFFFFFFFFFFFFFFFFFFFFFFFFFFFFFFFFFFFF AND PUSH20 0xFFFFFFFFFFFFFFFFFFFFFFFFFFFFFFFFFFFFFFFF AND DUP2 MSTORE PUSH1 0x20 ADD SWAP1 DUP2 MSTORE PUSH1 0x20 ADD PUSH1 0x0 KECCAK256 PUSH1 0x0 DUP5 PUSH20 0xFFFFFFFFFFFFFFFFFFFFFFFFFFFFFFFFFFFFFFFF AND PUSH20 0xFFFFFFFFFFFFFFFFFFFFFFFFFFFFFFFFFFFFFFFF AND DUP2 MSTORE PUSH1 0x20 ADD SWAP1 DUP2 MSTORE PUSH1 0x20 ADD PUSH1 0x0 KECCAK256 SLOAD SWAP1 POP DUP2 DUP2 LT ISZERO PUSH2 0x1BC9 JUMPI PUSH1 0x40 MLOAD PUSH32 0x8C379A000000000000000000000000000000000000000000000000000000000 DUP2 MSTORE PUSH1 0x4 ADD PUSH2 0x1BC0 SWAP1 PUSH2 0x41AA JUMP JUMPDEST PUSH1 0x40 MLOAD DUP1 SWAP2 SUB SWAP1 REVERT JUMPDEST DUP3 PUSH20 0xFFFFFFFFFFFFFFFFFFFFFFFFFFFFFFFFFFFFFFFF AND PUSH4 0xA9059CBB CALLER DUP5 PUSH1 0x40 MLOAD DUP4 PUSH4 0xFFFFFFFF AND PUSH1 0xE0 SHL DUP2 MSTORE PUSH1 0x4 ADD PUSH2 0x1C04 SWAP3 SWAP2 SWAP1 PUSH2 0x3FE9 JUMP JUMPDEST PUSH1 0x20 PUSH1 0x40 MLOAD DUP1 DUP4 SUB DUP2 PUSH1 0x0 DUP8 DUP1 EXTCODESIZE ISZERO DUP1 ISZERO PUSH2 0x1C1E JUMPI PUSH1 0x0 DUP1 REVERT JUMPDEST POP GAS CALL ISZERO DUP1 ISZERO PUSH2 0x1C32 JUMPI RETURNDATASIZE PUSH1 0x0 DUP1 RETURNDATACOPY RETURNDATASIZE PUSH1 0x0 REVERT JUMPDEST POP POP POP POP PUSH1 0x40 MLOAD RETURNDATASIZE PUSH1 0x1F NOT PUSH1 0x1F DUP3 ADD AND DUP3 ADD DUP1 PUSH1 0x40 MSTORE POP DUP2 ADD SWAP1 PUSH2 0x1C56 SWAP2 SWAP1 PUSH2 0x362D JUMP JUMPDEST POP PUSH2 0x1C6A DUP3 DUP3 PUSH2 0x28B9 SWAP1 SWAP2 SWAP1 PUSH4 0xFFFFFFFF AND JUMP JUMPDEST PUSH1 0x1 PUSH1 0x0 CALLER PUSH20 0xFFFFFFFFFFFFFFFFFFFFFFFFFFFFFFFFFFFFFFFF AND PUSH20 0xFFFFFFFFFFFFFFFFFFFFFFFFFFFFFFFFFFFFFFFF AND DUP2 MSTORE PUSH1 0x20 ADD SWAP1 DUP2 MSTORE PUSH1 0x20 ADD PUSH1 0x0 KECCAK256 PUSH1 0x0 DUP6 PUSH20 0xFFFFFFFFFFFFFFFFFFFFFFFFFFFFFFFFFFFFFFFF AND PUSH20 0xFFFFFFFFFFFFFFFFFFFFFFFFFFFFFFFFFFFFFFFF AND DUP2 MSTORE PUSH1 0x20 ADD SWAP1 DUP2 MSTORE PUSH1 0x20 ADD PUSH1 0x0 KECCAK256 DUP2 SWAP1 SSTORE POP POP POP POP JUMP JUMPDEST PUSH1 0x0 PUSH2 0x1D3E DUP8 DUP8 DUP1 DUP1 PUSH1 0x1F ADD PUSH1 0x20 DUP1 SWAP2 DIV MUL PUSH1 0x20 ADD PUSH1 0x40 MLOAD SWAP1 DUP2 ADD PUSH1 0x40 MSTORE DUP1 SWAP4 SWAP3 SWAP2 SWAP1 DUP2 DUP2 MSTORE PUSH1 0x20 ADD DUP4 DUP4 DUP1 DUP3 DUP5 CALLDATACOPY PUSH1 0x0 DUP2 DUP5 ADD MSTORE PUSH1 0x1F NOT PUSH1 0x1F DUP3 ADD AND SWAP1 POP DUP1 DUP4 ADD SWAP3 POP POP POP POP POP POP POP PUSH2 0x1E39 JUMP JUMPDEST SWAP1 POP PUSH1 0x0 PUSH2 0x1D8F DUP5 DUP5 DUP1 DUP1 PUSH1 0x1F ADD PUSH1 0x20 DUP1 SWAP2 DIV MUL PUSH1 0x20 ADD PUSH1 0x40 MLOAD SWAP1 DUP2 ADD PUSH1 0x40 MSTORE DUP1 SWAP4 SWAP3 SWAP2 SWAP1 DUP2 DUP2 MSTORE PUSH1 0x20 ADD DUP4 DUP4 DUP1 DUP3 DUP5 CALLDATACOPY PUSH1 0x0 DUP2 DUP5 ADD MSTORE PUSH1 0x1F NOT PUSH1 0x1F DUP3 ADD AND SWAP1 POP DUP1 DUP4 ADD SWAP3 POP POP POP POP POP POP POP PUSH2 0x1FC1 JUMP JUMPDEST SWAP1 POP PUSH2 0x1DE0 DUP3 DUP8 DUP8 DUP1 DUP1 PUSH1 0x1F ADD PUSH1 0x20 DUP1 SWAP2 DIV MUL PUSH1 0x20 ADD PUSH1 0x40 MLOAD SWAP1 DUP2 ADD PUSH1 0x40 MSTORE DUP1 SWAP4 SWAP3 SWAP2 SWAP1 DUP2 DUP2 MSTORE PUSH1 0x20 ADD DUP4 DUP4 DUP1 DUP3 DUP5 CALLDATACOPY PUSH1 0x0 DUP2 DUP5 ADD MSTORE PUSH1 0x1F NOT PUSH1 0x1F DUP3 ADD AND SWAP1 POP DUP1 DUP4 ADD SWAP3 POP POP POP POP POP POP POP DUP4 PUSH2 0x28CF JUMP JUMPDEST PUSH1 0x2 PUSH1 0x0 PUSH2 0x100 EXP DUP2 SLOAD DUP2 PUSH1 0xFF MUL NOT AND SWAP1 DUP4 ISZERO ISZERO MUL OR SWAP1 SSTORE POP POP POP POP POP POP POP POP POP JUMP JUMPDEST PUSH1 0x1 PUSH1 0x20 MSTORE DUP2 PUSH1 0x0 MSTORE PUSH1 0x40 PUSH1 0x0 KECCAK256 PUSH1 0x20 MSTORE DUP1 PUSH1 0x0 MSTORE PUSH1 0x40 PUSH1 0x0 KECCAK256 PUSH1 0x0 SWAP2 POP SWAP2 POP POP SLOAD DUP2 JUMP JUMPDEST PUSH1 0x0 DUP1 SLOAD SWAP1 PUSH2 0x100 EXP SWAP1 DIV PUSH1 0xFF AND DUP2 JUMP JUMPDEST PUSH2 0x1E41 PUSH2 0x322D JUMP JUMPDEST PUSH1 0x0 PUSH1 0x4 PUSH8 0xFFFFFFFFFFFFFFFF DUP2 GT ISZERO PUSH2 0x1E5E JUMPI PUSH2 0x1E5D PUSH2 0x48F1 JUMP JUMPDEST JUMPDEST PUSH1 0x40 MLOAD SWAP1 DUP1 DUP3 MSTORE DUP1 PUSH1 0x20 MUL PUSH1 0x20 ADD DUP3 ADD PUSH1 0x40 MSTORE DUP1 ISZERO PUSH2 0x1E8C JUMPI DUP2 PUSH1 0x20 ADD PUSH1 0x20 DUP3 MUL DUP1 CALLDATASIZE DUP4 CALLDATACOPY DUP1 DUP3 ADD SWAP2 POP POP SWAP1 POP JUMPDEST POP SWAP1 POP PUSH1 0x0 PUSH1 0x20 SWAP1 POP JUMPDEST PUSH1 0x20 DUP3 MLOAD PUSH2 0x1EA4 SWAP2 SWAP1 PUSH2 0x463F JUMP JUMPDEST DUP2 GT PUSH2 0x1EC6 JUMPI DUP1 DUP5 ADD MLOAD DUP2 DUP4 ADD MSTORE PUSH1 0x20 DUP2 PUSH2 0x1EBF SWAP2 SWAP1 PUSH2 0x4447 JUMP JUMPDEST SWAP1 POP PUSH2 0x1E96 JUMP JUMPDEST POP DUP1 PUSH1 0x0 DUP2 MLOAD DUP2 LT PUSH2 0x1EDB JUMPI PUSH2 0x1EDA PUSH2 0x48C2 JUMP JUMPDEST JUMPDEST PUSH1 0x20 MUL PUSH1 0x20 ADD ADD MLOAD DUP3 PUSH1 0x0 ADD MLOAD PUSH1 0x0 PUSH1 0x2 DUP2 LT PUSH2 0x1EFB JUMPI PUSH2 0x1EFA PUSH2 0x48C2 JUMP JUMPDEST JUMPDEST PUSH1 0x20 MUL ADD DUP2 DUP2 MSTORE POP POP DUP1 PUSH1 0x1 DUP2 MLOAD DUP2 LT PUSH2 0x1F18 JUMPI PUSH2 0x1F17 PUSH2 0x48C2 JUMP JUMPDEST JUMPDEST PUSH1 0x20 MUL PUSH1 0x20 ADD ADD MLOAD DUP3 PUSH1 0x0 ADD MLOAD PUSH1 0x1 PUSH1 0x2 DUP2 LT PUSH2 0x1F38 JUMPI PUSH2 0x1F37 PUSH2 0x48C2 JUMP JUMPDEST JUMPDEST PUSH1 0x20 MUL ADD DUP2 DUP2 MSTORE POP POP DUP1 PUSH1 0x2 DUP2 MLOAD DUP2 LT PUSH2 0x1F55 JUMPI PUSH2 0x1F54 PUSH2 0x48C2 JUMP JUMPDEST JUMPDEST PUSH1 0x20 MUL PUSH1 0x20 ADD ADD MLOAD DUP3 PUSH1 0x20 ADD MLOAD PUSH1 0x0 PUSH1 0x2 DUP2 LT PUSH2 0x1F75 JUMPI PUSH2 0x1F74 PUSH2 0x48C2 JUMP JUMPDEST JUMPDEST PUSH1 0x20 MUL ADD DUP2 DUP2 MSTORE POP POP DUP1 PUSH1 0x3 DUP2 MLOAD DUP2 LT PUSH2 0x1F92 JUMPI PUSH2 0x1F91 PUSH2 0x48C2 JUMP JUMPDEST JUMPDEST PUSH1 0x20 MUL PUSH1 0x20 ADD ADD MLOAD DUP3 PUSH1 0x20 ADD MLOAD PUSH1 0x1 PUSH1 0x2 DUP2 LT PUSH2 0x1FB2 JUMPI PUSH2 0x1FB1 PUSH2 0x48C2 JUMP JUMPDEST JUMPDEST PUSH1 0x20 MUL ADD DUP2 DUP2 MSTORE POP POP POP SWAP2 SWAP1 POP JUMP JUMPDEST PUSH2 0x1FC9 PUSH2 0x3253 JUMP JUMPDEST PUSH1 0x0 PUSH1 0x2 PUSH8 0xFFFFFFFFFFFFFFFF DUP2 GT ISZERO PUSH2 0x1FE6 JUMPI PUSH2 0x1FE5 PUSH2 0x48F1 JUMP JUMPDEST JUMPDEST PUSH1 0x40 MLOAD SWAP1 DUP1 DUP3 MSTORE DUP1 PUSH1 0x20 MUL PUSH1 0x20 ADD DUP3 ADD PUSH1 0x40 MSTORE DUP1 ISZERO PUSH2 0x2014 JUMPI DUP2 PUSH1 0x20 ADD PUSH1 0x20 DUP3 MUL DUP1 CALLDATASIZE DUP4 CALLDATACOPY DUP1 DUP3 ADD SWAP2 POP POP SWAP1 POP JUMPDEST POP SWAP1 POP PUSH1 0x0 PUSH1 0x20 SWAP1 POP JUMPDEST PUSH1 0x20 DUP3 MLOAD PUSH2 0x202C SWAP2 SWAP1 PUSH2 0x463F JUMP JUMPDEST DUP2 GT PUSH2 0x204E JUMPI DUP1 DUP5 ADD MLOAD DUP2 DUP4 ADD MSTORE PUSH1 0x20 DUP2 PUSH2 0x2047 SWAP2 SWAP1 PUSH2 0x4447 JUMP JUMPDEST SWAP1 POP PUSH2 0x201E JUMP JUMPDEST POP DUP1 PUSH1 0x0 DUP2 MLOAD DUP2 LT PUSH2 0x2063 JUMPI PUSH2 0x2062 PUSH2 0x48C2 JUMP JUMPDEST JUMPDEST PUSH1 0x20 MUL PUSH1 0x20 ADD ADD MLOAD DUP3 PUSH1 0x0 ADD DUP2 DUP2 MSTORE POP POP DUP1 PUSH1 0x1 DUP2 MLOAD DUP2 LT PUSH2 0x2088 JUMPI PUSH2 0x2087 PUSH2 0x48C2 JUMP JUMPDEST JUMPDEST PUSH1 0x20 MUL PUSH1 0x20 ADD ADD MLOAD DUP3 PUSH1 0x20 ADD DUP2 DUP2 MSTORE POP POP POP SWAP2 SWAP1 POP JUMP JUMPDEST PUSH1 0x0 DUP1 PUSH1 0x40 MLOAD DUP1 PUSH1 0x40 ADD PUSH1 0x40 MSTORE DUP1 PUSH1 0x0 DUP2 MSTORE PUSH1 0x20 ADD PUSH1 0x0 DUP2 MSTORE POP SWAP1 POP PUSH1 0x0 DUP1 PUSH1 0x1 SWAP1 POP JUMPDEST PUSH1 0x0 DUP6 EQ PUSH2 0x213D JUMPI PUSH1 0x0 DUP2 DUP7 AND EQ PUSH2 0x2123 JUMPI DUP1 DUP6 PUSH2 0x20E1 SWAP2 SWAP1 PUSH2 0x4699 JUMP JUMPDEST SWAP5 POP PUSH2 0x2120 DUP4 PUSH2 0x211B DUP12 PUSH1 0x0 ADD MLOAD DUP13 PUSH1 0x20 ADD MLOAD DUP7 PUSH1 0x40 MLOAD PUSH1 0x20 ADD PUSH2 0x2107 SWAP4 SWAP3 SWAP2 SWAP1 PUSH2 0x3EFE JUMP JUMPDEST PUSH1 0x40 MLOAD PUSH1 0x20 DUP2 DUP4 SUB SUB DUP2 MSTORE SWAP1 PUSH1 0x40 MSTORE PUSH2 0x256A JUMP JUMPDEST PUSH2 0x2462 JUMP JUMPDEST SWAP3 POP JUMPDEST PUSH1 0x1 DUP2 SWAP1 SHL SWAP1 POP DUP2 DUP1 PUSH2 0x2135 SWAP1 PUSH2 0x47E0 JUMP JUMPDEST SWAP3 POP POP PUSH2 0x20C3 JUMP JUMPDEST PUSH1 0x0 PUSH1 0x3 PUSH8 0xFFFFFFFFFFFFFFFF DUP2 GT ISZERO PUSH2 0x215A JUMPI PUSH2 0x2159 PUSH2 0x48F1 JUMP JUMPDEST JUMPDEST PUSH1 0x40 MLOAD SWAP1 DUP1 DUP3 MSTORE DUP1 PUSH1 0x20 MUL PUSH1 0x20 ADD DUP3 ADD PUSH1 0x40 MSTORE DUP1 ISZERO PUSH2 0x2193 JUMPI DUP2 PUSH1 0x20 ADD JUMPDEST PUSH2 0x2180 PUSH2 0x3253 JUMP JUMPDEST DUP2 MSTORE PUSH1 0x20 ADD SWAP1 PUSH1 0x1 SWAP1 SUB SWAP1 DUP2 PUSH2 0x2178 JUMPI SWAP1 POP JUMPDEST POP SWAP1 POP PUSH1 0x0 PUSH1 0x3 PUSH8 0xFFFFFFFFFFFFFFFF DUP2 GT ISZERO PUSH2 0x21B3 JUMPI PUSH2 0x21B2 PUSH2 0x48F1 JUMP JUMPDEST JUMPDEST PUSH1 0x40 MLOAD SWAP1 DUP1 DUP3 MSTORE DUP1 PUSH1 0x20 MUL PUSH1 0x20 ADD DUP3 ADD PUSH1 0x40 MSTORE DUP1 ISZERO PUSH2 0x21EC JUMPI DUP2 PUSH1 0x20 ADD JUMPDEST PUSH2 0x21D9 PUSH2 0x322D JUMP JUMPDEST DUP2 MSTORE PUSH1 0x20 ADD SWAP1 PUSH1 0x1 SWAP1 SUB SWAP1 DUP2 PUSH2 0x21D1 JUMPI SWAP1 POP JUMPDEST POP SWAP1 POP PUSH2 0x21F8 DUP9 PUSH2 0x28ED JUMP JUMPDEST DUP3 PUSH1 0x0 DUP2 MLOAD DUP2 LT PUSH2 0x220C JUMPI PUSH2 0x220B PUSH2 0x48C2 JUMP JUMPDEST JUMPDEST PUSH1 0x20 MUL PUSH1 0x20 ADD ADD DUP2 SWAP1 MSTORE POP PUSH2 0x224B DUP12 PUSH1 0x0 ADD MLOAD DUP13 PUSH1 0x20 ADD MLOAD DUP12 PUSH1 0x40 MLOAD PUSH1 0x20 ADD PUSH2 0x2237 SWAP4 SWAP3 SWAP2 SWAP1 PUSH2 0x3EC5 JUMP JUMPDEST PUSH1 0x40 MLOAD PUSH1 0x20 DUP2 DUP4 SUB SUB DUP2 MSTORE SWAP1 PUSH1 0x40 MSTORE PUSH2 0x256A JUMP JUMPDEST DUP3 PUSH1 0x1 DUP2 MLOAD DUP2 LT PUSH2 0x225F JUMPI PUSH2 0x225E PUSH2 0x48C2 JUMP JUMPDEST JUMPDEST PUSH1 0x20 MUL PUSH1 0x20 ADD ADD DUP2 SWAP1 MSTORE POP DUP5 DUP3 PUSH1 0x2 DUP2 MLOAD DUP2 LT PUSH2 0x227F JUMPI PUSH2 0x227E PUSH2 0x48C2 JUMP JUMPDEST JUMPDEST PUSH1 0x20 MUL PUSH1 0x20 ADD ADD DUP2 SWAP1 MSTORE POP PUSH2 0x2292 PUSH2 0x299C JUMP JUMPDEST DUP2 PUSH1 0x0 DUP2 MLOAD DUP2 LT PUSH2 0x22A6 JUMPI PUSH2 0x22A5 PUSH2 0x48C2 JUMP JUMPDEST JUMPDEST PUSH1 0x20 MUL PUSH1 0x20 ADD ADD DUP2 SWAP1 MSTORE POP DUP10 DUP2 PUSH1 0x1 DUP2 MLOAD DUP2 LT PUSH2 0x22C6 JUMPI PUSH2 0x22C5 PUSH2 0x48C2 JUMP JUMPDEST JUMPDEST PUSH1 0x20 MUL PUSH1 0x20 ADD ADD DUP2 SWAP1 MSTORE POP DUP11 DUP2 PUSH1 0x2 DUP2 MLOAD DUP2 LT PUSH2 0x22E6 JUMPI PUSH2 0x22E5 PUSH2 0x48C2 JUMP JUMPDEST JUMPDEST PUSH1 0x20 MUL PUSH1 0x20 ADD ADD DUP2 SWAP1 MSTORE POP PUSH2 0x22FB DUP3 DUP3 PUSH2 0x2A66 JUMP JUMPDEST SWAP6 POP POP POP POP POP POP SWAP6 SWAP5 POP POP POP POP POP JUMP JUMPDEST PUSH1 0x0 DUP1 PUSH1 0x2 PUSH8 0xFFFFFFFFFFFFFFFF DUP2 GT ISZERO PUSH2 0x2329 JUMPI PUSH2 0x2328 PUSH2 0x48F1 JUMP JUMPDEST JUMPDEST PUSH1 0x40 MLOAD SWAP1 DUP1 DUP3 MSTORE DUP1 PUSH1 0x20 MUL PUSH1 0x20 ADD DUP3 ADD PUSH1 0x40 MSTORE DUP1 ISZERO PUSH2 0x2362 JUMPI DUP2 PUSH1 0x20 ADD JUMPDEST PUSH2 0x234F PUSH2 0x3253 JUMP JUMPDEST DUP2 MSTORE PUSH1 0x20 ADD SWAP1 PUSH1 0x1 SWAP1 SUB SWAP1 DUP2 PUSH2 0x2347 JUMPI SWAP1 POP JUMPDEST POP SWAP1 POP PUSH1 0x0 PUSH1 0x2 PUSH8 0xFFFFFFFFFFFFFFFF DUP2 GT ISZERO PUSH2 0x2382 JUMPI PUSH2 0x2381 PUSH2 0x48F1 JUMP JUMPDEST JUMPDEST PUSH1 0x40 MLOAD SWAP1 DUP1 DUP3 MSTORE DUP1 PUSH1 0x20 MUL PUSH1 0x20 ADD DUP3 ADD PUSH1 0x40 MSTORE DUP1 ISZERO PUSH2 0x23BB JUMPI DUP2 PUSH1 0x20 ADD JUMPDEST PUSH2 0x23A8 PUSH2 0x322D JUMP JUMPDEST DUP2 MSTORE PUSH1 0x20 ADD SWAP1 PUSH1 0x1 SWAP1 SUB SWAP1 DUP2 PUSH2 0x23A0 JUMPI SWAP1 POP JUMPDEST POP SWAP1 POP PUSH2 0x23C7 DUP5 PUSH2 0x28ED JUMP JUMPDEST DUP3 PUSH1 0x0 DUP2 MLOAD DUP2 LT PUSH2 0x23DB JUMPI PUSH2 0x23DA PUSH2 0x48C2 JUMP JUMPDEST JUMPDEST PUSH1 0x20 MUL PUSH1 0x20 ADD ADD DUP2 SWAP1 MSTORE POP DUP5 DUP3 PUSH1 0x1 DUP2 MLOAD DUP2 LT PUSH2 0x23FB JUMPI PUSH2 0x23FA PUSH2 0x48C2 JUMP JUMPDEST JUMPDEST PUSH1 0x20 MUL PUSH1 0x20 ADD ADD DUP2 SWAP1 MSTORE POP PUSH2 0x240E PUSH2 0x299C JUMP JUMPDEST DUP2 PUSH1 0x0 DUP2 MLOAD DUP2 LT PUSH2 0x2422 JUMPI PUSH2 0x2421 PUSH2 0x48C2 JUMP JUMPDEST JUMPDEST PUSH1 0x20 MUL PUSH1 0x20 ADD ADD DUP2 SWAP1 MSTORE POP DUP6 DUP2 PUSH1 0x1 DUP2 MLOAD DUP2 LT PUSH2 0x2442 JUMPI PUSH2 0x2441 PUSH2 0x48C2 JUMP JUMPDEST JUMPDEST PUSH1 0x20 MUL PUSH1 0x20 ADD ADD DUP2 SWAP1 MSTORE POP PUSH2 0x2457 DUP3 DUP3 PUSH2 0x2A66 JUMP JUMPDEST SWAP3 POP POP POP SWAP4 SWAP3 POP POP POP JUMP JUMPDEST PUSH2 0x246A PUSH2 0x3253 JUMP JUMPDEST PUSH2 0x2472 PUSH2 0x326D JUMP JUMPDEST DUP4 PUSH1 0x0 ADD MLOAD DUP2 PUSH1 0x0 PUSH1 0x4 DUP2 LT PUSH2 0x248B JUMPI PUSH2 0x248A PUSH2 0x48C2 JUMP JUMPDEST JUMPDEST PUSH1 0x20 MUL ADD DUP2 DUP2 MSTORE POP POP DUP4 PUSH1 0x20 ADD MLOAD DUP2 PUSH1 0x1 PUSH1 0x4 DUP2 LT PUSH2 0x24AD JUMPI PUSH2 0x24AC PUSH2 0x48C2 JUMP JUMPDEST JUMPDEST PUSH1 0x20 MUL ADD DUP2 DUP2 MSTORE POP POP DUP3 PUSH1 0x0 ADD MLOAD DUP2 PUSH1 0x2 PUSH1 0x4 DUP2 LT PUSH2 0x24CF JUMPI PUSH2 0x24CE PUSH2 0x48C2 JUMP JUMPDEST JUMPDEST PUSH1 0x20 MUL ADD DUP2 DUP2 MSTORE POP POP DUP3 PUSH1 0x20 ADD MLOAD DUP2 PUSH1 0x3 PUSH1 0x4 DUP2 LT PUSH2 0x24F1 JUMPI PUSH2 0x24F0 PUSH2 0x48C2 JUMP JUMPDEST JUMPDEST PUSH1 0x20 MUL ADD DUP2 DUP2 MSTORE POP POP PUSH1 0x0 PUSH1 0x40 DUP4 PUSH1 0x80 DUP5 PUSH1 0x6 PUSH2 0x7D0 GAS SUB STATICCALL SWAP1 POP DUP1 PUSH2 0x254C JUMPI PUSH1 0x40 MLOAD PUSH32 0x8C379A000000000000000000000000000000000000000000000000000000000 DUP2 MSTORE PUSH1 0x4 ADD PUSH2 0x2543 SWAP1 PUSH2 0x414A JUMP JUMPDEST PUSH1 0x40 MLOAD DUP1 SWAP2 SUB SWAP1 REVERT JUMPDEST POP POP SWAP3 SWAP2 POP POP JUMP JUMPDEST PUSH1 0x0 DUP2 DUP4 PUSH2 0x2562 SWAP2 SWAP1 PUSH2 0x4447 JUMP JUMPDEST SWAP1 POP SWAP3 SWAP2 POP POP JUMP JUMPDEST PUSH2 0x2572 PUSH2 0x3253 JUMP JUMPDEST PUSH1 0x0 PUSH1 0x2 DUP4 PUSH1 0x40 MLOAD PUSH2 0x2584 SWAP2 SWAP1 PUSH2 0x3F54 JUMP JUMPDEST PUSH1 0x20 PUSH1 0x40 MLOAD DUP1 DUP4 SUB DUP2 DUP6 GAS STATICCALL ISZERO DUP1 ISZERO PUSH2 0x25A1 JUMPI RETURNDATASIZE PUSH1 0x0 DUP1 RETURNDATACOPY RETURNDATASIZE PUSH1 0x0 REVERT JUMPDEST POP POP POP PUSH1 0x40 MLOAD RETURNDATASIZE PUSH1 0x1F NOT PUSH1 0x1F DUP3 ADD AND DUP3 ADD DUP1 PUSH1 0x40 MSTORE POP DUP2 ADD SWAP1 PUSH2 0x25C4 SWAP2 SWAP1 PUSH2 0x3687 JUMP JUMPDEST SWAP1 POP PUSH1 0x0 PUSH32 0x30644E72E131A029B85045B68181585D97816A916871CA8D3C208C16D87CFD47 DUP3 PUSH1 0x0 SHR PUSH2 0x25F7 SWAP2 SWAP1 PUSH2 0x4833 JUMP JUMPDEST SWAP1 POP PUSH1 0x0 JUMPDEST PUSH1 0x1 ISZERO PUSH2 0x264A JUMPI PUSH2 0x260C DUP3 PUSH2 0x2E1C JUMP JUMPDEST SWAP1 POP PUSH1 0x0 DUP2 GT ISZERO PUSH2 0x2636 JUMPI PUSH1 0x40 MLOAD DUP1 PUSH1 0x40 ADD PUSH1 0x40 MSTORE DUP1 DUP4 DUP2 MSTORE PUSH1 0x20 ADD DUP3 DUP2 MSTORE POP SWAP4 POP POP POP POP PUSH2 0x264E JUMP JUMPDEST PUSH1 0x1 DUP3 PUSH2 0x2643 SWAP2 SWAP1 PUSH2 0x4447 JUMP JUMPDEST SWAP2 POP PUSH2 0x25FC JUMP JUMPDEST POP POP POP JUMPDEST SWAP2 SWAP1 POP JUMP JUMPDEST PUSH1 0x60 PUSH1 0x0 DUP3 DUP1 PUSH1 0x20 ADD SWAP1 MLOAD DUP2 ADD SWAP1 PUSH2 0x266B SWAP2 SWAP1 PUSH2 0x35E4 JUMP JUMPDEST SWAP1 POP DUP1 SWAP2 POP POP SWAP2 SWAP1 POP JUMP JUMPDEST PUSH1 0x0 DUP1 PUSH1 0x1 PUSH1 0x0 ADDRESS PUSH20 0xFFFFFFFFFFFFFFFFFFFFFFFFFFFFFFFFFFFFFFFF AND PUSH20 0xFFFFFFFFFFFFFFFFFFFFFFFFFFFFFFFFFFFFFFFF AND DUP2 MSTORE PUSH1 0x20 ADD SWAP1 DUP2 MSTORE PUSH1 0x20 ADD PUSH1 0x0 KECCAK256 PUSH1 0x0 DUP7 PUSH20 0xFFFFFFFFFFFFFFFFFFFFFFFFFFFFFFFFFFFFFFFF AND PUSH20 0xFFFFFFFFFFFFFFFFFFFFFFFFFFFFFFFFFFFFFFFF AND DUP2 MSTORE PUSH1 0x20 ADD SWAP1 DUP2 MSTORE PUSH1 0x20 ADD PUSH1 0x0 KECCAK256 SLOAD SWAP1 POP DUP3 DUP2 LT ISZERO PUSH2 0x270A JUMPI PUSH1 0x0 SWAP2 POP POP PUSH2 0x28B2 JUMP JUMPDEST PUSH2 0x271D DUP4 DUP3 PUSH2 0x28B9 SWAP1 SWAP2 SWAP1 PUSH4 0xFFFFFFFF AND JUMP JUMPDEST PUSH1 0x1 PUSH1 0x0 ADDRESS PUSH20 0xFFFFFFFFFFFFFFFFFFFFFFFFFFFFFFFFFFFFFFFF AND PUSH20 0xFFFFFFFFFFFFFFFFFFFFFFFFFFFFFFFFFFFFFFFF AND DUP2 MSTORE PUSH1 0x20 ADD SWAP1 DUP2 MSTORE PUSH1 0x20 ADD PUSH1 0x0 KECCAK256 PUSH1 0x0 DUP8 PUSH20 0xFFFFFFFFFFFFFFFFFFFFFFFFFFFFFFFFFFFFFFFF AND PUSH20 0xFFFFFFFFFFFFFFFFFFFFFFFFFFFFFFFFFFFFFFFF AND DUP2 MSTORE PUSH1 0x20 ADD SWAP1 DUP2 MSTORE PUSH1 0x20 ADD PUSH1 0x0 KECCAK256 DUP2 SWAP1 SSTORE POP PUSH2 0x282C DUP4 PUSH1 0x1 PUSH1 0x0 DUP8 PUSH20 0xFFFFFFFFFFFFFFFFFFFFFFFFFFFFFFFFFFFFFFFF AND PUSH20 0xFFFFFFFFFFFFFFFFFFFFFFFFFFFFFFFFFFFFFFFF AND DUP2 MSTORE PUSH1 0x20 ADD SWAP1 DUP2 MSTORE PUSH1 0x20 ADD PUSH1 0x0 KECCAK256 PUSH1 0x0 DUP9 PUSH20 0xFFFFFFFFFFFFFFFFFFFFFFFFFFFFFFFFFFFFFFFF AND PUSH20 0xFFFFFFFFFFFFFFFFFFFFFFFFFFFFFFFFFFFFFFFF AND DUP2 MSTORE PUSH1 0x20 ADD SWAP1 DUP2 MSTORE PUSH1 0x20 ADD PUSH1 0x0 KECCAK256 SLOAD PUSH2 0x2554 SWAP1 SWAP2 SWAP1 PUSH4 0xFFFFFFFF AND JUMP JUMPDEST PUSH1 0x1 PUSH1 0x0 DUP7 PUSH20 0xFFFFFFFFFFFFFFFFFFFFFFFFFFFFFFFFFFFFFFFF AND PUSH20 0xFFFFFFFFFFFFFFFFFFFFFFFFFFFFFFFFFFFFFFFF AND DUP2 MSTORE PUSH1 0x20 ADD SWAP1 DUP2 MSTORE PUSH1 0x20 ADD PUSH1 0x0 KECCAK256 PUSH1 0x0 DUP8 PUSH20 0xFFFFFFFFFFFFFFFFFFFFFFFFFFFFFFFFFFFFFFFF AND PUSH20 0xFFFFFFFFFFFFFFFFFFFFFFFFFFFFFFFFFFFFFFFF AND DUP2 MSTORE PUSH1 0x20 ADD SWAP1 DUP2 MSTORE PUSH1 0x20 ADD PUSH1 0x0 KECCAK256 DUP2 SWAP1 SSTORE POP PUSH1 0x1 SWAP2 POP POP JUMPDEST SWAP4 SWAP3 POP POP POP JUMP JUMPDEST PUSH1 0x0 DUP2 DUP4 PUSH2 0x28C7 SWAP2 SWAP1 PUSH2 0x4699 JUMP JUMPDEST SWAP1 POP SWAP3 SWAP2 POP POP JUMP JUMPDEST PUSH1 0x0 PUSH2 0x28E4 DUP5 PUSH2 0x28DE DUP6 PUSH2 0x256A JUMP JUMPDEST DUP5 PUSH2 0x230B JUMP JUMPDEST SWAP1 POP SWAP4 SWAP3 POP POP POP JUMP JUMPDEST PUSH2 0x28F5 PUSH2 0x3253 JUMP JUMPDEST PUSH2 0x28FE DUP3 PUSH2 0x2EA4 JUMP JUMPDEST ISZERO PUSH2 0x2921 JUMPI PUSH1 0x40 MLOAD DUP1 PUSH1 0x40 ADD PUSH1 0x40 MSTORE DUP1 PUSH1 0x0 DUP2 MSTORE PUSH1 0x20 ADD PUSH1 0x0 DUP2 MSTORE POP SWAP1 POP PUSH2 0x2997 JUMP JUMPDEST PUSH1 0x40 MLOAD DUP1 PUSH1 0x40 ADD PUSH1 0x40 MSTORE DUP1 DUP4 PUSH1 0x0 ADD MLOAD DUP2 MSTORE PUSH1 0x20 ADD PUSH32 0x30644E72E131A029B85045B68181585D97816A916871CA8D3C208C16D87CFD47 DUP5 PUSH1 0x20 ADD MLOAD PUSH2 0x2966 SWAP2 SWAP1 PUSH2 0x4833 JUMP JUMPDEST PUSH32 0x30644E72E131A029B85045B68181585D97816A916871CA8D3C208C16D87CFD47 PUSH2 0x2991 SWAP2 SWAP1 PUSH2 0x4699 JUMP JUMPDEST DUP2 MSTORE POP SWAP1 POP JUMPDEST SWAP2 SWAP1 POP JUMP JUMPDEST PUSH2 0x29A4 PUSH2 0x322D JUMP JUMPDEST PUSH1 0x40 MLOAD DUP1 PUSH1 0x40 ADD PUSH1 0x40 MSTORE DUP1 PUSH1 0x40 MLOAD DUP1 PUSH1 0x40 ADD PUSH1 0x40 MSTORE DUP1 PUSH32 0x198E9393920D483A7260BFB731FB5D25F1AA493335A9E71297E485B7AEF312C2 DUP2 MSTORE PUSH1 0x20 ADD PUSH32 0x1800DEEF121F1E76426A00665E5C4479674322D4F75EDADD46DEBD5CD992F6ED DUP2 MSTORE POP DUP2 MSTORE PUSH1 0x20 ADD PUSH1 0x40 MLOAD DUP1 PUSH1 0x40 ADD PUSH1 0x40 MSTORE DUP1 PUSH32 0x90689D0585FF075EC9E99AD690C3395BC4B313370B38EF355ACDADCD122975B DUP2 MSTORE PUSH1 0x20 ADD PUSH32 0x12C85EA5DB8C6DEB4AAB71808DCB408FE3D1E7690C43D37B4CE6CC0166FA7DAA DUP2 MSTORE POP DUP2 MSTORE POP SWAP1 POP SWAP1 JUMP JUMPDEST PUSH1 0x0 DUP2 MLOAD DUP4 MLOAD EQ PUSH2 0x2AAC JUMPI PUSH1 0x40 MLOAD PUSH32 0x8C379A000000000000000000000000000000000000000000000000000000000 DUP2 MSTORE PUSH1 0x4 ADD PUSH2 0x2AA3 SWAP1 PUSH2 0x41EA JUMP JUMPDEST PUSH1 0x40 MLOAD DUP1 SWAP2 SUB SWAP1 REVERT JUMPDEST PUSH1 0x0 DUP4 MLOAD SWAP1 POP PUSH1 0x0 PUSH1 0x6 DUP3 PUSH2 0x2AC1 SWAP2 SWAP1 PUSH2 0x463F JUMP JUMPDEST SWAP1 POP PUSH1 0x0 DUP2 PUSH8 0xFFFFFFFFFFFFFFFF DUP2 GT ISZERO PUSH2 0x2ADF JUMPI PUSH2 0x2ADE PUSH2 0x48F1 JUMP JUMPDEST JUMPDEST PUSH1 0x40 MLOAD SWAP1 DUP1 DUP3 MSTORE DUP1 PUSH1 0x20 MUL PUSH1 0x20 ADD DUP3 ADD PUSH1 0x40 MSTORE DUP1 ISZERO PUSH2 0x2B0D JUMPI DUP2 PUSH1 0x20 ADD PUSH1 0x20 DUP3 MUL DUP1 CALLDATASIZE DUP4 CALLDATACOPY DUP1 DUP3 ADD SWAP2 POP POP SWAP1 POP JUMPDEST POP SWAP1 POP PUSH1 0x0 JUMPDEST DUP4 DUP2 LT ISZERO PUSH2 0x2D92 JUMPI DUP7 DUP2 DUP2 MLOAD DUP2 LT PUSH2 0x2B2E JUMPI PUSH2 0x2B2D PUSH2 0x48C2 JUMP JUMPDEST JUMPDEST PUSH1 0x20 MUL PUSH1 0x20 ADD ADD MLOAD PUSH1 0x0 ADD MLOAD DUP3 PUSH1 0x0 PUSH1 0x6 DUP5 PUSH2 0x2B4A SWAP2 SWAP1 PUSH2 0x463F JUMP JUMPDEST PUSH2 0x2B54 SWAP2 SWAP1 PUSH2 0x4447 JUMP JUMPDEST DUP2 MLOAD DUP2 LT PUSH2 0x2B65 JUMPI PUSH2 0x2B64 PUSH2 0x48C2 JUMP JUMPDEST JUMPDEST PUSH1 0x20 MUL PUSH1 0x20 ADD ADD DUP2 DUP2 MSTORE POP POP DUP7 DUP2 DUP2 MLOAD DUP2 LT PUSH2 0x2B84 JUMPI PUSH2 0x2B83 PUSH2 0x48C2 JUMP JUMPDEST JUMPDEST PUSH1 0x20 MUL PUSH1 0x20 ADD ADD MLOAD PUSH1 0x20 ADD MLOAD DUP3 PUSH1 0x1 PUSH1 0x6 DUP5 PUSH2 0x2BA0 SWAP2 SWAP1 PUSH2 0x463F JUMP JUMPDEST PUSH2 0x2BAA SWAP2 SWAP1 PUSH2 0x4447 JUMP JUMPDEST DUP2 MLOAD DUP2 LT PUSH2 0x2BBB JUMPI PUSH2 0x2BBA PUSH2 0x48C2 JUMP JUMPDEST JUMPDEST PUSH1 0x20 MUL PUSH1 0x20 ADD ADD DUP2 DUP2 MSTORE POP POP DUP6 DUP2 DUP2 MLOAD DUP2 LT PUSH2 0x2BDA JUMPI PUSH2 0x2BD9 PUSH2 0x48C2 JUMP JUMPDEST JUMPDEST PUSH1 0x20 MUL PUSH1 0x20 ADD ADD MLOAD PUSH1 0x0 ADD MLOAD PUSH1 0x0 PUSH1 0x2 DUP2 LT PUSH2 0x2BF9 JUMPI PUSH2 0x2BF8 PUSH2 0x48C2 JUMP JUMPDEST JUMPDEST PUSH1 0x20 MUL ADD MLOAD DUP3 PUSH1 0x2 PUSH1 0x6 DUP5 PUSH2 0x2C0E SWAP2 SWAP1 PUSH2 0x463F JUMP JUMPDEST PUSH2 0x2C18 SWAP2 SWAP1 PUSH2 0x4447 JUMP JUMPDEST DUP2 MLOAD DUP2 LT PUSH2 0x2C29 JUMPI PUSH2 0x2C28 PUSH2 0x48C2 JUMP JUMPDEST JUMPDEST PUSH1 0x20 MUL PUSH1 0x20 ADD ADD DUP2 DUP2 MSTORE POP POP DUP6 DUP2 DUP2 MLOAD DUP2 LT PUSH2 0x2C48 JUMPI PUSH2 0x2C47 PUSH2 0x48C2 JUMP JUMPDEST JUMPDEST PUSH1 0x20 MUL PUSH1 0x20 ADD ADD MLOAD PUSH1 0x0 ADD MLOAD PUSH1 0x1 PUSH1 0x2 DUP2 LT PUSH2 0x2C67 JUMPI PUSH2 0x2C66 PUSH2 0x48C2 JUMP JUMPDEST JUMPDEST PUSH1 0x20 MUL ADD MLOAD DUP3 PUSH1 0x3 PUSH1 0x6 DUP5 PUSH2 0x2C7C SWAP2 SWAP1 PUSH2 0x463F JUMP JUMPDEST PUSH2 0x2C86 SWAP2 SWAP1 PUSH2 0x4447 JUMP JUMPDEST DUP2 MLOAD DUP2 LT PUSH2 0x2C97 JUMPI PUSH2 0x2C96 PUSH2 0x48C2 JUMP JUMPDEST JUMPDEST PUSH1 0x20 MUL PUSH1 0x20 ADD ADD DUP2 DUP2 MSTORE POP POP DUP6 DUP2 DUP2 MLOAD DUP2 LT PUSH2 0x2CB6 JUMPI PUSH2 0x2CB5 PUSH2 0x48C2 JUMP JUMPDEST JUMPDEST PUSH1 0x20 MUL PUSH1 0x20 ADD ADD MLOAD PUSH1 0x20 ADD MLOAD PUSH1 0x0 PUSH1 0x2 DUP2 LT PUSH2 0x2CD5 JUMPI PUSH2 0x2CD4 PUSH2 0x48C2 JUMP JUMPDEST JUMPDEST PUSH1 0x20 MUL ADD MLOAD DUP3 PUSH1 0x4 PUSH1 0x6 DUP5 PUSH2 0x2CEA SWAP2 SWAP1 PUSH2 0x463F JUMP JUMPDEST PUSH2 0x2CF4 SWAP2 SWAP1 PUSH2 0x4447 JUMP JUMPDEST DUP2 MLOAD DUP2 LT PUSH2 0x2D05 JUMPI PUSH2 0x2D04 PUSH2 0x48C2 JUMP JUMPDEST JUMPDEST PUSH1 0x20 MUL PUSH1 0x20 ADD ADD DUP2 DUP2 MSTORE POP POP DUP6 DUP2 DUP2 MLOAD DUP2 LT PUSH2 0x2D24 JUMPI PUSH2 0x2D23 PUSH2 0x48C2 JUMP JUMPDEST JUMPDEST PUSH1 0x20 MUL PUSH1 0x20 ADD ADD MLOAD PUSH1 0x20 ADD MLOAD PUSH1 0x1 PUSH1 0x2 DUP2 LT PUSH2 0x2D43 JUMPI PUSH2 0x2D42 PUSH2 0x48C2 JUMP JUMPDEST JUMPDEST PUSH1 0x20 MUL ADD MLOAD DUP3 PUSH1 0x5 PUSH1 0x6 DUP5 PUSH2 0x2D58 SWAP2 SWAP1 PUSH2 0x463F JUMP JUMPDEST PUSH2 0x2D62 SWAP2 SWAP1 PUSH2 0x4447 JUMP JUMPDEST DUP2 MLOAD DUP2 LT PUSH2 0x2D73 JUMPI PUSH2 0x2D72 PUSH2 0x48C2 JUMP JUMPDEST JUMPDEST PUSH1 0x20 MUL PUSH1 0x20 ADD ADD DUP2 DUP2 MSTORE POP POP DUP1 DUP1 PUSH2 0x2D8A SWAP1 PUSH2 0x47E0 JUMP JUMPDEST SWAP2 POP POP PUSH2 0x2B13 JUMP JUMPDEST POP PUSH2 0x2D9B PUSH2 0x328F JUMP JUMPDEST PUSH1 0x0 PUSH1 0x20 DUP3 PUSH1 0x20 DUP7 MUL PUSH1 0x20 DUP7 ADD PUSH1 0x8 PUSH2 0x7D0 GAS SUB STATICCALL SWAP1 POP DUP1 PUSH2 0x2DF2 JUMPI PUSH1 0x40 MLOAD PUSH32 0x8C379A000000000000000000000000000000000000000000000000000000000 DUP2 MSTORE PUSH1 0x4 ADD PUSH2 0x2DE9 SWAP1 PUSH2 0x40AA JUMP JUMPDEST PUSH1 0x40 MLOAD DUP1 SWAP2 SUB SWAP1 REVERT JUMPDEST PUSH1 0x0 DUP3 PUSH1 0x0 PUSH1 0x1 DUP2 LT PUSH2 0x2E08 JUMPI PUSH2 0x2E07 PUSH2 0x48C2 JUMP JUMPDEST JUMPDEST PUSH1 0x20 MUL ADD MLOAD EQ ISZERO SWAP6 POP POP POP POP POP POP SWAP3 SWAP2 POP POP JUMP JUMPDEST PUSH1 0x0 PUSH2 0x2E9D PUSH32 0x30644E72E131A029B85045B68181585D97816A916871CA8D3C208C16D87CFD47 DUP1 PUSH1 0x3 PUSH2 0x2E7B PUSH1 0x3 PUSH32 0x30644E72E131A029B85045B68181585D97816A916871CA8D3C208C16D87CFD47 DUP9 PUSH2 0x2EC4 SWAP1 SWAP3 SWAP2 SWAP1 PUSH4 0xFFFFFFFF AND JUMP JUMPDEST PUSH2 0x2E85 SWAP2 SWAP1 PUSH2 0x4447 JUMP JUMPDEST PUSH2 0x2E8F SWAP2 SWAP1 PUSH2 0x4833 JUMP JUMPDEST PUSH2 0x2F12 SWAP1 SWAP2 SWAP1 PUSH4 0xFFFFFFFF AND JUMP JUMPDEST SWAP1 POP SWAP2 SWAP1 POP JUMP JUMPDEST PUSH1 0x0 DUP1 DUP3 PUSH1 0x0 ADD MLOAD EQ DUP1 ISZERO PUSH2 0x2EBD JUMPI POP PUSH1 0x0 DUP3 PUSH1 0x20 ADD MLOAD EQ JUMPDEST SWAP1 POP SWAP2 SWAP1 POP JUMP JUMPDEST PUSH1 0x0 PUSH1 0x40 MLOAD PUSH1 0x20 DUP2 ADD PUSH1 0x20 DUP2 MSTORE PUSH1 0x20 DUP1 DUP3 ADD MSTORE PUSH1 0x20 PUSH1 0x40 DUP3 ADD MSTORE DUP6 PUSH1 0x60 DUP3 ADD MSTORE DUP5 PUSH1 0x80 DUP3 ADD MSTORE DUP4 PUSH1 0xA0 DUP3 ADD MSTORE PUSH1 0x20 DUP3 PUSH1 0xC0 DUP4 PUSH1 0x5 PUSH1 0x0 NOT STATICCALL PUSH2 0x2F05 JUMPI PUSH1 0x0 DUP1 REVERT JUMPDEST DUP2 MLOAD SWAP3 POP POP POP SWAP4 SWAP3 POP POP POP JUMP JUMPDEST PUSH1 0x0 PUSH1 0x1 PUSH2 0x2F20 DUP5 DUP5 PUSH2 0x3162 JUMP JUMPDEST EQ PUSH2 0x2F2E JUMPI PUSH1 0x0 SWAP1 POP PUSH2 0x315C JUMP JUMPDEST PUSH1 0x0 DUP4 EQ ISZERO PUSH2 0x2F40 JUMPI PUSH1 0x0 SWAP1 POP PUSH2 0x315C JUMP JUMPDEST PUSH1 0x3 PUSH1 0x4 DUP4 PUSH2 0x2F4F SWAP2 SWAP1 PUSH2 0x4833 JUMP JUMPDEST EQ ISZERO PUSH2 0x2F7F JUMPI PUSH2 0x2F78 DUP4 PUSH1 0x4 PUSH1 0x1 DUP6 PUSH2 0x2F68 SWAP2 SWAP1 PUSH2 0x4447 JUMP JUMPDEST PUSH2 0x2F72 SWAP2 SWAP1 PUSH2 0x449D JUMP JUMPDEST DUP5 PUSH2 0x2EC4 JUMP JUMPDEST SWAP1 POP PUSH2 0x315C JUMP JUMPDEST PUSH1 0x0 PUSH1 0x1 DUP4 PUSH2 0x2F8E SWAP2 SWAP1 PUSH2 0x4699 JUMP JUMPDEST SWAP1 POP PUSH1 0x0 JUMPDEST PUSH1 0x0 PUSH1 0x2 DUP4 PUSH2 0x2FA2 SWAP2 SWAP1 PUSH2 0x4833 JUMP JUMPDEST EQ ISZERO PUSH2 0x2FCB JUMPI PUSH1 0x2 DUP3 PUSH2 0x2FB5 SWAP2 SWAP1 PUSH2 0x449D JUMP JUMPDEST SWAP2 POP PUSH1 0x1 DUP2 PUSH2 0x2FC4 SWAP2 SWAP1 PUSH2 0x4447 JUMP JUMPDEST SWAP1 POP PUSH2 0x2F93 JUMP JUMPDEST PUSH1 0x0 PUSH1 0x2 SWAP1 POP JUMPDEST PUSH32 0xFFFFFFFFFFFFFFFFFFFFFFFFFFFFFFFFFFFFFFFFFFFFFFFFFFFFFFFFFFFFFFFF PUSH2 0x2FFD DUP3 DUP8 PUSH2 0x3162 JUMP JUMPDEST EQ PUSH2 0x3016 JUMPI PUSH1 0x1 DUP2 PUSH2 0x300F SWAP2 SWAP1 PUSH2 0x4447 JUMP JUMPDEST SWAP1 POP PUSH2 0x2FD2 JUMP JUMPDEST PUSH1 0x0 PUSH2 0x303B DUP8 PUSH1 0x2 PUSH1 0x1 DUP8 PUSH2 0x302B SWAP2 SWAP1 PUSH2 0x4447 JUMP JUMPDEST PUSH2 0x3035 SWAP2 SWAP1 PUSH2 0x449D JUMP JUMPDEST DUP9 PUSH2 0x2EC4 JUMP JUMPDEST SWAP1 POP PUSH1 0x0 PUSH2 0x304A DUP9 DUP7 DUP10 PUSH2 0x2EC4 JUMP JUMPDEST SWAP1 POP PUSH1 0x0 PUSH2 0x3059 DUP5 DUP8 DUP11 PUSH2 0x2EC4 JUMP JUMPDEST SWAP1 POP PUSH1 0x0 DUP6 SWAP1 POP PUSH1 0x0 DUP1 PUSH1 0x0 DUP6 SWAP1 POP JUMPDEST PUSH1 0x1 ISZERO PUSH2 0x3151 JUMPI DUP6 SWAP1 POP PUSH1 0x0 SWAP2 POP PUSH1 0x0 SWAP2 POP JUMPDEST DUP4 DUP3 LT ISZERO PUSH2 0x30B3 JUMPI PUSH1 0x1 DUP2 EQ ISZERO PUSH2 0x3092 JUMPI PUSH2 0x30B3 JUMP JUMPDEST PUSH2 0x309E DUP2 PUSH1 0x2 DUP15 PUSH2 0x2EC4 JUMP JUMPDEST SWAP1 POP DUP2 DUP1 PUSH2 0x30AB SWAP1 PUSH2 0x47E0 JUMP JUMPDEST SWAP3 POP POP PUSH2 0x307C JUMP JUMPDEST PUSH1 0x0 DUP3 EQ ISZERO PUSH2 0x30CE JUMPI DUP7 SWAP11 POP POP POP POP POP POP POP POP POP POP POP PUSH2 0x315C JUMP JUMPDEST PUSH2 0x30FC DUP6 PUSH1 0x1 DUP5 DUP8 PUSH2 0x30E0 SWAP2 SWAP1 PUSH2 0x4699 JUMP JUMPDEST PUSH2 0x30EA SWAP2 SWAP1 PUSH2 0x4699 JUMP JUMPDEST PUSH1 0x2 PUSH2 0x30F6 SWAP2 SWAP1 PUSH2 0x4521 JUMP JUMPDEST DUP15 PUSH2 0x2EC4 JUMP JUMPDEST SWAP3 POP DUP12 DUP4 DUP5 PUSH2 0x310B SWAP2 SWAP1 PUSH2 0x463F JUMP JUMPDEST PUSH2 0x3115 SWAP2 SWAP1 PUSH2 0x4833 JUMP JUMPDEST SWAP5 POP DUP12 DUP4 DUP9 PUSH2 0x3124 SWAP2 SWAP1 PUSH2 0x463F JUMP JUMPDEST PUSH2 0x312E SWAP2 SWAP1 PUSH2 0x4833 JUMP JUMPDEST SWAP7 POP DUP12 DUP6 DUP8 PUSH2 0x313D SWAP2 SWAP1 PUSH2 0x463F JUMP JUMPDEST PUSH2 0x3147 SWAP2 SWAP1 PUSH2 0x4833 JUMP JUMPDEST SWAP6 POP DUP2 SWAP4 POP PUSH2 0x3069 JUMP JUMPDEST POP POP POP POP POP POP POP POP POP POP JUMPDEST SWAP3 SWAP2 POP POP JUMP JUMPDEST PUSH1 0x0 DUP1 PUSH2 0x3188 DUP5 PUSH1 0x2 PUSH1 0x1 DUP7 PUSH2 0x3178 SWAP2 SWAP1 PUSH2 0x4699 JUMP JUMPDEST PUSH2 0x3182 SWAP2 SWAP1 PUSH2 0x449D JUMP JUMPDEST DUP6 PUSH2 0x2EC4 JUMP JUMPDEST SWAP1 POP PUSH1 0x0 DUP2 EQ DUP1 PUSH2 0x3199 JUMPI POP PUSH1 0x1 DUP2 EQ JUMPDEST ISZERO PUSH2 0x31A7 JUMPI DUP1 SWAP2 POP POP PUSH2 0x3227 JUMP JUMPDEST PUSH1 0x1 DUP4 PUSH2 0x31B4 SWAP2 SWAP1 PUSH2 0x4699 JUMP JUMPDEST DUP2 EQ ISZERO PUSH2 0x31E4 JUMPI PUSH32 0xFFFFFFFFFFFFFFFFFFFFFFFFFFFFFFFFFFFFFFFFFFFFFFFFFFFFFFFFFFFFFFFF SWAP2 POP POP PUSH2 0x3227 JUMP JUMPDEST PUSH1 0x0 PUSH2 0x3225 JUMPI PUSH1 0x40 MLOAD PUSH32 0x8C379A000000000000000000000000000000000000000000000000000000000 DUP2 MSTORE PUSH1 0x4 ADD PUSH2 0x321C SWAP1 PUSH2 0x406A JUMP JUMPDEST PUSH1 0x40 MLOAD DUP1 SWAP2 SUB SWAP1 REVERT JUMPDEST POP JUMPDEST SWAP3 SWAP2 POP POP JUMP JUMPDEST PUSH1 0x40 MLOAD DUP1 PUSH1 0x40 ADD PUSH1 0x40 MSTORE DUP1 PUSH2 0x3240 PUSH2 0x32B1 JUMP JUMPDEST DUP2 MSTORE PUSH1 0x20 ADD PUSH2 0x324D PUSH2 0x32B1 JUMP JUMPDEST DUP2 MSTORE POP SWAP1 JUMP JUMPDEST PUSH1 0x40 MLOAD DUP1 PUSH1 0x40 ADD PUSH1 0x40 MSTORE DUP1 PUSH1 0x0 DUP2 MSTORE PUSH1 0x20 ADD PUSH1 0x0 DUP2 MSTORE POP SWAP1 JUMP JUMPDEST PUSH1 0x40 MLOAD DUP1 PUSH1 0x80 ADD PUSH1 0x40 MSTORE DUP1 PUSH1 0x4 SWAP1 PUSH1 0x20 DUP3 MUL DUP1 CALLDATASIZE DUP4 CALLDATACOPY DUP1 DUP3 ADD SWAP2 POP POP SWAP1 POP POP SWAP1 JUMP JUMPDEST PUSH1 0x40 MLOAD DUP1 PUSH1 0x20 ADD PUSH1 0x40 MSTORE DUP1 PUSH1 0x1 SWAP1 PUSH1 0x20 DUP3 MUL DUP1 CALLDATASIZE DUP4 CALLDATACOPY DUP1 DUP3 ADD SWAP2 POP POP SWAP1 POP POP SWAP1 JUMP JUMPDEST PUSH1 0x40 MLOAD DUP1 PUSH1 0x40 ADD PUSH1 0x40 MSTORE DUP1 PUSH1 0x2 SWAP1 PUSH1 0x20 DUP3 MUL DUP1 CALLDATASIZE DUP4 CALLDATACOPY DUP1 DUP3 ADD SWAP2 POP POP SWAP1 POP POP SWAP1 JUMP JUMPDEST PUSH1 0x0 PUSH2 0x32E6 PUSH2 0x32E1 DUP5 PUSH2 0x437A JUMP JUMPDEST PUSH2 0x4355 JUMP JUMPDEST SWAP1 POP DUP1 DUP4 DUP3 MSTORE PUSH1 0x20 DUP3 ADD SWAP1 POP DUP3 DUP6 PUSH1 0x60 DUP7 MUL DUP3 ADD GT ISZERO PUSH2 0x3309 JUMPI PUSH2 0x3308 PUSH2 0x493E JUMP JUMPDEST JUMPDEST PUSH1 0x0 JUMPDEST DUP6 DUP2 LT ISZERO PUSH2 0x3339 JUMPI DUP2 PUSH2 0x331F DUP9 DUP3 PUSH2 0x34E9 JUMP JUMPDEST DUP5 MSTORE PUSH1 0x20 DUP5 ADD SWAP4 POP PUSH1 0x60 DUP4 ADD SWAP3 POP POP PUSH1 0x1 DUP2 ADD SWAP1 POP PUSH2 0x330C JUMP JUMPDEST POP POP POP SWAP4 SWAP3 POP POP POP JUMP JUMPDEST PUSH1 0x0 PUSH2 0x3356 PUSH2 0x3351 DUP5 PUSH2 0x43A6 JUMP JUMPDEST PUSH2 0x4355 JUMP JUMPDEST SWAP1 POP DUP3 DUP2 MSTORE PUSH1 0x20 DUP2 ADD DUP5 DUP5 DUP5 ADD GT ISZERO PUSH2 0x3372 JUMPI PUSH2 0x3371 PUSH2 0x4948 JUMP JUMPDEST JUMPDEST PUSH2 0x337D DUP5 DUP3 DUP6 PUSH2 0x4743 JUMP JUMPDEST POP SWAP4 SWAP3 POP POP POP JUMP JUMPDEST PUSH1 0x0 DUP2 CALLDATALOAD SWAP1 POP PUSH2 0x3394 DUP2 PUSH2 0x4B64 JUMP JUMPDEST SWAP3 SWAP2 POP POP JUMP JUMPDEST PUSH1 0x0 DUP2 MLOAD SWAP1 POP PUSH2 0x33A9 DUP2 PUSH2 0x4B64 JUMP JUMPDEST SWAP3 SWAP2 POP POP JUMP JUMPDEST PUSH1 0x0 DUP2 MLOAD SWAP1 POP PUSH2 0x33BE DUP2 PUSH2 0x4B7B JUMP JUMPDEST SWAP3 SWAP2 POP POP JUMP JUMPDEST PUSH1 0x0 DUP3 PUSH1 0x1F DUP4 ADD SLT PUSH2 0x33D9 JUMPI PUSH2 0x33D8 PUSH2 0x4925 JUMP JUMPDEST JUMPDEST DUP2 MLOAD PUSH2 0x33E9 DUP5 DUP3 PUSH1 0x20 DUP7 ADD PUSH2 0x32D3 JUMP JUMPDEST SWAP2 POP POP SWAP3 SWAP2 POP POP JUMP JUMPDEST PUSH1 0x0 DUP2 MLOAD SWAP1 POP PUSH2 0x3401 DUP2 PUSH2 0x4B92 JUMP JUMPDEST SWAP3 SWAP2 POP POP JUMP JUMPDEST PUSH1 0x0 DUP2 CALLDATALOAD SWAP1 POP PUSH2 0x3416 DUP2 PUSH2 0x4BA9 JUMP JUMPDEST SWAP3 SWAP2 POP POP JUMP JUMPDEST PUSH1 0x0 DUP2 MLOAD SWAP1 POP PUSH2 0x342B DUP2 PUSH2 0x4BA9 JUMP JUMPDEST SWAP3 SWAP2 POP POP JUMP JUMPDEST PUSH1 0x0 DUP1 DUP4 PUSH1 0x1F DUP5 ADD SLT PUSH2 0x3447 JUMPI PUSH2 0x3446 PUSH2 0x4925 JUMP JUMPDEST JUMPDEST DUP3 CALLDATALOAD SWAP1 POP PUSH8 0xFFFFFFFFFFFFFFFF DUP2 GT ISZERO PUSH2 0x3464 JUMPI PUSH2 0x3463 PUSH2 0x4920 JUMP JUMPDEST JUMPDEST PUSH1 0x20 DUP4 ADD SWAP2 POP DUP4 PUSH1 0x1 DUP3 MUL DUP4 ADD GT ISZERO PUSH2 0x3480 JUMPI PUSH2 0x347F PUSH2 0x493E JUMP JUMPDEST JUMPDEST SWAP3 POP SWAP3 SWAP1 POP JUMP JUMPDEST PUSH1 0x0 DUP2 CALLDATALOAD SWAP1 POP PUSH2 0x3496 DUP2 PUSH2 0x4BC0 JUMP JUMPDEST SWAP3 SWAP2 POP POP JUMP JUMPDEST PUSH1 0x0 DUP3 PUSH1 0x1F DUP4 ADD SLT PUSH2 0x34B1 JUMPI PUSH2 0x34B0 PUSH2 0x4925 JUMP JUMPDEST JUMPDEST DUP2 CALLDATALOAD PUSH2 0x34C1 DUP5 DUP3 PUSH1 0x20 DUP7 ADD PUSH2 0x3343 JUMP JUMPDEST SWAP2 POP POP SWAP3 SWAP2 POP POP JUMP JUMPDEST PUSH1 0x0 PUSH1 0x60 DUP3 DUP5 SUB SLT ISZERO PUSH2 0x34E0 JUMPI PUSH2 0x34DF PUSH2 0x492F JUMP JUMPDEST JUMPDEST DUP2 SWAP1 POP SWAP3 SWAP2 POP POP JUMP JUMPDEST PUSH1 0x0 PUSH1 0x60 DUP3 DUP5 SUB SLT ISZERO PUSH2 0x34FF JUMPI PUSH2 0x34FE PUSH2 0x4934 JUMP JUMPDEST JUMPDEST PUSH2 0x3509 PUSH1 0x60 PUSH2 0x4355 JUMP JUMPDEST SWAP1 POP PUSH1 0x0 PUSH2 0x3519 DUP5 DUP3 DUP6 ADD PUSH2 0x3562 JUMP JUMPDEST PUSH1 0x0 DUP4 ADD MSTORE POP PUSH1 0x20 PUSH2 0x352D DUP5 DUP3 DUP6 ADD PUSH2 0x33AF JUMP JUMPDEST PUSH1 0x20 DUP4 ADD MSTORE POP PUSH1 0x40 PUSH2 0x3541 DUP5 DUP3 DUP6 ADD PUSH2 0x339A JUMP JUMPDEST PUSH1 0x40 DUP4 ADD MSTORE POP SWAP3 SWAP2 POP POP JUMP JUMPDEST PUSH1 0x0 DUP2 CALLDATALOAD SWAP1 POP PUSH2 0x355C DUP2 PUSH2 0x4BD7 JUMP JUMPDEST SWAP3 SWAP2 POP POP JUMP JUMPDEST PUSH1 0x0 DUP2 MLOAD SWAP1 POP PUSH2 0x3571 DUP2 PUSH2 0x4BD7 JUMP JUMPDEST SWAP3 SWAP2 POP POP JUMP JUMPDEST PUSH1 0x0 PUSH1 0x20 DUP3 DUP5 SUB SLT ISZERO PUSH2 0x358D JUMPI PUSH2 0x358C PUSH2 0x4952 JUMP JUMPDEST JUMPDEST PUSH1 0x0 PUSH2 0x359B DUP5 DUP3 DUP6 ADD PUSH2 0x3385 JUMP JUMPDEST SWAP2 POP POP SWAP3 SWAP2 POP POP JUMP JUMPDEST PUSH1 0x0 DUP1 PUSH1 0x40 DUP4 DUP6 SUB SLT ISZERO PUSH2 0x35BB JUMPI PUSH2 0x35BA PUSH2 0x4952 JUMP JUMPDEST JUMPDEST PUSH1 0x0 PUSH2 0x35C9 DUP6 DUP3 DUP7 ADD PUSH2 0x3385 JUMP JUMPDEST SWAP3 POP POP PUSH1 0x20 PUSH2 0x35DA DUP6 DUP3 DUP7 ADD PUSH2 0x3385 JUMP JUMPDEST SWAP2 POP POP SWAP3 POP SWAP3 SWAP1 POP JUMP JUMPDEST PUSH1 0x0 PUSH1 0x20 DUP3 DUP5 SUB SLT ISZERO PUSH2 0x35FA JUMPI PUSH2 0x35F9 PUSH2 0x4952 JUMP JUMPDEST JUMPDEST PUSH1 0x0 DUP3 ADD MLOAD PUSH8 0xFFFFFFFFFFFFFFFF DUP2 GT ISZERO PUSH2 0x3618 JUMPI PUSH2 0x3617 PUSH2 0x494D JUMP JUMPDEST JUMPDEST PUSH2 0x3624 DUP5 DUP3 DUP6 ADD PUSH2 0x33C4 JUMP JUMPDEST SWAP2 POP POP SWAP3 SWAP2 POP POP JUMP JUMPDEST PUSH1 0x0 PUSH1 0x20 DUP3 DUP5 SUB SLT ISZERO PUSH2 0x3643 JUMPI PUSH2 0x3642 PUSH2 0x4952 JUMP JUMPDEST JUMPDEST PUSH1 0x0 PUSH2 0x3651 DUP5 DUP3 DUP6 ADD PUSH2 0x33F2 JUMP JUMPDEST SWAP2 POP POP SWAP3 SWAP2 POP POP JUMP JUMPDEST PUSH1 0x0 PUSH1 0x20 DUP3 DUP5 SUB SLT ISZERO PUSH2 0x3670 JUMPI PUSH2 0x366F PUSH2 0x4952 JUMP JUMPDEST JUMPDEST PUSH1 0x0 PUSH2 0x367E DUP5 DUP3 DUP6 ADD PUSH2 0x3407 JUMP JUMPDEST SWAP2 POP POP SWAP3 SWAP2 POP POP JUMP JUMPDEST PUSH1 0x0 PUSH1 0x20 DUP3 DUP5 SUB SLT ISZERO PUSH2 0x369D JUMPI PUSH2 0x369C PUSH2 0x4952 JUMP JUMPDEST JUMPDEST PUSH1 0x0 PUSH2 0x36AB DUP5 DUP3 DUP6 ADD PUSH2 0x341C JUMP JUMPDEST SWAP2 POP POP SWAP3 SWAP2 POP POP JUMP JUMPDEST PUSH1 0x0 DUP1 PUSH1 0x0 DUP1 PUSH1 0x40 DUP6 DUP8 SUB SLT ISZERO PUSH2 0x36CE JUMPI PUSH2 0x36CD PUSH2 0x4952 JUMP JUMPDEST JUMPDEST PUSH1 0x0 DUP6 ADD CALLDATALOAD PUSH8 0xFFFFFFFFFFFFFFFF DUP2 GT ISZERO PUSH2 0x36EC JUMPI PUSH2 0x36EB PUSH2 0x494D JUMP JUMPDEST JUMPDEST PUSH2 0x36F8 DUP8 DUP3 DUP9 ADD PUSH2 0x3431 JUMP JUMPDEST SWAP5 POP SWAP5 POP POP PUSH1 0x20 DUP6 ADD CALLDATALOAD PUSH8 0xFFFFFFFFFFFFFFFF DUP2 GT ISZERO PUSH2 0x371B JUMPI PUSH2 0x371A PUSH2 0x494D JUMP JUMPDEST JUMPDEST PUSH2 0x3727 DUP8 DUP3 DUP9 ADD PUSH2 0x3431 JUMP JUMPDEST SWAP3 POP SWAP3 POP POP SWAP3 SWAP6 SWAP2 SWAP5 POP SWAP3 POP JUMP JUMPDEST PUSH1 0x0 DUP1 PUSH1 0x0 DUP1 PUSH1 0x0 DUP1 PUSH1 0x60 DUP8 DUP10 SUB SLT ISZERO PUSH2 0x3752 JUMPI PUSH2 0x3751 PUSH2 0x4952 JUMP JUMPDEST JUMPDEST PUSH1 0x0 DUP8 ADD CALLDATALOAD PUSH8 0xFFFFFFFFFFFFFFFF DUP2 GT ISZERO PUSH2 0x3770 JUMPI PUSH2 0x376F PUSH2 0x494D JUMP JUMPDEST JUMPDEST PUSH2 0x377C DUP10 DUP3 DUP11 ADD PUSH2 0x3431 JUMP JUMPDEST SWAP7 POP SWAP7 POP POP PUSH1 0x20 DUP8 ADD CALLDATALOAD PUSH8 0xFFFFFFFFFFFFFFFF DUP2 GT ISZERO PUSH2 0x379F JUMPI PUSH2 0x379E PUSH2 0x494D JUMP JUMPDEST JUMPDEST PUSH2 0x37AB DUP10 DUP3 DUP11 ADD PUSH2 0x3431 JUMP JUMPDEST SWAP5 POP SWAP5 POP POP PUSH1 0x40 DUP8 ADD CALLDATALOAD PUSH8 0xFFFFFFFFFFFFFFFF DUP2 GT ISZERO PUSH2 0x37CE JUMPI PUSH2 0x37CD PUSH2 0x494D JUMP JUMPDEST JUMPDEST PUSH2 0x37DA DUP10 DUP3 DUP11 ADD PUSH2 0x3431 JUMP JUMPDEST SWAP3 POP SWAP3 POP POP SWAP3 SWAP6 POP SWAP3 SWAP6 POP SWAP3 SWAP6 JUMP JUMPDEST PUSH1 0x0 DUP1 PUSH1 0x0 DUP1 PUSH1 0x0 DUP1 PUSH1 0x0 DUP1 PUSH1 0x0 PUSH1 0xA0 DUP11 DUP13 SUB SLT ISZERO PUSH2 0x380B JUMPI PUSH2 0x380A PUSH2 0x4952 JUMP JUMPDEST JUMPDEST PUSH1 0x0 DUP11 ADD CALLDATALOAD PUSH8 0xFFFFFFFFFFFFFFFF DUP2 GT ISZERO PUSH2 0x3829 JUMPI PUSH2 0x3828 PUSH2 0x494D JUMP JUMPDEST JUMPDEST PUSH2 0x3835 DUP13 DUP3 DUP14 ADD PUSH2 0x3431 JUMP JUMPDEST SWAP10 POP SWAP10 POP POP PUSH1 0x20 DUP11 ADD CALLDATALOAD PUSH8 0xFFFFFFFFFFFFFFFF DUP2 GT ISZERO PUSH2 0x3858 JUMPI PUSH2 0x3857 PUSH2 0x494D JUMP JUMPDEST JUMPDEST PUSH2 0x3864 DUP13 DUP3 DUP14 ADD PUSH2 0x3431 JUMP JUMPDEST SWAP8 POP SWAP8 POP POP PUSH1 0x40 DUP11 ADD CALLDATALOAD PUSH8 0xFFFFFFFFFFFFFFFF DUP2 GT ISZERO PUSH2 0x3887 JUMPI PUSH2 0x3886 PUSH2 0x494D JUMP JUMPDEST JUMPDEST PUSH2 0x3893 DUP13 DUP3 DUP14 ADD PUSH2 0x3431 JUMP JUMPDEST SWAP6 POP SWAP6 POP POP PUSH1 0x60 DUP11 ADD CALLDATALOAD PUSH8 0xFFFFFFFFFFFFFFFF DUP2 GT ISZERO PUSH2 0x38B6 JUMPI PUSH2 0x38B5 PUSH2 0x494D JUMP JUMPDEST JUMPDEST PUSH2 0x38C2 DUP13 DUP3 DUP14 ADD PUSH2 0x3431 JUMP JUMPDEST SWAP4 POP SWAP4 POP POP PUSH1 0x80 PUSH2 0x38D5 DUP13 DUP3 DUP14 ADD PUSH2 0x354D JUMP JUMPDEST SWAP2 POP POP SWAP3 SWAP6 SWAP9 POP SWAP3 SWAP6 SWAP9 POP SWAP3 SWAP6 SWAP9 JUMP JUMPDEST PUSH1 0x0 DUP1 PUSH1 0x0 PUSH1 0x40 DUP5 DUP7 SUB SLT ISZERO PUSH2 0x38FE JUMPI PUSH2 0x38FD PUSH2 0x4952 JUMP JUMPDEST JUMPDEST PUSH1 0x0 DUP5 ADD CALLDATALOAD PUSH8 0xFFFFFFFFFFFFFFFF DUP2 GT ISZERO PUSH2 0x391C JUMPI PUSH2 0x391B PUSH2 0x494D JUMP JUMPDEST JUMPDEST PUSH2 0x3928 DUP7 DUP3 DUP8 ADD PUSH2 0x3431 JUMP JUMPDEST SWAP4 POP SWAP4 POP POP PUSH1 0x20 PUSH2 0x393B DUP7 DUP3 DUP8 ADD PUSH2 0x354D JUMP JUMPDEST SWAP2 POP POP SWAP3 POP SWAP3 POP SWAP3 JUMP JUMPDEST PUSH1 0x0 PUSH1 0x20 DUP3 DUP5 SUB SLT ISZERO PUSH2 0x395B JUMPI PUSH2 0x395A PUSH2 0x4952 JUMP JUMPDEST JUMPDEST PUSH1 0x0 PUSH2 0x3969 DUP5 DUP3 DUP6 ADD PUSH2 0x3487 JUMP JUMPDEST SWAP2 POP POP SWAP3 SWAP2 POP POP JUMP JUMPDEST PUSH1 0x0 DUP1 PUSH1 0x0 PUSH1 0x60 DUP5 DUP7 SUB SLT ISZERO PUSH2 0x398B JUMPI PUSH2 0x398A PUSH2 0x4952 JUMP JUMPDEST JUMPDEST PUSH1 0x0 PUSH2 0x3999 DUP7 DUP3 DUP8 ADD PUSH2 0x3487 JUMP JUMPDEST SWAP4 POP POP PUSH1 0x20 PUSH2 0x39AA DUP7 DUP3 DUP8 ADD PUSH2 0x3385 JUMP JUMPDEST SWAP3 POP POP PUSH1 0x40 PUSH2 0x39BB DUP7 DUP3 DUP8 ADD PUSH2 0x354D JUMP JUMPDEST SWAP2 POP POP SWAP3 POP SWAP3 POP SWAP3 JUMP JUMPDEST PUSH1 0x0 DUP1 PUSH1 0x40 DUP4 DUP6 SUB SLT ISZERO PUSH2 0x39DC JUMPI PUSH2 0x39DB PUSH2 0x4952 JUMP JUMPDEST JUMPDEST PUSH1 0x0 PUSH2 0x39EA DUP6 DUP3 DUP7 ADD PUSH2 0x3487 JUMP JUMPDEST SWAP3 POP POP PUSH1 0x20 PUSH2 0x39FB DUP6 DUP3 DUP7 ADD PUSH2 0x354D JUMP JUMPDEST SWAP2 POP POP SWAP3 POP SWAP3 SWAP1 POP JUMP JUMPDEST PUSH1 0x0 DUP1 PUSH1 0x0 DUP1 PUSH1 0x80 DUP6 DUP8 SUB SLT ISZERO PUSH2 0x3A1F JUMPI PUSH2 0x3A1E PUSH2 0x4952 JUMP JUMPDEST JUMPDEST PUSH1 0x0 PUSH2 0x3A2D DUP8 DUP3 DUP9 ADD PUSH2 0x3487 JUMP JUMPDEST SWAP5 POP POP PUSH1 0x20 PUSH2 0x3A3E DUP8 DUP3 DUP9 ADD PUSH2 0x354D JUMP JUMPDEST SWAP4 POP POP PUSH1 0x40 DUP6 ADD CALLDATALOAD PUSH8 0xFFFFFFFFFFFFFFFF DUP2 GT ISZERO PUSH2 0x3A5F JUMPI PUSH2 0x3A5E PUSH2 0x494D JUMP JUMPDEST JUMPDEST PUSH2 0x3A6B DUP8 DUP3 DUP9 ADD PUSH2 0x349C JUMP JUMPDEST SWAP3 POP POP PUSH1 0x60 DUP6 ADD CALLDATALOAD PUSH8 0xFFFFFFFFFFFFFFFF DUP2 GT ISZERO PUSH2 0x3A8C JUMPI PUSH2 0x3A8B PUSH2 0x494D JUMP JUMPDEST JUMPDEST PUSH2 0x3A98 DUP8 DUP3 DUP9 ADD PUSH2 0x349C JUMP JUMPDEST SWAP2 POP POP SWAP3 SWAP6 SWAP2 SWAP5 POP SWAP3 POP JUMP JUMPDEST PUSH1 0x0 DUP1 PUSH1 0x40 DUP4 DUP6 SUB SLT ISZERO PUSH2 0x3ABB JUMPI PUSH2 0x3ABA PUSH2 0x4952 JUMP JUMPDEST JUMPDEST PUSH1 0x0 DUP4 ADD CALLDATALOAD PUSH8 0xFFFFFFFFFFFFFFFF DUP2 GT ISZERO PUSH2 0x3AD9 JUMPI PUSH2 0x3AD8 PUSH2 0x494D JUMP JUMPDEST JUMPDEST PUSH2 0x3AE5 DUP6 DUP3 DUP7 ADD PUSH2 0x349C JUMP JUMPDEST SWAP3 POP POP PUSH1 0x20 DUP4 ADD CALLDATALOAD PUSH8 0xFFFFFFFFFFFFFFFF DUP2 GT ISZERO PUSH2 0x3B06 JUMPI PUSH2 0x3B05 PUSH2 0x494D JUMP JUMPDEST JUMPDEST PUSH2 0x3B12 DUP6 DUP3 DUP7 ADD PUSH2 0x349C JUMP JUMPDEST SWAP2 POP POP SWAP3 POP SWAP3 SWAP1 POP JUMP JUMPDEST PUSH1 0x0 PUSH1 0x20 DUP3 DUP5 SUB SLT ISZERO PUSH2 0x3B32 JUMPI PUSH2 0x3B31 PUSH2 0x4952 JUMP JUMPDEST JUMPDEST PUSH1 0x0 DUP3 ADD CALLDATALOAD PUSH8 0xFFFFFFFFFFFFFFFF DUP2 GT ISZERO PUSH2 0x3B50 JUMPI PUSH2 0x3B4F PUSH2 0x494D JUMP JUMPDEST JUMPDEST PUSH2 0x3B5C DUP5 DUP3 DUP6 ADD PUSH2 0x34CA JUMP JUMPDEST SWAP2 POP POP SWAP3 SWAP2 POP POP JUMP JUMPDEST PUSH1 0x0 PUSH2 0x3B71 DUP4 DUP4 PUSH2 0x3E9F JUMP JUMPDEST PUSH1 0x20 DUP4 ADD SWAP1 POP SWAP3 SWAP2 POP POP JUMP JUMPDEST PUSH2 0x3B86 DUP2 PUSH2 0x46CD JUMP JUMPDEST DUP3 MSTORE POP POP JUMP JUMPDEST PUSH2 0x3B95 DUP2 PUSH2 0x43E1 JUMP JUMPDEST PUSH2 0x3B9F DUP2 DUP5 PUSH2 0x440F JUMP JUMPDEST SWAP3 POP PUSH2 0x3BAA DUP3 PUSH2 0x43D7 JUMP JUMPDEST DUP1 PUSH1 0x0 JUMPDEST DUP4 DUP2 LT ISZERO PUSH2 0x3BDB JUMPI DUP2 MLOAD PUSH2 0x3BC2 DUP8 DUP3 PUSH2 0x3B65 JUMP JUMPDEST SWAP7 POP PUSH2 0x3BCD DUP4 PUSH2 0x4402 JUMP JUMPDEST SWAP3 POP POP PUSH1 0x1 DUP2 ADD SWAP1 POP PUSH2 0x3BAE JUMP JUMPDEST POP POP POP POP POP POP JUMP JUMPDEST PUSH2 0x3BEC DUP2 PUSH2 0x46F1 JUMP JUMPDEST DUP3 MSTORE POP POP JUMP JUMPDEST PUSH2 0x3BFB DUP2 PUSH2 0x46FD JUMP JUMPDEST DUP3 MSTORE POP POP JUMP JUMPDEST PUSH1 0x0 PUSH2 0x3C0D DUP4 DUP6 PUSH2 0x442B JUMP JUMPDEST SWAP4 POP PUSH2 0x3C1A DUP4 DUP6 DUP5 PUSH2 0x4743 JUMP JUMPDEST DUP3 DUP5 ADD SWAP1 POP SWAP4 SWAP3 POP POP POP JUMP JUMPDEST PUSH1 0x0 PUSH2 0x3C31 DUP3 PUSH2 0x43EC JUMP JUMPDEST PUSH2 0x3C3B DUP2 DUP6 PUSH2 0x441A JUMP JUMPDEST SWAP4 POP PUSH2 0x3C4B DUP2 DUP6 PUSH1 0x20 DUP7 ADD PUSH2 0x4752 JUMP JUMPDEST PUSH2 0x3C54 DUP2 PUSH2 0x4957 JUMP JUMPDEST DUP5 ADD SWAP2 POP POP SWAP3 SWAP2 POP POP JUMP JUMPDEST PUSH1 0x0 PUSH2 0x3C6A DUP3 PUSH2 0x43EC JUMP JUMPDEST PUSH2 0x3C74 DUP2 DUP6 PUSH2 0x442B JUMP JUMPDEST SWAP4 POP PUSH2 0x3C84 DUP2 DUP6 PUSH1 0x20 DUP7 ADD PUSH2 0x4752 JUMP JUMPDEST DUP1 DUP5 ADD SWAP2 POP POP SWAP3 SWAP2 POP POP JUMP JUMPDEST PUSH1 0x0 PUSH2 0x3C9B DUP3 PUSH2 0x43F7 JUMP JUMPDEST PUSH2 0x3CA5 DUP2 DUP6 PUSH2 0x4436 JUMP JUMPDEST SWAP4 POP PUSH2 0x3CB5 DUP2 DUP6 PUSH1 0x20 DUP7 ADD PUSH2 0x4752 JUMP JUMPDEST PUSH2 0x3CBE DUP2 PUSH2 0x4957 JUMP JUMPDEST DUP5 ADD SWAP2 POP POP SWAP3 SWAP2 POP POP JUMP JUMPDEST PUSH1 0x0 PUSH2 0x3CD6 PUSH1 0x1D DUP4 PUSH2 0x4436 JUMP JUMPDEST SWAP2 POP PUSH2 0x3CE1 DUP3 PUSH2 0x4975 JUMP JUMPDEST PUSH1 0x20 DUP3 ADD SWAP1 POP SWAP2 SWAP1 POP JUMP JUMPDEST PUSH1 0x0 PUSH2 0x3CF9 PUSH1 0x6 DUP4 PUSH2 0x4436 JUMP JUMPDEST SWAP2 POP PUSH2 0x3D04 DUP3 PUSH2 0x499E JUMP JUMPDEST PUSH1 0x20 DUP3 ADD SWAP1 POP SWAP2 SWAP1 POP JUMP JUMPDEST PUSH1 0x0 PUSH2 0x3D1C PUSH1 0x19 DUP4 PUSH2 0x4436 JUMP JUMPDEST SWAP2 POP PUSH2 0x3D27 DUP3 PUSH2 0x49C7 JUMP JUMPDEST PUSH1 0x20 DUP3 ADD SWAP1 POP SWAP2 SWAP1 POP JUMP JUMPDEST PUSH1 0x0 PUSH2 0x3D3F PUSH1 0xE DUP4 PUSH2 0x4436 JUMP JUMPDEST SWAP2 POP PUSH2 0x3D4A DUP3 PUSH2 0x49F0 JUMP JUMPDEST PUSH1 0x20 DUP3 ADD SWAP1 POP SWAP2 SWAP1 POP JUMP JUMPDEST PUSH1 0x0 PUSH2 0x3D62 PUSH1 0x11 DUP4 PUSH2 0x4436 JUMP JUMPDEST SWAP2 POP PUSH2 0x3D6D DUP3 PUSH2 0x4A19 JUMP JUMPDEST PUSH1 0x20 DUP3 ADD SWAP1 POP SWAP2 SWAP1 POP JUMP JUMPDEST PUSH1 0x0 PUSH2 0x3D85 PUSH1 0x15 DUP4 PUSH2 0x4436 JUMP JUMPDEST SWAP2 POP PUSH2 0x3D90 DUP3 PUSH2 0x4A42 JUMP JUMPDEST PUSH1 0x20 DUP3 ADD SWAP1 POP SWAP2 SWAP1 POP JUMP JUMPDEST PUSH1 0x0 PUSH2 0x3DA8 PUSH1 0x12 DUP4 PUSH2 0x4436 JUMP JUMPDEST SWAP2 POP PUSH2 0x3DB3 DUP3 PUSH2 0x4A6B JUMP JUMPDEST PUSH1 0x20 DUP3 ADD SWAP1 POP SWAP2 SWAP1 POP JUMP JUMPDEST PUSH1 0x0 PUSH2 0x3DCB PUSH1 0x11 DUP4 PUSH2 0x4436 JUMP JUMPDEST SWAP2 POP PUSH2 0x3DD6 DUP3 PUSH2 0x4A94 JUMP JUMPDEST PUSH1 0x20 DUP3 ADD SWAP1 POP SWAP2 SWAP1 POP JUMP JUMPDEST PUSH1 0x0 PUSH2 0x3DEE PUSH1 0x13 DUP4 PUSH2 0x4436 JUMP JUMPDEST SWAP2 POP PUSH2 0x3DF9 DUP3 PUSH2 0x4ABD JUMP JUMPDEST PUSH1 0x20 DUP3 ADD SWAP1 POP SWAP2 SWAP1 POP JUMP JUMPDEST PUSH1 0x0 PUSH2 0x3E11 PUSH1 0xB DUP4 PUSH2 0x4436 JUMP JUMPDEST SWAP2 POP PUSH2 0x3E1C DUP3 PUSH2 0x4AE6 JUMP JUMPDEST PUSH1 0x20 DUP3 ADD SWAP1 POP SWAP2 SWAP1 POP JUMP JUMPDEST PUSH1 0x0 PUSH2 0x3E34 PUSH1 0x0 DUP4 PUSH2 0x4436 JUMP JUMPDEST SWAP2 POP PUSH2 0x3E3F DUP3 PUSH2 0x4B0F JUMP JUMPDEST PUSH1 0x0 DUP3 ADD SWAP1 POP SWAP2 SWAP1 POP JUMP JUMPDEST PUSH1 0x0 PUSH2 0x3E57 PUSH1 0x17 DUP4 PUSH2 0x4436 JUMP JUMPDEST SWAP2 POP PUSH2 0x3E62 DUP3 PUSH2 0x4B12 JUMP JUMPDEST PUSH1 0x20 DUP3 ADD SWAP1 POP SWAP2 SWAP1 POP JUMP JUMPDEST PUSH1 0x0 PUSH2 0x3E7A PUSH1 0x15 DUP4 PUSH2 0x4436 JUMP JUMPDEST SWAP2 POP PUSH2 0x3E85 DUP3 PUSH2 0x4B3B JUMP JUMPDEST PUSH1 0x20 DUP3 ADD SWAP1 POP SWAP2 SWAP1 POP JUMP JUMPDEST PUSH2 0x3E99 DUP2 PUSH2 0x4739 JUMP JUMPDEST DUP3 MSTORE POP POP JUMP JUMPDEST PUSH2 0x3EA8 DUP2 PUSH2 0x4739 JUMP JUMPDEST DUP3 MSTORE POP POP JUMP JUMPDEST PUSH2 0x3EBF PUSH2 0x3EBA DUP3 PUSH2 0x4739 JUMP JUMPDEST PUSH2 0x4829 JUMP JUMPDEST DUP3 MSTORE POP POP JUMP JUMPDEST PUSH1 0x0 PUSH2 0x3ED1 DUP3 DUP7 PUSH2 0x3B8C JUMP JUMPDEST PUSH1 0x40 DUP3 ADD SWAP2 POP PUSH2 0x3EE1 DUP3 DUP6 PUSH2 0x3B8C JUMP JUMPDEST PUSH1 0x40 DUP3 ADD SWAP2 POP PUSH2 0x3EF1 DUP3 DUP5 PUSH2 0x3C5F JUMP JUMPDEST SWAP2 POP DUP2 SWAP1 POP SWAP5 SWAP4 POP POP POP POP JUMP JUMPDEST PUSH1 0x0 PUSH2 0x3F0A DUP3 DUP7 PUSH2 0x3B8C JUMP JUMPDEST PUSH1 0x40 DUP3 ADD SWAP2 POP PUSH2 0x3F1A DUP3 DUP6 PUSH2 0x3B8C JUMP JUMPDEST PUSH1 0x40 DUP3 ADD SWAP2 POP PUSH2 0x3F2A DUP3 DUP5 PUSH2 0x3EAE JUMP JUMPDEST PUSH1 0x20 DUP3 ADD SWAP2 POP DUP2 SWAP1 POP SWAP5 SWAP4 POP POP POP POP JUMP JUMPDEST PUSH1 0x0 PUSH2 0x3F48 DUP3 DUP5 DUP7 PUSH2 0x3C01 JUMP JUMPDEST SWAP2 POP DUP2 SWAP1 POP SWAP4 SWAP3 POP POP POP JUMP JUMPDEST PUSH1 0x0 PUSH2 0x3F60 DUP3 DUP5 PUSH2 0x3C5F JUMP JUMPDEST SWAP2 POP DUP2 SWAP1 POP SWAP3 SWAP2 POP POP JUMP JUMPDEST PUSH1 0x0 PUSH2 0x3F77 DUP3 DUP6 PUSH2 0x3EAE JUMP JUMPDEST PUSH1 0x20 DUP3 ADD SWAP2 POP PUSH2 0x3F87 DUP3 DUP5 PUSH2 0x3EAE JUMP JUMPDEST PUSH1 0x20 DUP3 ADD SWAP2 POP DUP2 SWAP1 POP SWAP4 SWAP3 POP POP POP JUMP JUMPDEST PUSH1 0x0 PUSH1 0x20 DUP3 ADD SWAP1 POP PUSH2 0x3FAC PUSH1 0x0 DUP4 ADD DUP5 PUSH2 0x3B7D JUMP JUMPDEST SWAP3 SWAP2 POP POP JUMP JUMPDEST PUSH1 0x0 PUSH1 0x60 DUP3 ADD SWAP1 POP PUSH2 0x3FC7 PUSH1 0x0 DUP4 ADD DUP7 PUSH2 0x3B7D JUMP JUMPDEST PUSH2 0x3FD4 PUSH1 0x20 DUP4 ADD DUP6 PUSH2 0x3B7D JUMP JUMPDEST PUSH2 0x3FE1 PUSH1 0x40 DUP4 ADD DUP5 PUSH2 0x3E90 JUMP JUMPDEST SWAP5 SWAP4 POP POP POP POP JUMP JUMPDEST PUSH1 0x0 PUSH1 0x40 DUP3 ADD SWAP1 POP PUSH2 0x3FFE PUSH1 0x0 DUP4 ADD DUP6 PUSH2 0x3B7D JUMP JUMPDEST PUSH2 0x400B PUSH1 0x20 DUP4 ADD DUP5 PUSH2 0x3E90 JUMP JUMPDEST SWAP4 SWAP3 POP POP POP JUMP JUMPDEST PUSH1 0x0 PUSH1 0x20 DUP3 ADD SWAP1 POP PUSH2 0x4027 PUSH1 0x0 DUP4 ADD DUP5 PUSH2 0x3BE3 JUMP JUMPDEST SWAP3 SWAP2 POP POP JUMP JUMPDEST PUSH1 0x0 PUSH1 0x20 DUP3 ADD SWAP1 POP PUSH2 0x4042 PUSH1 0x0 DUP4 ADD DUP5 PUSH2 0x3BF2 JUMP JUMPDEST SWAP3 SWAP2 POP POP JUMP JUMPDEST PUSH1 0x0 PUSH1 0x20 DUP3 ADD SWAP1 POP DUP2 DUP2 SUB PUSH1 0x0 DUP4 ADD MSTORE PUSH2 0x4062 DUP2 DUP5 PUSH2 0x3C26 JUMP JUMPDEST SWAP1 POP SWAP3 SWAP2 POP POP JUMP JUMPDEST PUSH1 0x0 PUSH1 0x20 DUP3 ADD SWAP1 POP DUP2 DUP2 SUB PUSH1 0x0 DUP4 ADD MSTORE PUSH2 0x4083 DUP2 PUSH2 0x3CC9 JUMP JUMPDEST SWAP1 POP SWAP2 SWAP1 POP JUMP JUMPDEST PUSH1 0x0 PUSH1 0x20 DUP3 ADD SWAP1 POP DUP2 DUP2 SUB PUSH1 0x0 DUP4 ADD MSTORE PUSH2 0x40A3 DUP2 PUSH2 0x3CEC JUMP JUMPDEST SWAP1 POP SWAP2 SWAP1 POP JUMP JUMPDEST PUSH1 0x0 PUSH1 0x20 DUP3 ADD SWAP1 POP DUP2 DUP2 SUB PUSH1 0x0 DUP4 ADD MSTORE PUSH2 0x40C3 DUP2 PUSH2 0x3D0F JUMP JUMPDEST SWAP1 POP SWAP2 SWAP1 POP JUMP JUMPDEST PUSH1 0x0 PUSH1 0x20 DUP3 ADD SWAP1 POP DUP2 DUP2 SUB PUSH1 0x0 DUP4 ADD MSTORE PUSH2 0x40E3 DUP2 PUSH2 0x3D32 JUMP JUMPDEST SWAP1 POP SWAP2 SWAP1 POP JUMP JUMPDEST PUSH1 0x0 PUSH1 0x20 DUP3 ADD SWAP1 POP DUP2 DUP2 SUB PUSH1 0x0 DUP4 ADD MSTORE PUSH2 0x4103 DUP2 PUSH2 0x3D55 JUMP JUMPDEST SWAP1 POP SWAP2 SWAP1 POP JUMP JUMPDEST PUSH1 0x0 PUSH1 0x20 DUP3 ADD SWAP1 POP DUP2 DUP2 SUB PUSH1 0x0 DUP4 ADD MSTORE PUSH2 0x4123 DUP2 PUSH2 0x3D78 JUMP JUMPDEST SWAP1 POP SWAP2 SWAP1 POP JUMP JUMPDEST PUSH1 0x0 PUSH1 0x20 DUP3 ADD SWAP1 POP DUP2 DUP2 SUB PUSH1 0x0 DUP4 ADD MSTORE PUSH2 0x4143 DUP2 PUSH2 0x3D9B JUMP JUMPDEST SWAP1 POP SWAP2 SWAP1 POP JUMP JUMPDEST PUSH1 0x0 PUSH1 0x20 DUP3 ADD SWAP1 POP DUP2 DUP2 SUB PUSH1 0x0 DUP4 ADD MSTORE PUSH2 0x4163 DUP2 PUSH2 0x3DBE JUMP JUMPDEST SWAP1 POP SWAP2 SWAP1 POP JUMP JUMPDEST PUSH1 0x0 PUSH1 0x20 DUP3 ADD SWAP1 POP DUP2 DUP2 SUB PUSH1 0x0 DUP4 ADD MSTORE PUSH2 0x4183 DUP2 PUSH2 0x3DE1 JUMP JUMPDEST SWAP1 POP SWAP2 SWAP1 POP JUMP JUMPDEST PUSH1 0x0 PUSH1 0x20 DUP3 ADD SWAP1 POP DUP2 DUP2 SUB PUSH1 0x0 DUP4 ADD MSTORE PUSH2 0x41A3 DUP2 PUSH2 0x3E04 JUMP JUMPDEST SWAP1 POP SWAP2 SWAP1 POP JUMP JUMPDEST PUSH1 0x0 PUSH1 0x20 DUP3 ADD SWAP1 POP DUP2 DUP2 SUB PUSH1 0x0 DUP4 ADD MSTORE PUSH2 0x41C3 DUP2 PUSH2 0x3E27 JUMP JUMPDEST SWAP1 POP SWAP2 SWAP1 POP JUMP JUMPDEST PUSH1 0x0 PUSH1 0x20 DUP3 ADD SWAP1 POP DUP2 DUP2 SUB PUSH1 0x0 DUP4 ADD MSTORE PUSH2 0x41E3 DUP2 PUSH2 0x3E4A JUMP JUMPDEST SWAP1 POP SWAP2 SWAP1 POP JUMP JUMPDEST PUSH1 0x0 PUSH1 0x20 DUP3 ADD SWAP1 POP DUP2 DUP2 SUB PUSH1 0x0 DUP4 ADD MSTORE PUSH2 0x4203 DUP2 PUSH2 0x3E6D JUMP JUMPDEST SWAP1 POP SWAP2 SWAP1 POP JUMP JUMPDEST PUSH1 0x0 PUSH1 0x20 DUP3 ADD SWAP1 POP PUSH2 0x421F PUSH1 0x0 DUP4 ADD DUP5 PUSH2 0x3E90 JUMP JUMPDEST SWAP3 SWAP2 POP POP JUMP JUMPDEST PUSH1 0x0 PUSH1 0x80 DUP3 ADD SWAP1 POP PUSH2 0x423A PUSH1 0x0 DUP4 ADD DUP8 PUSH2 0x3E90 JUMP JUMPDEST PUSH2 0x4247 PUSH1 0x20 DUP4 ADD DUP7 PUSH2 0x3B7D JUMP JUMPDEST DUP2 DUP2 SUB PUSH1 0x40 DUP4 ADD MSTORE PUSH2 0x4259 DUP2 DUP6 PUSH2 0x3C90 JUMP JUMPDEST SWAP1 POP DUP2 DUP2 SUB PUSH1 0x60 DUP4 ADD MSTORE PUSH2 0x426D DUP2 DUP5 PUSH2 0x3C90 JUMP JUMPDEST SWAP1 POP SWAP6 SWAP5 POP POP POP POP POP JUMP JUMPDEST PUSH1 0x0 PUSH1 0x40 DUP3 ADD SWAP1 POP PUSH2 0x428D PUSH1 0x0 DUP4 ADD DUP6 PUSH2 0x3E90 JUMP JUMPDEST PUSH2 0x429A PUSH1 0x20 DUP4 ADD DUP5 PUSH2 0x3BE3 JUMP JUMPDEST SWAP4 SWAP3 POP POP POP JUMP JUMPDEST PUSH1 0x0 PUSH1 0x40 DUP3 ADD SWAP1 POP PUSH2 0x42B6 PUSH1 0x0 DUP4 ADD DUP6 PUSH2 0x3E90 JUMP JUMPDEST PUSH2 0x42C3 PUSH1 0x20 DUP4 ADD DUP5 PUSH2 0x3E90 JUMP JUMPDEST SWAP4 SWAP3 POP POP POP JUMP JUMPDEST PUSH1 0x0 DUP1 DUP4 CALLDATALOAD PUSH1 0x1 PUSH1 0x20 SUB DUP5 CALLDATASIZE SUB SUB DUP2 SLT PUSH2 0x42E7 JUMPI PUSH2 0x42E6 PUSH2 0x4939 JUMP JUMPDEST JUMPDEST DUP1 DUP5 ADD SWAP3 POP DUP3 CALLDATALOAD SWAP2 POP PUSH8 0xFFFFFFFFFFFFFFFF DUP3 GT ISZERO PUSH2 0x4309 JUMPI PUSH2 0x4308 PUSH2 0x492A JUMP JUMPDEST JUMPDEST PUSH1 0x20 DUP4 ADD SWAP3 POP PUSH1 0x1 DUP3 MUL CALLDATASIZE SUB DUP4 SGT ISZERO PUSH2 0x4325 JUMPI PUSH2 0x4324 PUSH2 0x4943 JUMP JUMPDEST JUMPDEST POP SWAP3 POP SWAP3 SWAP1 POP JUMP JUMPDEST PUSH1 0x0 DUP3 CALLDATALOAD PUSH1 0x1 PUSH1 0xA0 SUB DUP4 CALLDATASIZE SUB SUB DUP2 SLT PUSH2 0x4349 JUMPI PUSH2 0x4348 PUSH2 0x4939 JUMP JUMPDEST JUMPDEST DUP1 DUP4 ADD SWAP2 POP POP SWAP3 SWAP2 POP POP JUMP JUMPDEST PUSH1 0x0 PUSH2 0x435F PUSH2 0x4370 JUMP JUMPDEST SWAP1 POP PUSH2 0x436B DUP3 DUP3 PUSH2 0x47AF JUMP JUMPDEST SWAP2 SWAP1 POP JUMP JUMPDEST PUSH1 0x0 PUSH1 0x40 MLOAD SWAP1 POP SWAP1 JUMP JUMPDEST PUSH1 0x0 PUSH8 0xFFFFFFFFFFFFFFFF DUP3 GT ISZERO PUSH2 0x4395 JUMPI PUSH2 0x4394 PUSH2 0x48F1 JUMP JUMPDEST JUMPDEST PUSH1 0x20 DUP3 MUL SWAP1 POP PUSH1 0x20 DUP2 ADD SWAP1 POP SWAP2 SWAP1 POP JUMP JUMPDEST PUSH1 0x0 PUSH8 0xFFFFFFFFFFFFFFFF DUP3 GT ISZERO PUSH2 0x43C1 JUMPI PUSH2 0x43C0 PUSH2 0x48F1 JUMP JUMPDEST JUMPDEST PUSH2 0x43CA DUP3 PUSH2 0x4957 JUMP JUMPDEST SWAP1 POP PUSH1 0x20 DUP2 ADD SWAP1 POP SWAP2 SWAP1 POP JUMP JUMPDEST PUSH1 0x0 DUP2 SWAP1 POP SWAP2 SWAP1 POP JUMP JUMPDEST PUSH1 0x0 PUSH1 0x2 SWAP1 POP SWAP2 SWAP1 POP JUMP JUMPDEST PUSH1 0x0 DUP2 MLOAD SWAP1 POP SWAP2 SWAP1 POP JUMP JUMPDEST PUSH1 0x0 DUP2 MLOAD SWAP1 POP SWAP2 SWAP1 POP JUMP JUMPDEST PUSH1 0x0 PUSH1 0x20 DUP3 ADD SWAP1 POP SWAP2 SWAP1 POP JUMP JUMPDEST PUSH1 0x0 DUP2 SWAP1 POP SWAP3 SWAP2 POP POP JUMP JUMPDEST PUSH1 0x0 DUP3 DUP3 MSTORE PUSH1 0x20 DUP3 ADD SWAP1 POP SWAP3 SWAP2 POP POP JUMP JUMPDEST PUSH1 0x0 DUP2 SWAP1 POP SWAP3 SWAP2 POP POP JUMP JUMPDEST PUSH1 0x0 DUP3 DUP3 MSTORE PUSH1 0x20 DUP3 ADD SWAP1 POP SWAP3 SWAP2 POP POP JUMP JUMPDEST PUSH1 0x0 PUSH2 0x4452 DUP3 PUSH2 0x4739 JUMP JUMPDEST SWAP2 POP PUSH2 0x445D DUP4 PUSH2 0x4739 JUMP JUMPDEST SWAP3 POP DUP3 PUSH32 0xFFFFFFFFFFFFFFFFFFFFFFFFFFFFFFFFFFFFFFFFFFFFFFFFFFFFFFFFFFFFFFFF SUB DUP3 GT ISZERO PUSH2 0x4492 JUMPI PUSH2 0x4491 PUSH2 0x4864 JUMP JUMPDEST JUMPDEST DUP3 DUP3 ADD SWAP1 POP SWAP3 SWAP2 POP POP JUMP JUMPDEST PUSH1 0x0 PUSH2 0x44A8 DUP3 PUSH2 0x4739 JUMP JUMPDEST SWAP2 POP PUSH2 0x44B3 DUP4 PUSH2 0x4739 JUMP JUMPDEST SWAP3 POP DUP3 PUSH2 0x44C3 JUMPI PUSH2 0x44C2 PUSH2 0x4893 JUMP JUMPDEST JUMPDEST DUP3 DUP3 DIV SWAP1 POP SWAP3 SWAP2 POP POP JUMP JUMPDEST PUSH1 0x0 DUP1 DUP3 SWAP2 POP DUP4 SWAP1 POP JUMPDEST PUSH1 0x1 DUP6 GT ISZERO PUSH2 0x4518 JUMPI DUP1 DUP7 DIV DUP2 GT ISZERO PUSH2 0x44F4 JUMPI PUSH2 0x44F3 PUSH2 0x4864 JUMP JUMPDEST JUMPDEST PUSH1 0x1 DUP6 AND ISZERO PUSH2 0x4503 JUMPI DUP1 DUP3 MUL SWAP2 POP JUMPDEST DUP1 DUP2 MUL SWAP1 POP PUSH2 0x4511 DUP6 PUSH2 0x4968 JUMP JUMPDEST SWAP5 POP PUSH2 0x44D8 JUMP JUMPDEST SWAP5 POP SWAP5 SWAP3 POP POP POP JUMP JUMPDEST PUSH1 0x0 PUSH2 0x452C DUP3 PUSH2 0x4739 JUMP JUMPDEST SWAP2 POP PUSH2 0x4537 DUP4 PUSH2 0x4739 JUMP JUMPDEST SWAP3 POP PUSH2 0x4564 PUSH32 0xFFFFFFFFFFFFFFFFFFFFFFFFFFFFFFFFFFFFFFFFFFFFFFFFFFFFFFFFFFFFFFFF DUP5 DUP5 PUSH2 0x456C JUMP JUMPDEST SWAP1 POP SWAP3 SWAP2 POP POP JUMP JUMPDEST PUSH1 0x0 DUP3 PUSH2 0x457C JUMPI PUSH1 0x1 SWAP1 POP PUSH2 0x4638 JUMP JUMPDEST DUP2 PUSH2 0x458A JUMPI PUSH1 0x0 SWAP1 POP PUSH2 0x4638 JUMP JUMPDEST DUP2 PUSH1 0x1 DUP2 EQ PUSH2 0x45A0 JUMPI PUSH1 0x2 DUP2 EQ PUSH2 0x45AA JUMPI PUSH2 0x45D9 JUMP JUMPDEST PUSH1 0x1 SWAP2 POP POP PUSH2 0x4638 JUMP JUMPDEST PUSH1 0xFF DUP5 GT ISZERO PUSH2 0x45BC JUMPI PUSH2 0x45BB PUSH2 0x4864 JUMP JUMPDEST JUMPDEST DUP4 PUSH1 0x2 EXP SWAP2 POP DUP5 DUP3 GT ISZERO PUSH2 0x45D3 JUMPI PUSH2 0x45D2 PUSH2 0x4864 JUMP JUMPDEST JUMPDEST POP PUSH2 0x4638 JUMP JUMPDEST POP PUSH1 0x20 DUP4 LT PUSH2 0x133 DUP4 LT AND PUSH1 0x4E DUP5 LT PUSH1 0xB DUP5 LT AND OR ISZERO PUSH2 0x460E JUMPI DUP3 DUP3 EXP SWAP1 POP DUP4 DUP2 GT ISZERO PUSH2 0x4609 JUMPI PUSH2 0x4608 PUSH2 0x4864 JUMP JUMPDEST JUMPDEST PUSH2 0x4638 JUMP JUMPDEST PUSH2 0x461B DUP5 DUP5 DUP5 PUSH1 0x1 PUSH2 0x44CE JUMP JUMPDEST SWAP3 POP SWAP1 POP DUP2 DUP5 DIV DUP2 GT ISZERO PUSH2 0x4632 JUMPI PUSH2 0x4631 PUSH2 0x4864 JUMP JUMPDEST JUMPDEST DUP2 DUP2 MUL SWAP1 POP JUMPDEST SWAP4 SWAP3 POP POP POP JUMP JUMPDEST PUSH1 0x0 PUSH2 0x464A DUP3 PUSH2 0x4739 JUMP JUMPDEST SWAP2 POP PUSH2 0x4655 DUP4 PUSH2 0x4739 JUMP JUMPDEST SWAP3 POP DUP2 PUSH32 0xFFFFFFFFFFFFFFFFFFFFFFFFFFFFFFFFFFFFFFFFFFFFFFFFFFFFFFFFFFFFFFFF DIV DUP4 GT DUP3 ISZERO ISZERO AND ISZERO PUSH2 0x468E JUMPI PUSH2 0x468D PUSH2 0x4864 JUMP JUMPDEST JUMPDEST DUP3 DUP3 MUL SWAP1 POP SWAP3 SWAP2 POP POP JUMP JUMPDEST PUSH1 0x0 PUSH2 0x46A4 DUP3 PUSH2 0x4739 JUMP JUMPDEST SWAP2 POP PUSH2 0x46AF DUP4 PUSH2 0x4739 JUMP JUMPDEST SWAP3 POP DUP3 DUP3 LT ISZERO PUSH2 0x46C2 JUMPI PUSH2 0x46C1 PUSH2 0x4864 JUMP JUMPDEST JUMPDEST DUP3 DUP3 SUB SWAP1 POP SWAP3 SWAP2 POP POP JUMP JUMPDEST PUSH1 0x0 PUSH2 0x46D8 DUP3 PUSH2 0x4719 JUMP JUMPDEST SWAP1 POP SWAP2 SWAP1 POP JUMP JUMPDEST PUSH1 0x0 PUSH2 0x46EA DUP3 PUSH2 0x4719 JUMP JUMPDEST SWAP1 POP SWAP2 SWAP1 POP JUMP JUMPDEST PUSH1 0x0 DUP2 ISZERO ISZERO SWAP1 POP SWAP2 SWAP1 POP JUMP JUMPDEST PUSH1 0x0 DUP2 SWAP1 POP SWAP2 SWAP1 POP JUMP JUMPDEST PUSH1 0x0 PUSH2 0x4712 DUP3 PUSH2 0x46CD JUMP JUMPDEST SWAP1 POP SWAP2 SWAP1 POP JUMP JUMPDEST PUSH1 0x0 PUSH20 0xFFFFFFFFFFFFFFFFFFFFFFFFFFFFFFFFFFFFFFFF DUP3 AND SWAP1 POP SWAP2 SWAP1 POP JUMP JUMPDEST PUSH1 0x0 DUP2 SWAP1 POP SWAP2 SWAP1 POP JUMP JUMPDEST DUP3 DUP2 DUP4 CALLDATACOPY PUSH1 0x0 DUP4 DUP4 ADD MSTORE POP POP POP JUMP JUMPDEST PUSH1 0x0 JUMPDEST DUP4 DUP2 LT ISZERO PUSH2 0x4770 JUMPI DUP1 DUP3 ADD MLOAD DUP2 DUP5 ADD MSTORE PUSH1 0x20 DUP2 ADD SWAP1 POP PUSH2 0x4755 JUMP JUMPDEST DUP4 DUP2 GT ISZERO PUSH2 0x477F JUMPI PUSH1 0x0 DUP5 DUP5 ADD MSTORE JUMPDEST POP POP POP POP JUMP JUMPDEST PUSH1 0x0 PUSH2 0x4790 DUP3 PUSH2 0x4739 JUMP JUMPDEST SWAP2 POP PUSH1 0x0 DUP3 EQ ISZERO PUSH2 0x47A4 JUMPI PUSH2 0x47A3 PUSH2 0x4864 JUMP JUMPDEST JUMPDEST PUSH1 0x1 DUP3 SUB SWAP1 POP SWAP2 SWAP1 POP JUMP JUMPDEST PUSH2 0x47B8 DUP3 PUSH2 0x4957 JUMP JUMPDEST DUP2 ADD DUP2 DUP2 LT PUSH8 0xFFFFFFFFFFFFFFFF DUP3 GT OR ISZERO PUSH2 0x47D7 JUMPI PUSH2 0x47D6 PUSH2 0x48F1 JUMP JUMPDEST JUMPDEST DUP1 PUSH1 0x40 MSTORE POP POP POP JUMP JUMPDEST PUSH1 0x0 PUSH2 0x47EB DUP3 PUSH2 0x4739 JUMP JUMPDEST SWAP2 POP PUSH32 0xFFFFFFFFFFFFFFFFFFFFFFFFFFFFFFFFFFFFFFFFFFFFFFFFFFFFFFFFFFFFFFFF DUP3 EQ ISZERO PUSH2 0x481E JUMPI PUSH2 0x481D PUSH2 0x4864 JUMP JUMPDEST JUMPDEST PUSH1 0x1 DUP3 ADD SWAP1 POP SWAP2 SWAP1 POP JUMP JUMPDEST PUSH1 0x0 DUP2 SWAP1 POP SWAP2 SWAP1 POP JUMP JUMPDEST PUSH1 0x0 PUSH2 0x483E DUP3 PUSH2 0x4739 JUMP JUMPDEST SWAP2 POP PUSH2 0x4849 DUP4 PUSH2 0x4739 JUMP JUMPDEST SWAP3 POP DUP3 PUSH2 0x4859 JUMPI PUSH2 0x4858 PUSH2 0x4893 JUMP JUMPDEST JUMPDEST DUP3 DUP3 MOD SWAP1 POP SWAP3 SWAP2 POP POP JUMP JUMPDEST PUSH32 0x4E487B7100000000000000000000000000000000000000000000000000000000 PUSH1 0x0 MSTORE PUSH1 0x11 PUSH1 0x4 MSTORE PUSH1 0x24 PUSH1 0x0 REVERT JUMPDEST PUSH32 0x4E487B7100000000000000000000000000000000000000000000000000000000 PUSH1 0x0 MSTORE PUSH1 0x12 PUSH1 0x4 MSTORE PUSH1 0x24 PUSH1 0x0 REVERT JUMPDEST PUSH32 0x4E487B7100000000000000000000000000000000000000000000000000000000 PUSH1 0x0 MSTORE PUSH1 0x32 PUSH1 0x4 MSTORE PUSH1 0x24 PUSH1 0x0 REVERT JUMPDEST PUSH32 0x4E487B7100000000000000000000000000000000000000000000000000000000 PUSH1 0x0 MSTORE PUSH1 0x41 PUSH1 0x4 MSTORE PUSH1 0x24 PUSH1 0x0 REVERT JUMPDEST PUSH1 0x0 DUP1 REVERT JUMPDEST PUSH1 0x0 DUP1 REVERT JUMPDEST PUSH1 0x0 DUP1 REVERT JUMPDEST PUSH1 0x0 DUP1 REVERT JUMPDEST PUSH1 0x0 DUP1 REVERT JUMPDEST PUSH1 0x0 DUP1 REVERT JUMPDEST PUSH1 0x0 DUP1 REVERT JUMPDEST PUSH1 0x0 DUP1 REVERT JUMPDEST PUSH1 0x0 DUP1 REVERT JUMPDEST PUSH1 0x0 DUP1 REVERT JUMPDEST PUSH1 0x0 DUP1 REVERT JUMPDEST PUSH1 0x0 PUSH1 0x1F NOT PUSH1 0x1F DUP4 ADD AND SWAP1 POP SWAP2 SWAP1 POP JUMP JUMPDEST PUSH1 0x0 DUP2 PUSH1 0x1 SHR SWAP1 POP SWAP2 SWAP1 POP JUMP JUMPDEST PUSH32 0x4661696C656420746F2063616C63756C617465206C6567656E6472652E000000 PUSH1 0x0 DUP3 ADD MSTORE POP JUMP JUMPDEST PUSH32 0x4C6F636B65640000000000000000000000000000000000000000000000000000 PUSH1 0x0 DUP3 ADD MSTORE POP JUMP JUMPDEST PUSH32 0x50616972696E67206F7065726174696F6E206661696C65642E00000000000000 PUSH1 0x0 DUP3 ADD MSTORE POP JUMP JUMPDEST PUSH32 0x416C726561647920657869737473000000000000000000000000000000000000 PUSH1 0x0 DUP3 ADD MSTORE POP JUMP JUMPDEST PUSH32 0x496E76616C6964207369676E6174757265000000000000000000000000000000 PUSH1 0x0 DUP3 ADD MSTORE POP JUMP JUMPDEST PUSH32 0x556E6F70656E6564206173736574204272696467650000000000000000000000 PUSH1 0x0 DUP3 ADD MSTORE POP JUMP JUMPDEST PUSH32 0x546F6F206C6974746C65206465706F7369740000000000000000000000000000 PUSH1 0x0 DUP3 ADD MSTORE POP JUMP JUMPDEST PUSH32 0x41646420706F696E7473206661696C6564000000000000000000000000000000 PUSH1 0x0 DUP3 ADD MSTORE POP JUMP JUMPDEST PUSH32 0x5472616E7366657246726F6D206661696C656400000000000000000000000000 PUSH1 0x0 DUP3 ADD MSTORE POP JUMP JUMPDEST PUSH32 0x696E76616C6964206B6579000000000000000000000000000000000000000000 PUSH1 0x0 DUP3 ADD MSTORE POP JUMP JUMPDEST POP JUMP JUMPDEST PUSH32 0x496E73756666696369656E742065746820746F6B656E73000000000000000000 PUSH1 0x0 DUP3 ADD MSTORE POP JUMP JUMPDEST PUSH32 0x506F696E7420636F756E74206D69736D617463682E0000000000000000000000 PUSH1 0x0 DUP3 ADD MSTORE POP JUMP JUMPDEST PUSH2 0x4B6D DUP2 PUSH2 0x46CD JUMP JUMPDEST DUP2 EQ PUSH2 0x4B78 JUMPI PUSH1 0x0 DUP1 REVERT JUMPDEST POP JUMP JUMPDEST PUSH2 0x4B84 DUP2 PUSH2 0x46DF JUMP JUMPDEST DUP2 EQ PUSH2 0x4B8F JUMPI PUSH1 0x0 DUP1 REVERT JUMPDEST POP JUMP JUMPDEST PUSH2 0x4B9B DUP2 PUSH2 0x46F1 JUMP JUMPDEST DUP2 EQ PUSH2 0x4BA6 JUMPI PUSH1 0x0 DUP1 REVERT JUMPDEST POP JUMP JUMPDEST PUSH2 0x4BB2 DUP2 PUSH2 0x46FD JUMP JUMPDEST DUP2 EQ PUSH2 0x4BBD JUMPI PUSH1 0x0 DUP1 REVERT JUMPDEST POP JUMP JUMPDEST PUSH2 0x4BC9 DUP2 PUSH2 0x4707 JUMP JUMPDEST DUP2 EQ PUSH2 0x4BD4 JUMPI PUSH1 0x0 DUP1 REVERT JUMPDEST POP JUMP JUMPDEST PUSH2 0x4BE0 DUP2 PUSH2 0x4739 JUMP JUMPDEST DUP2 EQ PUSH2 0x4BEB JUMPI PUSH1 0x0 DUP1 REVERT JUMPDEST POP JUMP INVALID LOG2 PUSH5 0x6970667358 0x22 SLT KECCAK256 0xAF 0xE0 0xEE DUP11 0xC2 SWAP10 GASLIMIT 0x28 PUSH29 0xEF98E34A0A3AE3A9DC0CA3C06852CA4FD80F50E64306E964736F6C6343 STOP ADDMOD SMOD STOP CALLER "
		},
		"gasEstimates": {
			"creation": {
				"codeDepositCost": "3898400",
				"executionCost": "infinite",
				"totalCost": "infinite"
			},
			"external": {
				"EthAddress()": "2697",
				"ReleaseAsset((uint256,bytes,(bytes,bytes,bytes,bytes,uint256)))": "infinite",
				"accountLock(address)": "53743",
				"accountLockout(address)": "2956",
				"accountUnlock(address)": "522",
				"addCommittee(address)": "75825",
				"addErc20Asset(address)": "24878",
				"addLiquidity(address,uint256)": "infinite",
				"addOnCurveE1(bytes,bytes)": "infinite",
				"aggregatedPublicKey()": "2475",
				"assetTable(address)": "2979",
				"balanceOf(address,address)": "infinite",
				"change()": "26615",
				"committee(address)": "5172",
				"committeeNum()": "2540",
				"depositErc20Token(address,uint256,string,string)": "infinite",
				"depositEth(string,string)": "infinite",
				"open()": "2578",
				"remakeAggregatedPublicKey(bytes32)": "22632",
				"transfer(address,address,uint256)": "infinite",
				"verified()": "2516",
				"verifyAggregatedHash(bytes,uint256)": "infinite",
				"verifyMultisignature(bytes,bytes,bytes,bytes,uint256)": "infinite",
				"verifySignature(bytes,bytes,bytes)": "infinite",
				"verifySignaturePoint(bytes,bytes,bytes)": "infinite",
				"withdraw(address,uint256)": "infinite"
			},
			"internal": {
				"getPool(bytes memory)": "infinite"
			}
		},
		"methodIdentifiers": {
			"EthAddress()": "baf0bfd3",
			"ReleaseAsset((uint256,bytes,(bytes,bytes,bytes,bytes,uint256)))": "ace43d9d",
			"accountLock(address)": "129ed395",
			"accountLockout(address)": "7669c35f",
			"accountUnlock(address)": "9f581b88",
			"addCommittee(address)": "38046217",
			"addErc20Asset(address)": "85a383d0",
			"addLiquidity(address,uint256)": "56688700",
			"addOnCurveE1(bytes,bytes)": "557bb038",
			"aggregatedPublicKey()": "2e517e9b",
			"assetTable(address)": "236e0e40",
			"balanceOf(address,address)": "f7888aec",
			"change()": "2ee79ded",
			"committee(address)": "130f679d",
			"committeeNum()": "b6fb39d5",
			"depositErc20Token(address,uint256,string,string)": "02afc34f",
			"depositEth(string,string)": "e50381fc",
			"open()": "fcfff16f",
			"remakeAggregatedPublicKey(bytes32)": "194756af",
			"transfer(address,address,uint256)": "beabacc8",
			"verified()": "bbb82d89",
			"verifyAggregatedHash(bytes,uint256)": "8674df8c",
			"verifyMultisignature(bytes,bytes,bytes,bytes,uint256)": "0bd95138",
			"verifySignature(bytes,bytes,bytes)": "f6e548e9",
			"verifySignaturePoint(bytes,bytes,bytes)": "501145f9",
			"withdraw(address,uint256)": "f3fef3a3"
		}
	},
	"abi": [
		{
			"inputs": [
				{
					"internalType": "address[]",
					"name": "_member",
					"type": "address[]"
				}
			],
			"stateMutability": "nonpayable",
			"type": "constructor"
		},
		{
			"anonymous": false,
			"inputs": [
				{
					"indexed": true,
					"internalType": "address",
					"name": "sender",
					"type": "address"
				},
				{
					"indexed": true,
					"internalType": "uint256",
					"name": "amount",
					"type": "uint256"
				},
				{
					"indexed": false,
					"internalType": "uint256",
					"name": "blockNumber",
					"type": "uint256"
				},
				{
					"indexed": false,
					"internalType": "address",
					"name": "targetErc20TokenAddress",
					"type": "address"
				},
				{
					"indexed": false,
					"internalType": "string",
					"name": "tokenCanister",
					"type": "string"
				},
				{
					"indexed": false,
					"internalType": "string",
					"name": "icwallet",
					"type": "string"
				}
			],
			"name": "Deposit",
			"type": "event"
		},
		{
			"inputs": [],
			"name": "EthAddress",
			"outputs": [
				{
					"internalType": "address",
					"name": "",
					"type": "address"
				}
			],
			"stateMutability": "view",
			"type": "function"
		},
		{
			"inputs": [
				{
					"components": [
						{
							"internalType": "uint256",
							"name": "bridgeBlock",
							"type": "uint256"
						},
						{
							"internalType": "bytes",
							"name": "pool",
							"type": "bytes"
						},
						{
							"components": [
								{
									"internalType": "bytes",
									"name": "aggregatedPublicKey",
									"type": "bytes"
								},
								{
									"internalType": "bytes",
									"name": "partPublicKey",
									"type": "bytes"
								},
								{
									"internalType": "bytes",
									"name": "message",
									"type": "bytes"
								},
								{
									"internalType": "bytes",
									"name": "partSignature",
									"type": "bytes"
								},
								{
									"internalType": "uint256",
									"name": "signersBitmask",
									"type": "uint256"
								}
							],
							"internalType": "struct BridgeLibraryV1.VerifyMultiSign",
							"name": "verifyMultiSign",
							"type": "tuple"
						}
					],
					"internalType": "struct BridgeLibraryV1.Rollup",
					"name": "_rollup",
					"type": "tuple"
				}
			],
			"name": "ReleaseAsset",
			"outputs": [],
			"stateMutability": "nonpayable",
			"type": "function"
		},
		{
			"inputs": [
				{
					"internalType": "address",
					"name": "_newMember",
					"type": "address"
				}
			],
			"name": "accountLock",
			"outputs": [],
			"stateMutability": "nonpayable",
			"type": "function"
		},
		{
			"inputs": [
				{
					"internalType": "address",
					"name": "",
					"type": "address"
				}
			],
			"name": "accountLockout",
			"outputs": [
				{
					"internalType": "bool",
					"name": "",
					"type": "bool"
				}
			],
			"stateMutability": "view",
			"type": "function"
		},
		{
			"inputs": [
				{
					"internalType": "address",
					"name": "_newMember",
					"type": "address"
				}
			],
			"name": "accountUnlock",
			"outputs": [],
			"stateMutability": "nonpayable",
			"type": "function"
		},
		{
			"inputs": [
				{
					"internalType": "address",
					"name": "_newMember",
					"type": "address"
				}
			],
			"name": "addCommittee",
			"outputs": [],
			"stateMutability": "nonpayable",
			"type": "function"
		},
		{
			"inputs": [
				{
					"internalType": "contract IERC20",
					"name": "_erc20token",
					"type": "address"
				}
			],
			"name": "addErc20Asset",
			"outputs": [],
			"stateMutability": "nonpayable",
			"type": "function"
		},
		{
			"inputs": [
				{
					"internalType": "contract IERC20",
					"name": "_erc20",
					"type": "address"
				},
				{
					"internalType": "uint256",
					"name": "_amount",
					"type": "uint256"
				}
			],
			"name": "addLiquidity",
			"outputs": [],
			"stateMutability": "nonpayable",
			"type": "function"
		},
		{
			"inputs": [
				{
					"internalType": "bytes",
					"name": "_p1",
					"type": "bytes"
				},
				{
					"internalType": "bytes",
					"name": "_p2",
					"type": "bytes"
				}
			],
			"name": "addOnCurveE1",
			"outputs": [
				{
					"internalType": "bytes",
					"name": "",
					"type": "bytes"
				}
			],
			"stateMutability": "view",
			"type": "function"
		},
		{
			"inputs": [],
			"name": "aggregatedPublicKey",
			"outputs": [
				{
					"internalType": "bytes32",
					"name": "",
					"type": "bytes32"
				}
			],
			"stateMutability": "view",
			"type": "function"
		},
		{
			"inputs": [
				{
					"internalType": "address",
					"name": "",
					"type": "address"
				}
			],
			"name": "assetTable",
			"outputs": [
				{
					"internalType": "bool",
					"name": "",
					"type": "bool"
				}
			],
			"stateMutability": "view",
			"type": "function"
		},
		{
			"inputs": [
				{
					"internalType": "address",
					"name": "",
					"type": "address"
				},
				{
					"internalType": "address",
					"name": "",
					"type": "address"
				}
			],
			"name": "balanceOf",
			"outputs": [
				{
					"internalType": "uint256",
					"name": "",
					"type": "uint256"
				}
			],
			"stateMutability": "view",
			"type": "function"
		},
		{
			"inputs": [],
			"name": "change",
			"outputs": [],
			"stateMutability": "nonpayable",
			"type": "function"
		},
		{
			"inputs": [
				{
					"internalType": "address",
					"name": "",
					"type": "address"
				}
			],
			"name": "committee",
			"outputs": [
				{
					"internalType": "uint256",
					"name": "index",
					"type": "uint256"
				},
				{
					"internalType": "bool",
					"name": "isMember",
					"type": "bool"
				}
			],
			"stateMutability": "view",
			"type": "function"
		},
		{
			"inputs": [],
			"name": "committeeNum",
			"outputs": [
				{
					"internalType": "uint256",
					"name": "",
					"type": "uint256"
				}
			],
			"stateMutability": "view",
			"type": "function"
		},
		{
			"inputs": [
				{
					"internalType": "contract IERC20",
					"name": "_erc20token",
					"type": "address"
				},
				{
					"internalType": "uint256",
					"name": "_amount",
					"type": "uint256"
				},
				{
					"internalType": "string",
					"name": "_tokenCanister",
					"type": "string"
				},
				{
					"internalType": "string",
					"name": "_icwallet",
					"type": "string"
				}
			],
			"name": "depositErc20Token",
			"outputs": [],
			"stateMutability": "nonpayable",
			"type": "function"
		},
		{
			"inputs": [
				{
					"internalType": "string",
					"name": "_tokenCanister",
					"type": "string"
				},
				{
					"internalType": "string",
					"name": "_icwallet",
					"type": "string"
				}
			],
			"name": "depositEth",
			"outputs": [],
			"stateMutability": "payable",
			"type": "function"
		},
		{
			"inputs": [],
			"name": "open",
			"outputs": [
				{
					"internalType": "bool",
					"name": "",
					"type": "bool"
				}
			],
			"stateMutability": "view",
			"type": "function"
		},
		{
			"inputs": [
				{
					"internalType": "bytes32",
					"name": "_newKey",
					"type": "bytes32"
				}
			],
			"name": "remakeAggregatedPublicKey",
			"outputs": [],
			"stateMutability": "nonpayable",
			"type": "function"
		},
		{
			"inputs": [
				{
					"internalType": "contract IERC20",
					"name": "_erc20",
					"type": "address"
				},
				{
					"internalType": "address",
					"name": "_to",
					"type": "address"
				},
				{
					"internalType": "uint256",
					"name": "_amount",
					"type": "uint256"
				}
			],
			"name": "transfer",
			"outputs": [],
			"stateMutability": "nonpayable",
			"type": "function"
		},
		{
			"inputs": [],
			"name": "verified",
			"outputs": [
				{
					"internalType": "bool",
					"name": "",
					"type": "bool"
				}
			],
			"stateMutability": "view",
			"type": "function"
		},
		{
			"inputs": [
				{
					"internalType": "bytes",
					"name": "_p",
					"type": "bytes"
				},
				{
					"internalType": "uint256",
					"name": "index",
					"type": "uint256"
				}
			],
			"name": "verifyAggregatedHash",
			"outputs": [
				{
					"internalType": "bytes",
					"name": "",
					"type": "bytes"
				}
			],
			"stateMutability": "view",
			"type": "function"
		},
		{
			"inputs": [
				{
					"internalType": "bytes",
					"name": "_aggregatedPublicKey",
					"type": "bytes"
				},
				{
					"internalType": "bytes",
					"name": "_partPublicKey",
					"type": "bytes"
				},
				{
					"internalType": "bytes",
					"name": "_message",
					"type": "bytes"
				},
				{
					"internalType": "bytes",
					"name": "_partSignature",
					"type": "bytes"
				},
				{
					"internalType": "uint256",
					"name": "_signersBitmask",
					"type": "uint256"
				}
			],
			"name": "verifyMultisignature",
			"outputs": [
				{
					"internalType": "bool",
					"name": "",
					"type": "bool"
				}
			],
			"stateMutability": "view",
			"type": "function"
		},
		{
			"inputs": [
				{
					"internalType": "bytes",
					"name": "_publicKey",
					"type": "bytes"
				},
				{
					"internalType": "bytes",
					"name": "_message",
					"type": "bytes"
				},
				{
					"internalType": "bytes",
					"name": "_signature",
					"type": "bytes"
				}
			],
			"name": "verifySignature",
			"outputs": [],
			"stateMutability": "nonpayable",
			"type": "function"
		},
		{
			"inputs": [
				{
					"internalType": "bytes",
					"name": "_publicKey",
					"type": "bytes"
				},
				{
					"internalType": "bytes",
					"name": "_message",
					"type": "bytes"
				},
				{
					"internalType": "bytes",
					"name": "_signature",
					"type": "bytes"
				}
			],
			"name": "verifySignaturePoint",
			"outputs": [],
			"stateMutability": "nonpayable",
			"type": "function"
		},
		{
			"inputs": [
				{
					"internalType": "contract IERC20",
					"name": "_erc20",
					"type": "address"
				},
				{
					"internalType": "uint256",
					"name": "_amount",
					"type": "uint256"
				}
			],
			"name": "withdraw",
			"outputs": [],
			"stateMutability": "nonpayable",
			"type": "function"
		}
	]
}